{
	"Documents/MagnetAI/OrderSystem/src/MagnetAI.sol": {
		"MagnetAI": {
			"abi": [
				{
					"inputs": [],
					"stateMutability": "nonpayable",
					"type": "constructor"
				},
				{
					"inputs": [
						{
							"internalType": "uint256",
							"name": "botHandle",
							"type": "uint256"
						}
					],
					"name": "BotHandleHasExisted",
					"type": "error"
				},
				{
					"inputs": [
						{
							"internalType": "uint256",
							"name": "inputAmount",
							"type": "uint256"
						},
						{
							"internalType": "uint256",
							"name": "maxAmount",
							"type": "uint256"
						}
					],
					"name": "ExceedProofMaxAmount",
					"type": "error"
				},
				{
					"inputs": [
						{
							"internalType": "uint256",
							"name": "botHandleLength",
							"type": "uint256"
						},
						{
							"internalType": "uint256",
							"name": "workloadLength",
							"type": "uint256"
						},
						{
							"internalType": "uint256",
							"name": "callNumberLength",
							"type": "uint256"
						}
					],
					"name": "InvalidProof",
					"type": "error"
				},
				{
					"inputs": [
						{
							"internalType": "uint256",
							"name": "botHandle",
							"type": "uint256"
						}
					],
					"name": "NonexistentBotHandle",
					"type": "error"
				},
				{
					"inputs": [
						{
							"internalType": "uint256",
							"name": "modelId",
							"type": "uint256"
						}
					],
					"name": "NonexistentModel",
					"type": "error"
				},
				{
					"inputs": [
						{
							"internalType": "uint256",
							"name": "subnetId",
							"type": "uint256"
						}
					],
					"name": "NonexistentModelManager",
					"type": "error"
				},
				{
					"inputs": [
						{
							"internalType": "uint256",
							"name": "subnetId",
							"type": "uint256"
						}
					],
					"name": "NonexistentSubnet",
					"type": "error"
				},
				{
					"inputs": [
						{
							"internalType": "address",
							"name": "caller",
							"type": "address"
						},
						{
							"internalType": "address",
							"name": "owner",
							"type": "address"
						}
					],
					"name": "NotBotOwner",
					"type": "error"
				},
				{
					"inputs": [
						{
							"internalType": "address",
							"name": "caller",
							"type": "address"
						},
						{
							"internalType": "address",
							"name": "owner",
							"type": "address"
						}
					],
					"name": "NotModelManagerOwner",
					"type": "error"
				},
				{
					"inputs": [
						{
							"internalType": "address",
							"name": "caller",
							"type": "address"
						},
						{
							"internalType": "address",
							"name": "owner",
							"type": "address"
						}
					],
					"name": "NotModelOwner",
					"type": "error"
				},
				{
					"inputs": [
						{
							"internalType": "address",
							"name": "caller",
							"type": "address"
						},
						{
							"internalType": "address",
							"name": "owner",
							"type": "address"
						}
					],
					"name": "NotSubnetOwner",
					"type": "error"
				},
				{
					"inputs": [
						{
							"internalType": "address",
							"name": "owner",
							"type": "address"
						}
					],
					"name": "OwnableInvalidOwner",
					"type": "error"
				},
				{
					"inputs": [
						{
							"internalType": "address",
							"name": "account",
							"type": "address"
						}
					],
					"name": "OwnableUnauthorizedAccount",
					"type": "error"
				},
				{
					"inputs": [],
					"name": "ReentrancyGuardReentrantCall",
					"type": "error"
				},
				{
					"inputs": [
						{
							"internalType": "uint256",
							"name": "indexOfArray",
							"type": "uint256"
						}
					],
					"name": "RewardCalculationFailed",
					"type": "error"
				},
				{
					"anonymous": false,
					"inputs": [
						{
							"indexed": false,
							"internalType": "address",
							"name": "account",
							"type": "address"
						},
						{
							"indexed": false,
							"internalType": "uint256",
							"name": "botHandle",
							"type": "uint256"
						},
						{
							"indexed": false,
							"internalType": "uint256",
							"name": "modelManagerId",
							"type": "uint256"
						}
					],
					"name": "BotCreated",
					"type": "event"
				},
				{
					"anonymous": false,
					"inputs": [
						{
							"indexed": false,
							"internalType": "uint256",
							"name": "botHandle",
							"type": "uint256"
						},
						{
							"indexed": false,
							"internalType": "address",
							"name": "user",
							"type": "address"
						}
					],
					"name": "BotFollowed",
					"type": "event"
				},
				{
					"anonymous": false,
					"inputs": [
						{
							"indexed": false,
							"internalType": "address",
							"name": "user",
							"type": "address"
						},
						{
							"indexed": false,
							"internalType": "uint256",
							"name": "value",
							"type": "uint256"
						}
					],
					"name": "BotPayment",
					"type": "event"
				},
				{
					"anonymous": false,
					"inputs": [
						{
							"indexed": false,
							"internalType": "uint256",
							"name": "botHandle",
							"type": "uint256"
						},
						{
							"indexed": false,
							"internalType": "uint256",
							"name": "newPrice",
							"type": "uint256"
						}
					],
					"name": "BotPriceModified",
					"type": "event"
				},
				{
					"anonymous": false,
					"inputs": [
						{
							"indexed": false,
							"internalType": "uint256",
							"name": "modelManagerId",
							"type": "uint256"
						},
						{
							"indexed": false,
							"internalType": "address",
							"name": "account",
							"type": "address"
						}
					],
					"name": "ModelManagerRegistered",
					"type": "event"
				},
				{
					"anonymous": false,
					"inputs": [
						{
							"indexed": false,
							"internalType": "uint256",
							"name": "modelManagerId",
							"type": "uint256"
						},
						{
							"indexed": false,
							"internalType": "string",
							"name": "url",
							"type": "string"
						}
					],
					"name": "ModelManagerUrlModified",
					"type": "event"
				},
				{
					"anonymous": false,
					"inputs": [
						{
							"indexed": false,
							"internalType": "uint256",
							"name": "modelId",
							"type": "uint256"
						},
						{
							"indexed": false,
							"internalType": "uint256",
							"name": "newPrice",
							"type": "uint256"
						}
					],
					"name": "ModelPriceModified",
					"type": "event"
				},
				{
					"anonymous": false,
					"inputs": [
						{
							"indexed": false,
							"internalType": "uint256",
							"name": "modelId",
							"type": "uint256"
						},
						{
							"indexed": false,
							"internalType": "address",
							"name": "account",
							"type": "address"
						}
					],
					"name": "ModelRegistered",
					"type": "event"
				},
				{
					"anonymous": false,
					"inputs": [
						{
							"indexed": true,
							"internalType": "address",
							"name": "previousOwner",
							"type": "address"
						},
						{
							"indexed": true,
							"internalType": "address",
							"name": "newOwner",
							"type": "address"
						}
					],
					"name": "OwnershipTransferred",
					"type": "event"
				},
				{
					"anonymous": false,
					"inputs": [
						{
							"indexed": false,
							"internalType": "uint256[]",
							"name": "botHandle",
							"type": "uint256[]"
						},
						{
							"indexed": false,
							"internalType": "uint256[]",
							"name": "workload",
							"type": "uint256[]"
						},
						{
							"indexed": false,
							"internalType": "uint256[]",
							"name": "callNumber",
							"type": "uint256[]"
						}
					],
					"name": "ServiceProofSubmitted",
					"type": "event"
				},
				{
					"anonymous": false,
					"inputs": [
						{
							"indexed": false,
							"internalType": "uint256",
							"name": "subnetId",
							"type": "uint256"
						},
						{
							"indexed": false,
							"internalType": "address",
							"name": "account",
							"type": "address"
						}
					],
					"name": "SubnetRegistered",
					"type": "event"
				},
				{
					"inputs": [
						{
							"internalType": "uint256",
							"name": "botHandle",
							"type": "uint256"
						}
					],
					"name": "botHandleRegistry",
					"outputs": [
						{
							"internalType": "bool",
							"name": "isRegistered",
							"type": "bool"
						}
					],
					"stateMutability": "view",
					"type": "function"
				},
				{
					"inputs": [
						{
							"internalType": "uint256",
							"name": "botHandle",
							"type": "uint256"
						}
					],
					"name": "bots",
					"outputs": [
						{
							"internalType": "uint256",
							"name": "botHandle",
							"type": "uint256"
						},
						{
							"internalType": "uint256",
							"name": "modelManagerId",
							"type": "uint256"
						},
						{
							"internalType": "address",
							"name": "owner",
							"type": "address"
						},
						{
							"internalType": "string",
							"name": "metadata",
							"type": "string"
						},
						{
							"internalType": "uint256",
							"name": "price",
							"type": "uint256"
						}
					],
					"stateMutability": "view",
					"type": "function"
				},
				{
					"inputs": [
						{
							"internalType": "uint256",
							"name": "_botHandle",
							"type": "uint256"
						}
					],
					"name": "checkIfBotTokenIssued",
					"outputs": [
						{
							"internalType": "bool",
							"name": "",
							"type": "bool"
						}
					],
					"stateMutability": "view",
					"type": "function"
				},
				{
					"inputs": [
						{
							"internalType": "uint256",
							"name": "_botHandle",
							"type": "uint256"
						},
						{
							"internalType": "uint256",
							"name": "_modelManagerId",
							"type": "uint256"
						},
						{
							"internalType": "string",
							"name": "_metadata",
							"type": "string"
						},
						{
							"internalType": "uint256",
							"name": "_price",
							"type": "uint256"
						}
					],
					"name": "createBot",
					"outputs": [],
					"stateMutability": "nonpayable",
					"type": "function"
				},
				{
					"inputs": [
						{
							"internalType": "uint256",
							"name": "_botHandle",
							"type": "uint256"
						}
					],
					"name": "followBot",
					"outputs": [],
					"stateMutability": "nonpayable",
					"type": "function"
				},
				{
					"inputs": [
						{
							"internalType": "uint256",
							"name": "_botHandle",
							"type": "uint256"
						}
					],
					"name": "getBotInfo",
					"outputs": [
						{
							"components": [
								{
									"internalType": "uint256",
									"name": "botHandle",
									"type": "uint256"
								},
								{
									"internalType": "uint256",
									"name": "modelManagerId",
									"type": "uint256"
								},
								{
									"internalType": "address",
									"name": "owner",
									"type": "address"
								},
								{
									"internalType": "string",
									"name": "metadata",
									"type": "string"
								},
								{
									"internalType": "uint256",
									"name": "price",
									"type": "uint256"
								}
							],
							"internalType": "struct IMagnetAI.Bot",
							"name": "",
							"type": "tuple"
						}
					],
					"stateMutability": "view",
					"type": "function"
				},
				{
					"inputs": [
						{
							"internalType": "uint256",
							"name": "_botHandle",
							"type": "uint256"
						}
					],
					"name": "getBotModelManagerId",
					"outputs": [
						{
							"internalType": "uint256",
							"name": "",
							"type": "uint256"
						}
					],
					"stateMutability": "view",
					"type": "function"
				},
				{
					"inputs": [
						{
							"internalType": "uint256",
							"name": "_botHandle",
							"type": "uint256"
						}
					],
					"name": "getBotOwner",
					"outputs": [
						{
							"internalType": "address",
							"name": "",
							"type": "address"
						}
					],
					"stateMutability": "view",
					"type": "function"
				},
				{
					"inputs": [
						{
							"internalType": "uint256",
							"name": "_botHandle",
							"type": "uint256"
						}
					],
					"name": "getBotPrice",
					"outputs": [
						{
							"internalType": "uint256",
							"name": "",
							"type": "uint256"
						}
					],
					"stateMutability": "view",
					"type": "function"
				},
				{
					"inputs": [
						{
							"internalType": "uint256",
							"name": "_modelId",
							"type": "uint256"
						}
					],
					"name": "getModelInfo",
					"outputs": [
						{
							"components": [
								{
									"internalType": "uint256",
									"name": "modelId",
									"type": "uint256"
								},
								{
									"internalType": "address",
									"name": "owner",
									"type": "address"
								},
								{
									"internalType": "string",
									"name": "metadata",
									"type": "string"
								},
								{
									"internalType": "uint256",
									"name": "price",
									"type": "uint256"
								}
							],
							"internalType": "struct IMagnetAI.AIModel",
							"name": "",
							"type": "tuple"
						}
					],
					"stateMutability": "view",
					"type": "function"
				},
				{
					"inputs": [
						{
							"internalType": "uint256",
							"name": "_modelManagerId",
							"type": "uint256"
						}
					],
					"name": "getModelManagerInfo",
					"outputs": [
						{
							"components": [
								{
									"internalType": "uint256",
									"name": "modelManagerId",
									"type": "uint256"
								},
								{
									"internalType": "uint256",
									"name": "subnetId",
									"type": "uint256"
								},
								{
									"internalType": "uint256",
									"name": "modelId",
									"type": "uint256"
								},
								{
									"internalType": "address",
									"name": "owner",
									"type": "address"
								},
								{
									"internalType": "string",
									"name": "url",
									"type": "string"
								}
							],
							"internalType": "struct IMagnetAI.ModelManager",
							"name": "",
							"type": "tuple"
						}
					],
					"stateMutability": "view",
					"type": "function"
				},
				{
					"inputs": [
						{
							"internalType": "uint256",
							"name": "_modelManagerId",
							"type": "uint256"
						}
					],
					"name": "getModelManagerModelId",
					"outputs": [
						{
							"internalType": "uint256",
							"name": "",
							"type": "uint256"
						}
					],
					"stateMutability": "view",
					"type": "function"
				},
				{
					"inputs": [
						{
							"internalType": "uint256",
							"name": "_modelManagerId",
							"type": "uint256"
						}
					],
					"name": "getModelManagerSubnetId",
					"outputs": [
						{
							"internalType": "uint256",
							"name": "",
							"type": "uint256"
						}
					],
					"stateMutability": "view",
					"type": "function"
				},
				{
					"inputs": [
						{
							"internalType": "uint256",
							"name": "_modelId",
							"type": "uint256"
						}
					],
					"name": "getModelPrice",
					"outputs": [
						{
							"internalType": "uint256",
							"name": "",
							"type": "uint256"
						}
					],
					"stateMutability": "view",
					"type": "function"
				},
				{
					"inputs": [
						{
							"internalType": "uint256",
							"name": "_subnetId",
							"type": "uint256"
						}
					],
					"name": "getSubnetInfo",
					"outputs": [
						{
							"components": [
								{
									"internalType": "uint256",
									"name": "subnetId",
									"type": "uint256"
								},
								{
									"internalType": "address",
									"name": "owner",
									"type": "address"
								}
							],
							"internalType": "struct IMagnetAI.Subnet",
							"name": "",
							"type": "tuple"
						}
					],
					"stateMutability": "view",
					"type": "function"
				},
				{
					"inputs": [
						{
							"internalType": "uint256",
							"name": "_subnetId",
							"type": "uint256"
						}
					],
					"name": "getSubnetOwner",
					"outputs": [
						{
							"internalType": "address",
							"name": "",
							"type": "address"
						}
					],
					"stateMutability": "view",
					"type": "function"
				},
				{
					"inputs": [
						{
							"internalType": "uint256",
							"name": "botHandle",
							"type": "uint256"
						}
					],
					"name": "issuance",
					"outputs": [
						{
							"internalType": "address",
							"name": "tokenAddr",
							"type": "address"
						}
					],
					"stateMutability": "view",
					"type": "function"
				},
				{
					"inputs": [
						{
							"internalType": "uint256",
							"name": "modelManagerId",
							"type": "uint256"
						}
					],
					"name": "modelManagers",
					"outputs": [
						{
							"internalType": "uint256",
							"name": "modelManagerId",
							"type": "uint256"
						},
						{
							"internalType": "uint256",
							"name": "subnetId",
							"type": "uint256"
						},
						{
							"internalType": "uint256",
							"name": "modelId",
							"type": "uint256"
						},
						{
							"internalType": "address",
							"name": "owner",
							"type": "address"
						},
						{
							"internalType": "string",
							"name": "url",
							"type": "string"
						}
					],
					"stateMutability": "view",
					"type": "function"
				},
				{
					"inputs": [
						{
							"internalType": "uint256",
							"name": "modelId",
							"type": "uint256"
						}
					],
					"name": "models",
					"outputs": [
						{
							"internalType": "uint256",
							"name": "modelId",
							"type": "uint256"
						},
						{
							"internalType": "address",
							"name": "owner",
							"type": "address"
						},
						{
							"internalType": "string",
							"name": "metadata",
							"type": "string"
						},
						{
							"internalType": "uint256",
							"name": "price",
							"type": "uint256"
						}
					],
					"stateMutability": "view",
					"type": "function"
				},
				{
					"inputs": [],
					"name": "owner",
					"outputs": [
						{
							"internalType": "address",
							"name": "",
							"type": "address"
						}
					],
					"stateMutability": "view",
					"type": "function"
				},
				{
					"inputs": [
						{
							"internalType": "uint256",
							"name": "_botHandle",
							"type": "uint256"
						}
					],
					"name": "payForBot",
					"outputs": [],
					"stateMutability": "payable",
					"type": "function"
				},
				{
					"inputs": [
						{
							"internalType": "string",
							"name": "_metadata",
							"type": "string"
						},
						{
							"internalType": "uint256",
							"name": "_price",
							"type": "uint256"
						}
					],
					"name": "registerModel",
					"outputs": [],
					"stateMutability": "nonpayable",
					"type": "function"
				},
				{
					"inputs": [
						{
							"internalType": "uint256",
							"name": "_modelId",
							"type": "uint256"
						},
						{
							"internalType": "uint256",
							"name": "_subnetId",
							"type": "uint256"
						},
						{
							"internalType": "string",
							"name": "_url",
							"type": "string"
						}
					],
					"name": "registerModelManager",
					"outputs": [],
					"stateMutability": "nonpayable",
					"type": "function"
				},
				{
					"inputs": [],
					"name": "registerSubnet",
					"outputs": [],
					"stateMutability": "nonpayable",
					"type": "function"
				},
				{
					"inputs": [],
					"name": "renounceOwnership",
					"outputs": [],
					"stateMutability": "nonpayable",
					"type": "function"
				},
				{
					"inputs": [
						{
							"internalType": "address",
							"name": "account",
							"type": "address"
						}
					],
					"name": "reward",
					"outputs": [
						{
							"internalType": "uint256",
							"name": "balance",
							"type": "uint256"
						}
					],
					"stateMutability": "view",
					"type": "function"
				},
				{
					"inputs": [
						{
							"internalType": "uint256",
							"name": "_botHandle",
							"type": "uint256"
						},
						{
							"internalType": "uint256",
							"name": "_price",
							"type": "uint256"
						}
					],
					"name": "setBotPrice",
					"outputs": [],
					"stateMutability": "nonpayable",
					"type": "function"
				},
				{
					"inputs": [
						{
							"internalType": "uint256",
							"name": "_modelManagerId",
							"type": "uint256"
						},
						{
							"internalType": "string",
							"name": "_newUrl",
							"type": "string"
						}
					],
					"name": "setModelManagerUrl",
					"outputs": [],
					"stateMutability": "nonpayable",
					"type": "function"
				},
				{
					"inputs": [
						{
							"internalType": "uint256",
							"name": "_modelId",
							"type": "uint256"
						},
						{
							"internalType": "uint256",
							"name": "_price",
							"type": "uint256"
						}
					],
					"name": "setModelPrice",
					"outputs": [],
					"stateMutability": "nonpayable",
					"type": "function"
				},
				{
					"inputs": [
						{
							"internalType": "uint256[]",
							"name": "_botHandleArray",
							"type": "uint256[]"
						},
						{
							"internalType": "uint256[]",
							"name": "_workloadArray",
							"type": "uint256[]"
						},
						{
							"internalType": "uint256[]",
							"name": "_callNumberArray",
							"type": "uint256[]"
						}
					],
					"name": "submitServiceProof",
					"outputs": [],
					"stateMutability": "nonpayable",
					"type": "function"
				},
				{
					"inputs": [
						{
							"internalType": "uint256",
							"name": "subnetId",
							"type": "uint256"
						}
					],
					"name": "subnets",
					"outputs": [
						{
							"internalType": "uint256",
							"name": "subnetId",
							"type": "uint256"
						},
						{
							"internalType": "address",
							"name": "owner",
							"type": "address"
						}
					],
					"stateMutability": "view",
					"type": "function"
				},
				{
					"inputs": [
						{
							"internalType": "address",
							"name": "newOwner",
							"type": "address"
						}
					],
					"name": "transferOwnership",
					"outputs": [],
					"stateMutability": "nonpayable",
					"type": "function"
				},
				{
					"inputs": [
						{
							"internalType": "address",
							"name": "user",
							"type": "address"
						}
					],
					"name": "usersBalance",
					"outputs": [
						{
							"internalType": "uint256",
							"name": "balance",
							"type": "uint256"
						}
					],
					"stateMutability": "view",
					"type": "function"
				}
			],
			"devdoc": {
				"errors": {
					"OwnableInvalidOwner(address)": [
						{
							"details": "The owner is not a valid owner account. (eg. `address(0)`)"
						}
					],
					"OwnableUnauthorizedAccount(address)": [
						{
							"details": "The caller account is not authorized to perform an operation."
						}
					],
					"ReentrancyGuardReentrantCall()": [
						{
							"details": "Unauthorized reentrant call."
						}
					]
				},
				"kind": "dev",
				"methods": {
					"owner()": {
						"details": "Returns the address of the current owner."
					},
					"renounceOwnership()": {
						"details": "Leaves the contract without owner. It will not be possible to call `onlyOwner` functions. Can only be called by the current owner. NOTE: Renouncing ownership will leave the contract without an owner, thereby disabling any functionality that is only available to the owner."
					},
					"transferOwnership(address)": {
						"details": "Transfers ownership of the contract to a new account (`newOwner`). Can only be called by the current owner."
					}
				},
				"version": 1
			},
			"evm": {
				"assembly": "    /* \"Documents/MagnetAI/OrderSystem/src/MagnetAI.sol\":263:11505  contract MagnetAI is IMagnetAI, Ownable, ReentrancyGuard {... */\n  mstore(0x40, 0x80)\n    /* \"Documents/MagnetAI/OrderSystem/src/MagnetAI.sol\":1071:1107  constructor() Ownable(msg.sender) {} */\n  callvalue\n  dup1\n  iszero\n  tag_1\n  jumpi\n  0x00\n  dup1\n  revert\ntag_1:\n  pop\n    /* \"Documents/MagnetAI/OrderSystem/src/MagnetAI.sol\":1093:1103  msg.sender */\n  caller\n    /* \"@openzeppelin/contracts/access/Ownable.sol\":1297:1298  0 */\n  0x00\n    /* \"@openzeppelin/contracts/access/Ownable.sol\":1273:1299  initialOwner == address(0) */\n  0xffffffffffffffffffffffffffffffffffffffff\n  and\n    /* \"@openzeppelin/contracts/access/Ownable.sol\":1273:1285  initialOwner */\n  dup2\n    /* \"@openzeppelin/contracts/access/Ownable.sol\":1273:1299  initialOwner == address(0) */\n  0xffffffffffffffffffffffffffffffffffffffff\n  and\n  sub\n    /* \"@openzeppelin/contracts/access/Ownable.sol\":1269:1364  if (initialOwner == address(0)) {... */\n  tag_6\n  jumpi\n    /* \"@openzeppelin/contracts/access/Ownable.sol\":1350:1351  0 */\n  0x00\n    /* \"@openzeppelin/contracts/access/Ownable.sol\":1322:1353  OwnableInvalidOwner(address(0)) */\n  mload(0x40)\n  0x1e4fbdf700000000000000000000000000000000000000000000000000000000\n  dup2\n  mstore\n  0x04\n  add\n  tag_7\n  swap2\n  swap1\n  tag_8\n  jump\t// in\ntag_7:\n  mload(0x40)\n  dup1\n  swap2\n  sub\n  swap1\n  revert\n    /* \"@openzeppelin/contracts/access/Ownable.sol\":1269:1364  if (initialOwner == address(0)) {... */\ntag_6:\n    /* \"@openzeppelin/contracts/access/Ownable.sol\":1373:1405  _transferOwnership(initialOwner) */\n  tag_9\n    /* \"@openzeppelin/contracts/access/Ownable.sol\":1392:1404  initialOwner */\n  dup2\n    /* \"@openzeppelin/contracts/access/Ownable.sol\":1373:1391  _transferOwnership */\n  shl(0x20, tag_10)\n    /* \"@openzeppelin/contracts/access/Ownable.sol\":1373:1405  _transferOwnership(initialOwner) */\n  0x20\n  shr\n  jump\t// in\ntag_9:\n    /* \"@openzeppelin/contracts/access/Ownable.sol\":1225:1412  constructor(address initialOwner) {... */\n  pop\n    /* \"@openzeppelin/contracts/utils/ReentrancyGuard.sol\":1713:1714  1 */\n  0x01\n    /* \"@openzeppelin/contracts/utils/ReentrancyGuard.sol\":1917:1924  _status */\n  dup1\n    /* \"@openzeppelin/contracts/utils/ReentrancyGuard.sol\":1917:1938  _status = NOT_ENTERED */\n  dup2\n  swap1\n  sstore\n  pop\n    /* \"Documents/MagnetAI/OrderSystem/src/MagnetAI.sol\":263:11505  contract MagnetAI is IMagnetAI, Ownable, ReentrancyGuard {... */\n  jump(tag_13)\n    /* \"@openzeppelin/contracts/access/Ownable.sol\":2912:3099  function _transferOwnership(address newOwner) internal virtual {... */\ntag_10:\n    /* \"@openzeppelin/contracts/access/Ownable.sol\":2985:3001  address oldOwner */\n  0x00\n    /* \"@openzeppelin/contracts/access/Ownable.sol\":3004:3010  _owner */\n  dup1\n  0x00\n  swap1\n  sload\n  swap1\n  0x0100\n  exp\n  swap1\n  div\n  0xffffffffffffffffffffffffffffffffffffffff\n  and\n    /* \"@openzeppelin/contracts/access/Ownable.sol\":2985:3010  address oldOwner = _owner */\n  swap1\n  pop\n    /* \"@openzeppelin/contracts/access/Ownable.sol\":3029:3037  newOwner */\n  dup2\n    /* \"@openzeppelin/contracts/access/Ownable.sol\":3020:3026  _owner */\n  0x00\n  dup1\n    /* \"@openzeppelin/contracts/access/Ownable.sol\":3020:3037  _owner = newOwner */\n  0x0100\n  exp\n  dup2\n  sload\n  dup2\n  0xffffffffffffffffffffffffffffffffffffffff\n  mul\n  not\n  and\n  swap1\n  dup4\n  0xffffffffffffffffffffffffffffffffffffffff\n  and\n  mul\n  or\n  swap1\n  sstore\n  pop\n    /* \"@openzeppelin/contracts/access/Ownable.sol\":3083:3091  newOwner */\n  dup2\n    /* \"@openzeppelin/contracts/access/Ownable.sol\":3052:3092  OwnershipTransferred(oldOwner, newOwner) */\n  0xffffffffffffffffffffffffffffffffffffffff\n  and\n    /* \"@openzeppelin/contracts/access/Ownable.sol\":3073:3081  oldOwner */\n  dup2\n    /* \"@openzeppelin/contracts/access/Ownable.sol\":3052:3092  OwnershipTransferred(oldOwner, newOwner) */\n  0xffffffffffffffffffffffffffffffffffffffff\n  and\n  0x8be0079c531659141344cd1fd0a4f28419497f9722a3daafe3b4186f6b6457e0\n  mload(0x40)\n  mload(0x40)\n  dup1\n  swap2\n  sub\n  swap1\n  log3\n    /* \"@openzeppelin/contracts/access/Ownable.sol\":2975:3099  {... */\n  pop\n    /* \"@openzeppelin/contracts/access/Ownable.sol\":2912:3099  function _transferOwnership(address newOwner) internal virtual {... */\n  pop\n  jump\t// out\n    /* \"#utility.yul\":7:133   */\ntag_15:\n    /* \"#utility.yul\":44:51   */\n  0x00\n    /* \"#utility.yul\":84:126   */\n  0xffffffffffffffffffffffffffffffffffffffff\n    /* \"#utility.yul\":77:82   */\n  dup3\n    /* \"#utility.yul\":73:127   */\n  and\n    /* \"#utility.yul\":62:127   */\n  swap1\n  pop\n    /* \"#utility.yul\":7:133   */\n  swap2\n  swap1\n  pop\n  jump\t// out\n    /* \"#utility.yul\":139:235   */\ntag_16:\n    /* \"#utility.yul\":176:183   */\n  0x00\n    /* \"#utility.yul\":205:229   */\n  tag_21\n    /* \"#utility.yul\":223:228   */\n  dup3\n    /* \"#utility.yul\":205:229   */\n  tag_15\n  jump\t// in\ntag_21:\n    /* \"#utility.yul\":194:229   */\n  swap1\n  pop\n    /* \"#utility.yul\":139:235   */\n  swap2\n  swap1\n  pop\n  jump\t// out\n    /* \"#utility.yul\":241:359   */\ntag_17:\n    /* \"#utility.yul\":328:352   */\n  tag_23\n    /* \"#utility.yul\":346:351   */\n  dup2\n    /* \"#utility.yul\":328:352   */\n  tag_16\n  jump\t// in\ntag_23:\n    /* \"#utility.yul\":323:326   */\n  dup3\n    /* \"#utility.yul\":316:353   */\n  mstore\n    /* \"#utility.yul\":241:359   */\n  pop\n  pop\n  jump\t// out\n    /* \"#utility.yul\":365:587   */\ntag_8:\n    /* \"#utility.yul\":458:462   */\n  0x00\n    /* \"#utility.yul\":496:498   */\n  0x20\n    /* \"#utility.yul\":485:494   */\n  dup3\n    /* \"#utility.yul\":481:499   */\n  add\n    /* \"#utility.yul\":473:499   */\n  swap1\n  pop\n    /* \"#utility.yul\":509:580   */\n  tag_25\n    /* \"#utility.yul\":577:578   */\n  0x00\n    /* \"#utility.yul\":566:575   */\n  dup4\n    /* \"#utility.yul\":562:579   */\n  add\n    /* \"#utility.yul\":553:559   */\n  dup5\n    /* \"#utility.yul\":509:580   */\n  tag_17\n  jump\t// in\ntag_25:\n    /* \"#utility.yul\":365:587   */\n  swap3\n  swap2\n  pop\n  pop\n  jump\t// out\n    /* \"Documents/MagnetAI/OrderSystem/src/MagnetAI.sol\":263:11505  contract MagnetAI is IMagnetAI, Ownable, ReentrancyGuard {... */\ntag_13:\n  dataSize(sub_0)\n  dup1\n  dataOffset(sub_0)\n  0x00\n  codecopy\n  0x00\n  return\nstop\n\nsub_0: assembly {\n        /* \"Documents/MagnetAI/OrderSystem/src/MagnetAI.sol\":263:11505  contract MagnetAI is IMagnetAI, Ownable, ReentrancyGuard {... */\n      mstore(0x40, 0x80)\n      jumpi(tag_1, lt(calldatasize, 0x04))\n      shr(0xe0, calldataload(0x00))\n      dup1\n      0x715018a6\n      gt\n      tag_35\n      jumpi\n      dup1\n      0xd18c2e5f\n      gt\n      tag_36\n      jumpi\n      dup1\n      0xeec49b4d\n      gt\n      tag_37\n      jumpi\n      dup1\n      0xeec49b4d\n      eq\n      tag_30\n      jumpi\n      dup1\n      0xefb66ee8\n      eq\n      tag_31\n      jumpi\n      dup1\n      0xf221ddb9\n      eq\n      tag_32\n      jumpi\n      dup1\n      0xf2fde38b\n      eq\n      tag_33\n      jumpi\n      dup1\n      0xf568d4e4\n      eq\n      tag_34\n      jumpi\n      jump(tag_1)\n    tag_37:\n      dup1\n      0xd18c2e5f\n      eq\n      tag_26\n      jumpi\n      dup1\n      0xd5cb03ab\n      eq\n      tag_27\n      jumpi\n      dup1\n      0xd941db2d\n      eq\n      tag_28\n      jumpi\n      dup1\n      0xe60d34d7\n      eq\n      tag_29\n      jumpi\n      jump(tag_1)\n    tag_36:\n      dup1\n      0x846786d1\n      gt\n      tag_38\n      jumpi\n      dup1\n      0x846786d1\n      eq\n      tag_22\n      jumpi\n      dup1\n      0x8da5cb5b\n      eq\n      tag_23\n      jumpi\n      dup1\n      0x91e359c4\n      eq\n      tag_24\n      jumpi\n      dup1\n      0xa684fa5d\n      eq\n      tag_25\n      jumpi\n      jump(tag_1)\n    tag_38:\n      dup1\n      0x715018a6\n      eq\n      tag_18\n      jumpi\n      dup1\n      0x76be4d84\n      eq\n      tag_19\n      jumpi\n      dup1\n      0x805fa873\n      eq\n      tag_20\n      jumpi\n      dup1\n      0x81a43b42\n      eq\n      tag_21\n      jumpi\n      jump(tag_1)\n    tag_35:\n      dup1\n      0x49efec4f\n      gt\n      tag_39\n      jumpi\n      dup1\n      0x6353586b\n      gt\n      tag_40\n      jumpi\n      dup1\n      0x6353586b\n      eq\n      tag_14\n      jumpi\n      dup1\n      0x65a20227\n      eq\n      tag_15\n      jumpi\n      dup1\n      0x69c355d8\n      eq\n      tag_16\n      jumpi\n      dup1\n      0x6a030ca9\n      eq\n      tag_17\n      jumpi\n      jump(tag_1)\n    tag_40:\n      dup1\n      0x49efec4f\n      eq\n      tag_10\n      jumpi\n      dup1\n      0x4c6da25d\n      eq\n      tag_11\n      jumpi\n      dup1\n      0x58324335\n      eq\n      tag_12\n      jumpi\n      dup1\n      0x5b1b4e8e\n      eq\n      tag_13\n      jumpi\n      jump(tag_1)\n    tag_39:\n      dup1\n      0x3aa4a4ad\n      gt\n      tag_41\n      jumpi\n      dup1\n      0x3aa4a4ad\n      eq\n      tag_6\n      jumpi\n      dup1\n      0x3d09f98b\n      eq\n      tag_7\n      jumpi\n      dup1\n      0x475726f7\n      eq\n      tag_8\n      jumpi\n      dup1\n      0x49bd293e\n      eq\n      tag_9\n      jumpi\n      jump(tag_1)\n    tag_41:\n      dup1\n      0x0d8735d4\n      eq\n      tag_2\n      jumpi\n      dup1\n      0x2210d31e\n      eq\n      tag_3\n      jumpi\n      dup1\n      0x248b761e\n      eq\n      tag_4\n      jumpi\n      dup1\n      0x30d5023f\n      eq\n      tag_5\n      jumpi\n    tag_1:\n      0x00\n      dup1\n      revert\n        /* \"Documents/MagnetAI/OrderSystem/src/MagnetAI.sol\":8099:8250  function getModelManagerSubnetId(uint256 _modelManagerId) public view returns (uint256) {... */\n    tag_2:\n      callvalue\n      dup1\n      iszero\n      tag_42\n      jumpi\n      0x00\n      dup1\n      revert\n    tag_42:\n      pop\n      tag_43\n      0x04\n      dup1\n      calldatasize\n      sub\n      dup2\n      add\n      swap1\n      tag_44\n      swap2\n      swap1\n      tag_45\n      jump\t// in\n    tag_44:\n      tag_46\n      jump\t// in\n    tag_43:\n      mload(0x40)\n      tag_47\n      swap2\n      swap1\n      tag_48\n      jump\t// in\n    tag_47:\n      mload(0x40)\n      dup1\n      swap2\n      sub\n      swap1\n      return\n        /* \"Documents/MagnetAI/OrderSystem/src/MagnetAI.sol\":2760:2983  function setModelPrice(uint256 _modelId, uint256 _price) external onlyModelOwner(_modelId) {... */\n    tag_3:\n      callvalue\n      dup1\n      iszero\n      tag_49\n      jumpi\n      0x00\n      dup1\n      revert\n    tag_49:\n      pop\n      tag_50\n      0x04\n      dup1\n      calldatasize\n      sub\n      dup2\n      add\n      swap1\n      tag_51\n      swap2\n      swap1\n      tag_52\n      jump\t// in\n    tag_51:\n      tag_53\n      jump\t// in\n    tag_50:\n      stop\n        /* \"Documents/MagnetAI/OrderSystem/src/MagnetAI.sol\":934:997  mapping(uint256 botHandle => address tokenAddr) public issuance */\n    tag_4:\n      callvalue\n      dup1\n      iszero\n      tag_54\n      jumpi\n      0x00\n      dup1\n      revert\n    tag_54:\n      pop\n      tag_55\n      0x04\n      dup1\n      calldatasize\n      sub\n      dup2\n      add\n      swap1\n      tag_56\n      swap2\n      swap1\n      tag_45\n      jump\t// in\n    tag_56:\n      tag_57\n      jump\t// in\n    tag_55:\n      mload(0x40)\n      tag_58\n      swap2\n      swap1\n      tag_59\n      jump\t// in\n    tag_58:\n      mload(0x40)\n      dup1\n      swap2\n      sub\n      swap1\n      return\n        /* \"Documents/MagnetAI/OrderSystem/src/MagnetAI.sol\":6299:6766  function submitServiceProof(uint256[] calldata _botHandleArray, uint256[] calldata _workloadArray, uint256[] calldata _callNumberArray) external {... */\n    tag_5:\n      callvalue\n      dup1\n      iszero\n      tag_60\n      jumpi\n      0x00\n      dup1\n      revert\n    tag_60:\n      pop\n      tag_61\n      0x04\n      dup1\n      calldatasize\n      sub\n      dup2\n      add\n      swap1\n      tag_62\n      swap2\n      swap1\n      tag_63\n      jump\t// in\n    tag_62:\n      tag_64\n      jump\t// in\n    tag_61:\n      stop\n        /* \"Documents/MagnetAI/OrderSystem/src/MagnetAI.sol\":8256:8405  function getModelManagerModelId(uint256 _modelManagerId) public view returns (uint256) {... */\n    tag_6:\n      callvalue\n      dup1\n      iszero\n      tag_65\n      jumpi\n      0x00\n      dup1\n      revert\n    tag_65:\n      pop\n      tag_66\n      0x04\n      dup1\n      calldatasize\n      sub\n      dup2\n      add\n      swap1\n      tag_67\n      swap2\n      swap1\n      tag_45\n      jump\t// in\n    tag_67:\n      tag_68\n      jump\t// in\n    tag_66:\n      mload(0x40)\n      tag_69\n      swap2\n      swap1\n      tag_48\n      jump\t// in\n    tag_69:\n      mload(0x40)\n      dup1\n      swap2\n      sub\n      swap1\n      return\n        /* \"Documents/MagnetAI/OrderSystem/src/MagnetAI.sol\":10472:10667  function payForBot(uint256 _botHandle) external payable {... */\n    tag_7:\n      tag_70\n      0x04\n      dup1\n      calldatasize\n      sub\n      dup2\n      add\n      swap1\n      tag_71\n      swap2\n      swap1\n      tag_45\n      jump\t// in\n    tag_71:\n      tag_72\n      jump\t// in\n    tag_70:\n      stop\n        /* \"Documents/MagnetAI/OrderSystem/src/MagnetAI.sol\":542:599  mapping(uint256 subnetId => Subnet subnet) public subnets */\n    tag_8:\n      callvalue\n      dup1\n      iszero\n      tag_73\n      jumpi\n      0x00\n      dup1\n      revert\n    tag_73:\n      pop\n      tag_74\n      0x04\n      dup1\n      calldatasize\n      sub\n      dup2\n      add\n      swap1\n      tag_75\n      swap2\n      swap1\n      tag_45\n      jump\t// in\n    tag_75:\n      tag_76\n      jump\t// in\n    tag_74:\n      mload(0x40)\n      tag_77\n      swap3\n      swap2\n      swap1\n      tag_78\n      jump\t// in\n    tag_77:\n      mload(0x40)\n      dup1\n      swap2\n      sub\n      swap1\n      return\n        /* \"Documents/MagnetAI/OrderSystem/src/MagnetAI.sol\":2361:2754  function registerModel(string calldata _metadata, uint256 _price) external onlyOwner {... */\n    tag_9:\n      callvalue\n      dup1\n      iszero\n      tag_79\n      jumpi\n      0x00\n      dup1\n      revert\n    tag_79:\n      pop\n      tag_80\n      0x04\n      dup1\n      calldatasize\n      sub\n      dup2\n      add\n      swap1\n      tag_81\n      swap2\n      swap1\n      tag_82\n      jump\t// in\n    tag_81:\n      tag_83\n      jump\t// in\n    tag_80:\n      stop\n        /* \"Documents/MagnetAI/OrderSystem/src/MagnetAI.sol\":3912:4217  function registerSubnet() external onlyOwner {... */\n    tag_10:\n      callvalue\n      dup1\n      iszero\n      tag_84\n      jumpi\n      0x00\n      dup1\n      revert\n    tag_84:\n      pop\n      tag_85\n      tag_86\n      jump\t// in\n    tag_85:\n      stop\n        /* \"Documents/MagnetAI/OrderSystem/src/MagnetAI.sol\":10048:10318  function setBotPrice(uint256 _botHandle, uint256 _price) external onlyBotOwner(_botHandle) {... */\n    tag_11:\n      callvalue\n      dup1\n      iszero\n      tag_87\n      jumpi\n      0x00\n      dup1\n      revert\n    tag_87:\n      pop\n      tag_88\n      0x04\n      dup1\n      calldatasize\n      sub\n      dup2\n      add\n      swap1\n      tag_89\n      swap2\n      swap1\n      tag_52\n      jump\t// in\n    tag_89:\n      tag_90\n      jump\t// in\n    tag_88:\n      stop\n        /* \"Documents/MagnetAI/OrderSystem/src/MagnetAI.sol\":825:885  mapping(address user => uint256 balance) public usersBalance */\n    tag_12:\n      callvalue\n      dup1\n      iszero\n      tag_91\n      jumpi\n      0x00\n      dup1\n      revert\n    tag_91:\n      pop\n      tag_92\n      0x04\n      dup1\n      calldatasize\n      sub\n      dup2\n      add\n      swap1\n      tag_93\n      swap2\n      swap1\n      tag_94\n      jump\t// in\n    tag_93:\n      tag_95\n      jump\t// in\n    tag_92:\n      mload(0x40)\n      tag_96\n      swap2\n      swap1\n      tag_48\n      jump\t// in\n    tag_96:\n      mload(0x40)\n      dup1\n      swap2\n      sub\n      swap1\n      return\n        /* \"Documents/MagnetAI/OrderSystem/src/MagnetAI.sol\":3327:3477  function getModelPrice(uint256 _modelId) public view returns (uint256) {... */\n    tag_13:\n      callvalue\n      dup1\n      iszero\n      tag_97\n      jumpi\n      0x00\n      dup1\n      revert\n    tag_97:\n      pop\n      tag_98\n      0x04\n      dup1\n      calldatasize\n      sub\n      dup2\n      add\n      swap1\n      tag_99\n      swap2\n      swap1\n      tag_45\n      jump\t// in\n    tag_99:\n      tag_100\n      jump\t// in\n    tag_98:\n      mload(0x40)\n      tag_101\n      swap2\n      swap1\n      tag_48\n      jump\t// in\n    tag_101:\n      mload(0x40)\n      dup1\n      swap2\n      sub\n      swap1\n      return\n        /* \"Documents/MagnetAI/OrderSystem/src/MagnetAI.sol\":1003:1060  mapping(address account => uint256 balance) public reward */\n    tag_14:\n      callvalue\n      dup1\n      iszero\n      tag_102\n      jumpi\n      0x00\n      dup1\n      revert\n    tag_102:\n      pop\n      tag_103\n      0x04\n      dup1\n      calldatasize\n      sub\n      dup2\n      add\n      swap1\n      tag_104\n      swap2\n      swap1\n      tag_94\n      jump\t// in\n    tag_104:\n      tag_105\n      jump\t// in\n    tag_103:\n      mload(0x40)\n      tag_106\n      swap2\n      swap1\n      tag_48\n      jump\t// in\n    tag_106:\n      mload(0x40)\n      dup1\n      swap2\n      sub\n      swap1\n      return\n        /* \"Documents/MagnetAI/OrderSystem/src/MagnetAI.sol\":5174:5781  function registerModelManager(uint256 _modelId, uint256 _subnetId, string calldata _url) external onlyOwner {... */\n    tag_15:\n      callvalue\n      dup1\n      iszero\n      tag_107\n      jumpi\n      0x00\n      dup1\n      revert\n    tag_107:\n      pop\n      tag_108\n      0x04\n      dup1\n      calldatasize\n      sub\n      dup2\n      add\n      swap1\n      tag_109\n      swap2\n      swap1\n      tag_110\n      jump\t// in\n    tag_109:\n      tag_111\n      jump\t// in\n    tag_108:\n      stop\n        /* \"Documents/MagnetAI/OrderSystem/src/MagnetAI.sol\":9391:10042  function createBot(uint256 _botHandle, uint256 _modelManagerId, string memory _metadata, uint256 _price) public nonReentrant {... */\n    tag_16:\n      callvalue\n      dup1\n      iszero\n      tag_112\n      jumpi\n      0x00\n      dup1\n      revert\n    tag_112:\n      pop\n      tag_113\n      0x04\n      dup1\n      calldatasize\n      sub\n      dup2\n      add\n      swap1\n      tag_114\n      swap2\n      swap1\n      tag_115\n      jump\t// in\n    tag_114:\n      tag_116\n      jump\t// in\n    tag_113:\n      stop\n        /* \"Documents/MagnetAI/OrderSystem/src/MagnetAI.sol\":481:536  mapping(uint256 modelId => AIModel model) public models */\n    tag_17:\n      callvalue\n      dup1\n      iszero\n      tag_117\n      jumpi\n      0x00\n      dup1\n      revert\n    tag_117:\n      pop\n      tag_118\n      0x04\n      dup1\n      calldatasize\n      sub\n      dup2\n      add\n      swap1\n      tag_119\n      swap2\n      swap1\n      tag_45\n      jump\t// in\n    tag_119:\n      tag_120\n      jump\t// in\n    tag_118:\n      mload(0x40)\n      tag_121\n      swap5\n      swap4\n      swap3\n      swap2\n      swap1\n      tag_122\n      jump\t// in\n    tag_121:\n      mload(0x40)\n      dup1\n      swap2\n      sub\n      swap1\n      return\n        /* \"@openzeppelin/contracts/access/Ownable.sol\":2293:2394  function renounceOwnership() public virtual onlyOwner {... */\n    tag_18:\n      callvalue\n      dup1\n      iszero\n      tag_123\n      jumpi\n      0x00\n      dup1\n      revert\n    tag_123:\n      pop\n      tag_124\n      tag_125\n      jump\t// in\n    tag_124:\n      stop\n        /* \"Documents/MagnetAI/OrderSystem/src/MagnetAI.sol\":10673:10823  function getBotInfo(uint256 _botHandle) public view returns (Bot memory) {... */\n    tag_19:\n      callvalue\n      dup1\n      iszero\n      tag_126\n      jumpi\n      0x00\n      dup1\n      revert\n    tag_126:\n      pop\n      tag_127\n      0x04\n      dup1\n      calldatasize\n      sub\n      dup2\n      add\n      swap1\n      tag_128\n      swap2\n      swap1\n      tag_45\n      jump\t// in\n    tag_128:\n      tag_129\n      jump\t// in\n    tag_127:\n      mload(0x40)\n      tag_130\n      swap2\n      swap1\n      tag_131\n      jump\t// in\n    tag_130:\n      mload(0x40)\n      dup1\n      swap2\n      sub\n      swap1\n      return\n        /* \"Documents/MagnetAI/OrderSystem/src/MagnetAI.sol\":11167:11321  function getBotPrice(uint256 _botHandle) public view returns (uint256) {... */\n    tag_20:\n      callvalue\n      dup1\n      iszero\n      tag_132\n      jumpi\n      0x00\n      dup1\n      revert\n    tag_132:\n      pop\n      tag_133\n      0x04\n      dup1\n      calldatasize\n      sub\n      dup2\n      add\n      swap1\n      tag_134\n      swap2\n      swap1\n      tag_45\n      jump\t// in\n    tag_134:\n      tag_135\n      jump\t// in\n    tag_133:\n      mload(0x40)\n      tag_136\n      swap2\n      swap1\n      tag_48\n      jump\t// in\n    tag_136:\n      mload(0x40)\n      dup1\n      swap2\n      sub\n      swap1\n      return\n        /* \"Documents/MagnetAI/OrderSystem/src/MagnetAI.sol\":11007:11161  function getBotOwner(uint256 _botHandle) public view returns (address) {... */\n    tag_21:\n      callvalue\n      dup1\n      iszero\n      tag_137\n      jumpi\n      0x00\n      dup1\n      revert\n    tag_137:\n      pop\n      tag_138\n      0x04\n      dup1\n      calldatasize\n      sub\n      dup2\n      add\n      swap1\n      tag_139\n      swap2\n      swap1\n      tag_45\n      jump\t// in\n    tag_139:\n      tag_140\n      jump\t// in\n    tag_138:\n      mload(0x40)\n      tag_141\n      swap2\n      swap1\n      tag_59\n      jump\t// in\n    tag_141:\n      mload(0x40)\n      dup1\n      swap2\n      sub\n      swap1\n      return\n        /* \"Documents/MagnetAI/OrderSystem/src/MagnetAI.sol\":605:686  mapping(uint256 modelManagerId => ModelManager modelManager) public modelManagers */\n    tag_22:\n      callvalue\n      dup1\n      iszero\n      tag_142\n      jumpi\n      0x00\n      dup1\n      revert\n    tag_142:\n      pop\n      tag_143\n      0x04\n      dup1\n      calldatasize\n      sub\n      dup2\n      add\n      swap1\n      tag_144\n      swap2\n      swap1\n      tag_45\n      jump\t// in\n    tag_144:\n      tag_145\n      jump\t// in\n    tag_143:\n      mload(0x40)\n      tag_146\n      swap6\n      swap5\n      swap4\n      swap3\n      swap2\n      swap1\n      tag_147\n      jump\t// in\n    tag_146:\n      mload(0x40)\n      dup1\n      swap2\n      sub\n      swap1\n      return\n        /* \"@openzeppelin/contracts/access/Ownable.sol\":1638:1723  function owner() public view virtual returns (address) {... */\n    tag_23:\n      callvalue\n      dup1\n      iszero\n      tag_148\n      jumpi\n      0x00\n      dup1\n      revert\n    tag_148:\n      pop\n      tag_149\n      tag_150\n      jump\t// in\n    tag_149:\n      mload(0x40)\n      tag_151\n      swap2\n      swap1\n      tag_59\n      jump\t// in\n    tag_151:\n      mload(0x40)\n      dup1\n      swap2\n      sub\n      swap1\n      return\n        /* \"Documents/MagnetAI/OrderSystem/src/MagnetAI.sol\":4409:4564  function getSubnetInfo(uint256 _subnetId) public view returns (Subnet memory) {... */\n    tag_24:\n      callvalue\n      dup1\n      iszero\n      tag_152\n      jumpi\n      0x00\n      dup1\n      revert\n    tag_152:\n      pop\n      tag_153\n      0x04\n      dup1\n      calldatasize\n      sub\n      dup2\n      add\n      swap1\n      tag_154\n      swap2\n      swap1\n      tag_45\n      jump\t// in\n    tag_154:\n      tag_155\n      jump\t// in\n    tag_153:\n      mload(0x40)\n      tag_156\n      swap2\n      swap1\n      tag_157\n      jump\t// in\n    tag_156:\n      mload(0x40)\n      dup1\n      swap2\n      sub\n      swap1\n      return\n        /* \"Documents/MagnetAI/OrderSystem/src/MagnetAI.sol\":5787:6083  function setModelManagerUrl(uint256 _modelManagerId, string memory _newUrl) external onlyModelManagerOwner(_modelManagerId) {... */\n    tag_25:\n      callvalue\n      dup1\n      iszero\n      tag_158\n      jumpi\n      0x00\n      dup1\n      revert\n    tag_158:\n      pop\n      tag_159\n      0x04\n      dup1\n      calldatasize\n      sub\n      dup2\n      add\n      swap1\n      tag_160\n      swap2\n      swap1\n      tag_161\n      jump\t// in\n    tag_160:\n      tag_162\n      jump\t// in\n    tag_159:\n      stop\n        /* \"Documents/MagnetAI/OrderSystem/src/MagnetAI.sol\":747:819  mapping(uint256 botHandle => bool isRegistered) public botHandleRegistry */\n    tag_26:\n      callvalue\n      dup1\n      iszero\n      tag_163\n      jumpi\n      0x00\n      dup1\n      revert\n    tag_163:\n      pop\n      tag_164\n      0x04\n      dup1\n      calldatasize\n      sub\n      dup2\n      add\n      swap1\n      tag_165\n      swap2\n      swap1\n      tag_45\n      jump\t// in\n    tag_165:\n      tag_166\n      jump\t// in\n    tag_164:\n      mload(0x40)\n      tag_167\n      swap2\n      swap1\n      tag_168\n      jump\t// in\n    tag_167:\n      mload(0x40)\n      dup1\n      swap2\n      sub\n      swap1\n      return\n        /* \"Documents/MagnetAI/OrderSystem/src/MagnetAI.sol\":10829:11001  function getBotModelManagerId(uint256 _botHandle) public view returns (uint256) {... */\n    tag_27:\n      callvalue\n      dup1\n      iszero\n      tag_169\n      jumpi\n      0x00\n      dup1\n      revert\n    tag_169:\n      pop\n      tag_170\n      0x04\n      dup1\n      calldatasize\n      sub\n      dup2\n      add\n      swap1\n      tag_171\n      swap2\n      swap1\n      tag_45\n      jump\t// in\n    tag_171:\n      tag_172\n      jump\t// in\n    tag_170:\n      mload(0x40)\n      tag_173\n      swap2\n      swap1\n      tag_48\n      jump\t// in\n    tag_173:\n      mload(0x40)\n      dup1\n      swap2\n      sub\n      swap1\n      return\n        /* \"Documents/MagnetAI/OrderSystem/src/MagnetAI.sol\":10324:10466  function followBot(uint256 _botHandle) external {... */\n    tag_28:\n      callvalue\n      dup1\n      iszero\n      tag_174\n      jumpi\n      0x00\n      dup1\n      revert\n    tag_174:\n      pop\n      tag_175\n      0x04\n      dup1\n      calldatasize\n      sub\n      dup2\n      add\n      swap1\n      tag_176\n      swap2\n      swap1\n      tag_45\n      jump\t// in\n    tag_176:\n      tag_177\n      jump\t// in\n    tag_175:\n      stop\n        /* \"Documents/MagnetAI/OrderSystem/src/MagnetAI.sol\":4570:4726  function getSubnetOwner(uint256 _subnetId) public view returns (address) {... */\n    tag_29:\n      callvalue\n      dup1\n      iszero\n      tag_178\n      jumpi\n      0x00\n      dup1\n      revert\n    tag_178:\n      pop\n      tag_179\n      0x04\n      dup1\n      calldatasize\n      sub\n      dup2\n      add\n      swap1\n      tag_180\n      swap2\n      swap1\n      tag_45\n      jump\t// in\n    tag_180:\n      tag_181\n      jump\t// in\n    tag_179:\n      mload(0x40)\n      tag_182\n      swap2\n      swap1\n      tag_59\n      jump\t// in\n    tag_182:\n      mload(0x40)\n      dup1\n      swap2\n      sub\n      swap1\n      return\n        /* \"Documents/MagnetAI/OrderSystem/src/MagnetAI.sol\":7896:8093  function getModelManagerInfo(uint256 _modelManagerId) public view returns (ModelManager memory) {... */\n    tag_30:\n      callvalue\n      dup1\n      iszero\n      tag_183\n      jumpi\n      0x00\n      dup1\n      revert\n    tag_183:\n      pop\n      tag_184\n      0x04\n      dup1\n      calldatasize\n      sub\n      dup2\n      add\n      swap1\n      tag_185\n      swap2\n      swap1\n      tag_45\n      jump\t// in\n    tag_185:\n      tag_186\n      jump\t// in\n    tag_184:\n      mload(0x40)\n      tag_187\n      swap2\n      swap1\n      tag_188\n      jump\t// in\n    tag_187:\n      mload(0x40)\n      dup1\n      swap2\n      sub\n      swap1\n      return\n        /* \"Documents/MagnetAI/OrderSystem/src/MagnetAI.sol\":3171:3321  function getModelInfo(uint256 _modelId) public view returns (AIModel memory) {... */\n    tag_31:\n      callvalue\n      dup1\n      iszero\n      tag_189\n      jumpi\n      0x00\n      dup1\n      revert\n    tag_189:\n      pop\n      tag_190\n      0x04\n      dup1\n      calldatasize\n      sub\n      dup2\n      add\n      swap1\n      tag_191\n      swap2\n      swap1\n      tag_45\n      jump\t// in\n    tag_191:\n      tag_192\n      jump\t// in\n    tag_190:\n      mload(0x40)\n      tag_193\n      swap2\n      swap1\n      tag_194\n      jump\t// in\n    tag_193:\n      mload(0x40)\n      dup1\n      swap2\n      sub\n      swap1\n      return\n        /* \"Documents/MagnetAI/OrderSystem/src/MagnetAI.sol\":692:741  mapping(uint256 botHandle => Bot bot) public bots */\n    tag_32:\n      callvalue\n      dup1\n      iszero\n      tag_195\n      jumpi\n      0x00\n      dup1\n      revert\n    tag_195:\n      pop\n      tag_196\n      0x04\n      dup1\n      calldatasize\n      sub\n      dup2\n      add\n      swap1\n      tag_197\n      swap2\n      swap1\n      tag_45\n      jump\t// in\n    tag_197:\n      tag_198\n      jump\t// in\n    tag_196:\n      mload(0x40)\n      tag_199\n      swap6\n      swap5\n      swap4\n      swap3\n      swap2\n      swap1\n      tag_200\n      jump\t// in\n    tag_199:\n      mload(0x40)\n      dup1\n      swap2\n      sub\n      swap1\n      return\n        /* \"@openzeppelin/contracts/access/Ownable.sol\":2543:2758  function transferOwnership(address newOwner) public virtual onlyOwner {... */\n    tag_33:\n      callvalue\n      dup1\n      iszero\n      tag_201\n      jumpi\n      0x00\n      dup1\n      revert\n    tag_201:\n      pop\n      tag_202\n      0x04\n      dup1\n      calldatasize\n      sub\n      dup2\n      add\n      swap1\n      tag_203\n      swap2\n      swap1\n      tag_94\n      jump\t// in\n    tag_203:\n      tag_204\n      jump\t// in\n    tag_202:\n      stop\n        /* \"Documents/MagnetAI/OrderSystem/src/MagnetAI.sol\":7752:7890  function checkIfBotTokenIssued(uint256 _botHandle) public view returns (bool) {... */\n    tag_34:\n      callvalue\n      dup1\n      iszero\n      tag_205\n      jumpi\n      0x00\n      dup1\n      revert\n    tag_205:\n      pop\n      tag_206\n      0x04\n      dup1\n      calldatasize\n      sub\n      dup2\n      add\n      swap1\n      tag_207\n      swap2\n      swap1\n      tag_45\n      jump\t// in\n    tag_207:\n      tag_208\n      jump\t// in\n    tag_206:\n      mload(0x40)\n      tag_209\n      swap2\n      swap1\n      tag_168\n      jump\t// in\n    tag_209:\n      mload(0x40)\n      dup1\n      swap2\n      sub\n      swap1\n      return\n        /* \"Documents/MagnetAI/OrderSystem/src/MagnetAI.sol\":8099:8250  function getModelManagerSubnetId(uint256 _modelManagerId) public view returns (uint256) {... */\n    tag_46:\n        /* \"Documents/MagnetAI/OrderSystem/src/MagnetAI.sol\":8178:8185  uint256 */\n      0x00\n        /* \"Documents/MagnetAI/OrderSystem/src/MagnetAI.sol\":8204:8217  modelManagers */\n      0x07\n        /* \"Documents/MagnetAI/OrderSystem/src/MagnetAI.sol\":8204:8234  modelManagers[_modelManagerId] */\n      0x00\n        /* \"Documents/MagnetAI/OrderSystem/src/MagnetAI.sol\":8218:8233  _modelManagerId */\n      dup4\n        /* \"Documents/MagnetAI/OrderSystem/src/MagnetAI.sol\":8204:8234  modelManagers[_modelManagerId] */\n      dup2\n      mstore\n      0x20\n      add\n      swap1\n      dup2\n      mstore\n      0x20\n      add\n      0x00\n      keccak256\n        /* \"Documents/MagnetAI/OrderSystem/src/MagnetAI.sol\":8204:8243  modelManagers[_modelManagerId].subnetId */\n      0x01\n      add\n      sload\n        /* \"Documents/MagnetAI/OrderSystem/src/MagnetAI.sol\":8197:8243  return modelManagers[_modelManagerId].subnetId */\n      swap1\n      pop\n        /* \"Documents/MagnetAI/OrderSystem/src/MagnetAI.sol\":8099:8250  function getModelManagerSubnetId(uint256 _modelManagerId) public view returns (uint256) {... */\n      swap2\n      swap1\n      pop\n      jump\t// out\n        /* \"Documents/MagnetAI/OrderSystem/src/MagnetAI.sol\":2760:2983  function setModelPrice(uint256 _modelId, uint256 _price) external onlyModelOwner(_modelId) {... */\n    tag_53:\n        /* \"Documents/MagnetAI/OrderSystem/src/MagnetAI.sol\":2841:2849  _modelId */\n      dup2\n        /* \"Documents/MagnetAI/OrderSystem/src/MagnetAI.sol\":1202:1220  address modelOwner */\n      0x00\n        /* \"Documents/MagnetAI/OrderSystem/src/MagnetAI.sol\":1223:1229  models */\n      0x05\n        /* \"Documents/MagnetAI/OrderSystem/src/MagnetAI.sol\":1223:1238  models[modelId] */\n      0x00\n        /* \"Documents/MagnetAI/OrderSystem/src/MagnetAI.sol\":1230:1237  modelId */\n      dup4\n        /* \"Documents/MagnetAI/OrderSystem/src/MagnetAI.sol\":1223:1238  models[modelId] */\n      dup2\n      mstore\n      0x20\n      add\n      swap1\n      dup2\n      mstore\n      0x20\n      add\n      0x00\n      keccak256\n        /* \"Documents/MagnetAI/OrderSystem/src/MagnetAI.sol\":1223:1244  models[modelId].owner */\n      0x01\n      add\n      0x00\n      swap1\n      sload\n      swap1\n      0x0100\n      exp\n      swap1\n      div\n      0xffffffffffffffffffffffffffffffffffffffff\n      and\n        /* \"Documents/MagnetAI/OrderSystem/src/MagnetAI.sol\":1202:1244  address modelOwner = models[modelId].owner */\n      swap1\n      pop\n        /* \"Documents/MagnetAI/OrderSystem/src/MagnetAI.sol\":1272:1282  modelOwner */\n      dup1\n        /* \"Documents/MagnetAI/OrderSystem/src/MagnetAI.sol\":1258:1282  msg.sender != modelOwner */\n      0xffffffffffffffffffffffffffffffffffffffff\n      and\n        /* \"Documents/MagnetAI/OrderSystem/src/MagnetAI.sol\":1258:1268  msg.sender */\n      caller\n        /* \"Documents/MagnetAI/OrderSystem/src/MagnetAI.sol\":1258:1282  msg.sender != modelOwner */\n      0xffffffffffffffffffffffffffffffffffffffff\n      and\n      eq\n        /* \"Documents/MagnetAI/OrderSystem/src/MagnetAI.sol\":1254:1353  if (msg.sender != modelOwner) {... */\n      tag_212\n      jumpi\n        /* \"Documents/MagnetAI/OrderSystem/src/MagnetAI.sol\":1319:1329  msg.sender */\n      caller\n        /* \"Documents/MagnetAI/OrderSystem/src/MagnetAI.sol\":1331:1341  modelOwner */\n      dup2\n        /* \"Documents/MagnetAI/OrderSystem/src/MagnetAI.sol\":1305:1342  NotModelOwner(msg.sender, modelOwner) */\n      mload(0x40)\n      0xa0aab18d00000000000000000000000000000000000000000000000000000000\n      dup2\n      mstore\n      0x04\n      add\n      tag_213\n      swap3\n      swap2\n      swap1\n      tag_214\n      jump\t// in\n    tag_213:\n      mload(0x40)\n      dup1\n      swap2\n      sub\n      swap1\n      revert\n        /* \"Documents/MagnetAI/OrderSystem/src/MagnetAI.sol\":1254:1353  if (msg.sender != modelOwner) {... */\n    tag_212:\n        /* \"Documents/MagnetAI/OrderSystem/src/MagnetAI.sol\":2861:2884  _checkModelId(_modelId) */\n      tag_216\n        /* \"Documents/MagnetAI/OrderSystem/src/MagnetAI.sol\":2875:2883  _modelId */\n      dup5\n        /* \"Documents/MagnetAI/OrderSystem/src/MagnetAI.sol\":2861:2874  _checkModelId */\n      tag_217\n        /* \"Documents/MagnetAI/OrderSystem/src/MagnetAI.sol\":2861:2884  _checkModelId(_modelId) */\n      jump\t// in\n    tag_216:\n        /* \"Documents/MagnetAI/OrderSystem/src/MagnetAI.sol\":2919:2925  _price */\n      dup3\n        /* \"Documents/MagnetAI/OrderSystem/src/MagnetAI.sol\":2894:2900  models */\n      0x05\n        /* \"Documents/MagnetAI/OrderSystem/src/MagnetAI.sol\":2894:2910  models[_modelId] */\n      0x00\n        /* \"Documents/MagnetAI/OrderSystem/src/MagnetAI.sol\":2901:2909  _modelId */\n      dup7\n        /* \"Documents/MagnetAI/OrderSystem/src/MagnetAI.sol\":2894:2910  models[_modelId] */\n      dup2\n      mstore\n      0x20\n      add\n      swap1\n      dup2\n      mstore\n      0x20\n      add\n      0x00\n      keccak256\n        /* \"Documents/MagnetAI/OrderSystem/src/MagnetAI.sol\":2894:2916  models[_modelId].price */\n      0x03\n      add\n        /* \"Documents/MagnetAI/OrderSystem/src/MagnetAI.sol\":2894:2925  models[_modelId].price = _price */\n      dup2\n      swap1\n      sstore\n      pop\n        /* \"Documents/MagnetAI/OrderSystem/src/MagnetAI.sol\":2940:2976  ModelPriceModified(_modelId, _price) */\n      0xb1d13ba20f0d741940864392d8dae01facd2a12a23df9b44e625d5753792909d\n        /* \"Documents/MagnetAI/OrderSystem/src/MagnetAI.sol\":2959:2967  _modelId */\n      dup5\n        /* \"Documents/MagnetAI/OrderSystem/src/MagnetAI.sol\":2969:2975  _price */\n      dup5\n        /* \"Documents/MagnetAI/OrderSystem/src/MagnetAI.sol\":2940:2976  ModelPriceModified(_modelId, _price) */\n      mload(0x40)\n      tag_218\n      swap3\n      swap2\n      swap1\n      tag_219\n      jump\t// in\n    tag_218:\n      mload(0x40)\n      dup1\n      swap2\n      sub\n      swap1\n      log1\n        /* \"Documents/MagnetAI/OrderSystem/src/MagnetAI.sol\":1192:1370  {... */\n      pop\n        /* \"Documents/MagnetAI/OrderSystem/src/MagnetAI.sol\":2760:2983  function setModelPrice(uint256 _modelId, uint256 _price) external onlyModelOwner(_modelId) {... */\n      pop\n      pop\n      pop\n      jump\t// out\n        /* \"Documents/MagnetAI/OrderSystem/src/MagnetAI.sol\":934:997  mapping(uint256 botHandle => address tokenAddr) public issuance */\n    tag_57:\n      mstore(0x20, 0x0b)\n      dup1\n      0x00\n      mstore\n      keccak256(0x00, 0x40)\n      0x00\n      swap2\n      pop\n      sload\n      swap1\n      0x0100\n      exp\n      swap1\n      div\n      0xffffffffffffffffffffffffffffffffffffffff\n      and\n      dup2\n      jump\t// out\n        /* \"Documents/MagnetAI/OrderSystem/src/MagnetAI.sol\":6299:6766  function submitServiceProof(uint256[] calldata _botHandleArray, uint256[] calldata _workloadArray, uint256[] calldata _callNumberArray) external {... */\n    tag_64:\n        /* \"Documents/MagnetAI/OrderSystem/src/MagnetAI.sol\":6454:6523  _checkServiceProof(_botHandleArray, _workloadArray, _callNumberArray) */\n      tag_221\n        /* \"Documents/MagnetAI/OrderSystem/src/MagnetAI.sol\":6473:6488  _botHandleArray */\n      dup7\n      dup7\n        /* \"Documents/MagnetAI/OrderSystem/src/MagnetAI.sol\":6454:6523  _checkServiceProof(_botHandleArray, _workloadArray, _callNumberArray) */\n      dup1\n      dup1\n      0x20\n      mul\n      0x20\n      add\n      mload(0x40)\n      swap1\n      dup2\n      add\n      0x40\n      mstore\n      dup1\n      swap4\n      swap3\n      swap2\n      swap1\n      dup2\n      dup2\n      mstore\n      0x20\n      add\n      dup4\n      dup4\n      0x20\n      mul\n      dup1\n      dup3\n      dup5\n      calldatacopy\n      0x00\n      dup2\n      dup5\n      add\n      mstore\n      not(0x1f)\n      0x1f\n      dup3\n      add\n      and\n      swap1\n      pop\n      dup1\n      dup4\n      add\n      swap3\n      pop\n      pop\n      pop\n      pop\n      pop\n      pop\n      pop\n        /* \"Documents/MagnetAI/OrderSystem/src/MagnetAI.sol\":6490:6504  _workloadArray */\n      dup6\n      dup6\n        /* \"Documents/MagnetAI/OrderSystem/src/MagnetAI.sol\":6454:6523  _checkServiceProof(_botHandleArray, _workloadArray, _callNumberArray) */\n      dup1\n      dup1\n      0x20\n      mul\n      0x20\n      add\n      mload(0x40)\n      swap1\n      dup2\n      add\n      0x40\n      mstore\n      dup1\n      swap4\n      swap3\n      swap2\n      swap1\n      dup2\n      dup2\n      mstore\n      0x20\n      add\n      dup4\n      dup4\n      0x20\n      mul\n      dup1\n      dup3\n      dup5\n      calldatacopy\n      0x00\n      dup2\n      dup5\n      add\n      mstore\n      not(0x1f)\n      0x1f\n      dup3\n      add\n      and\n      swap1\n      pop\n      dup1\n      dup4\n      add\n      swap3\n      pop\n      pop\n      pop\n      pop\n      pop\n      pop\n      pop\n        /* \"Documents/MagnetAI/OrderSystem/src/MagnetAI.sol\":6506:6522  _callNumberArray */\n      dup5\n      dup5\n        /* \"Documents/MagnetAI/OrderSystem/src/MagnetAI.sol\":6454:6523  _checkServiceProof(_botHandleArray, _workloadArray, _callNumberArray) */\n      dup1\n      dup1\n      0x20\n      mul\n      0x20\n      add\n      mload(0x40)\n      swap1\n      dup2\n      add\n      0x40\n      mstore\n      dup1\n      swap4\n      swap3\n      swap2\n      swap1\n      dup2\n      dup2\n      mstore\n      0x20\n      add\n      dup4\n      dup4\n      0x20\n      mul\n      dup1\n      dup3\n      dup5\n      calldatacopy\n      0x00\n      dup2\n      dup5\n      add\n      mstore\n      not(0x1f)\n      0x1f\n      dup3\n      add\n      and\n      swap1\n      pop\n      dup1\n      dup4\n      add\n      swap3\n      pop\n      pop\n      pop\n      pop\n      pop\n      pop\n      pop\n        /* \"Documents/MagnetAI/OrderSystem/src/MagnetAI.sol\":6454:6472  _checkServiceProof */\n      tag_222\n        /* \"Documents/MagnetAI/OrderSystem/src/MagnetAI.sol\":6454:6523  _checkServiceProof(_botHandleArray, _workloadArray, _callNumberArray) */\n      jump\t// in\n    tag_221:\n        /* \"Documents/MagnetAI/OrderSystem/src/MagnetAI.sol\":6538:6547  uint256 i */\n      0x00\n        /* \"Documents/MagnetAI/OrderSystem/src/MagnetAI.sol\":6533:6673  for (uint256 i = 0; i < _botHandleArray.length; i++) {... */\n    tag_223:\n        /* \"Documents/MagnetAI/OrderSystem/src/MagnetAI.sol\":6557:6572  _botHandleArray */\n      dup7\n      dup7\n        /* \"Documents/MagnetAI/OrderSystem/src/MagnetAI.sol\":6557:6579  _botHandleArray.length */\n      swap1\n      pop\n        /* \"Documents/MagnetAI/OrderSystem/src/MagnetAI.sol\":6553:6554  i */\n      dup2\n        /* \"Documents/MagnetAI/OrderSystem/src/MagnetAI.sol\":6553:6579  i < _botHandleArray.length */\n      lt\n        /* \"Documents/MagnetAI/OrderSystem/src/MagnetAI.sol\":6533:6673  for (uint256 i = 0; i < _botHandleArray.length; i++) {... */\n      iszero\n      tag_224\n      jumpi\n        /* \"Documents/MagnetAI/OrderSystem/src/MagnetAI.sol\":6600:6662  _rewardCalculation(i, _botHandleArray[i], _callNumberArray[i]) */\n      tag_226\n        /* \"Documents/MagnetAI/OrderSystem/src/MagnetAI.sol\":6619:6620  i */\n      dup2\n        /* \"Documents/MagnetAI/OrderSystem/src/MagnetAI.sol\":6622:6637  _botHandleArray */\n      dup9\n      dup9\n        /* \"Documents/MagnetAI/OrderSystem/src/MagnetAI.sol\":6638:6639  i */\n      dup5\n        /* \"Documents/MagnetAI/OrderSystem/src/MagnetAI.sol\":6622:6640  _botHandleArray[i] */\n      dup2\n      dup2\n      lt\n      tag_227\n      jumpi\n      tag_228\n      tag_229\n      jump\t// in\n    tag_228:\n    tag_227:\n      swap1\n      pop\n      0x20\n      mul\n      add\n      calldataload\n        /* \"Documents/MagnetAI/OrderSystem/src/MagnetAI.sol\":6642:6658  _callNumberArray */\n      dup6\n      dup6\n        /* \"Documents/MagnetAI/OrderSystem/src/MagnetAI.sol\":6659:6660  i */\n      dup6\n        /* \"Documents/MagnetAI/OrderSystem/src/MagnetAI.sol\":6642:6661  _callNumberArray[i] */\n      dup2\n      dup2\n      lt\n      tag_230\n      jumpi\n      tag_231\n      tag_229\n      jump\t// in\n    tag_231:\n    tag_230:\n      swap1\n      pop\n      0x20\n      mul\n      add\n      calldataload\n        /* \"Documents/MagnetAI/OrderSystem/src/MagnetAI.sol\":6600:6618  _rewardCalculation */\n      tag_232\n        /* \"Documents/MagnetAI/OrderSystem/src/MagnetAI.sol\":6600:6662  _rewardCalculation(i, _botHandleArray[i], _callNumberArray[i]) */\n      jump\t// in\n    tag_226:\n        /* \"Documents/MagnetAI/OrderSystem/src/MagnetAI.sol\":6581:6584  i++ */\n      dup1\n      dup1\n      0x01\n      add\n      swap2\n      pop\n      pop\n        /* \"Documents/MagnetAI/OrderSystem/src/MagnetAI.sol\":6533:6673  for (uint256 i = 0; i < _botHandleArray.length; i++) {... */\n      jump(tag_223)\n    tag_224:\n      pop\n        /* \"Documents/MagnetAI/OrderSystem/src/MagnetAI.sol\":6687:6759  ServiceProofSubmitted(_botHandleArray, _workloadArray, _callNumberArray) */\n      0xace2124136318f2465aec8cf92a4bd9c871279c0f147ddd9f3b94698604a88cf\n        /* \"Documents/MagnetAI/OrderSystem/src/MagnetAI.sol\":6709:6724  _botHandleArray */\n      dup7\n      dup7\n        /* \"Documents/MagnetAI/OrderSystem/src/MagnetAI.sol\":6726:6740  _workloadArray */\n      dup7\n      dup7\n        /* \"Documents/MagnetAI/OrderSystem/src/MagnetAI.sol\":6742:6758  _callNumberArray */\n      dup7\n      dup7\n        /* \"Documents/MagnetAI/OrderSystem/src/MagnetAI.sol\":6687:6759  ServiceProofSubmitted(_botHandleArray, _workloadArray, _callNumberArray) */\n      mload(0x40)\n      tag_233\n      swap7\n      swap6\n      swap5\n      swap4\n      swap3\n      swap2\n      swap1\n      tag_234\n      jump\t// in\n    tag_233:\n      mload(0x40)\n      dup1\n      swap2\n      sub\n      swap1\n      log1\n        /* \"Documents/MagnetAI/OrderSystem/src/MagnetAI.sol\":6299:6766  function submitServiceProof(uint256[] calldata _botHandleArray, uint256[] calldata _workloadArray, uint256[] calldata _callNumberArray) external {... */\n      pop\n      pop\n      pop\n      pop\n      pop\n      pop\n      jump\t// out\n        /* \"Documents/MagnetAI/OrderSystem/src/MagnetAI.sol\":8256:8405  function getModelManagerModelId(uint256 _modelManagerId) public view returns (uint256) {... */\n    tag_68:\n        /* \"Documents/MagnetAI/OrderSystem/src/MagnetAI.sol\":8334:8341  uint256 */\n      0x00\n        /* \"Documents/MagnetAI/OrderSystem/src/MagnetAI.sol\":8360:8373  modelManagers */\n      0x07\n        /* \"Documents/MagnetAI/OrderSystem/src/MagnetAI.sol\":8360:8390  modelManagers[_modelManagerId] */\n      0x00\n        /* \"Documents/MagnetAI/OrderSystem/src/MagnetAI.sol\":8374:8389  _modelManagerId */\n      dup4\n        /* \"Documents/MagnetAI/OrderSystem/src/MagnetAI.sol\":8360:8390  modelManagers[_modelManagerId] */\n      dup2\n      mstore\n      0x20\n      add\n      swap1\n      dup2\n      mstore\n      0x20\n      add\n      0x00\n      keccak256\n        /* \"Documents/MagnetAI/OrderSystem/src/MagnetAI.sol\":8360:8398  modelManagers[_modelManagerId].modelId */\n      0x02\n      add\n      sload\n        /* \"Documents/MagnetAI/OrderSystem/src/MagnetAI.sol\":8353:8398  return modelManagers[_modelManagerId].modelId */\n      swap1\n      pop\n        /* \"Documents/MagnetAI/OrderSystem/src/MagnetAI.sol\":8256:8405  function getModelManagerModelId(uint256 _modelManagerId) public view returns (uint256) {... */\n      swap2\n      swap1\n      pop\n      jump\t// out\n        /* \"Documents/MagnetAI/OrderSystem/src/MagnetAI.sol\":10472:10667  function payForBot(uint256 _botHandle) external payable {... */\n    tag_72:\n        /* \"Documents/MagnetAI/OrderSystem/src/MagnetAI.sol\":10538:10565  _checkBotHandle(_botHandle) */\n      tag_237\n        /* \"Documents/MagnetAI/OrderSystem/src/MagnetAI.sol\":10554:10564  _botHandle */\n      dup2\n        /* \"Documents/MagnetAI/OrderSystem/src/MagnetAI.sol\":10538:10553  _checkBotHandle */\n      tag_238\n        /* \"Documents/MagnetAI/OrderSystem/src/MagnetAI.sol\":10538:10565  _checkBotHandle(_botHandle) */\n      jump\t// in\n    tag_237:\n        /* \"Documents/MagnetAI/OrderSystem/src/MagnetAI.sol\":10603:10612  msg.value */\n      callvalue\n        /* \"Documents/MagnetAI/OrderSystem/src/MagnetAI.sol\":10575:10587  usersBalance */\n      0x0a\n        /* \"Documents/MagnetAI/OrderSystem/src/MagnetAI.sol\":10575:10599  usersBalance[msg.sender] */\n      0x00\n        /* \"Documents/MagnetAI/OrderSystem/src/MagnetAI.sol\":10588:10598  msg.sender */\n      caller\n        /* \"Documents/MagnetAI/OrderSystem/src/MagnetAI.sol\":10575:10599  usersBalance[msg.sender] */\n      0xffffffffffffffffffffffffffffffffffffffff\n      and\n      0xffffffffffffffffffffffffffffffffffffffff\n      and\n      dup2\n      mstore\n      0x20\n      add\n      swap1\n      dup2\n      mstore\n      0x20\n      add\n      0x00\n      keccak256\n      0x00\n        /* \"Documents/MagnetAI/OrderSystem/src/MagnetAI.sol\":10575:10612  usersBalance[msg.sender] += msg.value */\n      dup3\n      dup3\n      sload\n      tag_239\n      swap2\n      swap1\n      tag_240\n      jump\t// in\n    tag_239:\n      swap3\n      pop\n      pop\n      dup2\n      swap1\n      sstore\n      pop\n        /* \"Documents/MagnetAI/OrderSystem/src/MagnetAI.sol\":10627:10660  BotPayment(msg.sender, msg.value) */\n      0x7cc96c264329c23ffdfe857e8b3c3d794c8f42757c85d96f9883988c1fc4615a\n        /* \"Documents/MagnetAI/OrderSystem/src/MagnetAI.sol\":10638:10648  msg.sender */\n      caller\n        /* \"Documents/MagnetAI/OrderSystem/src/MagnetAI.sol\":10650:10659  msg.value */\n      callvalue\n        /* \"Documents/MagnetAI/OrderSystem/src/MagnetAI.sol\":10627:10660  BotPayment(msg.sender, msg.value) */\n      mload(0x40)\n      tag_241\n      swap3\n      swap2\n      swap1\n      tag_242\n      jump\t// in\n    tag_241:\n      mload(0x40)\n      dup1\n      swap2\n      sub\n      swap1\n      log1\n        /* \"Documents/MagnetAI/OrderSystem/src/MagnetAI.sol\":10472:10667  function payForBot(uint256 _botHandle) external payable {... */\n      pop\n      jump\t// out\n        /* \"Documents/MagnetAI/OrderSystem/src/MagnetAI.sol\":542:599  mapping(uint256 subnetId => Subnet subnet) public subnets */\n    tag_76:\n      mstore(0x20, 0x06)\n      dup1\n      0x00\n      mstore\n      keccak256(0x00, 0x40)\n      0x00\n      swap2\n      pop\n      swap1\n      pop\n      dup1\n      0x00\n      add\n      sload\n      swap1\n      dup1\n      0x01\n      add\n      0x00\n      swap1\n      sload\n      swap1\n      0x0100\n      exp\n      swap1\n      div\n      0xffffffffffffffffffffffffffffffffffffffff\n      and\n      swap1\n      pop\n      dup3\n      jump\t// out\n        /* \"Documents/MagnetAI/OrderSystem/src/MagnetAI.sol\":2361:2754  function registerModel(string calldata _metadata, uint256 _price) external onlyOwner {... */\n    tag_83:\n        /* \"@openzeppelin/contracts/access/Ownable.sol\":1531:1544  _checkOwner() */\n      tag_244\n        /* \"@openzeppelin/contracts/access/Ownable.sol\":1531:1542  _checkOwner */\n      tag_245\n        /* \"@openzeppelin/contracts/access/Ownable.sol\":1531:1544  _checkOwner() */\n      jump\t// in\n    tag_244:\n        /* \"Documents/MagnetAI/OrderSystem/src/MagnetAI.sol\":2456:2476  AIModel memory model */\n      0x00\n        /* \"Documents/MagnetAI/OrderSystem/src/MagnetAI.sol\":2479:2625  AIModel({... */\n      mload(0x40)\n      dup1\n      0x80\n      add\n      0x40\n      mstore\n      dup1\n        /* \"Documents/MagnetAI/OrderSystem/src/MagnetAI.sol\":2510:2523  _modelIdNonce */\n      sload(0x02)\n        /* \"Documents/MagnetAI/OrderSystem/src/MagnetAI.sol\":2479:2625  AIModel({... */\n      dup2\n      mstore\n      0x20\n      add\n        /* \"Documents/MagnetAI/OrderSystem/src/MagnetAI.sol\":2544:2554  msg.sender */\n      caller\n        /* \"Documents/MagnetAI/OrderSystem/src/MagnetAI.sol\":2479:2625  AIModel({... */\n      0xffffffffffffffffffffffffffffffffffffffff\n      and\n      dup2\n      mstore\n      0x20\n      add\n        /* \"Documents/MagnetAI/OrderSystem/src/MagnetAI.sol\":2578:2587  _metadata */\n      dup6\n      dup6\n        /* \"Documents/MagnetAI/OrderSystem/src/MagnetAI.sol\":2479:2625  AIModel({... */\n      dup1\n      dup1\n      0x1f\n      add\n      0x20\n      dup1\n      swap2\n      div\n      mul\n      0x20\n      add\n      mload(0x40)\n      swap1\n      dup2\n      add\n      0x40\n      mstore\n      dup1\n      swap4\n      swap3\n      swap2\n      swap1\n      dup2\n      dup2\n      mstore\n      0x20\n      add\n      dup4\n      dup4\n      dup1\n      dup3\n      dup5\n      calldatacopy\n      0x00\n      dup2\n      dup5\n      add\n      mstore\n      not(0x1f)\n      0x1f\n      dup3\n      add\n      and\n      swap1\n      pop\n      dup1\n      dup4\n      add\n      swap3\n      pop\n      pop\n      pop\n      pop\n      pop\n      pop\n      pop\n      dup2\n      mstore\n      0x20\n      add\n        /* \"Documents/MagnetAI/OrderSystem/src/MagnetAI.sol\":2608:2614  _price */\n      dup4\n        /* \"Documents/MagnetAI/OrderSystem/src/MagnetAI.sol\":2479:2625  AIModel({... */\n      dup2\n      mstore\n      pop\n        /* \"Documents/MagnetAI/OrderSystem/src/MagnetAI.sol\":2456:2625  AIModel memory model = AIModel({... */\n      swap1\n      pop\n        /* \"Documents/MagnetAI/OrderSystem/src/MagnetAI.sol\":2659:2664  model */\n      dup1\n        /* \"Documents/MagnetAI/OrderSystem/src/MagnetAI.sol\":2635:2641  models */\n      0x05\n        /* \"Documents/MagnetAI/OrderSystem/src/MagnetAI.sol\":2635:2656  models[model.modelId] */\n      0x00\n        /* \"Documents/MagnetAI/OrderSystem/src/MagnetAI.sol\":2642:2647  model */\n      dup4\n        /* \"Documents/MagnetAI/OrderSystem/src/MagnetAI.sol\":2642:2655  model.modelId */\n      0x00\n      add\n      mload\n        /* \"Documents/MagnetAI/OrderSystem/src/MagnetAI.sol\":2635:2656  models[model.modelId] */\n      dup2\n      mstore\n      0x20\n      add\n      swap1\n      dup2\n      mstore\n      0x20\n      add\n      0x00\n      keccak256\n        /* \"Documents/MagnetAI/OrderSystem/src/MagnetAI.sol\":2635:2664  models[model.modelId] = model */\n      0x00\n      dup3\n      add\n      mload\n      dup2\n      0x00\n      add\n      sstore\n      0x20\n      dup3\n      add\n      mload\n      dup2\n      0x01\n      add\n      exp(0x0100, 0x00)\n      dup2\n      sload\n      dup2\n      0xffffffffffffffffffffffffffffffffffffffff\n      mul\n      not\n      and\n      swap1\n      dup4\n      0xffffffffffffffffffffffffffffffffffffffff\n      and\n      mul\n      or\n      swap1\n      sstore\n      pop\n      0x40\n      dup3\n      add\n      mload\n      dup2\n      0x02\n      add\n      swap1\n      dup2\n      tag_247\n      swap2\n      swap1\n      tag_248\n      jump\t// in\n    tag_247:\n      pop\n      0x60\n      dup3\n      add\n      mload\n      dup2\n      0x03\n      add\n      sstore\n      swap1\n      pop\n      pop\n        /* \"Documents/MagnetAI/OrderSystem/src/MagnetAI.sol\":2674:2687  _modelIdNonce */\n      0x02\n      0x00\n        /* \"Documents/MagnetAI/OrderSystem/src/MagnetAI.sol\":2674:2689  _modelIdNonce++ */\n      dup2\n      sload\n      dup1\n      swap3\n      swap2\n      swap1\n      tag_249\n      swap1\n      tag_250\n      jump\t// in\n    tag_249:\n      swap2\n      swap1\n      pop\n      sstore\n      pop\n        /* \"Documents/MagnetAI/OrderSystem/src/MagnetAI.sol\":2704:2747  ModelRegistered(model.modelId, model.owner) */\n      0x74934a3b6deb545c78da2a085e7ef6730b428766680d71e0e5ee66780943ea02\n        /* \"Documents/MagnetAI/OrderSystem/src/MagnetAI.sol\":2720:2725  model */\n      dup2\n        /* \"Documents/MagnetAI/OrderSystem/src/MagnetAI.sol\":2720:2733  model.modelId */\n      0x00\n      add\n      mload\n        /* \"Documents/MagnetAI/OrderSystem/src/MagnetAI.sol\":2735:2740  model */\n      dup3\n        /* \"Documents/MagnetAI/OrderSystem/src/MagnetAI.sol\":2735:2746  model.owner */\n      0x20\n      add\n      mload\n        /* \"Documents/MagnetAI/OrderSystem/src/MagnetAI.sol\":2704:2747  ModelRegistered(model.modelId, model.owner) */\n      mload(0x40)\n      tag_251\n      swap3\n      swap2\n      swap1\n      tag_78\n      jump\t// in\n    tag_251:\n      mload(0x40)\n      dup1\n      swap2\n      sub\n      swap1\n      log1\n        /* \"Documents/MagnetAI/OrderSystem/src/MagnetAI.sol\":2446:2754  {... */\n      pop\n        /* \"Documents/MagnetAI/OrderSystem/src/MagnetAI.sol\":2361:2754  function registerModel(string calldata _metadata, uint256 _price) external onlyOwner {... */\n      pop\n      pop\n      pop\n      jump\t// out\n        /* \"Documents/MagnetAI/OrderSystem/src/MagnetAI.sol\":3912:4217  function registerSubnet() external onlyOwner {... */\n    tag_86:\n        /* \"@openzeppelin/contracts/access/Ownable.sol\":1531:1544  _checkOwner() */\n      tag_253\n        /* \"@openzeppelin/contracts/access/Ownable.sol\":1531:1542  _checkOwner */\n      tag_245\n        /* \"@openzeppelin/contracts/access/Ownable.sol\":1531:1544  _checkOwner() */\n      jump\t// in\n    tag_253:\n        /* \"Documents/MagnetAI/OrderSystem/src/MagnetAI.sol\":3967:3987  Subnet memory subnet */\n      0x00\n        /* \"Documents/MagnetAI/OrderSystem/src/MagnetAI.sol\":3990:4078  Subnet({... */\n      mload(0x40)\n      dup1\n      0x40\n      add\n      0x40\n      mstore\n      dup1\n        /* \"Documents/MagnetAI/OrderSystem/src/MagnetAI.sol\":4021:4036  _subnetIdNounce */\n      sload(0x03)\n        /* \"Documents/MagnetAI/OrderSystem/src/MagnetAI.sol\":3990:4078  Subnet({... */\n      dup2\n      mstore\n      0x20\n      add\n        /* \"Documents/MagnetAI/OrderSystem/src/MagnetAI.sol\":4057:4067  msg.sender */\n      caller\n        /* \"Documents/MagnetAI/OrderSystem/src/MagnetAI.sol\":3990:4078  Subnet({... */\n      0xffffffffffffffffffffffffffffffffffffffff\n      and\n      dup2\n      mstore\n      pop\n        /* \"Documents/MagnetAI/OrderSystem/src/MagnetAI.sol\":3967:4078  Subnet memory subnet = Subnet({... */\n      swap1\n      pop\n        /* \"Documents/MagnetAI/OrderSystem/src/MagnetAI.sol\":4115:4121  subnet */\n      dup1\n        /* \"Documents/MagnetAI/OrderSystem/src/MagnetAI.sol\":4088:4095  subnets */\n      0x06\n        /* \"Documents/MagnetAI/OrderSystem/src/MagnetAI.sol\":4088:4112  subnets[subnet.subnetId] */\n      0x00\n        /* \"Documents/MagnetAI/OrderSystem/src/MagnetAI.sol\":4096:4102  subnet */\n      dup4\n        /* \"Documents/MagnetAI/OrderSystem/src/MagnetAI.sol\":4096:4111  subnet.subnetId */\n      0x00\n      add\n      mload\n        /* \"Documents/MagnetAI/OrderSystem/src/MagnetAI.sol\":4088:4112  subnets[subnet.subnetId] */\n      dup2\n      mstore\n      0x20\n      add\n      swap1\n      dup2\n      mstore\n      0x20\n      add\n      0x00\n      keccak256\n        /* \"Documents/MagnetAI/OrderSystem/src/MagnetAI.sol\":4088:4121  subnets[subnet.subnetId] = subnet */\n      0x00\n      dup3\n      add\n      mload\n      dup2\n      0x00\n      add\n      sstore\n      0x20\n      dup3\n      add\n      mload\n      dup2\n      0x01\n      add\n      exp(0x0100, 0x00)\n      dup2\n      sload\n      dup2\n      0xffffffffffffffffffffffffffffffffffffffff\n      mul\n      not\n      and\n      swap1\n      dup4\n      0xffffffffffffffffffffffffffffffffffffffff\n      and\n      mul\n      or\n      swap1\n      sstore\n      pop\n      swap1\n      pop\n      pop\n        /* \"Documents/MagnetAI/OrderSystem/src/MagnetAI.sol\":4131:4146  _subnetIdNounce */\n      0x03\n      0x00\n        /* \"Documents/MagnetAI/OrderSystem/src/MagnetAI.sol\":4131:4148  _subnetIdNounce++ */\n      dup2\n      sload\n      dup1\n      swap3\n      swap2\n      swap1\n      tag_255\n      swap1\n      tag_250\n      jump\t// in\n    tag_255:\n      swap2\n      swap1\n      pop\n      sstore\n      pop\n        /* \"Documents/MagnetAI/OrderSystem/src/MagnetAI.sol\":4163:4210  SubnetRegistered(subnet.subnetId, subnet.owner) */\n      0x5cc43d3a666f30d017291029b1d1a582d8a49b66d0117a5fdbcf11888b6708fd\n        /* \"Documents/MagnetAI/OrderSystem/src/MagnetAI.sol\":4180:4186  subnet */\n      dup2\n        /* \"Documents/MagnetAI/OrderSystem/src/MagnetAI.sol\":4180:4195  subnet.subnetId */\n      0x00\n      add\n      mload\n        /* \"Documents/MagnetAI/OrderSystem/src/MagnetAI.sol\":4197:4203  subnet */\n      dup3\n        /* \"Documents/MagnetAI/OrderSystem/src/MagnetAI.sol\":4197:4209  subnet.owner */\n      0x20\n      add\n      mload\n        /* \"Documents/MagnetAI/OrderSystem/src/MagnetAI.sol\":4163:4210  SubnetRegistered(subnet.subnetId, subnet.owner) */\n      mload(0x40)\n      tag_256\n      swap3\n      swap2\n      swap1\n      tag_78\n      jump\t// in\n    tag_256:\n      mload(0x40)\n      dup1\n      swap2\n      sub\n      swap1\n      log1\n        /* \"Documents/MagnetAI/OrderSystem/src/MagnetAI.sol\":3957:4217  {... */\n      pop\n        /* \"Documents/MagnetAI/OrderSystem/src/MagnetAI.sol\":3912:4217  function registerSubnet() external onlyOwner {... */\n      jump\t// out\n        /* \"Documents/MagnetAI/OrderSystem/src/MagnetAI.sol\":10048:10318  function setBotPrice(uint256 _botHandle, uint256 _price) external onlyBotOwner(_botHandle) {... */\n    tag_90:\n        /* \"Documents/MagnetAI/OrderSystem/src/MagnetAI.sol\":10127:10137  _botHandle */\n      dup2\n        /* \"Documents/MagnetAI/OrderSystem/src/MagnetAI.sol\":1941:1957  address botOwner */\n      0x00\n        /* \"Documents/MagnetAI/OrderSystem/src/MagnetAI.sol\":1960:1964  bots */\n      0x08\n        /* \"Documents/MagnetAI/OrderSystem/src/MagnetAI.sol\":1960:1975  bots[botHandle] */\n      0x00\n        /* \"Documents/MagnetAI/OrderSystem/src/MagnetAI.sol\":1965:1974  botHandle */\n      dup4\n        /* \"Documents/MagnetAI/OrderSystem/src/MagnetAI.sol\":1960:1975  bots[botHandle] */\n      dup2\n      mstore\n      0x20\n      add\n      swap1\n      dup2\n      mstore\n      0x20\n      add\n      0x00\n      keccak256\n        /* \"Documents/MagnetAI/OrderSystem/src/MagnetAI.sol\":1960:1981  bots[botHandle].owner */\n      0x02\n      add\n      0x00\n      swap1\n      sload\n      swap1\n      0x0100\n      exp\n      swap1\n      div\n      0xffffffffffffffffffffffffffffffffffffffff\n      and\n        /* \"Documents/MagnetAI/OrderSystem/src/MagnetAI.sol\":1941:1981  address botOwner = bots[botHandle].owner */\n      swap1\n      pop\n        /* \"Documents/MagnetAI/OrderSystem/src/MagnetAI.sol\":2009:2017  botOwner */\n      dup1\n        /* \"Documents/MagnetAI/OrderSystem/src/MagnetAI.sol\":1995:2017  msg.sender != botOwner */\n      0xffffffffffffffffffffffffffffffffffffffff\n      and\n        /* \"Documents/MagnetAI/OrderSystem/src/MagnetAI.sol\":1995:2005  msg.sender */\n      caller\n        /* \"Documents/MagnetAI/OrderSystem/src/MagnetAI.sol\":1995:2017  msg.sender != botOwner */\n      0xffffffffffffffffffffffffffffffffffffffff\n      and\n      eq\n        /* \"Documents/MagnetAI/OrderSystem/src/MagnetAI.sol\":1991:2084  if (msg.sender != botOwner) {... */\n      tag_258\n      jumpi\n        /* \"Documents/MagnetAI/OrderSystem/src/MagnetAI.sol\":2052:2062  msg.sender */\n      caller\n        /* \"Documents/MagnetAI/OrderSystem/src/MagnetAI.sol\":2064:2072  botOwner */\n      dup2\n        /* \"Documents/MagnetAI/OrderSystem/src/MagnetAI.sol\":2040:2073  NotBotOwner(msg.sender, botOwner) */\n      mload(0x40)\n      0xe631c94b00000000000000000000000000000000000000000000000000000000\n      dup2\n      mstore\n      0x04\n      add\n      tag_259\n      swap3\n      swap2\n      swap1\n      tag_214\n      jump\t// in\n    tag_259:\n      mload(0x40)\n      dup1\n      swap2\n      sub\n      swap1\n      revert\n        /* \"Documents/MagnetAI/OrderSystem/src/MagnetAI.sol\":1991:2084  if (msg.sender != botOwner) {... */\n    tag_258:\n        /* \"Documents/MagnetAI/OrderSystem/src/MagnetAI.sol\":10254:10260  _price */\n      dup3\n        /* \"Documents/MagnetAI/OrderSystem/src/MagnetAI.sol\":10229:10233  bots */\n      0x08\n        /* \"Documents/MagnetAI/OrderSystem/src/MagnetAI.sol\":10229:10245  bots[_botHandle] */\n      0x00\n        /* \"Documents/MagnetAI/OrderSystem/src/MagnetAI.sol\":10234:10244  _botHandle */\n      dup7\n        /* \"Documents/MagnetAI/OrderSystem/src/MagnetAI.sol\":10229:10245  bots[_botHandle] */\n      dup2\n      mstore\n      0x20\n      add\n      swap1\n      dup2\n      mstore\n      0x20\n      add\n      0x00\n      keccak256\n        /* \"Documents/MagnetAI/OrderSystem/src/MagnetAI.sol\":10229:10251  bots[_botHandle].price */\n      0x04\n      add\n        /* \"Documents/MagnetAI/OrderSystem/src/MagnetAI.sol\":10229:10260  bots[_botHandle].price = _price */\n      dup2\n      swap1\n      sstore\n      pop\n        /* \"Documents/MagnetAI/OrderSystem/src/MagnetAI.sol\":10275:10311  BotPriceModified(_botHandle, _price) */\n      0x5249b06233e4dc37c8dad4558dec5457c53ef98a4142e7bc3832ad19dd1cd1be\n        /* \"Documents/MagnetAI/OrderSystem/src/MagnetAI.sol\":10292:10302  _botHandle */\n      dup5\n        /* \"Documents/MagnetAI/OrderSystem/src/MagnetAI.sol\":10304:10310  _price */\n      dup5\n        /* \"Documents/MagnetAI/OrderSystem/src/MagnetAI.sol\":10275:10311  BotPriceModified(_botHandle, _price) */\n      mload(0x40)\n      tag_261\n      swap3\n      swap2\n      swap1\n      tag_219\n      jump\t// in\n    tag_261:\n      mload(0x40)\n      dup1\n      swap2\n      sub\n      swap1\n      log1\n        /* \"Documents/MagnetAI/OrderSystem/src/MagnetAI.sol\":1931:2101  {... */\n      pop\n        /* \"Documents/MagnetAI/OrderSystem/src/MagnetAI.sol\":10048:10318  function setBotPrice(uint256 _botHandle, uint256 _price) external onlyBotOwner(_botHandle) {... */\n      pop\n      pop\n      pop\n      jump\t// out\n        /* \"Documents/MagnetAI/OrderSystem/src/MagnetAI.sol\":825:885  mapping(address user => uint256 balance) public usersBalance */\n    tag_95:\n      mstore(0x20, 0x0a)\n      dup1\n      0x00\n      mstore\n      keccak256(0x00, 0x40)\n      0x00\n      swap2\n      pop\n      swap1\n      pop\n      sload\n      dup2\n      jump\t// out\n        /* \"Documents/MagnetAI/OrderSystem/src/MagnetAI.sol\":3327:3477  function getModelPrice(uint256 _modelId) public view returns (uint256) {... */\n    tag_100:\n        /* \"Documents/MagnetAI/OrderSystem/src/MagnetAI.sol\":3389:3396  uint256 */\n      0x00\n        /* \"Documents/MagnetAI/OrderSystem/src/MagnetAI.sol\":3408:3431  _checkModelId(_modelId) */\n      tag_263\n        /* \"Documents/MagnetAI/OrderSystem/src/MagnetAI.sol\":3422:3430  _modelId */\n      dup3\n        /* \"Documents/MagnetAI/OrderSystem/src/MagnetAI.sol\":3408:3421  _checkModelId */\n      tag_217\n        /* \"Documents/MagnetAI/OrderSystem/src/MagnetAI.sol\":3408:3431  _checkModelId(_modelId) */\n      jump\t// in\n    tag_263:\n        /* \"Documents/MagnetAI/OrderSystem/src/MagnetAI.sol\":3448:3454  models */\n      0x05\n        /* \"Documents/MagnetAI/OrderSystem/src/MagnetAI.sol\":3448:3464  models[_modelId] */\n      0x00\n        /* \"Documents/MagnetAI/OrderSystem/src/MagnetAI.sol\":3455:3463  _modelId */\n      dup4\n        /* \"Documents/MagnetAI/OrderSystem/src/MagnetAI.sol\":3448:3464  models[_modelId] */\n      dup2\n      mstore\n      0x20\n      add\n      swap1\n      dup2\n      mstore\n      0x20\n      add\n      0x00\n      keccak256\n        /* \"Documents/MagnetAI/OrderSystem/src/MagnetAI.sol\":3448:3470  models[_modelId].price */\n      0x03\n      add\n      sload\n        /* \"Documents/MagnetAI/OrderSystem/src/MagnetAI.sol\":3441:3470  return models[_modelId].price */\n      swap1\n      pop\n        /* \"Documents/MagnetAI/OrderSystem/src/MagnetAI.sol\":3327:3477  function getModelPrice(uint256 _modelId) public view returns (uint256) {... */\n      swap2\n      swap1\n      pop\n      jump\t// out\n        /* \"Documents/MagnetAI/OrderSystem/src/MagnetAI.sol\":1003:1060  mapping(address account => uint256 balance) public reward */\n    tag_105:\n      mstore(0x20, 0x0c)\n      dup1\n      0x00\n      mstore\n      keccak256(0x00, 0x40)\n      0x00\n      swap2\n      pop\n      swap1\n      pop\n      sload\n      dup2\n      jump\t// out\n        /* \"Documents/MagnetAI/OrderSystem/src/MagnetAI.sol\":5174:5781  function registerModelManager(uint256 _modelId, uint256 _subnetId, string calldata _url) external onlyOwner {... */\n    tag_111:\n        /* \"@openzeppelin/contracts/access/Ownable.sol\":1531:1544  _checkOwner() */\n      tag_265\n        /* \"@openzeppelin/contracts/access/Ownable.sol\":1531:1542  _checkOwner */\n      tag_245\n        /* \"@openzeppelin/contracts/access/Ownable.sol\":1531:1544  _checkOwner() */\n      jump\t// in\n    tag_265:\n        /* \"Documents/MagnetAI/OrderSystem/src/MagnetAI.sol\":5292:5315  _checkModelId(_modelId) */\n      tag_267\n        /* \"Documents/MagnetAI/OrderSystem/src/MagnetAI.sol\":5306:5314  _modelId */\n      dup5\n        /* \"Documents/MagnetAI/OrderSystem/src/MagnetAI.sol\":5292:5305  _checkModelId */\n      tag_217\n        /* \"Documents/MagnetAI/OrderSystem/src/MagnetAI.sol\":5292:5315  _checkModelId(_modelId) */\n      jump\t// in\n    tag_267:\n        /* \"Documents/MagnetAI/OrderSystem/src/MagnetAI.sol\":5325:5350  _checkSubnetId(_subnetId) */\n      tag_268\n        /* \"Documents/MagnetAI/OrderSystem/src/MagnetAI.sol\":5340:5349  _subnetId */\n      dup4\n        /* \"Documents/MagnetAI/OrderSystem/src/MagnetAI.sol\":5325:5339  _checkSubnetId */\n      tag_269\n        /* \"Documents/MagnetAI/OrderSystem/src/MagnetAI.sol\":5325:5350  _checkSubnetId(_subnetId) */\n      jump\t// in\n    tag_268:\n        /* \"Documents/MagnetAI/OrderSystem/src/MagnetAI.sol\":5360:5392  ModelManager memory modelManager */\n      0x00\n        /* \"Documents/MagnetAI/OrderSystem/src/MagnetAI.sol\":5395:5588  ModelManager({... */\n      mload(0x40)\n      dup1\n      0xa0\n      add\n      0x40\n      mstore\n      dup1\n        /* \"Documents/MagnetAI/OrderSystem/src/MagnetAI.sol\":5438:5459  _modelManagerIdNounce */\n      sload(0x04)\n        /* \"Documents/MagnetAI/OrderSystem/src/MagnetAI.sol\":5395:5588  ModelManager({... */\n      dup2\n      mstore\n      0x20\n      add\n        /* \"Documents/MagnetAI/OrderSystem/src/MagnetAI.sol\":5483:5492  _subnetId */\n      dup6\n        /* \"Documents/MagnetAI/OrderSystem/src/MagnetAI.sol\":5395:5588  ModelManager({... */\n      dup2\n      mstore\n      0x20\n      add\n        /* \"Documents/MagnetAI/OrderSystem/src/MagnetAI.sol\":5515:5523  _modelId */\n      dup7\n        /* \"Documents/MagnetAI/OrderSystem/src/MagnetAI.sol\":5395:5588  ModelManager({... */\n      dup2\n      mstore\n      0x20\n      add\n        /* \"Documents/MagnetAI/OrderSystem/src/MagnetAI.sol\":5544:5554  msg.sender */\n      caller\n        /* \"Documents/MagnetAI/OrderSystem/src/MagnetAI.sol\":5395:5588  ModelManager({... */\n      0xffffffffffffffffffffffffffffffffffffffff\n      and\n      dup2\n      mstore\n      0x20\n      add\n        /* \"Documents/MagnetAI/OrderSystem/src/MagnetAI.sol\":5573:5577  _url */\n      dup5\n      dup5\n        /* \"Documents/MagnetAI/OrderSystem/src/MagnetAI.sol\":5395:5588  ModelManager({... */\n      dup1\n      dup1\n      0x1f\n      add\n      0x20\n      dup1\n      swap2\n      div\n      mul\n      0x20\n      add\n      mload(0x40)\n      swap1\n      dup2\n      add\n      0x40\n      mstore\n      dup1\n      swap4\n      swap3\n      swap2\n      swap1\n      dup2\n      dup2\n      mstore\n      0x20\n      add\n      dup4\n      dup4\n      dup1\n      dup3\n      dup5\n      calldatacopy\n      0x00\n      dup2\n      dup5\n      add\n      mstore\n      not(0x1f)\n      0x1f\n      dup3\n      add\n      and\n      swap1\n      pop\n      dup1\n      dup4\n      add\n      swap3\n      pop\n      pop\n      pop\n      pop\n      pop\n      pop\n      pop\n      dup2\n      mstore\n      pop\n        /* \"Documents/MagnetAI/OrderSystem/src/MagnetAI.sol\":5360:5588  ModelManager memory modelManager = ModelManager({... */\n      swap1\n      pop\n        /* \"Documents/MagnetAI/OrderSystem/src/MagnetAI.sol\":5643:5655  modelManager */\n      dup1\n        /* \"Documents/MagnetAI/OrderSystem/src/MagnetAI.sol\":5598:5611  modelManagers */\n      0x07\n        /* \"Documents/MagnetAI/OrderSystem/src/MagnetAI.sol\":5598:5640  modelManagers[modelManager.modelManagerId] */\n      0x00\n        /* \"Documents/MagnetAI/OrderSystem/src/MagnetAI.sol\":5612:5624  modelManager */\n      dup4\n        /* \"Documents/MagnetAI/OrderSystem/src/MagnetAI.sol\":5612:5639  modelManager.modelManagerId */\n      0x00\n      add\n      mload\n        /* \"Documents/MagnetAI/OrderSystem/src/MagnetAI.sol\":5598:5640  modelManagers[modelManager.modelManagerId] */\n      dup2\n      mstore\n      0x20\n      add\n      swap1\n      dup2\n      mstore\n      0x20\n      add\n      0x00\n      keccak256\n        /* \"Documents/MagnetAI/OrderSystem/src/MagnetAI.sol\":5598:5655  modelManagers[modelManager.modelManagerId] = modelManager */\n      0x00\n      dup3\n      add\n      mload\n      dup2\n      0x00\n      add\n      sstore\n      0x20\n      dup3\n      add\n      mload\n      dup2\n      0x01\n      add\n      sstore\n      0x40\n      dup3\n      add\n      mload\n      dup2\n      0x02\n      add\n      sstore\n      0x60\n      dup3\n      add\n      mload\n      dup2\n      0x03\n      add\n      exp(0x0100, 0x00)\n      dup2\n      sload\n      dup2\n      0xffffffffffffffffffffffffffffffffffffffff\n      mul\n      not\n      and\n      swap1\n      dup4\n      0xffffffffffffffffffffffffffffffffffffffff\n      and\n      mul\n      or\n      swap1\n      sstore\n      pop\n      0x80\n      dup3\n      add\n      mload\n      dup2\n      0x04\n      add\n      swap1\n      dup2\n      tag_270\n      swap2\n      swap1\n      tag_248\n      jump\t// in\n    tag_270:\n      pop\n      swap1\n      pop\n      pop\n        /* \"Documents/MagnetAI/OrderSystem/src/MagnetAI.sol\":5665:5686  _modelManagerIdNounce */\n      0x04\n      0x00\n        /* \"Documents/MagnetAI/OrderSystem/src/MagnetAI.sol\":5665:5688  _modelManagerIdNounce++ */\n      dup2\n      sload\n      dup1\n      swap3\n      swap2\n      swap1\n      tag_271\n      swap1\n      tag_250\n      jump\t// in\n    tag_271:\n      swap2\n      swap1\n      pop\n      sstore\n      pop\n        /* \"Documents/MagnetAI/OrderSystem/src/MagnetAI.sol\":5703:5774  ModelManagerRegistered(modelManager.modelManagerId, modelManager.owner) */\n      0xf5ad85f81925731c7a6f2ae2dd45266294be407161786cfae037498ee92c45f7\n        /* \"Documents/MagnetAI/OrderSystem/src/MagnetAI.sol\":5726:5738  modelManager */\n      dup2\n        /* \"Documents/MagnetAI/OrderSystem/src/MagnetAI.sol\":5726:5753  modelManager.modelManagerId */\n      0x00\n      add\n      mload\n        /* \"Documents/MagnetAI/OrderSystem/src/MagnetAI.sol\":5755:5767  modelManager */\n      dup3\n        /* \"Documents/MagnetAI/OrderSystem/src/MagnetAI.sol\":5755:5773  modelManager.owner */\n      0x60\n      add\n      mload\n        /* \"Documents/MagnetAI/OrderSystem/src/MagnetAI.sol\":5703:5774  ModelManagerRegistered(modelManager.modelManagerId, modelManager.owner) */\n      mload(0x40)\n      tag_272\n      swap3\n      swap2\n      swap1\n      tag_78\n      jump\t// in\n    tag_272:\n      mload(0x40)\n      dup1\n      swap2\n      sub\n      swap1\n      log1\n        /* \"Documents/MagnetAI/OrderSystem/src/MagnetAI.sol\":5282:5781  {... */\n      pop\n        /* \"Documents/MagnetAI/OrderSystem/src/MagnetAI.sol\":5174:5781  function registerModelManager(uint256 _modelId, uint256 _subnetId, string calldata _url) external onlyOwner {... */\n      pop\n      pop\n      pop\n      pop\n      jump\t// out\n        /* \"Documents/MagnetAI/OrderSystem/src/MagnetAI.sol\":9391:10042  function createBot(uint256 _botHandle, uint256 _modelManagerId, string memory _metadata, uint256 _price) public nonReentrant {... */\n    tag_116:\n        /* \"@openzeppelin/contracts/utils/ReentrancyGuard.sol\":2356:2377  _nonReentrantBefore() */\n      tag_274\n        /* \"@openzeppelin/contracts/utils/ReentrancyGuard.sol\":2356:2375  _nonReentrantBefore */\n      tag_275\n        /* \"@openzeppelin/contracts/utils/ReentrancyGuard.sol\":2356:2377  _nonReentrantBefore() */\n      jump\t// in\n    tag_274:\n        /* \"Documents/MagnetAI/OrderSystem/src/MagnetAI.sol\":9530:9547  botHandleRegistry */\n      0x09\n        /* \"Documents/MagnetAI/OrderSystem/src/MagnetAI.sol\":9530:9559  botHandleRegistry[_botHandle] */\n      0x00\n        /* \"Documents/MagnetAI/OrderSystem/src/MagnetAI.sol\":9548:9558  _botHandle */\n      dup6\n        /* \"Documents/MagnetAI/OrderSystem/src/MagnetAI.sol\":9530:9559  botHandleRegistry[_botHandle] */\n      dup2\n      mstore\n      0x20\n      add\n      swap1\n      dup2\n      mstore\n      0x20\n      add\n      0x00\n      keccak256\n      0x00\n      swap1\n      sload\n      swap1\n      0x0100\n      exp\n      swap1\n      div\n      0xff\n      and\n        /* \"Documents/MagnetAI/OrderSystem/src/MagnetAI.sol\":9526:9624  if (botHandleRegistry[_botHandle]) {... */\n      iszero\n      tag_277\n      jumpi\n        /* \"Documents/MagnetAI/OrderSystem/src/MagnetAI.sol\":9602:9612  _botHandle */\n      dup4\n        /* \"Documents/MagnetAI/OrderSystem/src/MagnetAI.sol\":9582:9613  BotHandleHasExisted(_botHandle) */\n      mload(0x40)\n      0x245ee86500000000000000000000000000000000000000000000000000000000\n      dup2\n      mstore\n      0x04\n      add\n      tag_278\n      swap2\n      swap1\n      tag_48\n      jump\t// in\n    tag_278:\n      mload(0x40)\n      dup1\n      swap2\n      sub\n      swap1\n      revert\n        /* \"Documents/MagnetAI/OrderSystem/src/MagnetAI.sol\":9526:9624  if (botHandleRegistry[_botHandle]) {... */\n    tag_277:\n        /* \"Documents/MagnetAI/OrderSystem/src/MagnetAI.sol\":9633:9670  _checkModelManagerId(_modelManagerId) */\n      tag_279\n        /* \"Documents/MagnetAI/OrderSystem/src/MagnetAI.sol\":9654:9669  _modelManagerId */\n      dup4\n        /* \"Documents/MagnetAI/OrderSystem/src/MagnetAI.sol\":9633:9653  _checkModelManagerId */\n      tag_280\n        /* \"Documents/MagnetAI/OrderSystem/src/MagnetAI.sol\":9633:9670  _checkModelManagerId(_modelManagerId) */\n      jump\t// in\n    tag_279:\n        /* \"Documents/MagnetAI/OrderSystem/src/MagnetAI.sol\":9680:9694  Bot memory bot */\n      0x00\n        /* \"Documents/MagnetAI/OrderSystem/src/MagnetAI.sol\":9697:9883  Bot({... */\n      mload(0x40)\n      dup1\n      0xa0\n      add\n      0x40\n      mstore\n      dup1\n        /* \"Documents/MagnetAI/OrderSystem/src/MagnetAI.sol\":9726:9736  _botHandle */\n      dup7\n        /* \"Documents/MagnetAI/OrderSystem/src/MagnetAI.sol\":9697:9883  Bot({... */\n      dup2\n      mstore\n      0x20\n      add\n        /* \"Documents/MagnetAI/OrderSystem/src/MagnetAI.sol\":9766:9781  _modelManagerId */\n      dup6\n        /* \"Documents/MagnetAI/OrderSystem/src/MagnetAI.sol\":9697:9883  Bot({... */\n      dup2\n      mstore\n      0x20\n      add\n        /* \"Documents/MagnetAI/OrderSystem/src/MagnetAI.sol\":9802:9812  msg.sender */\n      caller\n        /* \"Documents/MagnetAI/OrderSystem/src/MagnetAI.sol\":9697:9883  Bot({... */\n      0xffffffffffffffffffffffffffffffffffffffff\n      and\n      dup2\n      mstore\n      0x20\n      add\n        /* \"Documents/MagnetAI/OrderSystem/src/MagnetAI.sol\":9836:9845  _metadata */\n      dup5\n        /* \"Documents/MagnetAI/OrderSystem/src/MagnetAI.sol\":9697:9883  Bot({... */\n      dup2\n      mstore\n      0x20\n      add\n        /* \"Documents/MagnetAI/OrderSystem/src/MagnetAI.sol\":9866:9872  _price */\n      dup4\n        /* \"Documents/MagnetAI/OrderSystem/src/MagnetAI.sol\":9697:9883  Bot({... */\n      dup2\n      mstore\n      pop\n        /* \"Documents/MagnetAI/OrderSystem/src/MagnetAI.sol\":9680:9883  Bot memory bot = Bot({... */\n      swap1\n      pop\n        /* \"Documents/MagnetAI/OrderSystem/src/MagnetAI.sol\":9915:9918  bot */\n      dup1\n        /* \"Documents/MagnetAI/OrderSystem/src/MagnetAI.sol\":9893:9897  bots */\n      0x08\n        /* \"Documents/MagnetAI/OrderSystem/src/MagnetAI.sol\":9893:9912  bots[bot.botHandle] */\n      0x00\n        /* \"Documents/MagnetAI/OrderSystem/src/MagnetAI.sol\":9898:9901  bot */\n      dup4\n        /* \"Documents/MagnetAI/OrderSystem/src/MagnetAI.sol\":9898:9911  bot.botHandle */\n      0x00\n      add\n      mload\n        /* \"Documents/MagnetAI/OrderSystem/src/MagnetAI.sol\":9893:9912  bots[bot.botHandle] */\n      dup2\n      mstore\n      0x20\n      add\n      swap1\n      dup2\n      mstore\n      0x20\n      add\n      0x00\n      keccak256\n        /* \"Documents/MagnetAI/OrderSystem/src/MagnetAI.sol\":9893:9918  bots[bot.botHandle] = bot */\n      0x00\n      dup3\n      add\n      mload\n      dup2\n      0x00\n      add\n      sstore\n      0x20\n      dup3\n      add\n      mload\n      dup2\n      0x01\n      add\n      sstore\n      0x40\n      dup3\n      add\n      mload\n      dup2\n      0x02\n      add\n      exp(0x0100, 0x00)\n      dup2\n      sload\n      dup2\n      0xffffffffffffffffffffffffffffffffffffffff\n      mul\n      not\n      and\n      swap1\n      dup4\n      0xffffffffffffffffffffffffffffffffffffffff\n      and\n      mul\n      or\n      swap1\n      sstore\n      pop\n      0x60\n      dup3\n      add\n      mload\n      dup2\n      0x03\n      add\n      swap1\n      dup2\n      tag_281\n      swap2\n      swap1\n      tag_248\n      jump\t// in\n    tag_281:\n      pop\n      0x80\n      dup3\n      add\n      mload\n      dup2\n      0x04\n      add\n      sstore\n      swap1\n      pop\n      pop\n        /* \"Documents/MagnetAI/OrderSystem/src/MagnetAI.sol\":9960:9964  true */\n      0x01\n        /* \"Documents/MagnetAI/OrderSystem/src/MagnetAI.sol\":9928:9945  botHandleRegistry */\n      0x09\n        /* \"Documents/MagnetAI/OrderSystem/src/MagnetAI.sol\":9928:9957  botHandleRegistry[_botHandle] */\n      0x00\n        /* \"Documents/MagnetAI/OrderSystem/src/MagnetAI.sol\":9946:9956  _botHandle */\n      dup8\n        /* \"Documents/MagnetAI/OrderSystem/src/MagnetAI.sol\":9928:9957  botHandleRegistry[_botHandle] */\n      dup2\n      mstore\n      0x20\n      add\n      swap1\n      dup2\n      mstore\n      0x20\n      add\n      0x00\n      keccak256\n      0x00\n        /* \"Documents/MagnetAI/OrderSystem/src/MagnetAI.sol\":9928:9964  botHandleRegistry[_botHandle] = true */\n      0x0100\n      exp\n      dup2\n      sload\n      dup2\n      0xff\n      mul\n      not\n      and\n      swap1\n      dup4\n      iszero\n      iszero\n      mul\n      or\n      swap1\n      sstore\n      pop\n        /* \"Documents/MagnetAI/OrderSystem/src/MagnetAI.sol\":9979:10035  BotCreated(bot.owner, bot.botHandle, bot.modelManagerId) */\n      0xfb7efcbf80fedd7db194364fc758c3a3979922abeeb6bcaa16208527eabcbd28\n        /* \"Documents/MagnetAI/OrderSystem/src/MagnetAI.sol\":9990:9993  bot */\n      dup2\n        /* \"Documents/MagnetAI/OrderSystem/src/MagnetAI.sol\":9990:9999  bot.owner */\n      0x40\n      add\n      mload\n        /* \"Documents/MagnetAI/OrderSystem/src/MagnetAI.sol\":10001:10004  bot */\n      dup3\n        /* \"Documents/MagnetAI/OrderSystem/src/MagnetAI.sol\":10001:10014  bot.botHandle */\n      0x00\n      add\n      mload\n        /* \"Documents/MagnetAI/OrderSystem/src/MagnetAI.sol\":10016:10019  bot */\n      dup4\n        /* \"Documents/MagnetAI/OrderSystem/src/MagnetAI.sol\":10016:10034  bot.modelManagerId */\n      0x20\n      add\n      mload\n        /* \"Documents/MagnetAI/OrderSystem/src/MagnetAI.sol\":9979:10035  BotCreated(bot.owner, bot.botHandle, bot.modelManagerId) */\n      mload(0x40)\n      tag_282\n      swap4\n      swap3\n      swap2\n      swap1\n      tag_283\n      jump\t// in\n    tag_282:\n      mload(0x40)\n      dup1\n      swap2\n      sub\n      swap1\n      log1\n        /* \"Documents/MagnetAI/OrderSystem/src/MagnetAI.sol\":9516:10042  {... */\n      pop\n        /* \"@openzeppelin/contracts/utils/ReentrancyGuard.sol\":2398:2418  _nonReentrantAfter() */\n      tag_284\n        /* \"@openzeppelin/contracts/utils/ReentrancyGuard.sol\":2398:2416  _nonReentrantAfter */\n      tag_285\n        /* \"@openzeppelin/contracts/utils/ReentrancyGuard.sol\":2398:2418  _nonReentrantAfter() */\n      jump\t// in\n    tag_284:\n        /* \"Documents/MagnetAI/OrderSystem/src/MagnetAI.sol\":9391:10042  function createBot(uint256 _botHandle, uint256 _modelManagerId, string memory _metadata, uint256 _price) public nonReentrant {... */\n      pop\n      pop\n      pop\n      pop\n      jump\t// out\n        /* \"Documents/MagnetAI/OrderSystem/src/MagnetAI.sol\":481:536  mapping(uint256 modelId => AIModel model) public models */\n    tag_120:\n      mstore(0x20, 0x05)\n      dup1\n      0x00\n      mstore\n      keccak256(0x00, 0x40)\n      0x00\n      swap2\n      pop\n      swap1\n      pop\n      dup1\n      0x00\n      add\n      sload\n      swap1\n      dup1\n      0x01\n      add\n      0x00\n      swap1\n      sload\n      swap1\n      0x0100\n      exp\n      swap1\n      div\n      0xffffffffffffffffffffffffffffffffffffffff\n      and\n      swap1\n      dup1\n      0x02\n      add\n      dup1\n      sload\n      tag_286\n      swap1\n      tag_287\n      jump\t// in\n    tag_286:\n      dup1\n      0x1f\n      add\n      0x20\n      dup1\n      swap2\n      div\n      mul\n      0x20\n      add\n      mload(0x40)\n      swap1\n      dup2\n      add\n      0x40\n      mstore\n      dup1\n      swap3\n      swap2\n      swap1\n      dup2\n      dup2\n      mstore\n      0x20\n      add\n      dup3\n      dup1\n      sload\n      tag_288\n      swap1\n      tag_287\n      jump\t// in\n    tag_288:\n      dup1\n      iszero\n      tag_289\n      jumpi\n      dup1\n      0x1f\n      lt\n      tag_290\n      jumpi\n      0x0100\n      dup1\n      dup4\n      sload\n      div\n      mul\n      dup4\n      mstore\n      swap2\n      0x20\n      add\n      swap2\n      jump(tag_289)\n    tag_290:\n      dup3\n      add\n      swap2\n      swap1\n      0x00\n      mstore\n      keccak256(0x00, 0x20)\n      swap1\n    tag_291:\n      dup2\n      sload\n      dup2\n      mstore\n      swap1\n      0x01\n      add\n      swap1\n      0x20\n      add\n      dup1\n      dup4\n      gt\n      tag_291\n      jumpi\n      dup3\n      swap1\n      sub\n      0x1f\n      and\n      dup3\n      add\n      swap2\n    tag_289:\n      pop\n      pop\n      pop\n      pop\n      pop\n      swap1\n      dup1\n      0x03\n      add\n      sload\n      swap1\n      pop\n      dup5\n      jump\t// out\n        /* \"@openzeppelin/contracts/access/Ownable.sol\":2293:2394  function renounceOwnership() public virtual onlyOwner {... */\n    tag_125:\n        /* \"@openzeppelin/contracts/access/Ownable.sol\":1531:1544  _checkOwner() */\n      tag_293\n        /* \"@openzeppelin/contracts/access/Ownable.sol\":1531:1542  _checkOwner */\n      tag_245\n        /* \"@openzeppelin/contracts/access/Ownable.sol\":1531:1544  _checkOwner() */\n      jump\t// in\n    tag_293:\n        /* \"@openzeppelin/contracts/access/Ownable.sol\":2357:2387  _transferOwnership(address(0)) */\n      tag_295\n        /* \"@openzeppelin/contracts/access/Ownable.sol\":2384:2385  0 */\n      0x00\n        /* \"@openzeppelin/contracts/access/Ownable.sol\":2357:2375  _transferOwnership */\n      tag_296\n        /* \"@openzeppelin/contracts/access/Ownable.sol\":2357:2387  _transferOwnership(address(0)) */\n      jump\t// in\n    tag_295:\n        /* \"@openzeppelin/contracts/access/Ownable.sol\":2293:2394  function renounceOwnership() public virtual onlyOwner {... */\n      jump\t// out\n        /* \"Documents/MagnetAI/OrderSystem/src/MagnetAI.sol\":10673:10823  function getBotInfo(uint256 _botHandle) public view returns (Bot memory) {... */\n    tag_129:\n        /* \"Documents/MagnetAI/OrderSystem/src/MagnetAI.sol\":10734:10744  Bot memory */\n      tag_297\n      tag_298\n      jump\t// in\n    tag_297:\n        /* \"Documents/MagnetAI/OrderSystem/src/MagnetAI.sol\":10756:10783  _checkBotHandle(_botHandle) */\n      tag_300\n        /* \"Documents/MagnetAI/OrderSystem/src/MagnetAI.sol\":10772:10782  _botHandle */\n      dup3\n        /* \"Documents/MagnetAI/OrderSystem/src/MagnetAI.sol\":10756:10771  _checkBotHandle */\n      tag_238\n        /* \"Documents/MagnetAI/OrderSystem/src/MagnetAI.sol\":10756:10783  _checkBotHandle(_botHandle) */\n      jump\t// in\n    tag_300:\n        /* \"Documents/MagnetAI/OrderSystem/src/MagnetAI.sol\":10800:10804  bots */\n      0x08\n        /* \"Documents/MagnetAI/OrderSystem/src/MagnetAI.sol\":10800:10816  bots[_botHandle] */\n      0x00\n        /* \"Documents/MagnetAI/OrderSystem/src/MagnetAI.sol\":10805:10815  _botHandle */\n      dup4\n        /* \"Documents/MagnetAI/OrderSystem/src/MagnetAI.sol\":10800:10816  bots[_botHandle] */\n      dup2\n      mstore\n      0x20\n      add\n      swap1\n      dup2\n      mstore\n      0x20\n      add\n      0x00\n      keccak256\n        /* \"Documents/MagnetAI/OrderSystem/src/MagnetAI.sol\":10793:10816  return bots[_botHandle] */\n      mload(0x40)\n      dup1\n      0xa0\n      add\n      0x40\n      mstore\n      swap1\n      dup2\n      0x00\n      dup3\n      add\n      sload\n      dup2\n      mstore\n      0x20\n      add\n      0x01\n      dup3\n      add\n      sload\n      dup2\n      mstore\n      0x20\n      add\n      0x02\n      dup3\n      add\n      0x00\n      swap1\n      sload\n      swap1\n      0x0100\n      exp\n      swap1\n      div\n      0xffffffffffffffffffffffffffffffffffffffff\n      and\n      0xffffffffffffffffffffffffffffffffffffffff\n      and\n      0xffffffffffffffffffffffffffffffffffffffff\n      and\n      dup2\n      mstore\n      0x20\n      add\n      0x03\n      dup3\n      add\n      dup1\n      sload\n      tag_301\n      swap1\n      tag_287\n      jump\t// in\n    tag_301:\n      dup1\n      0x1f\n      add\n      0x20\n      dup1\n      swap2\n      div\n      mul\n      0x20\n      add\n      mload(0x40)\n      swap1\n      dup2\n      add\n      0x40\n      mstore\n      dup1\n      swap3\n      swap2\n      swap1\n      dup2\n      dup2\n      mstore\n      0x20\n      add\n      dup3\n      dup1\n      sload\n      tag_302\n      swap1\n      tag_287\n      jump\t// in\n    tag_302:\n      dup1\n      iszero\n      tag_303\n      jumpi\n      dup1\n      0x1f\n      lt\n      tag_304\n      jumpi\n      0x0100\n      dup1\n      dup4\n      sload\n      div\n      mul\n      dup4\n      mstore\n      swap2\n      0x20\n      add\n      swap2\n      jump(tag_303)\n    tag_304:\n      dup3\n      add\n      swap2\n      swap1\n      0x00\n      mstore\n      keccak256(0x00, 0x20)\n      swap1\n    tag_305:\n      dup2\n      sload\n      dup2\n      mstore\n      swap1\n      0x01\n      add\n      swap1\n      0x20\n      add\n      dup1\n      dup4\n      gt\n      tag_305\n      jumpi\n      dup3\n      swap1\n      sub\n      0x1f\n      and\n      dup3\n      add\n      swap2\n    tag_303:\n      pop\n      pop\n      pop\n      pop\n      pop\n      dup2\n      mstore\n      0x20\n      add\n      0x04\n      dup3\n      add\n      sload\n      dup2\n      mstore\n      pop\n      pop\n      swap1\n      pop\n        /* \"Documents/MagnetAI/OrderSystem/src/MagnetAI.sol\":10673:10823  function getBotInfo(uint256 _botHandle) public view returns (Bot memory) {... */\n      swap2\n      swap1\n      pop\n      jump\t// out\n        /* \"Documents/MagnetAI/OrderSystem/src/MagnetAI.sol\":11167:11321  function getBotPrice(uint256 _botHandle) public view returns (uint256) {... */\n    tag_135:\n        /* \"Documents/MagnetAI/OrderSystem/src/MagnetAI.sol\":11229:11236  uint256 */\n      0x00\n        /* \"Documents/MagnetAI/OrderSystem/src/MagnetAI.sol\":11248:11275  _checkBotHandle(_botHandle) */\n      tag_307\n        /* \"Documents/MagnetAI/OrderSystem/src/MagnetAI.sol\":11264:11274  _botHandle */\n      dup3\n        /* \"Documents/MagnetAI/OrderSystem/src/MagnetAI.sol\":11248:11263  _checkBotHandle */\n      tag_238\n        /* \"Documents/MagnetAI/OrderSystem/src/MagnetAI.sol\":11248:11275  _checkBotHandle(_botHandle) */\n      jump\t// in\n    tag_307:\n        /* \"Documents/MagnetAI/OrderSystem/src/MagnetAI.sol\":11292:11296  bots */\n      0x08\n        /* \"Documents/MagnetAI/OrderSystem/src/MagnetAI.sol\":11292:11308  bots[_botHandle] */\n      0x00\n        /* \"Documents/MagnetAI/OrderSystem/src/MagnetAI.sol\":11297:11307  _botHandle */\n      dup4\n        /* \"Documents/MagnetAI/OrderSystem/src/MagnetAI.sol\":11292:11308  bots[_botHandle] */\n      dup2\n      mstore\n      0x20\n      add\n      swap1\n      dup2\n      mstore\n      0x20\n      add\n      0x00\n      keccak256\n        /* \"Documents/MagnetAI/OrderSystem/src/MagnetAI.sol\":11292:11314  bots[_botHandle].price */\n      0x04\n      add\n      sload\n        /* \"Documents/MagnetAI/OrderSystem/src/MagnetAI.sol\":11285:11314  return bots[_botHandle].price */\n      swap1\n      pop\n        /* \"Documents/MagnetAI/OrderSystem/src/MagnetAI.sol\":11167:11321  function getBotPrice(uint256 _botHandle) public view returns (uint256) {... */\n      swap2\n      swap1\n      pop\n      jump\t// out\n        /* \"Documents/MagnetAI/OrderSystem/src/MagnetAI.sol\":11007:11161  function getBotOwner(uint256 _botHandle) public view returns (address) {... */\n    tag_140:\n        /* \"Documents/MagnetAI/OrderSystem/src/MagnetAI.sol\":11069:11076  address */\n      0x00\n        /* \"Documents/MagnetAI/OrderSystem/src/MagnetAI.sol\":11088:11115  _checkBotHandle(_botHandle) */\n      tag_309\n        /* \"Documents/MagnetAI/OrderSystem/src/MagnetAI.sol\":11104:11114  _botHandle */\n      dup3\n        /* \"Documents/MagnetAI/OrderSystem/src/MagnetAI.sol\":11088:11103  _checkBotHandle */\n      tag_238\n        /* \"Documents/MagnetAI/OrderSystem/src/MagnetAI.sol\":11088:11115  _checkBotHandle(_botHandle) */\n      jump\t// in\n    tag_309:\n        /* \"Documents/MagnetAI/OrderSystem/src/MagnetAI.sol\":11132:11136  bots */\n      0x08\n        /* \"Documents/MagnetAI/OrderSystem/src/MagnetAI.sol\":11132:11148  bots[_botHandle] */\n      0x00\n        /* \"Documents/MagnetAI/OrderSystem/src/MagnetAI.sol\":11137:11147  _botHandle */\n      dup4\n        /* \"Documents/MagnetAI/OrderSystem/src/MagnetAI.sol\":11132:11148  bots[_botHandle] */\n      dup2\n      mstore\n      0x20\n      add\n      swap1\n      dup2\n      mstore\n      0x20\n      add\n      0x00\n      keccak256\n        /* \"Documents/MagnetAI/OrderSystem/src/MagnetAI.sol\":11132:11154  bots[_botHandle].owner */\n      0x02\n      add\n      0x00\n      swap1\n      sload\n      swap1\n      0x0100\n      exp\n      swap1\n      div\n      0xffffffffffffffffffffffffffffffffffffffff\n      and\n        /* \"Documents/MagnetAI/OrderSystem/src/MagnetAI.sol\":11125:11154  return bots[_botHandle].owner */\n      swap1\n      pop\n        /* \"Documents/MagnetAI/OrderSystem/src/MagnetAI.sol\":11007:11161  function getBotOwner(uint256 _botHandle) public view returns (address) {... */\n      swap2\n      swap1\n      pop\n      jump\t// out\n        /* \"Documents/MagnetAI/OrderSystem/src/MagnetAI.sol\":605:686  mapping(uint256 modelManagerId => ModelManager modelManager) public modelManagers */\n    tag_145:\n      mstore(0x20, 0x07)\n      dup1\n      0x00\n      mstore\n      keccak256(0x00, 0x40)\n      0x00\n      swap2\n      pop\n      swap1\n      pop\n      dup1\n      0x00\n      add\n      sload\n      swap1\n      dup1\n      0x01\n      add\n      sload\n      swap1\n      dup1\n      0x02\n      add\n      sload\n      swap1\n      dup1\n      0x03\n      add\n      0x00\n      swap1\n      sload\n      swap1\n      0x0100\n      exp\n      swap1\n      div\n      0xffffffffffffffffffffffffffffffffffffffff\n      and\n      swap1\n      dup1\n      0x04\n      add\n      dup1\n      sload\n      tag_310\n      swap1\n      tag_287\n      jump\t// in\n    tag_310:\n      dup1\n      0x1f\n      add\n      0x20\n      dup1\n      swap2\n      div\n      mul\n      0x20\n      add\n      mload(0x40)\n      swap1\n      dup2\n      add\n      0x40\n      mstore\n      dup1\n      swap3\n      swap2\n      swap1\n      dup2\n      dup2\n      mstore\n      0x20\n      add\n      dup3\n      dup1\n      sload\n      tag_311\n      swap1\n      tag_287\n      jump\t// in\n    tag_311:\n      dup1\n      iszero\n      tag_312\n      jumpi\n      dup1\n      0x1f\n      lt\n      tag_313\n      jumpi\n      0x0100\n      dup1\n      dup4\n      sload\n      div\n      mul\n      dup4\n      mstore\n      swap2\n      0x20\n      add\n      swap2\n      jump(tag_312)\n    tag_313:\n      dup3\n      add\n      swap2\n      swap1\n      0x00\n      mstore\n      keccak256(0x00, 0x20)\n      swap1\n    tag_314:\n      dup2\n      sload\n      dup2\n      mstore\n      swap1\n      0x01\n      add\n      swap1\n      0x20\n      add\n      dup1\n      dup4\n      gt\n      tag_314\n      jumpi\n      dup3\n      swap1\n      sub\n      0x1f\n      and\n      dup3\n      add\n      swap2\n    tag_312:\n      pop\n      pop\n      pop\n      pop\n      pop\n      swap1\n      pop\n      dup6\n      jump\t// out\n        /* \"@openzeppelin/contracts/access/Ownable.sol\":1638:1723  function owner() public view virtual returns (address) {... */\n    tag_150:\n        /* \"@openzeppelin/contracts/access/Ownable.sol\":1684:1691  address */\n      0x00\n        /* \"@openzeppelin/contracts/access/Ownable.sol\":1710:1716  _owner */\n      dup1\n      0x00\n      swap1\n      sload\n      swap1\n      0x0100\n      exp\n      swap1\n      div\n      0xffffffffffffffffffffffffffffffffffffffff\n      and\n        /* \"@openzeppelin/contracts/access/Ownable.sol\":1703:1716  return _owner */\n      swap1\n      pop\n        /* \"@openzeppelin/contracts/access/Ownable.sol\":1638:1723  function owner() public view virtual returns (address) {... */\n      swap1\n      jump\t// out\n        /* \"Documents/MagnetAI/OrderSystem/src/MagnetAI.sol\":4409:4564  function getSubnetInfo(uint256 _subnetId) public view returns (Subnet memory) {... */\n    tag_155:\n        /* \"Documents/MagnetAI/OrderSystem/src/MagnetAI.sol\":4472:4485  Subnet memory */\n      tag_316\n      tag_317\n      jump\t// in\n    tag_316:\n        /* \"Documents/MagnetAI/OrderSystem/src/MagnetAI.sol\":4497:4522  _checkSubnetId(_subnetId) */\n      tag_319\n        /* \"Documents/MagnetAI/OrderSystem/src/MagnetAI.sol\":4512:4521  _subnetId */\n      dup3\n        /* \"Documents/MagnetAI/OrderSystem/src/MagnetAI.sol\":4497:4511  _checkSubnetId */\n      tag_269\n        /* \"Documents/MagnetAI/OrderSystem/src/MagnetAI.sol\":4497:4522  _checkSubnetId(_subnetId) */\n      jump\t// in\n    tag_319:\n        /* \"Documents/MagnetAI/OrderSystem/src/MagnetAI.sol\":4539:4546  subnets */\n      0x06\n        /* \"Documents/MagnetAI/OrderSystem/src/MagnetAI.sol\":4539:4557  subnets[_subnetId] */\n      0x00\n        /* \"Documents/MagnetAI/OrderSystem/src/MagnetAI.sol\":4547:4556  _subnetId */\n      dup4\n        /* \"Documents/MagnetAI/OrderSystem/src/MagnetAI.sol\":4539:4557  subnets[_subnetId] */\n      dup2\n      mstore\n      0x20\n      add\n      swap1\n      dup2\n      mstore\n      0x20\n      add\n      0x00\n      keccak256\n        /* \"Documents/MagnetAI/OrderSystem/src/MagnetAI.sol\":4532:4557  return subnets[_subnetId] */\n      mload(0x40)\n      dup1\n      0x40\n      add\n      0x40\n      mstore\n      swap1\n      dup2\n      0x00\n      dup3\n      add\n      sload\n      dup2\n      mstore\n      0x20\n      add\n      0x01\n      dup3\n      add\n      0x00\n      swap1\n      sload\n      swap1\n      0x0100\n      exp\n      swap1\n      div\n      0xffffffffffffffffffffffffffffffffffffffff\n      and\n      0xffffffffffffffffffffffffffffffffffffffff\n      and\n      0xffffffffffffffffffffffffffffffffffffffff\n      and\n      dup2\n      mstore\n      pop\n      pop\n      swap1\n      pop\n        /* \"Documents/MagnetAI/OrderSystem/src/MagnetAI.sol\":4409:4564  function getSubnetInfo(uint256 _subnetId) public view returns (Subnet memory) {... */\n      swap2\n      swap1\n      pop\n      jump\t// out\n        /* \"Documents/MagnetAI/OrderSystem/src/MagnetAI.sol\":5787:6083  function setModelManagerUrl(uint256 _modelManagerId, string memory _newUrl) external onlyModelManagerOwner(_modelManagerId) {... */\n    tag_162:\n        /* \"Documents/MagnetAI/OrderSystem/src/MagnetAI.sol\":5894:5909  _modelManagerId */\n      dup2\n        /* \"Documents/MagnetAI/OrderSystem/src/MagnetAI.sol\":1674:1699  address modelManagerOwner */\n      0x00\n        /* \"Documents/MagnetAI/OrderSystem/src/MagnetAI.sol\":1702:1715  modelManagers */\n      0x07\n        /* \"Documents/MagnetAI/OrderSystem/src/MagnetAI.sol\":1702:1731  modelManagers[modelManagerId] */\n      0x00\n        /* \"Documents/MagnetAI/OrderSystem/src/MagnetAI.sol\":1716:1730  modelManagerId */\n      dup4\n        /* \"Documents/MagnetAI/OrderSystem/src/MagnetAI.sol\":1702:1731  modelManagers[modelManagerId] */\n      dup2\n      mstore\n      0x20\n      add\n      swap1\n      dup2\n      mstore\n      0x20\n      add\n      0x00\n      keccak256\n        /* \"Documents/MagnetAI/OrderSystem/src/MagnetAI.sol\":1702:1737  modelManagers[modelManagerId].owner */\n      0x03\n      add\n      0x00\n      swap1\n      sload\n      swap1\n      0x0100\n      exp\n      swap1\n      div\n      0xffffffffffffffffffffffffffffffffffffffff\n      and\n        /* \"Documents/MagnetAI/OrderSystem/src/MagnetAI.sol\":1674:1737  address modelManagerOwner = modelManagers[modelManagerId].owner */\n      swap1\n      pop\n        /* \"Documents/MagnetAI/OrderSystem/src/MagnetAI.sol\":1765:1782  modelManagerOwner */\n      dup1\n        /* \"Documents/MagnetAI/OrderSystem/src/MagnetAI.sol\":1751:1782  msg.sender != modelManagerOwner */\n      0xffffffffffffffffffffffffffffffffffffffff\n      and\n        /* \"Documents/MagnetAI/OrderSystem/src/MagnetAI.sol\":1751:1761  msg.sender */\n      caller\n        /* \"Documents/MagnetAI/OrderSystem/src/MagnetAI.sol\":1751:1782  msg.sender != modelManagerOwner */\n      0xffffffffffffffffffffffffffffffffffffffff\n      and\n      eq\n        /* \"Documents/MagnetAI/OrderSystem/src/MagnetAI.sol\":1747:1867  if (msg.sender != modelManagerOwner) {... */\n      tag_321\n      jumpi\n        /* \"Documents/MagnetAI/OrderSystem/src/MagnetAI.sol\":1826:1836  msg.sender */\n      caller\n        /* \"Documents/MagnetAI/OrderSystem/src/MagnetAI.sol\":1838:1855  modelManagerOwner */\n      dup2\n        /* \"Documents/MagnetAI/OrderSystem/src/MagnetAI.sol\":1805:1856  NotModelManagerOwner(msg.sender, modelManagerOwner) */\n      mload(0x40)\n      0x300a9d3600000000000000000000000000000000000000000000000000000000\n      dup2\n      mstore\n      0x04\n      add\n      tag_322\n      swap3\n      swap2\n      swap1\n      tag_214\n      jump\t// in\n    tag_322:\n      mload(0x40)\n      dup1\n      swap2\n      sub\n      swap1\n      revert\n        /* \"Documents/MagnetAI/OrderSystem/src/MagnetAI.sol\":1747:1867  if (msg.sender != modelManagerOwner) {... */\n    tag_321:\n        /* \"Documents/MagnetAI/OrderSystem/src/MagnetAI.sol\":5921:5958  _checkModelManagerId(_modelManagerId) */\n      tag_324\n        /* \"Documents/MagnetAI/OrderSystem/src/MagnetAI.sol\":5942:5957  _modelManagerId */\n      dup5\n        /* \"Documents/MagnetAI/OrderSystem/src/MagnetAI.sol\":5921:5941  _checkModelManagerId */\n      tag_280\n        /* \"Documents/MagnetAI/OrderSystem/src/MagnetAI.sol\":5921:5958  _checkModelManagerId(_modelManagerId) */\n      jump\t// in\n    tag_324:\n        /* \"Documents/MagnetAI/OrderSystem/src/MagnetAI.sol\":6005:6012  _newUrl */\n      dup3\n        /* \"Documents/MagnetAI/OrderSystem/src/MagnetAI.sol\":5968:5981  modelManagers */\n      0x07\n        /* \"Documents/MagnetAI/OrderSystem/src/MagnetAI.sol\":5968:5998  modelManagers[_modelManagerId] */\n      0x00\n        /* \"Documents/MagnetAI/OrderSystem/src/MagnetAI.sol\":5982:5997  _modelManagerId */\n      dup7\n        /* \"Documents/MagnetAI/OrderSystem/src/MagnetAI.sol\":5968:5998  modelManagers[_modelManagerId] */\n      dup2\n      mstore\n      0x20\n      add\n      swap1\n      dup2\n      mstore\n      0x20\n      add\n      0x00\n      keccak256\n        /* \"Documents/MagnetAI/OrderSystem/src/MagnetAI.sol\":5968:6002  modelManagers[_modelManagerId].url */\n      0x04\n      add\n        /* \"Documents/MagnetAI/OrderSystem/src/MagnetAI.sol\":5968:6012  modelManagers[_modelManagerId].url = _newUrl */\n      swap1\n      dup2\n      tag_325\n      swap2\n      swap1\n      tag_248\n      jump\t// in\n    tag_325:\n      pop\n        /* \"Documents/MagnetAI/OrderSystem/src/MagnetAI.sol\":6027:6076  ModelManagerUrlModified(_modelManagerId, _newUrl) */\n      0xacc80894202bfac14a7689e988209f2418a9109ef9ae8176c74d9be0442b509b\n        /* \"Documents/MagnetAI/OrderSystem/src/MagnetAI.sol\":6051:6066  _modelManagerId */\n      dup5\n        /* \"Documents/MagnetAI/OrderSystem/src/MagnetAI.sol\":6068:6075  _newUrl */\n      dup5\n        /* \"Documents/MagnetAI/OrderSystem/src/MagnetAI.sol\":6027:6076  ModelManagerUrlModified(_modelManagerId, _newUrl) */\n      mload(0x40)\n      tag_326\n      swap3\n      swap2\n      swap1\n      tag_327\n      jump\t// in\n    tag_326:\n      mload(0x40)\n      dup1\n      swap2\n      sub\n      swap1\n      log1\n        /* \"Documents/MagnetAI/OrderSystem/src/MagnetAI.sol\":1664:1884  {... */\n      pop\n        /* \"Documents/MagnetAI/OrderSystem/src/MagnetAI.sol\":5787:6083  function setModelManagerUrl(uint256 _modelManagerId, string memory _newUrl) external onlyModelManagerOwner(_modelManagerId) {... */\n      pop\n      pop\n      pop\n      jump\t// out\n        /* \"Documents/MagnetAI/OrderSystem/src/MagnetAI.sol\":747:819  mapping(uint256 botHandle => bool isRegistered) public botHandleRegistry */\n    tag_166:\n      mstore(0x20, 0x09)\n      dup1\n      0x00\n      mstore\n      keccak256(0x00, 0x40)\n      0x00\n      swap2\n      pop\n      sload\n      swap1\n      0x0100\n      exp\n      swap1\n      div\n      0xff\n      and\n      dup2\n      jump\t// out\n        /* \"Documents/MagnetAI/OrderSystem/src/MagnetAI.sol\":10829:11001  function getBotModelManagerId(uint256 _botHandle) public view returns (uint256) {... */\n    tag_172:\n        /* \"Documents/MagnetAI/OrderSystem/src/MagnetAI.sol\":10900:10907  uint256 */\n      0x00\n        /* \"Documents/MagnetAI/OrderSystem/src/MagnetAI.sol\":10919:10946  _checkBotHandle(_botHandle) */\n      tag_329\n        /* \"Documents/MagnetAI/OrderSystem/src/MagnetAI.sol\":10935:10945  _botHandle */\n      dup3\n        /* \"Documents/MagnetAI/OrderSystem/src/MagnetAI.sol\":10919:10934  _checkBotHandle */\n      tag_238\n        /* \"Documents/MagnetAI/OrderSystem/src/MagnetAI.sol\":10919:10946  _checkBotHandle(_botHandle) */\n      jump\t// in\n    tag_329:\n        /* \"Documents/MagnetAI/OrderSystem/src/MagnetAI.sol\":10963:10967  bots */\n      0x08\n        /* \"Documents/MagnetAI/OrderSystem/src/MagnetAI.sol\":10963:10979  bots[_botHandle] */\n      0x00\n        /* \"Documents/MagnetAI/OrderSystem/src/MagnetAI.sol\":10968:10978  _botHandle */\n      dup4\n        /* \"Documents/MagnetAI/OrderSystem/src/MagnetAI.sol\":10963:10979  bots[_botHandle] */\n      dup2\n      mstore\n      0x20\n      add\n      swap1\n      dup2\n      mstore\n      0x20\n      add\n      0x00\n      keccak256\n        /* \"Documents/MagnetAI/OrderSystem/src/MagnetAI.sol\":10963:10994  bots[_botHandle].modelManagerId */\n      0x01\n      add\n      sload\n        /* \"Documents/MagnetAI/OrderSystem/src/MagnetAI.sol\":10956:10994  return bots[_botHandle].modelManagerId */\n      swap1\n      pop\n        /* \"Documents/MagnetAI/OrderSystem/src/MagnetAI.sol\":10829:11001  function getBotModelManagerId(uint256 _botHandle) public view returns (uint256) {... */\n      swap2\n      swap1\n      pop\n      jump\t// out\n        /* \"Documents/MagnetAI/OrderSystem/src/MagnetAI.sol\":10324:10466  function followBot(uint256 _botHandle) external {... */\n    tag_177:\n        /* \"Documents/MagnetAI/OrderSystem/src/MagnetAI.sol\":10382:10409  _checkBotHandle(_botHandle) */\n      tag_331\n        /* \"Documents/MagnetAI/OrderSystem/src/MagnetAI.sol\":10398:10408  _botHandle */\n      dup2\n        /* \"Documents/MagnetAI/OrderSystem/src/MagnetAI.sol\":10382:10397  _checkBotHandle */\n      tag_238\n        /* \"Documents/MagnetAI/OrderSystem/src/MagnetAI.sol\":10382:10409  _checkBotHandle(_botHandle) */\n      jump\t// in\n    tag_331:\n        /* \"Documents/MagnetAI/OrderSystem/src/MagnetAI.sol\":10424:10459  BotFollowed(_botHandle, msg.sender) */\n      0x0f842e7c80a277f2dd0a984a3aa292db9541a9e3d5b14a0f8bbe7aae82640dc5\n        /* \"Documents/MagnetAI/OrderSystem/src/MagnetAI.sol\":10436:10446  _botHandle */\n      dup2\n        /* \"Documents/MagnetAI/OrderSystem/src/MagnetAI.sol\":10448:10458  msg.sender */\n      caller\n        /* \"Documents/MagnetAI/OrderSystem/src/MagnetAI.sol\":10424:10459  BotFollowed(_botHandle, msg.sender) */\n      mload(0x40)\n      tag_332\n      swap3\n      swap2\n      swap1\n      tag_78\n      jump\t// in\n    tag_332:\n      mload(0x40)\n      dup1\n      swap2\n      sub\n      swap1\n      log1\n        /* \"Documents/MagnetAI/OrderSystem/src/MagnetAI.sol\":10324:10466  function followBot(uint256 _botHandle) external {... */\n      pop\n      jump\t// out\n        /* \"Documents/MagnetAI/OrderSystem/src/MagnetAI.sol\":4570:4726  function getSubnetOwner(uint256 _subnetId) public view returns (address) {... */\n    tag_181:\n        /* \"Documents/MagnetAI/OrderSystem/src/MagnetAI.sol\":4634:4641  address */\n      0x00\n        /* \"Documents/MagnetAI/OrderSystem/src/MagnetAI.sol\":4653:4678  _checkSubnetId(_subnetId) */\n      tag_334\n        /* \"Documents/MagnetAI/OrderSystem/src/MagnetAI.sol\":4668:4677  _subnetId */\n      dup3\n        /* \"Documents/MagnetAI/OrderSystem/src/MagnetAI.sol\":4653:4667  _checkSubnetId */\n      tag_269\n        /* \"Documents/MagnetAI/OrderSystem/src/MagnetAI.sol\":4653:4678  _checkSubnetId(_subnetId) */\n      jump\t// in\n    tag_334:\n        /* \"Documents/MagnetAI/OrderSystem/src/MagnetAI.sol\":4695:4702  subnets */\n      0x06\n        /* \"Documents/MagnetAI/OrderSystem/src/MagnetAI.sol\":4695:4713  subnets[_subnetId] */\n      0x00\n        /* \"Documents/MagnetAI/OrderSystem/src/MagnetAI.sol\":4703:4712  _subnetId */\n      dup4\n        /* \"Documents/MagnetAI/OrderSystem/src/MagnetAI.sol\":4695:4713  subnets[_subnetId] */\n      dup2\n      mstore\n      0x20\n      add\n      swap1\n      dup2\n      mstore\n      0x20\n      add\n      0x00\n      keccak256\n        /* \"Documents/MagnetAI/OrderSystem/src/MagnetAI.sol\":4695:4719  subnets[_subnetId].owner */\n      0x01\n      add\n      0x00\n      swap1\n      sload\n      swap1\n      0x0100\n      exp\n      swap1\n      div\n      0xffffffffffffffffffffffffffffffffffffffff\n      and\n        /* \"Documents/MagnetAI/OrderSystem/src/MagnetAI.sol\":4688:4719  return subnets[_subnetId].owner */\n      swap1\n      pop\n        /* \"Documents/MagnetAI/OrderSystem/src/MagnetAI.sol\":4570:4726  function getSubnetOwner(uint256 _subnetId) public view returns (address) {... */\n      swap2\n      swap1\n      pop\n      jump\t// out\n        /* \"Documents/MagnetAI/OrderSystem/src/MagnetAI.sol\":7896:8093  function getModelManagerInfo(uint256 _modelManagerId) public view returns (ModelManager memory) {... */\n    tag_186:\n        /* \"Documents/MagnetAI/OrderSystem/src/MagnetAI.sol\":7971:7990  ModelManager memory */\n      tag_335\n      tag_336\n      jump\t// in\n    tag_335:\n        /* \"Documents/MagnetAI/OrderSystem/src/MagnetAI.sol\":8002:8039  _checkModelManagerId(_modelManagerId) */\n      tag_338\n        /* \"Documents/MagnetAI/OrderSystem/src/MagnetAI.sol\":8023:8038  _modelManagerId */\n      dup3\n        /* \"Documents/MagnetAI/OrderSystem/src/MagnetAI.sol\":8002:8022  _checkModelManagerId */\n      tag_280\n        /* \"Documents/MagnetAI/OrderSystem/src/MagnetAI.sol\":8002:8039  _checkModelManagerId(_modelManagerId) */\n      jump\t// in\n    tag_338:\n        /* \"Documents/MagnetAI/OrderSystem/src/MagnetAI.sol\":8056:8069  modelManagers */\n      0x07\n        /* \"Documents/MagnetAI/OrderSystem/src/MagnetAI.sol\":8056:8086  modelManagers[_modelManagerId] */\n      0x00\n        /* \"Documents/MagnetAI/OrderSystem/src/MagnetAI.sol\":8070:8085  _modelManagerId */\n      dup4\n        /* \"Documents/MagnetAI/OrderSystem/src/MagnetAI.sol\":8056:8086  modelManagers[_modelManagerId] */\n      dup2\n      mstore\n      0x20\n      add\n      swap1\n      dup2\n      mstore\n      0x20\n      add\n      0x00\n      keccak256\n        /* \"Documents/MagnetAI/OrderSystem/src/MagnetAI.sol\":8049:8086  return modelManagers[_modelManagerId] */\n      mload(0x40)\n      dup1\n      0xa0\n      add\n      0x40\n      mstore\n      swap1\n      dup2\n      0x00\n      dup3\n      add\n      sload\n      dup2\n      mstore\n      0x20\n      add\n      0x01\n      dup3\n      add\n      sload\n      dup2\n      mstore\n      0x20\n      add\n      0x02\n      dup3\n      add\n      sload\n      dup2\n      mstore\n      0x20\n      add\n      0x03\n      dup3\n      add\n      0x00\n      swap1\n      sload\n      swap1\n      0x0100\n      exp\n      swap1\n      div\n      0xffffffffffffffffffffffffffffffffffffffff\n      and\n      0xffffffffffffffffffffffffffffffffffffffff\n      and\n      0xffffffffffffffffffffffffffffffffffffffff\n      and\n      dup2\n      mstore\n      0x20\n      add\n      0x04\n      dup3\n      add\n      dup1\n      sload\n      tag_339\n      swap1\n      tag_287\n      jump\t// in\n    tag_339:\n      dup1\n      0x1f\n      add\n      0x20\n      dup1\n      swap2\n      div\n      mul\n      0x20\n      add\n      mload(0x40)\n      swap1\n      dup2\n      add\n      0x40\n      mstore\n      dup1\n      swap3\n      swap2\n      swap1\n      dup2\n      dup2\n      mstore\n      0x20\n      add\n      dup3\n      dup1\n      sload\n      tag_340\n      swap1\n      tag_287\n      jump\t// in\n    tag_340:\n      dup1\n      iszero\n      tag_341\n      jumpi\n      dup1\n      0x1f\n      lt\n      tag_342\n      jumpi\n      0x0100\n      dup1\n      dup4\n      sload\n      div\n      mul\n      dup4\n      mstore\n      swap2\n      0x20\n      add\n      swap2\n      jump(tag_341)\n    tag_342:\n      dup3\n      add\n      swap2\n      swap1\n      0x00\n      mstore\n      keccak256(0x00, 0x20)\n      swap1\n    tag_343:\n      dup2\n      sload\n      dup2\n      mstore\n      swap1\n      0x01\n      add\n      swap1\n      0x20\n      add\n      dup1\n      dup4\n      gt\n      tag_343\n      jumpi\n      dup3\n      swap1\n      sub\n      0x1f\n      and\n      dup3\n      add\n      swap2\n    tag_341:\n      pop\n      pop\n      pop\n      pop\n      pop\n      dup2\n      mstore\n      pop\n      pop\n      swap1\n      pop\n        /* \"Documents/MagnetAI/OrderSystem/src/MagnetAI.sol\":7896:8093  function getModelManagerInfo(uint256 _modelManagerId) public view returns (ModelManager memory) {... */\n      swap2\n      swap1\n      pop\n      jump\t// out\n        /* \"Documents/MagnetAI/OrderSystem/src/MagnetAI.sol\":3171:3321  function getModelInfo(uint256 _modelId) public view returns (AIModel memory) {... */\n    tag_192:\n        /* \"Documents/MagnetAI/OrderSystem/src/MagnetAI.sol\":3232:3246  AIModel memory */\n      tag_344\n      tag_345\n      jump\t// in\n    tag_344:\n        /* \"Documents/MagnetAI/OrderSystem/src/MagnetAI.sol\":3258:3281  _checkModelId(_modelId) */\n      tag_347\n        /* \"Documents/MagnetAI/OrderSystem/src/MagnetAI.sol\":3272:3280  _modelId */\n      dup3\n        /* \"Documents/MagnetAI/OrderSystem/src/MagnetAI.sol\":3258:3271  _checkModelId */\n      tag_217\n        /* \"Documents/MagnetAI/OrderSystem/src/MagnetAI.sol\":3258:3281  _checkModelId(_modelId) */\n      jump\t// in\n    tag_347:\n        /* \"Documents/MagnetAI/OrderSystem/src/MagnetAI.sol\":3298:3304  models */\n      0x05\n        /* \"Documents/MagnetAI/OrderSystem/src/MagnetAI.sol\":3298:3314  models[_modelId] */\n      0x00\n        /* \"Documents/MagnetAI/OrderSystem/src/MagnetAI.sol\":3305:3313  _modelId */\n      dup4\n        /* \"Documents/MagnetAI/OrderSystem/src/MagnetAI.sol\":3298:3314  models[_modelId] */\n      dup2\n      mstore\n      0x20\n      add\n      swap1\n      dup2\n      mstore\n      0x20\n      add\n      0x00\n      keccak256\n        /* \"Documents/MagnetAI/OrderSystem/src/MagnetAI.sol\":3291:3314  return models[_modelId] */\n      mload(0x40)\n      dup1\n      0x80\n      add\n      0x40\n      mstore\n      swap1\n      dup2\n      0x00\n      dup3\n      add\n      sload\n      dup2\n      mstore\n      0x20\n      add\n      0x01\n      dup3\n      add\n      0x00\n      swap1\n      sload\n      swap1\n      0x0100\n      exp\n      swap1\n      div\n      0xffffffffffffffffffffffffffffffffffffffff\n      and\n      0xffffffffffffffffffffffffffffffffffffffff\n      and\n      0xffffffffffffffffffffffffffffffffffffffff\n      and\n      dup2\n      mstore\n      0x20\n      add\n      0x02\n      dup3\n      add\n      dup1\n      sload\n      tag_348\n      swap1\n      tag_287\n      jump\t// in\n    tag_348:\n      dup1\n      0x1f\n      add\n      0x20\n      dup1\n      swap2\n      div\n      mul\n      0x20\n      add\n      mload(0x40)\n      swap1\n      dup2\n      add\n      0x40\n      mstore\n      dup1\n      swap3\n      swap2\n      swap1\n      dup2\n      dup2\n      mstore\n      0x20\n      add\n      dup3\n      dup1\n      sload\n      tag_349\n      swap1\n      tag_287\n      jump\t// in\n    tag_349:\n      dup1\n      iszero\n      tag_350\n      jumpi\n      dup1\n      0x1f\n      lt\n      tag_351\n      jumpi\n      0x0100\n      dup1\n      dup4\n      sload\n      div\n      mul\n      dup4\n      mstore\n      swap2\n      0x20\n      add\n      swap2\n      jump(tag_350)\n    tag_351:\n      dup3\n      add\n      swap2\n      swap1\n      0x00\n      mstore\n      keccak256(0x00, 0x20)\n      swap1\n    tag_352:\n      dup2\n      sload\n      dup2\n      mstore\n      swap1\n      0x01\n      add\n      swap1\n      0x20\n      add\n      dup1\n      dup4\n      gt\n      tag_352\n      jumpi\n      dup3\n      swap1\n      sub\n      0x1f\n      and\n      dup3\n      add\n      swap2\n    tag_350:\n      pop\n      pop\n      pop\n      pop\n      pop\n      dup2\n      mstore\n      0x20\n      add\n      0x03\n      dup3\n      add\n      sload\n      dup2\n      mstore\n      pop\n      pop\n      swap1\n      pop\n        /* \"Documents/MagnetAI/OrderSystem/src/MagnetAI.sol\":3171:3321  function getModelInfo(uint256 _modelId) public view returns (AIModel memory) {... */\n      swap2\n      swap1\n      pop\n      jump\t// out\n        /* \"Documents/MagnetAI/OrderSystem/src/MagnetAI.sol\":692:741  mapping(uint256 botHandle => Bot bot) public bots */\n    tag_198:\n      mstore(0x20, 0x08)\n      dup1\n      0x00\n      mstore\n      keccak256(0x00, 0x40)\n      0x00\n      swap2\n      pop\n      swap1\n      pop\n      dup1\n      0x00\n      add\n      sload\n      swap1\n      dup1\n      0x01\n      add\n      sload\n      swap1\n      dup1\n      0x02\n      add\n      0x00\n      swap1\n      sload\n      swap1\n      0x0100\n      exp\n      swap1\n      div\n      0xffffffffffffffffffffffffffffffffffffffff\n      and\n      swap1\n      dup1\n      0x03\n      add\n      dup1\n      sload\n      tag_353\n      swap1\n      tag_287\n      jump\t// in\n    tag_353:\n      dup1\n      0x1f\n      add\n      0x20\n      dup1\n      swap2\n      div\n      mul\n      0x20\n      add\n      mload(0x40)\n      swap1\n      dup2\n      add\n      0x40\n      mstore\n      dup1\n      swap3\n      swap2\n      swap1\n      dup2\n      dup2\n      mstore\n      0x20\n      add\n      dup3\n      dup1\n      sload\n      tag_354\n      swap1\n      tag_287\n      jump\t// in\n    tag_354:\n      dup1\n      iszero\n      tag_355\n      jumpi\n      dup1\n      0x1f\n      lt\n      tag_356\n      jumpi\n      0x0100\n      dup1\n      dup4\n      sload\n      div\n      mul\n      dup4\n      mstore\n      swap2\n      0x20\n      add\n      swap2\n      jump(tag_355)\n    tag_356:\n      dup3\n      add\n      swap2\n      swap1\n      0x00\n      mstore\n      keccak256(0x00, 0x20)\n      swap1\n    tag_357:\n      dup2\n      sload\n      dup2\n      mstore\n      swap1\n      0x01\n      add\n      swap1\n      0x20\n      add\n      dup1\n      dup4\n      gt\n      tag_357\n      jumpi\n      dup3\n      swap1\n      sub\n      0x1f\n      and\n      dup3\n      add\n      swap2\n    tag_355:\n      pop\n      pop\n      pop\n      pop\n      pop\n      swap1\n      dup1\n      0x04\n      add\n      sload\n      swap1\n      pop\n      dup6\n      jump\t// out\n        /* \"@openzeppelin/contracts/access/Ownable.sol\":2543:2758  function transferOwnership(address newOwner) public virtual onlyOwner {... */\n    tag_204:\n        /* \"@openzeppelin/contracts/access/Ownable.sol\":1531:1544  _checkOwner() */\n      tag_359\n        /* \"@openzeppelin/contracts/access/Ownable.sol\":1531:1542  _checkOwner */\n      tag_245\n        /* \"@openzeppelin/contracts/access/Ownable.sol\":1531:1544  _checkOwner() */\n      jump\t// in\n    tag_359:\n        /* \"@openzeppelin/contracts/access/Ownable.sol\":2647:2648  0 */\n      0x00\n        /* \"@openzeppelin/contracts/access/Ownable.sol\":2627:2649  newOwner == address(0) */\n      0xffffffffffffffffffffffffffffffffffffffff\n      and\n        /* \"@openzeppelin/contracts/access/Ownable.sol\":2627:2635  newOwner */\n      dup2\n        /* \"@openzeppelin/contracts/access/Ownable.sol\":2627:2649  newOwner == address(0) */\n      0xffffffffffffffffffffffffffffffffffffffff\n      and\n      sub\n        /* \"@openzeppelin/contracts/access/Ownable.sol\":2623:2714  if (newOwner == address(0)) {... */\n      tag_361\n      jumpi\n        /* \"@openzeppelin/contracts/access/Ownable.sol\":2700:2701  0 */\n      0x00\n        /* \"@openzeppelin/contracts/access/Ownable.sol\":2672:2703  OwnableInvalidOwner(address(0)) */\n      mload(0x40)\n      0x1e4fbdf700000000000000000000000000000000000000000000000000000000\n      dup2\n      mstore\n      0x04\n      add\n      tag_362\n      swap2\n      swap1\n      tag_59\n      jump\t// in\n    tag_362:\n      mload(0x40)\n      dup1\n      swap2\n      sub\n      swap1\n      revert\n        /* \"@openzeppelin/contracts/access/Ownable.sol\":2623:2714  if (newOwner == address(0)) {... */\n    tag_361:\n        /* \"@openzeppelin/contracts/access/Ownable.sol\":2723:2751  _transferOwnership(newOwner) */\n      tag_363\n        /* \"@openzeppelin/contracts/access/Ownable.sol\":2742:2750  newOwner */\n      dup2\n        /* \"@openzeppelin/contracts/access/Ownable.sol\":2723:2741  _transferOwnership */\n      tag_296\n        /* \"@openzeppelin/contracts/access/Ownable.sol\":2723:2751  _transferOwnership(newOwner) */\n      jump\t// in\n    tag_363:\n        /* \"@openzeppelin/contracts/access/Ownable.sol\":2543:2758  function transferOwnership(address newOwner) public virtual onlyOwner {... */\n      pop\n      jump\t// out\n        /* \"Documents/MagnetAI/OrderSystem/src/MagnetAI.sol\":7752:7890  function checkIfBotTokenIssued(uint256 _botHandle) public view returns (bool) {... */\n    tag_208:\n        /* \"Documents/MagnetAI/OrderSystem/src/MagnetAI.sol\":7824:7828  bool */\n      0x00\n        /* \"Documents/MagnetAI/OrderSystem/src/MagnetAI.sol\":7880:7881  0 */\n      dup1\n        /* \"Documents/MagnetAI/OrderSystem/src/MagnetAI.sol\":7848:7882  issuance[_botHandle] != address(0) */\n      0xffffffffffffffffffffffffffffffffffffffff\n      and\n        /* \"Documents/MagnetAI/OrderSystem/src/MagnetAI.sol\":7848:7856  issuance */\n      0x0b\n        /* \"Documents/MagnetAI/OrderSystem/src/MagnetAI.sol\":7848:7868  issuance[_botHandle] */\n      0x00\n        /* \"Documents/MagnetAI/OrderSystem/src/MagnetAI.sol\":7857:7867  _botHandle */\n      dup5\n        /* \"Documents/MagnetAI/OrderSystem/src/MagnetAI.sol\":7848:7868  issuance[_botHandle] */\n      dup2\n      mstore\n      0x20\n      add\n      swap1\n      dup2\n      mstore\n      0x20\n      add\n      0x00\n      keccak256\n      0x00\n      swap1\n      sload\n      swap1\n      0x0100\n      exp\n      swap1\n      div\n      0xffffffffffffffffffffffffffffffffffffffff\n      and\n        /* \"Documents/MagnetAI/OrderSystem/src/MagnetAI.sol\":7848:7882  issuance[_botHandle] != address(0) */\n      0xffffffffffffffffffffffffffffffffffffffff\n      and\n      eq\n      iszero\n        /* \"Documents/MagnetAI/OrderSystem/src/MagnetAI.sol\":7840:7883  return (issuance[_botHandle] != address(0)) */\n      swap1\n      pop\n        /* \"Documents/MagnetAI/OrderSystem/src/MagnetAI.sol\":7752:7890  function checkIfBotTokenIssued(uint256 _botHandle) public view returns (bool) {... */\n      swap2\n      swap1\n      pop\n      jump\t// out\n        /* \"Documents/MagnetAI/OrderSystem/src/MagnetAI.sol\":3483:3654  function _checkModelId(uint256 _modelId) internal view {... */\n    tag_217:\n        /* \"Documents/MagnetAI/OrderSystem/src/MagnetAI.sol\":3586:3587  0 */\n      0x00\n        /* \"Documents/MagnetAI/OrderSystem/src/MagnetAI.sol\":3552:3588  models[_modelId].owner == address(0) */\n      0xffffffffffffffffffffffffffffffffffffffff\n      and\n        /* \"Documents/MagnetAI/OrderSystem/src/MagnetAI.sol\":3552:3558  models */\n      0x05\n        /* \"Documents/MagnetAI/OrderSystem/src/MagnetAI.sol\":3552:3568  models[_modelId] */\n      0x00\n        /* \"Documents/MagnetAI/OrderSystem/src/MagnetAI.sol\":3559:3567  _modelId */\n      dup4\n        /* \"Documents/MagnetAI/OrderSystem/src/MagnetAI.sol\":3552:3568  models[_modelId] */\n      dup2\n      mstore\n      0x20\n      add\n      swap1\n      dup2\n      mstore\n      0x20\n      add\n      0x00\n      keccak256\n        /* \"Documents/MagnetAI/OrderSystem/src/MagnetAI.sol\":3552:3574  models[_modelId].owner */\n      0x01\n      add\n      0x00\n      swap1\n      sload\n      swap1\n      0x0100\n      exp\n      swap1\n      div\n      0xffffffffffffffffffffffffffffffffffffffff\n      and\n        /* \"Documents/MagnetAI/OrderSystem/src/MagnetAI.sol\":3552:3588  models[_modelId].owner == address(0) */\n      0xffffffffffffffffffffffffffffffffffffffff\n      and\n      sub\n        /* \"Documents/MagnetAI/OrderSystem/src/MagnetAI.sol\":3548:3648  if (models[_modelId].owner == address(0)) {... */\n      tag_366\n      jumpi\n        /* \"Documents/MagnetAI/OrderSystem/src/MagnetAI.sol\":3628:3636  _modelId */\n      dup1\n        /* \"Documents/MagnetAI/OrderSystem/src/MagnetAI.sol\":3611:3637  NonexistentModel(_modelId) */\n      mload(0x40)\n      0xccce6ac700000000000000000000000000000000000000000000000000000000\n      dup2\n      mstore\n      0x04\n      add\n      tag_367\n      swap2\n      swap1\n      tag_48\n      jump\t// in\n    tag_367:\n      mload(0x40)\n      dup1\n      swap2\n      sub\n      swap1\n      revert\n        /* \"Documents/MagnetAI/OrderSystem/src/MagnetAI.sol\":3548:3648  if (models[_modelId].owner == address(0)) {... */\n    tag_366:\n        /* \"Documents/MagnetAI/OrderSystem/src/MagnetAI.sol\":3483:3654  function _checkModelId(uint256 _modelId) internal view {... */\n      pop\n      jump\t// out\n        /* \"Documents/MagnetAI/OrderSystem/src/MagnetAI.sol\":8630:9136  function _checkServiceProof(uint256[] memory _botHandle, uint256[] memory _workload, uint256[] memory _callNumber) internal pure {... */\n    tag_222:\n        /* \"Documents/MagnetAI/OrderSystem/src/MagnetAI.sol\":8769:8791  uint256 proofAmountMax */\n      0x00\n        /* \"Documents/MagnetAI/OrderSystem/src/MagnetAI.sol\":8794:8797  100 */\n      0x64\n        /* \"Documents/MagnetAI/OrderSystem/src/MagnetAI.sol\":8769:8797  uint256 proofAmountMax = 100 */\n      swap1\n      pop\n        /* \"Documents/MagnetAI/OrderSystem/src/MagnetAI.sol\":8832:8841  _workload */\n      dup3\n        /* \"Documents/MagnetAI/OrderSystem/src/MagnetAI.sol\":8832:8848  _workload.length */\n      mload\n        /* \"Documents/MagnetAI/OrderSystem/src/MagnetAI.sol\":8811:8821  _botHandle */\n      dup5\n        /* \"Documents/MagnetAI/OrderSystem/src/MagnetAI.sol\":8811:8828  _botHandle.length */\n      mload\n        /* \"Documents/MagnetAI/OrderSystem/src/MagnetAI.sol\":8811:8848  _botHandle.length == _workload.length */\n      eq\n        /* \"Documents/MagnetAI/OrderSystem/src/MagnetAI.sol\":8811:8891  _botHandle.length == _workload.length && _botHandle.length == _callNumber.length */\n      dup1\n      iszero\n      tag_369\n      jumpi\n      pop\n        /* \"Documents/MagnetAI/OrderSystem/src/MagnetAI.sol\":8873:8884  _callNumber */\n      dup2\n        /* \"Documents/MagnetAI/OrderSystem/src/MagnetAI.sol\":8873:8891  _callNumber.length */\n      mload\n        /* \"Documents/MagnetAI/OrderSystem/src/MagnetAI.sol\":8852:8862  _botHandle */\n      dup5\n        /* \"Documents/MagnetAI/OrderSystem/src/MagnetAI.sol\":8852:8869  _botHandle.length */\n      mload\n        /* \"Documents/MagnetAI/OrderSystem/src/MagnetAI.sol\":8852:8891  _botHandle.length == _callNumber.length */\n      eq\n        /* \"Documents/MagnetAI/OrderSystem/src/MagnetAI.sol\":8811:8891  _botHandle.length == _workload.length && _botHandle.length == _callNumber.length */\n    tag_369:\n        /* \"Documents/MagnetAI/OrderSystem/src/MagnetAI.sol\":8807:8994  if (_botHandle.length == _workload.length && _botHandle.length == _callNumber.length) {... */\n      iszero\n      tag_370\n      jumpi\n        /* \"Documents/MagnetAI/OrderSystem/src/MagnetAI.sol\":8927:8937  _botHandle */\n      dup4\n        /* \"Documents/MagnetAI/OrderSystem/src/MagnetAI.sol\":8927:8944  _botHandle.length */\n      mload\n        /* \"Documents/MagnetAI/OrderSystem/src/MagnetAI.sol\":8946:8955  _workload */\n      dup4\n        /* \"Documents/MagnetAI/OrderSystem/src/MagnetAI.sol\":8946:8962  _workload.length */\n      mload\n        /* \"Documents/MagnetAI/OrderSystem/src/MagnetAI.sol\":8964:8975  _callNumber */\n      dup4\n        /* \"Documents/MagnetAI/OrderSystem/src/MagnetAI.sol\":8964:8982  _callNumber.length */\n      mload\n        /* \"Documents/MagnetAI/OrderSystem/src/MagnetAI.sol\":8914:8983  InvalidProof(_botHandle.length, _workload.length, _callNumber.length) */\n      mload(0x40)\n      0x6ef54bab00000000000000000000000000000000000000000000000000000000\n      dup2\n      mstore\n      0x04\n      add\n      tag_371\n      swap4\n      swap3\n      swap2\n      swap1\n      tag_372\n      jump\t// in\n    tag_371:\n      mload(0x40)\n      dup1\n      swap2\n      sub\n      swap1\n      revert\n        /* \"Documents/MagnetAI/OrderSystem/src/MagnetAI.sol\":8807:8994  if (_botHandle.length == _workload.length && _botHandle.length == _callNumber.length) {... */\n    tag_370:\n        /* \"Documents/MagnetAI/OrderSystem/src/MagnetAI.sol\":9027:9041  proofAmountMax */\n      dup1\n        /* \"Documents/MagnetAI/OrderSystem/src/MagnetAI.sol\":9007:9017  _botHandle */\n      dup5\n        /* \"Documents/MagnetAI/OrderSystem/src/MagnetAI.sol\":9007:9024  _botHandle.length */\n      mload\n        /* \"Documents/MagnetAI/OrderSystem/src/MagnetAI.sol\":9007:9041  _botHandle.length > proofAmountMax */\n      gt\n        /* \"Documents/MagnetAI/OrderSystem/src/MagnetAI.sol\":9003:9130  if (_botHandle.length > proofAmountMax) {... */\n      iszero\n      tag_373\n      jumpi\n        /* \"Documents/MagnetAI/OrderSystem/src/MagnetAI.sol\":9085:9095  _botHandle */\n      dup4\n        /* \"Documents/MagnetAI/OrderSystem/src/MagnetAI.sol\":9085:9102  _botHandle.length */\n      mload\n        /* \"Documents/MagnetAI/OrderSystem/src/MagnetAI.sol\":9104:9118  proofAmountMax */\n      dup2\n        /* \"Documents/MagnetAI/OrderSystem/src/MagnetAI.sol\":9064:9119  ExceedProofMaxAmount(_botHandle.length, proofAmountMax) */\n      mload(0x40)\n      0x1cb8e63d00000000000000000000000000000000000000000000000000000000\n      dup2\n      mstore\n      0x04\n      add\n      tag_374\n      swap3\n      swap2\n      swap1\n      tag_219\n      jump\t// in\n    tag_374:\n      mload(0x40)\n      dup1\n      swap2\n      sub\n      swap1\n      revert\n        /* \"Documents/MagnetAI/OrderSystem/src/MagnetAI.sol\":9003:9130  if (_botHandle.length > proofAmountMax) {... */\n    tag_373:\n        /* \"Documents/MagnetAI/OrderSystem/src/MagnetAI.sol\":8759:9136  {... */\n      pop\n        /* \"Documents/MagnetAI/OrderSystem/src/MagnetAI.sol\":8630:9136  function _checkServiceProof(uint256[] memory _botHandle, uint256[] memory _workload, uint256[] memory _callNumber) internal pure {... */\n      pop\n      pop\n      pop\n      jump\t// out\n        /* \"Documents/MagnetAI/OrderSystem/src/MagnetAI.sol\":6772:7746  function _rewardCalculation(uint256 _index, uint256 _botHandle, uint256 _callNumber) internal {... */\n    tag_232:\n        /* \"Documents/MagnetAI/OrderSystem/src/MagnetAI.sol\":6876:6892  uint256 botPrice */\n      0x00\n        /* \"Documents/MagnetAI/OrderSystem/src/MagnetAI.sol\":6895:6918  getBotPrice(_botHandle) */\n      tag_376\n        /* \"Documents/MagnetAI/OrderSystem/src/MagnetAI.sol\":6907:6917  _botHandle */\n      dup4\n        /* \"Documents/MagnetAI/OrderSystem/src/MagnetAI.sol\":6895:6906  getBotPrice */\n      tag_135\n        /* \"Documents/MagnetAI/OrderSystem/src/MagnetAI.sol\":6895:6918  getBotPrice(_botHandle) */\n      jump\t// in\n    tag_376:\n        /* \"Documents/MagnetAI/OrderSystem/src/MagnetAI.sol\":6876:6918  uint256 botPrice = getBotPrice(_botHandle) */\n      swap1\n      pop\n        /* \"Documents/MagnetAI/OrderSystem/src/MagnetAI.sol\":6928:6944  address botOwner */\n      0x00\n        /* \"Documents/MagnetAI/OrderSystem/src/MagnetAI.sol\":6947:6970  getBotOwner(_botHandle) */\n      tag_377\n        /* \"Documents/MagnetAI/OrderSystem/src/MagnetAI.sol\":6959:6969  _botHandle */\n      dup5\n        /* \"Documents/MagnetAI/OrderSystem/src/MagnetAI.sol\":6947:6958  getBotOwner */\n      tag_140\n        /* \"Documents/MagnetAI/OrderSystem/src/MagnetAI.sol\":6947:6970  getBotOwner(_botHandle) */\n      jump\t// in\n    tag_377:\n        /* \"Documents/MagnetAI/OrderSystem/src/MagnetAI.sol\":6928:6970  address botOwner = getBotOwner(_botHandle) */\n      swap1\n      pop\n        /* \"Documents/MagnetAI/OrderSystem/src/MagnetAI.sol\":6980:7002  uint256 modelManagerId */\n      0x00\n        /* \"Documents/MagnetAI/OrderSystem/src/MagnetAI.sol\":7005:7037  getBotModelManagerId(_botHandle) */\n      tag_378\n        /* \"Documents/MagnetAI/OrderSystem/src/MagnetAI.sol\":7026:7036  _botHandle */\n      dup6\n        /* \"Documents/MagnetAI/OrderSystem/src/MagnetAI.sol\":7005:7025  getBotModelManagerId */\n      tag_172\n        /* \"Documents/MagnetAI/OrderSystem/src/MagnetAI.sol\":7005:7037  getBotModelManagerId(_botHandle) */\n      jump\t// in\n    tag_378:\n        /* \"Documents/MagnetAI/OrderSystem/src/MagnetAI.sol\":6980:7037  uint256 modelManagerId = getBotModelManagerId(_botHandle) */\n      swap1\n      pop\n        /* \"Documents/MagnetAI/OrderSystem/src/MagnetAI.sol\":7047:7063  uint256 subnetId */\n      0x00\n        /* \"Documents/MagnetAI/OrderSystem/src/MagnetAI.sol\":7066:7105  getModelManagerSubnetId(modelManagerId) */\n      tag_379\n        /* \"Documents/MagnetAI/OrderSystem/src/MagnetAI.sol\":7090:7104  modelManagerId */\n      dup3\n        /* \"Documents/MagnetAI/OrderSystem/src/MagnetAI.sol\":7066:7089  getModelManagerSubnetId */\n      tag_46\n        /* \"Documents/MagnetAI/OrderSystem/src/MagnetAI.sol\":7066:7105  getModelManagerSubnetId(modelManagerId) */\n      jump\t// in\n    tag_379:\n        /* \"Documents/MagnetAI/OrderSystem/src/MagnetAI.sol\":7047:7105  uint256 subnetId = getModelManagerSubnetId(modelManagerId) */\n      swap1\n      pop\n        /* \"Documents/MagnetAI/OrderSystem/src/MagnetAI.sol\":7115:7130  uint256 modelId */\n      0x00\n        /* \"Documents/MagnetAI/OrderSystem/src/MagnetAI.sol\":7133:7171  getModelManagerModelId(modelManagerId) */\n      tag_380\n        /* \"Documents/MagnetAI/OrderSystem/src/MagnetAI.sol\":7156:7170  modelManagerId */\n      dup4\n        /* \"Documents/MagnetAI/OrderSystem/src/MagnetAI.sol\":7133:7155  getModelManagerModelId */\n      tag_68\n        /* \"Documents/MagnetAI/OrderSystem/src/MagnetAI.sol\":7133:7171  getModelManagerModelId(modelManagerId) */\n      jump\t// in\n    tag_380:\n        /* \"Documents/MagnetAI/OrderSystem/src/MagnetAI.sol\":7115:7171  uint256 modelId = getModelManagerModelId(modelManagerId) */\n      swap1\n      pop\n        /* \"Documents/MagnetAI/OrderSystem/src/MagnetAI.sol\":7181:7200  address subnetOwner */\n      0x00\n        /* \"Documents/MagnetAI/OrderSystem/src/MagnetAI.sol\":7203:7227  getSubnetOwner(subnetId) */\n      tag_381\n        /* \"Documents/MagnetAI/OrderSystem/src/MagnetAI.sol\":7218:7226  subnetId */\n      dup4\n        /* \"Documents/MagnetAI/OrderSystem/src/MagnetAI.sol\":7203:7217  getSubnetOwner */\n      tag_181\n        /* \"Documents/MagnetAI/OrderSystem/src/MagnetAI.sol\":7203:7227  getSubnetOwner(subnetId) */\n      jump\t// in\n    tag_381:\n        /* \"Documents/MagnetAI/OrderSystem/src/MagnetAI.sol\":7181:7227  address subnetOwner = getSubnetOwner(subnetId) */\n      swap1\n      pop\n        /* \"Documents/MagnetAI/OrderSystem/src/MagnetAI.sol\":7237:7255  uint256 modelPrice */\n      0x00\n        /* \"Documents/MagnetAI/OrderSystem/src/MagnetAI.sol\":7258:7280  getModelPrice(modelId) */\n      tag_382\n        /* \"Documents/MagnetAI/OrderSystem/src/MagnetAI.sol\":7272:7279  modelId */\n      dup4\n        /* \"Documents/MagnetAI/OrderSystem/src/MagnetAI.sol\":7258:7271  getModelPrice */\n      tag_100\n        /* \"Documents/MagnetAI/OrderSystem/src/MagnetAI.sol\":7258:7280  getModelPrice(modelId) */\n      jump\t// in\n    tag_382:\n        /* \"Documents/MagnetAI/OrderSystem/src/MagnetAI.sol\":7237:7280  uint256 modelPrice = getModelPrice(modelId) */\n      swap1\n      pop\n        /* \"Documents/MagnetAI/OrderSystem/src/MagnetAI.sol\":7291:7317  bool networkReward_success */\n      0x00\n        /* \"Documents/MagnetAI/OrderSystem/src/MagnetAI.sol\":7319:7337  uint256 networkFee */\n      dup1\n        /* \"Documents/MagnetAI/OrderSystem/src/MagnetAI.sol\":7341:7377  Math.tryMul(_callNumber, modelPrice) */\n      tag_383\n        /* \"Documents/MagnetAI/OrderSystem/src/MagnetAI.sol\":7353:7364  _callNumber */\n      dup11\n        /* \"Documents/MagnetAI/OrderSystem/src/MagnetAI.sol\":7366:7376  modelPrice */\n      dup5\n        /* \"Documents/MagnetAI/OrderSystem/src/MagnetAI.sol\":7341:7352  Math.tryMul */\n      tag_384\n        /* \"Documents/MagnetAI/OrderSystem/src/MagnetAI.sol\":7341:7377  Math.tryMul(_callNumber, modelPrice) */\n      jump\t// in\n    tag_383:\n        /* \"Documents/MagnetAI/OrderSystem/src/MagnetAI.sol\":7290:7377  (bool networkReward_success, uint256 networkFee) = Math.tryMul(_callNumber, modelPrice) */\n      swap2\n      pop\n      swap2\n      pop\n        /* \"Documents/MagnetAI/OrderSystem/src/MagnetAI.sol\":7392:7413  networkReward_success */\n      dup2\n        /* \"Documents/MagnetAI/OrderSystem/src/MagnetAI.sol\":7387:7478  if (!networkReward_success) {... */\n      tag_385\n      jumpi\n        /* \"Documents/MagnetAI/OrderSystem/src/MagnetAI.sol\":7460:7466  _index */\n      dup12\n        /* \"Documents/MagnetAI/OrderSystem/src/MagnetAI.sol\":7436:7467  RewardCalculationFailed(_index) */\n      mload(0x40)\n      0xdbf0d2ad00000000000000000000000000000000000000000000000000000000\n      dup2\n      mstore\n      0x04\n      add\n      tag_386\n      swap2\n      swap1\n      tag_48\n      jump\t// in\n    tag_386:\n      mload(0x40)\n      dup1\n      swap2\n      sub\n      swap1\n      revert\n        /* \"Documents/MagnetAI/OrderSystem/src/MagnetAI.sol\":7387:7478  if (!networkReward_success) {... */\n    tag_385:\n        /* \"Documents/MagnetAI/OrderSystem/src/MagnetAI.sol\":7488:7510  bool botReward_success */\n      0x00\n        /* \"Documents/MagnetAI/OrderSystem/src/MagnetAI.sol\":7512:7526  uint256 botFee */\n      dup1\n        /* \"Documents/MagnetAI/OrderSystem/src/MagnetAI.sol\":7530:7564  Math.tryMul(_callNumber, botPrice) */\n      tag_387\n        /* \"Documents/MagnetAI/OrderSystem/src/MagnetAI.sol\":7542:7553  _callNumber */\n      dup13\n        /* \"Documents/MagnetAI/OrderSystem/src/MagnetAI.sol\":7555:7563  botPrice */\n      dup13\n        /* \"Documents/MagnetAI/OrderSystem/src/MagnetAI.sol\":7530:7541  Math.tryMul */\n      tag_384\n        /* \"Documents/MagnetAI/OrderSystem/src/MagnetAI.sol\":7530:7564  Math.tryMul(_callNumber, botPrice) */\n      jump\t// in\n    tag_387:\n        /* \"Documents/MagnetAI/OrderSystem/src/MagnetAI.sol\":7487:7564  (bool botReward_success, uint256 botFee) = Math.tryMul(_callNumber, botPrice) */\n      swap2\n      pop\n      swap2\n      pop\n        /* \"Documents/MagnetAI/OrderSystem/src/MagnetAI.sol\":7579:7596  botReward_success */\n      dup2\n        /* \"Documents/MagnetAI/OrderSystem/src/MagnetAI.sol\":7574:7661  if (!botReward_success) {... */\n      tag_388\n      jumpi\n        /* \"Documents/MagnetAI/OrderSystem/src/MagnetAI.sol\":7643:7649  _index */\n      dup14\n        /* \"Documents/MagnetAI/OrderSystem/src/MagnetAI.sol\":7619:7650  RewardCalculationFailed(_index) */\n      mload(0x40)\n      0xdbf0d2ad00000000000000000000000000000000000000000000000000000000\n      dup2\n      mstore\n      0x04\n      add\n      tag_389\n      swap2\n      swap1\n      tag_48\n      jump\t// in\n    tag_389:\n      mload(0x40)\n      dup1\n      swap2\n      sub\n      swap1\n      revert\n        /* \"Documents/MagnetAI/OrderSystem/src/MagnetAI.sol\":7574:7661  if (!botReward_success) {... */\n    tag_388:\n        /* \"Documents/MagnetAI/OrderSystem/src/MagnetAI.sol\":7693:7703  networkFee */\n      dup3\n        /* \"Documents/MagnetAI/OrderSystem/src/MagnetAI.sol\":7670:7676  reward */\n      0x0c\n        /* \"Documents/MagnetAI/OrderSystem/src/MagnetAI.sol\":7670:7689  reward[subnetOwner] */\n      0x00\n        /* \"Documents/MagnetAI/OrderSystem/src/MagnetAI.sol\":7677:7688  subnetOwner */\n      dup9\n        /* \"Documents/MagnetAI/OrderSystem/src/MagnetAI.sol\":7670:7689  reward[subnetOwner] */\n      0xffffffffffffffffffffffffffffffffffffffff\n      and\n      0xffffffffffffffffffffffffffffffffffffffff\n      and\n      dup2\n      mstore\n      0x20\n      add\n      swap1\n      dup2\n      mstore\n      0x20\n      add\n      0x00\n      keccak256\n      0x00\n        /* \"Documents/MagnetAI/OrderSystem/src/MagnetAI.sol\":7670:7703  reward[subnetOwner] += networkFee */\n      dup3\n      dup3\n      sload\n      tag_390\n      swap2\n      swap1\n      tag_240\n      jump\t// in\n    tag_390:\n      swap3\n      pop\n      pop\n      dup2\n      swap1\n      sstore\n      pop\n        /* \"Documents/MagnetAI/OrderSystem/src/MagnetAI.sol\":7733:7739  botFee */\n      dup1\n        /* \"Documents/MagnetAI/OrderSystem/src/MagnetAI.sol\":7713:7719  reward */\n      0x0c\n        /* \"Documents/MagnetAI/OrderSystem/src/MagnetAI.sol\":7713:7729  reward[botOwner] */\n      0x00\n        /* \"Documents/MagnetAI/OrderSystem/src/MagnetAI.sol\":7720:7728  botOwner */\n      dup13\n        /* \"Documents/MagnetAI/OrderSystem/src/MagnetAI.sol\":7713:7729  reward[botOwner] */\n      0xffffffffffffffffffffffffffffffffffffffff\n      and\n      0xffffffffffffffffffffffffffffffffffffffff\n      and\n      dup2\n      mstore\n      0x20\n      add\n      swap1\n      dup2\n      mstore\n      0x20\n      add\n      0x00\n      keccak256\n      0x00\n        /* \"Documents/MagnetAI/OrderSystem/src/MagnetAI.sol\":7713:7739  reward[botOwner] += botFee */\n      dup3\n      dup3\n      sload\n      tag_391\n      swap2\n      swap1\n      tag_240\n      jump\t// in\n    tag_391:\n      swap3\n      pop\n      pop\n      dup2\n      swap1\n      sstore\n      pop\n        /* \"Documents/MagnetAI/OrderSystem/src/MagnetAI.sol\":6866:7746  {... */\n      pop\n      pop\n      pop\n      pop\n      pop\n      pop\n      pop\n      pop\n      pop\n      pop\n      pop\n        /* \"Documents/MagnetAI/OrderSystem/src/MagnetAI.sol\":6772:7746  function _rewardCalculation(uint256 _index, uint256 _botHandle, uint256 _callNumber) internal {... */\n      pop\n      pop\n      pop\n      jump\t// out\n        /* \"Documents/MagnetAI/OrderSystem/src/MagnetAI.sol\":11327:11502  function _checkBotHandle(uint256 _botHandle) internal view {... */\n    tag_238:\n        /* \"Documents/MagnetAI/OrderSystem/src/MagnetAI.sol\":11401:11418  botHandleRegistry */\n      0x09\n        /* \"Documents/MagnetAI/OrderSystem/src/MagnetAI.sol\":11401:11430  botHandleRegistry[_botHandle] */\n      0x00\n        /* \"Documents/MagnetAI/OrderSystem/src/MagnetAI.sol\":11419:11429  _botHandle */\n      dup3\n        /* \"Documents/MagnetAI/OrderSystem/src/MagnetAI.sol\":11401:11430  botHandleRegistry[_botHandle] */\n      dup2\n      mstore\n      0x20\n      add\n      swap1\n      dup2\n      mstore\n      0x20\n      add\n      0x00\n      keccak256\n      0x00\n      swap1\n      sload\n      swap1\n      0x0100\n      exp\n      swap1\n      div\n      0xff\n      and\n        /* \"Documents/MagnetAI/OrderSystem/src/MagnetAI.sol\":11396:11496  if (!botHandleRegistry[_botHandle]) {... */\n      tag_393\n      jumpi\n        /* \"Documents/MagnetAI/OrderSystem/src/MagnetAI.sol\":11474:11484  _botHandle */\n      dup1\n        /* \"Documents/MagnetAI/OrderSystem/src/MagnetAI.sol\":11453:11485  NonexistentBotHandle(_botHandle) */\n      mload(0x40)\n      0x5cdd66a000000000000000000000000000000000000000000000000000000000\n      dup2\n      mstore\n      0x04\n      add\n      tag_394\n      swap2\n      swap1\n      tag_48\n      jump\t// in\n    tag_394:\n      mload(0x40)\n      dup1\n      swap2\n      sub\n      swap1\n      revert\n        /* \"Documents/MagnetAI/OrderSystem/src/MagnetAI.sol\":11396:11496  if (!botHandleRegistry[_botHandle]) {... */\n    tag_393:\n        /* \"Documents/MagnetAI/OrderSystem/src/MagnetAI.sol\":11327:11502  function _checkBotHandle(uint256 _botHandle) internal view {... */\n      pop\n      jump\t// out\n        /* \"@openzeppelin/contracts/access/Ownable.sol\":1796:1958  function _checkOwner() internal view virtual {... */\n    tag_245:\n        /* \"@openzeppelin/contracts/access/Ownable.sol\":1866:1878  _msgSender() */\n      tag_396\n        /* \"@openzeppelin/contracts/access/Ownable.sol\":1866:1876  _msgSender */\n      tag_397\n        /* \"@openzeppelin/contracts/access/Ownable.sol\":1866:1878  _msgSender() */\n      jump\t// in\n    tag_396:\n        /* \"@openzeppelin/contracts/access/Ownable.sol\":1855:1878  owner() != _msgSender() */\n      0xffffffffffffffffffffffffffffffffffffffff\n      and\n        /* \"@openzeppelin/contracts/access/Ownable.sol\":1855:1862  owner() */\n      tag_398\n        /* \"@openzeppelin/contracts/access/Ownable.sol\":1855:1860  owner */\n      tag_150\n        /* \"@openzeppelin/contracts/access/Ownable.sol\":1855:1862  owner() */\n      jump\t// in\n    tag_398:\n        /* \"@openzeppelin/contracts/access/Ownable.sol\":1855:1878  owner() != _msgSender() */\n      0xffffffffffffffffffffffffffffffffffffffff\n      and\n      eq\n        /* \"@openzeppelin/contracts/access/Ownable.sol\":1851:1952  if (owner() != _msgSender()) {... */\n      tag_399\n      jumpi\n        /* \"@openzeppelin/contracts/access/Ownable.sol\":1928:1940  _msgSender() */\n      tag_400\n        /* \"@openzeppelin/contracts/access/Ownable.sol\":1928:1938  _msgSender */\n      tag_397\n        /* \"@openzeppelin/contracts/access/Ownable.sol\":1928:1940  _msgSender() */\n      jump\t// in\n    tag_400:\n        /* \"@openzeppelin/contracts/access/Ownable.sol\":1901:1941  OwnableUnauthorizedAccount(_msgSender()) */\n      mload(0x40)\n      0x118cdaa700000000000000000000000000000000000000000000000000000000\n      dup2\n      mstore\n      0x04\n      add\n      tag_401\n      swap2\n      swap1\n      tag_59\n      jump\t// in\n    tag_401:\n      mload(0x40)\n      dup1\n      swap2\n      sub\n      swap1\n      revert\n        /* \"@openzeppelin/contracts/access/Ownable.sol\":1851:1952  if (owner() != _msgSender()) {... */\n    tag_399:\n        /* \"@openzeppelin/contracts/access/Ownable.sol\":1796:1958  function _checkOwner() internal view virtual {... */\n      jump\t// out\n        /* \"Documents/MagnetAI/OrderSystem/src/MagnetAI.sol\":4732:4909  function _checkSubnetId(uint256 _subnetId) internal view {... */\n    tag_269:\n        /* \"Documents/MagnetAI/OrderSystem/src/MagnetAI.sol\":4839:4840  0 */\n      0x00\n        /* \"Documents/MagnetAI/OrderSystem/src/MagnetAI.sol\":4803:4841  subnets[_subnetId].owner == address(0) */\n      0xffffffffffffffffffffffffffffffffffffffff\n      and\n        /* \"Documents/MagnetAI/OrderSystem/src/MagnetAI.sol\":4803:4810  subnets */\n      0x06\n        /* \"Documents/MagnetAI/OrderSystem/src/MagnetAI.sol\":4803:4821  subnets[_subnetId] */\n      0x00\n        /* \"Documents/MagnetAI/OrderSystem/src/MagnetAI.sol\":4811:4820  _subnetId */\n      dup4\n        /* \"Documents/MagnetAI/OrderSystem/src/MagnetAI.sol\":4803:4821  subnets[_subnetId] */\n      dup2\n      mstore\n      0x20\n      add\n      swap1\n      dup2\n      mstore\n      0x20\n      add\n      0x00\n      keccak256\n        /* \"Documents/MagnetAI/OrderSystem/src/MagnetAI.sol\":4803:4827  subnets[_subnetId].owner */\n      0x01\n      add\n      0x00\n      swap1\n      sload\n      swap1\n      0x0100\n      exp\n      swap1\n      div\n      0xffffffffffffffffffffffffffffffffffffffff\n      and\n        /* \"Documents/MagnetAI/OrderSystem/src/MagnetAI.sol\":4803:4841  subnets[_subnetId].owner == address(0) */\n      0xffffffffffffffffffffffffffffffffffffffff\n      and\n      sub\n        /* \"Documents/MagnetAI/OrderSystem/src/MagnetAI.sol\":4799:4903  if (subnets[_subnetId].owner == address(0)) {... */\n      tag_403\n      jumpi\n        /* \"Documents/MagnetAI/OrderSystem/src/MagnetAI.sol\":4882:4891  _subnetId */\n      dup1\n        /* \"Documents/MagnetAI/OrderSystem/src/MagnetAI.sol\":4864:4892  NonexistentSubnet(_subnetId) */\n      mload(0x40)\n      0xf9599fbc00000000000000000000000000000000000000000000000000000000\n      dup2\n      mstore\n      0x04\n      add\n      tag_404\n      swap2\n      swap1\n      tag_48\n      jump\t// in\n    tag_404:\n      mload(0x40)\n      dup1\n      swap2\n      sub\n      swap1\n      revert\n        /* \"Documents/MagnetAI/OrderSystem/src/MagnetAI.sol\":4799:4903  if (subnets[_subnetId].owner == address(0)) {... */\n    tag_403:\n        /* \"Documents/MagnetAI/OrderSystem/src/MagnetAI.sol\":4732:4909  function _checkSubnetId(uint256 _subnetId) internal view {... */\n      pop\n      jump\t// out\n        /* \"@openzeppelin/contracts/utils/ReentrancyGuard.sol\":2431:2738  function _nonReentrantBefore() private {... */\n    tag_275:\n        /* \"@openzeppelin/contracts/utils/ReentrancyGuard.sol\":1755:1756  2 */\n      0x02\n        /* \"@openzeppelin/contracts/utils/ReentrancyGuard.sol\":2558:2565  _status */\n      sload(0x01)\n        /* \"@openzeppelin/contracts/utils/ReentrancyGuard.sol\":2558:2576  _status == ENTERED */\n      sub\n        /* \"@openzeppelin/contracts/utils/ReentrancyGuard.sol\":2554:2640  if (_status == ENTERED) {... */\n      tag_406\n      jumpi\n        /* \"@openzeppelin/contracts/utils/ReentrancyGuard.sol\":2599:2629  ReentrancyGuardReentrantCall() */\n      mload(0x40)\n      0x3ee5aeb500000000000000000000000000000000000000000000000000000000\n      dup2\n      mstore\n      0x04\n      add\n      mload(0x40)\n      dup1\n      swap2\n      sub\n      swap1\n      revert\n        /* \"@openzeppelin/contracts/utils/ReentrancyGuard.sol\":2554:2640  if (_status == ENTERED) {... */\n    tag_406:\n        /* \"@openzeppelin/contracts/utils/ReentrancyGuard.sol\":1755:1756  2 */\n      0x02\n        /* \"@openzeppelin/contracts/utils/ReentrancyGuard.sol\":2714:2721  _status */\n      0x01\n        /* \"@openzeppelin/contracts/utils/ReentrancyGuard.sol\":2714:2731  _status = ENTERED */\n      dup2\n      swap1\n      sstore\n      pop\n        /* \"@openzeppelin/contracts/utils/ReentrancyGuard.sol\":2431:2738  function _nonReentrantBefore() private {... */\n      jump\t// out\n        /* \"Documents/MagnetAI/OrderSystem/src/MagnetAI.sol\":8411:8624  function _checkModelManagerId(uint256 _modelManagerId) internal view {... */\n    tag_280:\n        /* \"Documents/MagnetAI/OrderSystem/src/MagnetAI.sol\":8542:8543  0 */\n      0x00\n        /* \"Documents/MagnetAI/OrderSystem/src/MagnetAI.sol\":8494:8544  modelManagers[_modelManagerId].owner == address(0) */\n      0xffffffffffffffffffffffffffffffffffffffff\n      and\n        /* \"Documents/MagnetAI/OrderSystem/src/MagnetAI.sol\":8494:8507  modelManagers */\n      0x07\n        /* \"Documents/MagnetAI/OrderSystem/src/MagnetAI.sol\":8494:8524  modelManagers[_modelManagerId] */\n      0x00\n        /* \"Documents/MagnetAI/OrderSystem/src/MagnetAI.sol\":8508:8523  _modelManagerId */\n      dup4\n        /* \"Documents/MagnetAI/OrderSystem/src/MagnetAI.sol\":8494:8524  modelManagers[_modelManagerId] */\n      dup2\n      mstore\n      0x20\n      add\n      swap1\n      dup2\n      mstore\n      0x20\n      add\n      0x00\n      keccak256\n        /* \"Documents/MagnetAI/OrderSystem/src/MagnetAI.sol\":8494:8530  modelManagers[_modelManagerId].owner */\n      0x03\n      add\n      0x00\n      swap1\n      sload\n      swap1\n      0x0100\n      exp\n      swap1\n      div\n      0xffffffffffffffffffffffffffffffffffffffff\n      and\n        /* \"Documents/MagnetAI/OrderSystem/src/MagnetAI.sol\":8494:8544  modelManagers[_modelManagerId].owner == address(0) */\n      0xffffffffffffffffffffffffffffffffffffffff\n      and\n      sub\n        /* \"Documents/MagnetAI/OrderSystem/src/MagnetAI.sol\":8490:8618  if (modelManagers[_modelManagerId].owner == address(0)) {... */\n      tag_408\n      jumpi\n        /* \"Documents/MagnetAI/OrderSystem/src/MagnetAI.sol\":8591:8606  _modelManagerId */\n      dup1\n        /* \"Documents/MagnetAI/OrderSystem/src/MagnetAI.sol\":8567:8607  NonexistentModelManager(_modelManagerId) */\n      mload(0x40)\n      0x13b33ea400000000000000000000000000000000000000000000000000000000\n      dup2\n      mstore\n      0x04\n      add\n      tag_409\n      swap2\n      swap1\n      tag_48\n      jump\t// in\n    tag_409:\n      mload(0x40)\n      dup1\n      swap2\n      sub\n      swap1\n      revert\n        /* \"Documents/MagnetAI/OrderSystem/src/MagnetAI.sol\":8490:8618  if (modelManagers[_modelManagerId].owner == address(0)) {... */\n    tag_408:\n        /* \"Documents/MagnetAI/OrderSystem/src/MagnetAI.sol\":8411:8624  function _checkModelManagerId(uint256 _modelManagerId) internal view {... */\n      pop\n      jump\t// out\n        /* \"@openzeppelin/contracts/utils/ReentrancyGuard.sol\":2744:2952  function _nonReentrantAfter() private {... */\n    tag_285:\n        /* \"@openzeppelin/contracts/utils/ReentrancyGuard.sol\":1713:1714  1 */\n      0x01\n        /* \"@openzeppelin/contracts/utils/ReentrancyGuard.sol\":2924:2931  _status */\n      dup1\n        /* \"@openzeppelin/contracts/utils/ReentrancyGuard.sol\":2924:2945  _status = NOT_ENTERED */\n      dup2\n      swap1\n      sstore\n      pop\n        /* \"@openzeppelin/contracts/utils/ReentrancyGuard.sol\":2744:2952  function _nonReentrantAfter() private {... */\n      jump\t// out\n        /* \"@openzeppelin/contracts/access/Ownable.sol\":2912:3099  function _transferOwnership(address newOwner) internal virtual {... */\n    tag_296:\n        /* \"@openzeppelin/contracts/access/Ownable.sol\":2985:3001  address oldOwner */\n      0x00\n        /* \"@openzeppelin/contracts/access/Ownable.sol\":3004:3010  _owner */\n      dup1\n      0x00\n      swap1\n      sload\n      swap1\n      0x0100\n      exp\n      swap1\n      div\n      0xffffffffffffffffffffffffffffffffffffffff\n      and\n        /* \"@openzeppelin/contracts/access/Ownable.sol\":2985:3010  address oldOwner = _owner */\n      swap1\n      pop\n        /* \"@openzeppelin/contracts/access/Ownable.sol\":3029:3037  newOwner */\n      dup2\n        /* \"@openzeppelin/contracts/access/Ownable.sol\":3020:3026  _owner */\n      0x00\n      dup1\n        /* \"@openzeppelin/contracts/access/Ownable.sol\":3020:3037  _owner = newOwner */\n      0x0100\n      exp\n      dup2\n      sload\n      dup2\n      0xffffffffffffffffffffffffffffffffffffffff\n      mul\n      not\n      and\n      swap1\n      dup4\n      0xffffffffffffffffffffffffffffffffffffffff\n      and\n      mul\n      or\n      swap1\n      sstore\n      pop\n        /* \"@openzeppelin/contracts/access/Ownable.sol\":3083:3091  newOwner */\n      dup2\n        /* \"@openzeppelin/contracts/access/Ownable.sol\":3052:3092  OwnershipTransferred(oldOwner, newOwner) */\n      0xffffffffffffffffffffffffffffffffffffffff\n      and\n        /* \"@openzeppelin/contracts/access/Ownable.sol\":3073:3081  oldOwner */\n      dup2\n        /* \"@openzeppelin/contracts/access/Ownable.sol\":3052:3092  OwnershipTransferred(oldOwner, newOwner) */\n      0xffffffffffffffffffffffffffffffffffffffff\n      and\n      0x8be0079c531659141344cd1fd0a4f28419497f9722a3daafe3b4186f6b6457e0\n      mload(0x40)\n      mload(0x40)\n      dup1\n      swap2\n      sub\n      swap1\n      log3\n        /* \"@openzeppelin/contracts/access/Ownable.sol\":2975:3099  {... */\n      pop\n        /* \"@openzeppelin/contracts/access/Ownable.sol\":2912:3099  function _transferOwnership(address newOwner) internal virtual {... */\n      pop\n      jump\t// out\n        /* \"@openzeppelin/contracts/utils/math/Math.sol\":1207:1700  function tryMul(uint256 a, uint256 b) internal pure returns (bool, uint256) {... */\n    tag_384:\n        /* \"@openzeppelin/contracts/utils/math/Math.sol\":1268:1272  bool */\n      0x00\n        /* \"@openzeppelin/contracts/utils/math/Math.sol\":1274:1281  uint256 */\n      dup1\n        /* \"@openzeppelin/contracts/utils/math/Math.sol\":1556:1557  0 */\n      0x00\n        /* \"@openzeppelin/contracts/utils/math/Math.sol\":1551:1552  a */\n      dup5\n        /* \"@openzeppelin/contracts/utils/math/Math.sol\":1551:1557  a == 0 */\n      sub\n        /* \"@openzeppelin/contracts/utils/math/Math.sol\":1547:1575  if (a == 0) return (true, 0) */\n      tag_413\n      jumpi\n        /* \"@openzeppelin/contracts/utils/math/Math.sol\":1567:1571  true */\n      0x01\n        /* \"@openzeppelin/contracts/utils/math/Math.sol\":1573:1574  0 */\n      0x00\n        /* \"@openzeppelin/contracts/utils/math/Math.sol\":1559:1575  return (true, 0) */\n      swap2\n      pop\n      swap2\n      pop\n      jump(tag_412)\n        /* \"@openzeppelin/contracts/utils/math/Math.sol\":1547:1575  if (a == 0) return (true, 0) */\n    tag_413:\n        /* \"@openzeppelin/contracts/utils/math/Math.sol\":1589:1598  uint256 c */\n      0x00\n        /* \"@openzeppelin/contracts/utils/math/Math.sol\":1605:1606  b */\n      dup4\n        /* \"@openzeppelin/contracts/utils/math/Math.sol\":1601:1602  a */\n      dup6\n        /* \"@openzeppelin/contracts/utils/math/Math.sol\":1601:1606  a * b */\n      mul\n        /* \"@openzeppelin/contracts/utils/math/Math.sol\":1589:1606  uint256 c = a * b */\n      swap1\n      pop\n        /* \"@openzeppelin/contracts/utils/math/Math.sol\":1633:1634  b */\n      dup4\n        /* \"@openzeppelin/contracts/utils/math/Math.sol\":1628:1629  a */\n      dup6\n        /* \"@openzeppelin/contracts/utils/math/Math.sol\":1624:1625  c */\n      dup3\n        /* \"@openzeppelin/contracts/utils/math/Math.sol\":1624:1629  c / a */\n      dup2\n      tag_414\n      jumpi\n      tag_415\n      tag_416\n      jump\t// in\n    tag_415:\n    tag_414:\n      div\n        /* \"@openzeppelin/contracts/utils/math/Math.sol\":1624:1634  c / a != b */\n      eq\n        /* \"@openzeppelin/contracts/utils/math/Math.sol\":1620:1653  if (c / a != b) return (false, 0) */\n      tag_417\n      jumpi\n        /* \"@openzeppelin/contracts/utils/math/Math.sol\":1644:1649  false */\n      0x00\n        /* \"@openzeppelin/contracts/utils/math/Math.sol\":1651:1652  0 */\n      dup1\n        /* \"@openzeppelin/contracts/utils/math/Math.sol\":1636:1653  return (false, 0) */\n      swap3\n      pop\n      swap3\n      pop\n      pop\n      jump(tag_412)\n        /* \"@openzeppelin/contracts/utils/math/Math.sol\":1620:1653  if (c / a != b) return (false, 0) */\n    tag_417:\n        /* \"@openzeppelin/contracts/utils/math/Math.sol\":1675:1679  true */\n      0x01\n        /* \"@openzeppelin/contracts/utils/math/Math.sol\":1681:1682  c */\n      dup2\n        /* \"@openzeppelin/contracts/utils/math/Math.sol\":1667:1683  return (true, c) */\n      swap3\n      pop\n      swap3\n      pop\n      pop\n        /* \"@openzeppelin/contracts/utils/math/Math.sol\":1207:1700  function tryMul(uint256 a, uint256 b) internal pure returns (bool, uint256) {... */\n    tag_412:\n      swap3\n      pop\n      swap3\n      swap1\n      pop\n      jump\t// out\n        /* \"@openzeppelin/contracts/utils/Context.sol\":656:752  function _msgSender() internal view virtual returns (address) {... */\n    tag_397:\n        /* \"@openzeppelin/contracts/utils/Context.sol\":709:716  address */\n      0x00\n        /* \"@openzeppelin/contracts/utils/Context.sol\":735:745  msg.sender */\n      caller\n        /* \"@openzeppelin/contracts/utils/Context.sol\":728:745  return msg.sender */\n      swap1\n      pop\n        /* \"@openzeppelin/contracts/utils/Context.sol\":656:752  function _msgSender() internal view virtual returns (address) {... */\n      swap1\n      jump\t// out\n    tag_298:\n      mload(0x40)\n      dup1\n      0xa0\n      add\n      0x40\n      mstore\n      dup1\n      0x00\n      dup2\n      mstore\n      0x20\n      add\n      0x00\n      dup2\n      mstore\n      0x20\n      add\n      and(0xffffffffffffffffffffffffffffffffffffffff, 0x00)\n      dup2\n      mstore\n      0x20\n      add\n      0x60\n      dup2\n      mstore\n      0x20\n      add\n      0x00\n      dup2\n      mstore\n      pop\n      swap1\n      jump\t// out\n    tag_317:\n      mload(0x40)\n      dup1\n      0x40\n      add\n      0x40\n      mstore\n      dup1\n      0x00\n      dup2\n      mstore\n      0x20\n      add\n      and(0xffffffffffffffffffffffffffffffffffffffff, 0x00)\n      dup2\n      mstore\n      pop\n      swap1\n      jump\t// out\n    tag_336:\n      mload(0x40)\n      dup1\n      0xa0\n      add\n      0x40\n      mstore\n      dup1\n      0x00\n      dup2\n      mstore\n      0x20\n      add\n      0x00\n      dup2\n      mstore\n      0x20\n      add\n      0x00\n      dup2\n      mstore\n      0x20\n      add\n      and(0xffffffffffffffffffffffffffffffffffffffff, 0x00)\n      dup2\n      mstore\n      0x20\n      add\n      0x60\n      dup2\n      mstore\n      pop\n      swap1\n      jump\t// out\n    tag_345:\n      mload(0x40)\n      dup1\n      0x80\n      add\n      0x40\n      mstore\n      dup1\n      0x00\n      dup2\n      mstore\n      0x20\n      add\n      and(0xffffffffffffffffffffffffffffffffffffffff, 0x00)\n      dup2\n      mstore\n      0x20\n      add\n      0x60\n      dup2\n      mstore\n      0x20\n      add\n      0x00\n      dup2\n      mstore\n      pop\n      swap1\n      jump\t// out\n        /* \"#utility.yul\":7:82   */\n    tag_419:\n        /* \"#utility.yul\":40:46   */\n      0x00\n        /* \"#utility.yul\":73:75   */\n      0x40\n        /* \"#utility.yul\":67:76   */\n      mload\n        /* \"#utility.yul\":57:76   */\n      swap1\n      pop\n        /* \"#utility.yul\":7:82   */\n      swap1\n      jump\t// out\n        /* \"#utility.yul\":88:205   */\n    tag_420:\n        /* \"#utility.yul\":197:198   */\n      0x00\n        /* \"#utility.yul\":194:195   */\n      dup1\n        /* \"#utility.yul\":187:199   */\n      revert\n        /* \"#utility.yul\":211:328   */\n    tag_421:\n        /* \"#utility.yul\":320:321   */\n      0x00\n        /* \"#utility.yul\":317:318   */\n      dup1\n        /* \"#utility.yul\":310:322   */\n      revert\n        /* \"#utility.yul\":334:411   */\n    tag_422:\n        /* \"#utility.yul\":371:378   */\n      0x00\n        /* \"#utility.yul\":400:405   */\n      dup2\n        /* \"#utility.yul\":389:405   */\n      swap1\n      pop\n        /* \"#utility.yul\":334:411   */\n      swap2\n      swap1\n      pop\n      jump\t// out\n        /* \"#utility.yul\":417:539   */\n    tag_423:\n        /* \"#utility.yul\":490:514   */\n      tag_486\n        /* \"#utility.yul\":508:513   */\n      dup2\n        /* \"#utility.yul\":490:514   */\n      tag_422\n      jump\t// in\n    tag_486:\n        /* \"#utility.yul\":483:488   */\n      dup2\n        /* \"#utility.yul\":480:515   */\n      eq\n        /* \"#utility.yul\":470:533   */\n      tag_487\n      jumpi\n        /* \"#utility.yul\":529:530   */\n      0x00\n        /* \"#utility.yul\":526:527   */\n      dup1\n        /* \"#utility.yul\":519:531   */\n      revert\n        /* \"#utility.yul\":470:533   */\n    tag_487:\n        /* \"#utility.yul\":417:539   */\n      pop\n      jump\t// out\n        /* \"#utility.yul\":545:684   */\n    tag_424:\n        /* \"#utility.yul\":591:596   */\n      0x00\n        /* \"#utility.yul\":629:635   */\n      dup2\n        /* \"#utility.yul\":616:636   */\n      calldataload\n        /* \"#utility.yul\":607:636   */\n      swap1\n      pop\n        /* \"#utility.yul\":645:678   */\n      tag_489\n        /* \"#utility.yul\":672:677   */\n      dup2\n        /* \"#utility.yul\":645:678   */\n      tag_423\n      jump\t// in\n    tag_489:\n        /* \"#utility.yul\":545:684   */\n      swap3\n      swap2\n      pop\n      pop\n      jump\t// out\n        /* \"#utility.yul\":690:1019   */\n    tag_45:\n        /* \"#utility.yul\":749:755   */\n      0x00\n        /* \"#utility.yul\":798:800   */\n      0x20\n        /* \"#utility.yul\":786:795   */\n      dup3\n        /* \"#utility.yul\":777:784   */\n      dup5\n        /* \"#utility.yul\":773:796   */\n      sub\n        /* \"#utility.yul\":769:801   */\n      slt\n        /* \"#utility.yul\":766:885   */\n      iszero\n      tag_491\n      jumpi\n        /* \"#utility.yul\":804:883   */\n      tag_492\n      tag_420\n      jump\t// in\n    tag_492:\n        /* \"#utility.yul\":766:885   */\n    tag_491:\n        /* \"#utility.yul\":924:925   */\n      0x00\n        /* \"#utility.yul\":949:1002   */\n      tag_493\n        /* \"#utility.yul\":994:1001   */\n      dup5\n        /* \"#utility.yul\":985:991   */\n      dup3\n        /* \"#utility.yul\":974:983   */\n      dup6\n        /* \"#utility.yul\":970:992   */\n      add\n        /* \"#utility.yul\":949:1002   */\n      tag_424\n      jump\t// in\n    tag_493:\n        /* \"#utility.yul\":939:1002   */\n      swap2\n      pop\n        /* \"#utility.yul\":895:1012   */\n      pop\n        /* \"#utility.yul\":690:1019   */\n      swap3\n      swap2\n      pop\n      pop\n      jump\t// out\n        /* \"#utility.yul\":1025:1143   */\n    tag_425:\n        /* \"#utility.yul\":1112:1136   */\n      tag_495\n        /* \"#utility.yul\":1130:1135   */\n      dup2\n        /* \"#utility.yul\":1112:1136   */\n      tag_422\n      jump\t// in\n    tag_495:\n        /* \"#utility.yul\":1107:1110   */\n      dup3\n        /* \"#utility.yul\":1100:1137   */\n      mstore\n        /* \"#utility.yul\":1025:1143   */\n      pop\n      pop\n      jump\t// out\n        /* \"#utility.yul\":1149:1371   */\n    tag_48:\n        /* \"#utility.yul\":1242:1246   */\n      0x00\n        /* \"#utility.yul\":1280:1282   */\n      0x20\n        /* \"#utility.yul\":1269:1278   */\n      dup3\n        /* \"#utility.yul\":1265:1283   */\n      add\n        /* \"#utility.yul\":1257:1283   */\n      swap1\n      pop\n        /* \"#utility.yul\":1293:1364   */\n      tag_497\n        /* \"#utility.yul\":1361:1362   */\n      0x00\n        /* \"#utility.yul\":1350:1359   */\n      dup4\n        /* \"#utility.yul\":1346:1363   */\n      add\n        /* \"#utility.yul\":1337:1343   */\n      dup5\n        /* \"#utility.yul\":1293:1364   */\n      tag_425\n      jump\t// in\n    tag_497:\n        /* \"#utility.yul\":1149:1371   */\n      swap3\n      swap2\n      pop\n      pop\n      jump\t// out\n        /* \"#utility.yul\":1377:1851   */\n    tag_52:\n        /* \"#utility.yul\":1445:1451   */\n      0x00\n        /* \"#utility.yul\":1453:1459   */\n      dup1\n        /* \"#utility.yul\":1502:1504   */\n      0x40\n        /* \"#utility.yul\":1490:1499   */\n      dup4\n        /* \"#utility.yul\":1481:1488   */\n      dup6\n        /* \"#utility.yul\":1477:1500   */\n      sub\n        /* \"#utility.yul\":1473:1505   */\n      slt\n        /* \"#utility.yul\":1470:1589   */\n      iszero\n      tag_499\n      jumpi\n        /* \"#utility.yul\":1508:1587   */\n      tag_500\n      tag_420\n      jump\t// in\n    tag_500:\n        /* \"#utility.yul\":1470:1589   */\n    tag_499:\n        /* \"#utility.yul\":1628:1629   */\n      0x00\n        /* \"#utility.yul\":1653:1706   */\n      tag_501\n        /* \"#utility.yul\":1698:1705   */\n      dup6\n        /* \"#utility.yul\":1689:1695   */\n      dup3\n        /* \"#utility.yul\":1678:1687   */\n      dup7\n        /* \"#utility.yul\":1674:1696   */\n      add\n        /* \"#utility.yul\":1653:1706   */\n      tag_424\n      jump\t// in\n    tag_501:\n        /* \"#utility.yul\":1643:1706   */\n      swap3\n      pop\n        /* \"#utility.yul\":1599:1716   */\n      pop\n        /* \"#utility.yul\":1755:1757   */\n      0x20\n        /* \"#utility.yul\":1781:1834   */\n      tag_502\n        /* \"#utility.yul\":1826:1833   */\n      dup6\n        /* \"#utility.yul\":1817:1823   */\n      dup3\n        /* \"#utility.yul\":1806:1815   */\n      dup7\n        /* \"#utility.yul\":1802:1824   */\n      add\n        /* \"#utility.yul\":1781:1834   */\n      tag_424\n      jump\t// in\n    tag_502:\n        /* \"#utility.yul\":1771:1834   */\n      swap2\n      pop\n        /* \"#utility.yul\":1726:1844   */\n      pop\n        /* \"#utility.yul\":1377:1851   */\n      swap3\n      pop\n      swap3\n      swap1\n      pop\n      jump\t// out\n        /* \"#utility.yul\":1857:1983   */\n    tag_426:\n        /* \"#utility.yul\":1894:1901   */\n      0x00\n        /* \"#utility.yul\":1934:1976   */\n      0xffffffffffffffffffffffffffffffffffffffff\n        /* \"#utility.yul\":1927:1932   */\n      dup3\n        /* \"#utility.yul\":1923:1977   */\n      and\n        /* \"#utility.yul\":1912:1977   */\n      swap1\n      pop\n        /* \"#utility.yul\":1857:1983   */\n      swap2\n      swap1\n      pop\n      jump\t// out\n        /* \"#utility.yul\":1989:2085   */\n    tag_427:\n        /* \"#utility.yul\":2026:2033   */\n      0x00\n        /* \"#utility.yul\":2055:2079   */\n      tag_505\n        /* \"#utility.yul\":2073:2078   */\n      dup3\n        /* \"#utility.yul\":2055:2079   */\n      tag_426\n      jump\t// in\n    tag_505:\n        /* \"#utility.yul\":2044:2079   */\n      swap1\n      pop\n        /* \"#utility.yul\":1989:2085   */\n      swap2\n      swap1\n      pop\n      jump\t// out\n        /* \"#utility.yul\":2091:2209   */\n    tag_428:\n        /* \"#utility.yul\":2178:2202   */\n      tag_507\n        /* \"#utility.yul\":2196:2201   */\n      dup2\n        /* \"#utility.yul\":2178:2202   */\n      tag_427\n      jump\t// in\n    tag_507:\n        /* \"#utility.yul\":2173:2176   */\n      dup3\n        /* \"#utility.yul\":2166:2203   */\n      mstore\n        /* \"#utility.yul\":2091:2209   */\n      pop\n      pop\n      jump\t// out\n        /* \"#utility.yul\":2215:2437   */\n    tag_59:\n        /* \"#utility.yul\":2308:2312   */\n      0x00\n        /* \"#utility.yul\":2346:2348   */\n      0x20\n        /* \"#utility.yul\":2335:2344   */\n      dup3\n        /* \"#utility.yul\":2331:2349   */\n      add\n        /* \"#utility.yul\":2323:2349   */\n      swap1\n      pop\n        /* \"#utility.yul\":2359:2430   */\n      tag_509\n        /* \"#utility.yul\":2427:2428   */\n      0x00\n        /* \"#utility.yul\":2416:2425   */\n      dup4\n        /* \"#utility.yul\":2412:2429   */\n      add\n        /* \"#utility.yul\":2403:2409   */\n      dup5\n        /* \"#utility.yul\":2359:2430   */\n      tag_428\n      jump\t// in\n    tag_509:\n        /* \"#utility.yul\":2215:2437   */\n      swap3\n      swap2\n      pop\n      pop\n      jump\t// out\n        /* \"#utility.yul\":2443:2560   */\n    tag_429:\n        /* \"#utility.yul\":2552:2553   */\n      0x00\n        /* \"#utility.yul\":2549:2550   */\n      dup1\n        /* \"#utility.yul\":2542:2554   */\n      revert\n        /* \"#utility.yul\":2566:2683   */\n    tag_430:\n        /* \"#utility.yul\":2675:2676   */\n      0x00\n        /* \"#utility.yul\":2672:2673   */\n      dup1\n        /* \"#utility.yul\":2665:2677   */\n      revert\n        /* \"#utility.yul\":2689:2806   */\n    tag_431:\n        /* \"#utility.yul\":2798:2799   */\n      0x00\n        /* \"#utility.yul\":2795:2796   */\n      dup1\n        /* \"#utility.yul\":2788:2800   */\n      revert\n        /* \"#utility.yul\":2829:3397   */\n    tag_432:\n        /* \"#utility.yul\":2902:2910   */\n      0x00\n        /* \"#utility.yul\":2912:2918   */\n      dup1\n        /* \"#utility.yul\":2962:2965   */\n      dup4\n        /* \"#utility.yul\":2955:2959   */\n      0x1f\n        /* \"#utility.yul\":2947:2953   */\n      dup5\n        /* \"#utility.yul\":2943:2960   */\n      add\n        /* \"#utility.yul\":2939:2966   */\n      slt\n        /* \"#utility.yul\":2929:3051   */\n      tag_514\n      jumpi\n        /* \"#utility.yul\":2970:3049   */\n      tag_515\n      tag_429\n      jump\t// in\n    tag_515:\n        /* \"#utility.yul\":2929:3051   */\n    tag_514:\n        /* \"#utility.yul\":3083:3089   */\n      dup3\n        /* \"#utility.yul\":3070:3090   */\n      calldataload\n        /* \"#utility.yul\":3060:3090   */\n      swap1\n      pop\n        /* \"#utility.yul\":3113:3131   */\n      0xffffffffffffffff\n        /* \"#utility.yul\":3105:3111   */\n      dup2\n        /* \"#utility.yul\":3102:3132   */\n      gt\n        /* \"#utility.yul\":3099:3216   */\n      iszero\n      tag_516\n      jumpi\n        /* \"#utility.yul\":3135:3214   */\n      tag_517\n      tag_430\n      jump\t// in\n    tag_517:\n        /* \"#utility.yul\":3099:3216   */\n    tag_516:\n        /* \"#utility.yul\":3249:3253   */\n      0x20\n        /* \"#utility.yul\":3241:3247   */\n      dup4\n        /* \"#utility.yul\":3237:3254   */\n      add\n        /* \"#utility.yul\":3225:3254   */\n      swap2\n      pop\n        /* \"#utility.yul\":3303:3306   */\n      dup4\n        /* \"#utility.yul\":3295:3299   */\n      0x20\n        /* \"#utility.yul\":3287:3293   */\n      dup3\n        /* \"#utility.yul\":3283:3300   */\n      mul\n        /* \"#utility.yul\":3273:3281   */\n      dup4\n        /* \"#utility.yul\":3269:3301   */\n      add\n        /* \"#utility.yul\":3266:3307   */\n      gt\n        /* \"#utility.yul\":3263:3391   */\n      iszero\n      tag_518\n      jumpi\n        /* \"#utility.yul\":3310:3389   */\n      tag_519\n      tag_431\n      jump\t// in\n    tag_519:\n        /* \"#utility.yul\":3263:3391   */\n    tag_518:\n        /* \"#utility.yul\":2829:3397   */\n      swap3\n      pop\n      swap3\n      swap1\n      pop\n      jump\t// out\n        /* \"#utility.yul\":3403:4712   */\n    tag_63:\n        /* \"#utility.yul\":3561:3567   */\n      0x00\n        /* \"#utility.yul\":3569:3575   */\n      dup1\n        /* \"#utility.yul\":3577:3583   */\n      0x00\n        /* \"#utility.yul\":3585:3591   */\n      dup1\n        /* \"#utility.yul\":3593:3599   */\n      0x00\n        /* \"#utility.yul\":3601:3607   */\n      dup1\n        /* \"#utility.yul\":3650:3652   */\n      0x60\n        /* \"#utility.yul\":3638:3647   */\n      dup8\n        /* \"#utility.yul\":3629:3636   */\n      dup10\n        /* \"#utility.yul\":3625:3648   */\n      sub\n        /* \"#utility.yul\":3621:3653   */\n      slt\n        /* \"#utility.yul\":3618:3737   */\n      iszero\n      tag_521\n      jumpi\n        /* \"#utility.yul\":3656:3735   */\n      tag_522\n      tag_420\n      jump\t// in\n    tag_522:\n        /* \"#utility.yul\":3618:3737   */\n    tag_521:\n        /* \"#utility.yul\":3804:3805   */\n      0x00\n        /* \"#utility.yul\":3793:3802   */\n      dup8\n        /* \"#utility.yul\":3789:3806   */\n      add\n        /* \"#utility.yul\":3776:3807   */\n      calldataload\n        /* \"#utility.yul\":3834:3852   */\n      0xffffffffffffffff\n        /* \"#utility.yul\":3826:3832   */\n      dup2\n        /* \"#utility.yul\":3823:3853   */\n      gt\n        /* \"#utility.yul\":3820:3937   */\n      iszero\n      tag_523\n      jumpi\n        /* \"#utility.yul\":3856:3935   */\n      tag_524\n      tag_421\n      jump\t// in\n    tag_524:\n        /* \"#utility.yul\":3820:3937   */\n    tag_523:\n        /* \"#utility.yul\":3969:4049   */\n      tag_525\n        /* \"#utility.yul\":4041:4048   */\n      dup10\n        /* \"#utility.yul\":4032:4038   */\n      dup3\n        /* \"#utility.yul\":4021:4030   */\n      dup11\n        /* \"#utility.yul\":4017:4039   */\n      add\n        /* \"#utility.yul\":3969:4049   */\n      tag_432\n      jump\t// in\n    tag_525:\n        /* \"#utility.yul\":3951:4049   */\n      swap7\n      pop\n      swap7\n      pop\n        /* \"#utility.yul\":3747:4059   */\n      pop\n        /* \"#utility.yul\":4126:4128   */\n      0x20\n        /* \"#utility.yul\":4115:4124   */\n      dup8\n        /* \"#utility.yul\":4111:4129   */\n      add\n        /* \"#utility.yul\":4098:4130   */\n      calldataload\n        /* \"#utility.yul\":4157:4175   */\n      0xffffffffffffffff\n        /* \"#utility.yul\":4149:4155   */\n      dup2\n        /* \"#utility.yul\":4146:4176   */\n      gt\n        /* \"#utility.yul\":4143:4260   */\n      iszero\n      tag_526\n      jumpi\n        /* \"#utility.yul\":4179:4258   */\n      tag_527\n      tag_421\n      jump\t// in\n    tag_527:\n        /* \"#utility.yul\":4143:4260   */\n    tag_526:\n        /* \"#utility.yul\":4292:4372   */\n      tag_528\n        /* \"#utility.yul\":4364:4371   */\n      dup10\n        /* \"#utility.yul\":4355:4361   */\n      dup3\n        /* \"#utility.yul\":4344:4353   */\n      dup11\n        /* \"#utility.yul\":4340:4362   */\n      add\n        /* \"#utility.yul\":4292:4372   */\n      tag_432\n      jump\t// in\n    tag_528:\n        /* \"#utility.yul\":4274:4372   */\n      swap5\n      pop\n      swap5\n      pop\n        /* \"#utility.yul\":4069:4382   */\n      pop\n        /* \"#utility.yul\":4449:4451   */\n      0x40\n        /* \"#utility.yul\":4438:4447   */\n      dup8\n        /* \"#utility.yul\":4434:4452   */\n      add\n        /* \"#utility.yul\":4421:4453   */\n      calldataload\n        /* \"#utility.yul\":4480:4498   */\n      0xffffffffffffffff\n        /* \"#utility.yul\":4472:4478   */\n      dup2\n        /* \"#utility.yul\":4469:4499   */\n      gt\n        /* \"#utility.yul\":4466:4583   */\n      iszero\n      tag_529\n      jumpi\n        /* \"#utility.yul\":4502:4581   */\n      tag_530\n      tag_421\n      jump\t// in\n    tag_530:\n        /* \"#utility.yul\":4466:4583   */\n    tag_529:\n        /* \"#utility.yul\":4615:4695   */\n      tag_531\n        /* \"#utility.yul\":4687:4694   */\n      dup10\n        /* \"#utility.yul\":4678:4684   */\n      dup3\n        /* \"#utility.yul\":4667:4676   */\n      dup11\n        /* \"#utility.yul\":4663:4685   */\n      add\n        /* \"#utility.yul\":4615:4695   */\n      tag_432\n      jump\t// in\n    tag_531:\n        /* \"#utility.yul\":4597:4695   */\n      swap3\n      pop\n      swap3\n      pop\n        /* \"#utility.yul\":4392:4705   */\n      pop\n        /* \"#utility.yul\":3403:4712   */\n      swap3\n      swap6\n      pop\n      swap3\n      swap6\n      pop\n      swap3\n      swap6\n      jump\t// out\n        /* \"#utility.yul\":4718:5050   */\n    tag_78:\n        /* \"#utility.yul\":4839:4843   */\n      0x00\n        /* \"#utility.yul\":4877:4879   */\n      0x40\n        /* \"#utility.yul\":4866:4875   */\n      dup3\n        /* \"#utility.yul\":4862:4880   */\n      add\n        /* \"#utility.yul\":4854:4880   */\n      swap1\n      pop\n        /* \"#utility.yul\":4890:4961   */\n      tag_533\n        /* \"#utility.yul\":4958:4959   */\n      0x00\n        /* \"#utility.yul\":4947:4956   */\n      dup4\n        /* \"#utility.yul\":4943:4960   */\n      add\n        /* \"#utility.yul\":4934:4940   */\n      dup6\n        /* \"#utility.yul\":4890:4961   */\n      tag_425\n      jump\t// in\n    tag_533:\n        /* \"#utility.yul\":4971:5043   */\n      tag_534\n        /* \"#utility.yul\":5039:5041   */\n      0x20\n        /* \"#utility.yul\":5028:5037   */\n      dup4\n        /* \"#utility.yul\":5024:5042   */\n      add\n        /* \"#utility.yul\":5015:5021   */\n      dup5\n        /* \"#utility.yul\":4971:5043   */\n      tag_428\n      jump\t// in\n    tag_534:\n        /* \"#utility.yul\":4718:5050   */\n      swap4\n      swap3\n      pop\n      pop\n      pop\n      jump\t// out\n        /* \"#utility.yul\":5070:5623   */\n    tag_433:\n        /* \"#utility.yul\":5128:5136   */\n      0x00\n        /* \"#utility.yul\":5138:5144   */\n      dup1\n        /* \"#utility.yul\":5188:5191   */\n      dup4\n        /* \"#utility.yul\":5181:5185   */\n      0x1f\n        /* \"#utility.yul\":5173:5179   */\n      dup5\n        /* \"#utility.yul\":5169:5186   */\n      add\n        /* \"#utility.yul\":5165:5192   */\n      slt\n        /* \"#utility.yul\":5155:5277   */\n      tag_536\n      jumpi\n        /* \"#utility.yul\":5196:5275   */\n      tag_537\n      tag_429\n      jump\t// in\n    tag_537:\n        /* \"#utility.yul\":5155:5277   */\n    tag_536:\n        /* \"#utility.yul\":5309:5315   */\n      dup3\n        /* \"#utility.yul\":5296:5316   */\n      calldataload\n        /* \"#utility.yul\":5286:5316   */\n      swap1\n      pop\n        /* \"#utility.yul\":5339:5357   */\n      0xffffffffffffffff\n        /* \"#utility.yul\":5331:5337   */\n      dup2\n        /* \"#utility.yul\":5328:5358   */\n      gt\n        /* \"#utility.yul\":5325:5442   */\n      iszero\n      tag_538\n      jumpi\n        /* \"#utility.yul\":5361:5440   */\n      tag_539\n      tag_430\n      jump\t// in\n    tag_539:\n        /* \"#utility.yul\":5325:5442   */\n    tag_538:\n        /* \"#utility.yul\":5475:5479   */\n      0x20\n        /* \"#utility.yul\":5467:5473   */\n      dup4\n        /* \"#utility.yul\":5463:5480   */\n      add\n        /* \"#utility.yul\":5451:5480   */\n      swap2\n      pop\n        /* \"#utility.yul\":5529:5532   */\n      dup4\n        /* \"#utility.yul\":5521:5525   */\n      0x01\n        /* \"#utility.yul\":5513:5519   */\n      dup3\n        /* \"#utility.yul\":5509:5526   */\n      mul\n        /* \"#utility.yul\":5499:5507   */\n      dup4\n        /* \"#utility.yul\":5495:5527   */\n      add\n        /* \"#utility.yul\":5492:5533   */\n      gt\n        /* \"#utility.yul\":5489:5617   */\n      iszero\n      tag_540\n      jumpi\n        /* \"#utility.yul\":5536:5615   */\n      tag_541\n      tag_431\n      jump\t// in\n    tag_541:\n        /* \"#utility.yul\":5489:5617   */\n    tag_540:\n        /* \"#utility.yul\":5070:5623   */\n      swap3\n      pop\n      swap3\n      swap1\n      pop\n      jump\t// out\n        /* \"#utility.yul\":5629:6303   */\n    tag_82:\n        /* \"#utility.yul\":5709:5715   */\n      0x00\n        /* \"#utility.yul\":5717:5723   */\n      dup1\n        /* \"#utility.yul\":5725:5731   */\n      0x00\n        /* \"#utility.yul\":5774:5776   */\n      0x40\n        /* \"#utility.yul\":5762:5771   */\n      dup5\n        /* \"#utility.yul\":5753:5760   */\n      dup7\n        /* \"#utility.yul\":5749:5772   */\n      sub\n        /* \"#utility.yul\":5745:5777   */\n      slt\n        /* \"#utility.yul\":5742:5861   */\n      iszero\n      tag_543\n      jumpi\n        /* \"#utility.yul\":5780:5859   */\n      tag_544\n      tag_420\n      jump\t// in\n    tag_544:\n        /* \"#utility.yul\":5742:5861   */\n    tag_543:\n        /* \"#utility.yul\":5928:5929   */\n      0x00\n        /* \"#utility.yul\":5917:5926   */\n      dup5\n        /* \"#utility.yul\":5913:5930   */\n      add\n        /* \"#utility.yul\":5900:5931   */\n      calldataload\n        /* \"#utility.yul\":5958:5976   */\n      0xffffffffffffffff\n        /* \"#utility.yul\":5950:5956   */\n      dup2\n        /* \"#utility.yul\":5947:5977   */\n      gt\n        /* \"#utility.yul\":5944:6061   */\n      iszero\n      tag_545\n      jumpi\n        /* \"#utility.yul\":5980:6059   */\n      tag_546\n      tag_421\n      jump\t// in\n    tag_546:\n        /* \"#utility.yul\":5944:6061   */\n    tag_545:\n        /* \"#utility.yul\":6093:6158   */\n      tag_547\n        /* \"#utility.yul\":6150:6157   */\n      dup7\n        /* \"#utility.yul\":6141:6147   */\n      dup3\n        /* \"#utility.yul\":6130:6139   */\n      dup8\n        /* \"#utility.yul\":6126:6148   */\n      add\n        /* \"#utility.yul\":6093:6158   */\n      tag_433\n      jump\t// in\n    tag_547:\n        /* \"#utility.yul\":6075:6158   */\n      swap4\n      pop\n      swap4\n      pop\n        /* \"#utility.yul\":5871:6168   */\n      pop\n        /* \"#utility.yul\":6207:6209   */\n      0x20\n        /* \"#utility.yul\":6233:6286   */\n      tag_548\n        /* \"#utility.yul\":6278:6285   */\n      dup7\n        /* \"#utility.yul\":6269:6275   */\n      dup3\n        /* \"#utility.yul\":6258:6267   */\n      dup8\n        /* \"#utility.yul\":6254:6276   */\n      add\n        /* \"#utility.yul\":6233:6286   */\n      tag_424\n      jump\t// in\n    tag_548:\n        /* \"#utility.yul\":6223:6286   */\n      swap2\n      pop\n        /* \"#utility.yul\":6178:6296   */\n      pop\n        /* \"#utility.yul\":5629:6303   */\n      swap3\n      pop\n      swap3\n      pop\n      swap3\n      jump\t// out\n        /* \"#utility.yul\":6309:6431   */\n    tag_434:\n        /* \"#utility.yul\":6382:6406   */\n      tag_550\n        /* \"#utility.yul\":6400:6405   */\n      dup2\n        /* \"#utility.yul\":6382:6406   */\n      tag_427\n      jump\t// in\n    tag_550:\n        /* \"#utility.yul\":6375:6380   */\n      dup2\n        /* \"#utility.yul\":6372:6407   */\n      eq\n        /* \"#utility.yul\":6362:6425   */\n      tag_551\n      jumpi\n        /* \"#utility.yul\":6421:6422   */\n      0x00\n        /* \"#utility.yul\":6418:6419   */\n      dup1\n        /* \"#utility.yul\":6411:6423   */\n      revert\n        /* \"#utility.yul\":6362:6425   */\n    tag_551:\n        /* \"#utility.yul\":6309:6431   */\n      pop\n      jump\t// out\n        /* \"#utility.yul\":6437:6576   */\n    tag_435:\n        /* \"#utility.yul\":6483:6488   */\n      0x00\n        /* \"#utility.yul\":6521:6527   */\n      dup2\n        /* \"#utility.yul\":6508:6528   */\n      calldataload\n        /* \"#utility.yul\":6499:6528   */\n      swap1\n      pop\n        /* \"#utility.yul\":6537:6570   */\n      tag_553\n        /* \"#utility.yul\":6564:6569   */\n      dup2\n        /* \"#utility.yul\":6537:6570   */\n      tag_434\n      jump\t// in\n    tag_553:\n        /* \"#utility.yul\":6437:6576   */\n      swap3\n      swap2\n      pop\n      pop\n      jump\t// out\n        /* \"#utility.yul\":6582:6911   */\n    tag_94:\n        /* \"#utility.yul\":6641:6647   */\n      0x00\n        /* \"#utility.yul\":6690:6692   */\n      0x20\n        /* \"#utility.yul\":6678:6687   */\n      dup3\n        /* \"#utility.yul\":6669:6676   */\n      dup5\n        /* \"#utility.yul\":6665:6688   */\n      sub\n        /* \"#utility.yul\":6661:6693   */\n      slt\n        /* \"#utility.yul\":6658:6777   */\n      iszero\n      tag_555\n      jumpi\n        /* \"#utility.yul\":6696:6775   */\n      tag_556\n      tag_420\n      jump\t// in\n    tag_556:\n        /* \"#utility.yul\":6658:6777   */\n    tag_555:\n        /* \"#utility.yul\":6816:6817   */\n      0x00\n        /* \"#utility.yul\":6841:6894   */\n      tag_557\n        /* \"#utility.yul\":6886:6893   */\n      dup5\n        /* \"#utility.yul\":6877:6883   */\n      dup3\n        /* \"#utility.yul\":6866:6875   */\n      dup6\n        /* \"#utility.yul\":6862:6884   */\n      add\n        /* \"#utility.yul\":6841:6894   */\n      tag_435\n      jump\t// in\n    tag_557:\n        /* \"#utility.yul\":6831:6894   */\n      swap2\n      pop\n        /* \"#utility.yul\":6787:6904   */\n      pop\n        /* \"#utility.yul\":6582:6911   */\n      swap3\n      swap2\n      pop\n      pop\n      jump\t// out\n        /* \"#utility.yul\":6917:7736   */\n    tag_110:\n        /* \"#utility.yul\":7006:7012   */\n      0x00\n        /* \"#utility.yul\":7014:7020   */\n      dup1\n        /* \"#utility.yul\":7022:7028   */\n      0x00\n        /* \"#utility.yul\":7030:7036   */\n      dup1\n        /* \"#utility.yul\":7079:7081   */\n      0x60\n        /* \"#utility.yul\":7067:7076   */\n      dup6\n        /* \"#utility.yul\":7058:7065   */\n      dup8\n        /* \"#utility.yul\":7054:7077   */\n      sub\n        /* \"#utility.yul\":7050:7082   */\n      slt\n        /* \"#utility.yul\":7047:7166   */\n      iszero\n      tag_559\n      jumpi\n        /* \"#utility.yul\":7085:7164   */\n      tag_560\n      tag_420\n      jump\t// in\n    tag_560:\n        /* \"#utility.yul\":7047:7166   */\n    tag_559:\n        /* \"#utility.yul\":7205:7206   */\n      0x00\n        /* \"#utility.yul\":7230:7283   */\n      tag_561\n        /* \"#utility.yul\":7275:7282   */\n      dup8\n        /* \"#utility.yul\":7266:7272   */\n      dup3\n        /* \"#utility.yul\":7255:7264   */\n      dup9\n        /* \"#utility.yul\":7251:7273   */\n      add\n        /* \"#utility.yul\":7230:7283   */\n      tag_424\n      jump\t// in\n    tag_561:\n        /* \"#utility.yul\":7220:7283   */\n      swap5\n      pop\n        /* \"#utility.yul\":7176:7293   */\n      pop\n        /* \"#utility.yul\":7332:7334   */\n      0x20\n        /* \"#utility.yul\":7358:7411   */\n      tag_562\n        /* \"#utility.yul\":7403:7410   */\n      dup8\n        /* \"#utility.yul\":7394:7400   */\n      dup3\n        /* \"#utility.yul\":7383:7392   */\n      dup9\n        /* \"#utility.yul\":7379:7401   */\n      add\n        /* \"#utility.yul\":7358:7411   */\n      tag_424\n      jump\t// in\n    tag_562:\n        /* \"#utility.yul\":7348:7411   */\n      swap4\n      pop\n        /* \"#utility.yul\":7303:7421   */\n      pop\n        /* \"#utility.yul\":7488:7490   */\n      0x40\n        /* \"#utility.yul\":7477:7486   */\n      dup6\n        /* \"#utility.yul\":7473:7491   */\n      add\n        /* \"#utility.yul\":7460:7492   */\n      calldataload\n        /* \"#utility.yul\":7519:7537   */\n      0xffffffffffffffff\n        /* \"#utility.yul\":7511:7517   */\n      dup2\n        /* \"#utility.yul\":7508:7538   */\n      gt\n        /* \"#utility.yul\":7505:7622   */\n      iszero\n      tag_563\n      jumpi\n        /* \"#utility.yul\":7541:7620   */\n      tag_564\n      tag_421\n      jump\t// in\n    tag_564:\n        /* \"#utility.yul\":7505:7622   */\n    tag_563:\n        /* \"#utility.yul\":7654:7719   */\n      tag_565\n        /* \"#utility.yul\":7711:7718   */\n      dup8\n        /* \"#utility.yul\":7702:7708   */\n      dup3\n        /* \"#utility.yul\":7691:7700   */\n      dup9\n        /* \"#utility.yul\":7687:7709   */\n      add\n        /* \"#utility.yul\":7654:7719   */\n      tag_433\n      jump\t// in\n    tag_565:\n        /* \"#utility.yul\":7636:7719   */\n      swap3\n      pop\n      swap3\n      pop\n        /* \"#utility.yul\":7431:7729   */\n      pop\n        /* \"#utility.yul\":6917:7736   */\n      swap3\n      swap6\n      swap2\n      swap5\n      pop\n      swap3\n      pop\n      jump\t// out\n        /* \"#utility.yul\":7742:7859   */\n    tag_436:\n        /* \"#utility.yul\":7851:7852   */\n      0x00\n        /* \"#utility.yul\":7848:7849   */\n      dup1\n        /* \"#utility.yul\":7841:7853   */\n      revert\n        /* \"#utility.yul\":7865:7967   */\n    tag_437:\n        /* \"#utility.yul\":7906:7912   */\n      0x00\n        /* \"#utility.yul\":7957:7959   */\n      0x1f\n        /* \"#utility.yul\":7953:7960   */\n      not\n        /* \"#utility.yul\":7948:7950   */\n      0x1f\n        /* \"#utility.yul\":7941:7946   */\n      dup4\n        /* \"#utility.yul\":7937:7951   */\n      add\n        /* \"#utility.yul\":7933:7961   */\n      and\n        /* \"#utility.yul\":7923:7961   */\n      swap1\n      pop\n        /* \"#utility.yul\":7865:7967   */\n      swap2\n      swap1\n      pop\n      jump\t// out\n        /* \"#utility.yul\":7973:8153   */\n    tag_438:\n        /* \"#utility.yul\":8021:8098   */\n      0x4e487b7100000000000000000000000000000000000000000000000000000000\n        /* \"#utility.yul\":8018:8019   */\n      0x00\n        /* \"#utility.yul\":8011:8099   */\n      mstore\n        /* \"#utility.yul\":8118:8122   */\n      0x41\n        /* \"#utility.yul\":8115:8116   */\n      0x04\n        /* \"#utility.yul\":8108:8123   */\n      mstore\n        /* \"#utility.yul\":8142:8146   */\n      0x24\n        /* \"#utility.yul\":8139:8140   */\n      0x00\n        /* \"#utility.yul\":8132:8147   */\n      revert\n        /* \"#utility.yul\":8159:8440   */\n    tag_439:\n        /* \"#utility.yul\":8242:8269   */\n      tag_570\n        /* \"#utility.yul\":8264:8268   */\n      dup3\n        /* \"#utility.yul\":8242:8269   */\n      tag_437\n      jump\t// in\n    tag_570:\n        /* \"#utility.yul\":8234:8240   */\n      dup2\n        /* \"#utility.yul\":8230:8270   */\n      add\n        /* \"#utility.yul\":8372:8378   */\n      dup2\n        /* \"#utility.yul\":8360:8370   */\n      dup2\n        /* \"#utility.yul\":8357:8379   */\n      lt\n        /* \"#utility.yul\":8336:8354   */\n      0xffffffffffffffff\n        /* \"#utility.yul\":8324:8334   */\n      dup3\n        /* \"#utility.yul\":8321:8355   */\n      gt\n        /* \"#utility.yul\":8318:8380   */\n      or\n        /* \"#utility.yul\":8315:8403   */\n      iszero\n      tag_571\n      jumpi\n        /* \"#utility.yul\":8383:8401   */\n      tag_572\n      tag_438\n      jump\t// in\n    tag_572:\n        /* \"#utility.yul\":8315:8403   */\n    tag_571:\n        /* \"#utility.yul\":8423:8433   */\n      dup1\n        /* \"#utility.yul\":8419:8421   */\n      0x40\n        /* \"#utility.yul\":8412:8434   */\n      mstore\n        /* \"#utility.yul\":8202:8440   */\n      pop\n        /* \"#utility.yul\":8159:8440   */\n      pop\n      pop\n      jump\t// out\n        /* \"#utility.yul\":8446:8575   */\n    tag_440:\n        /* \"#utility.yul\":8480:8486   */\n      0x00\n        /* \"#utility.yul\":8507:8527   */\n      tag_574\n      tag_419\n      jump\t// in\n    tag_574:\n        /* \"#utility.yul\":8497:8527   */\n      swap1\n      pop\n        /* \"#utility.yul\":8536:8569   */\n      tag_575\n        /* \"#utility.yul\":8564:8568   */\n      dup3\n        /* \"#utility.yul\":8556:8562   */\n      dup3\n        /* \"#utility.yul\":8536:8569   */\n      tag_439\n      jump\t// in\n    tag_575:\n        /* \"#utility.yul\":8446:8575   */\n      swap2\n      swap1\n      pop\n      jump\t// out\n        /* \"#utility.yul\":8581:8889   */\n    tag_441:\n        /* \"#utility.yul\":8643:8647   */\n      0x00\n        /* \"#utility.yul\":8733:8751   */\n      0xffffffffffffffff\n        /* \"#utility.yul\":8725:8731   */\n      dup3\n        /* \"#utility.yul\":8722:8752   */\n      gt\n        /* \"#utility.yul\":8719:8775   */\n      iszero\n      tag_577\n      jumpi\n        /* \"#utility.yul\":8755:8773   */\n      tag_578\n      tag_438\n      jump\t// in\n    tag_578:\n        /* \"#utility.yul\":8719:8775   */\n    tag_577:\n        /* \"#utility.yul\":8793:8822   */\n      tag_579\n        /* \"#utility.yul\":8815:8821   */\n      dup3\n        /* \"#utility.yul\":8793:8822   */\n      tag_437\n      jump\t// in\n    tag_579:\n        /* \"#utility.yul\":8785:8822   */\n      swap1\n      pop\n        /* \"#utility.yul\":8877:8881   */\n      0x20\n        /* \"#utility.yul\":8871:8875   */\n      dup2\n        /* \"#utility.yul\":8867:8882   */\n      add\n        /* \"#utility.yul\":8859:8882   */\n      swap1\n      pop\n        /* \"#utility.yul\":8581:8889   */\n      swap2\n      swap1\n      pop\n      jump\t// out\n        /* \"#utility.yul\":8895:9043   */\n    tag_442:\n        /* \"#utility.yul\":8993:8999   */\n      dup3\n        /* \"#utility.yul\":8988:8991   */\n      dup2\n        /* \"#utility.yul\":8983:8986   */\n      dup4\n        /* \"#utility.yul\":8970:9000   */\n      calldatacopy\n        /* \"#utility.yul\":9034:9035   */\n      0x00\n        /* \"#utility.yul\":9025:9031   */\n      dup4\n        /* \"#utility.yul\":9020:9023   */\n      dup4\n        /* \"#utility.yul\":9016:9032   */\n      add\n        /* \"#utility.yul\":9009:9036   */\n      mstore\n        /* \"#utility.yul\":8895:9043   */\n      pop\n      pop\n      pop\n      jump\t// out\n        /* \"#utility.yul\":9049:9474   */\n    tag_443:\n        /* \"#utility.yul\":9127:9132   */\n      0x00\n        /* \"#utility.yul\":9152:9218   */\n      tag_582\n        /* \"#utility.yul\":9168:9217   */\n      tag_583\n        /* \"#utility.yul\":9210:9216   */\n      dup5\n        /* \"#utility.yul\":9168:9217   */\n      tag_441\n      jump\t// in\n    tag_583:\n        /* \"#utility.yul\":9152:9218   */\n      tag_440\n      jump\t// in\n    tag_582:\n        /* \"#utility.yul\":9143:9218   */\n      swap1\n      pop\n        /* \"#utility.yul\":9241:9247   */\n      dup3\n        /* \"#utility.yul\":9234:9239   */\n      dup2\n        /* \"#utility.yul\":9227:9248   */\n      mstore\n        /* \"#utility.yul\":9279:9283   */\n      0x20\n        /* \"#utility.yul\":9272:9277   */\n      dup2\n        /* \"#utility.yul\":9268:9284   */\n      add\n        /* \"#utility.yul\":9317:9320   */\n      dup5\n        /* \"#utility.yul\":9308:9314   */\n      dup5\n        /* \"#utility.yul\":9303:9306   */\n      dup5\n        /* \"#utility.yul\":9299:9315   */\n      add\n        /* \"#utility.yul\":9296:9321   */\n      gt\n        /* \"#utility.yul\":9293:9405   */\n      iszero\n      tag_584\n      jumpi\n        /* \"#utility.yul\":9324:9403   */\n      tag_585\n      tag_436\n      jump\t// in\n    tag_585:\n        /* \"#utility.yul\":9293:9405   */\n    tag_584:\n        /* \"#utility.yul\":9414:9468   */\n      tag_586\n        /* \"#utility.yul\":9461:9467   */\n      dup5\n        /* \"#utility.yul\":9456:9459   */\n      dup3\n        /* \"#utility.yul\":9451:9454   */\n      dup6\n        /* \"#utility.yul\":9414:9468   */\n      tag_442\n      jump\t// in\n    tag_586:\n        /* \"#utility.yul\":9133:9474   */\n      pop\n        /* \"#utility.yul\":9049:9474   */\n      swap4\n      swap3\n      pop\n      pop\n      pop\n      jump\t// out\n        /* \"#utility.yul\":9494:9834   */\n    tag_444:\n        /* \"#utility.yul\":9550:9555   */\n      0x00\n        /* \"#utility.yul\":9599:9602   */\n      dup3\n        /* \"#utility.yul\":9592:9596   */\n      0x1f\n        /* \"#utility.yul\":9584:9590   */\n      dup4\n        /* \"#utility.yul\":9580:9597   */\n      add\n        /* \"#utility.yul\":9576:9603   */\n      slt\n        /* \"#utility.yul\":9566:9688   */\n      tag_588\n      jumpi\n        /* \"#utility.yul\":9607:9686   */\n      tag_589\n      tag_429\n      jump\t// in\n    tag_589:\n        /* \"#utility.yul\":9566:9688   */\n    tag_588:\n        /* \"#utility.yul\":9724:9730   */\n      dup2\n        /* \"#utility.yul\":9711:9731   */\n      calldataload\n        /* \"#utility.yul\":9749:9828   */\n      tag_590\n        /* \"#utility.yul\":9824:9827   */\n      dup5\n        /* \"#utility.yul\":9816:9822   */\n      dup3\n        /* \"#utility.yul\":9809:9813   */\n      0x20\n        /* \"#utility.yul\":9801:9807   */\n      dup7\n        /* \"#utility.yul\":9797:9814   */\n      add\n        /* \"#utility.yul\":9749:9828   */\n      tag_443\n      jump\t// in\n    tag_590:\n        /* \"#utility.yul\":9740:9828   */\n      swap2\n      pop\n        /* \"#utility.yul\":9556:9834   */\n      pop\n        /* \"#utility.yul\":9494:9834   */\n      swap3\n      swap2\n      pop\n      pop\n      jump\t// out\n        /* \"#utility.yul\":9840:10785   */\n    tag_115:\n        /* \"#utility.yul\":9936:9942   */\n      0x00\n        /* \"#utility.yul\":9944:9950   */\n      dup1\n        /* \"#utility.yul\":9952:9958   */\n      0x00\n        /* \"#utility.yul\":9960:9966   */\n      dup1\n        /* \"#utility.yul\":10009:10012   */\n      0x80\n        /* \"#utility.yul\":9997:10006   */\n      dup6\n        /* \"#utility.yul\":9988:9995   */\n      dup8\n        /* \"#utility.yul\":9984:10007   */\n      sub\n        /* \"#utility.yul\":9980:10013   */\n      slt\n        /* \"#utility.yul\":9977:10097   */\n      iszero\n      tag_592\n      jumpi\n        /* \"#utility.yul\":10016:10095   */\n      tag_593\n      tag_420\n      jump\t// in\n    tag_593:\n        /* \"#utility.yul\":9977:10097   */\n    tag_592:\n        /* \"#utility.yul\":10136:10137   */\n      0x00\n        /* \"#utility.yul\":10161:10214   */\n      tag_594\n        /* \"#utility.yul\":10206:10213   */\n      dup8\n        /* \"#utility.yul\":10197:10203   */\n      dup3\n        /* \"#utility.yul\":10186:10195   */\n      dup9\n        /* \"#utility.yul\":10182:10204   */\n      add\n        /* \"#utility.yul\":10161:10214   */\n      tag_424\n      jump\t// in\n    tag_594:\n        /* \"#utility.yul\":10151:10214   */\n      swap5\n      pop\n        /* \"#utility.yul\":10107:10224   */\n      pop\n        /* \"#utility.yul\":10263:10265   */\n      0x20\n        /* \"#utility.yul\":10289:10342   */\n      tag_595\n        /* \"#utility.yul\":10334:10341   */\n      dup8\n        /* \"#utility.yul\":10325:10331   */\n      dup3\n        /* \"#utility.yul\":10314:10323   */\n      dup9\n        /* \"#utility.yul\":10310:10332   */\n      add\n        /* \"#utility.yul\":10289:10342   */\n      tag_424\n      jump\t// in\n    tag_595:\n        /* \"#utility.yul\":10279:10342   */\n      swap4\n      pop\n        /* \"#utility.yul\":10234:10352   */\n      pop\n        /* \"#utility.yul\":10419:10421   */\n      0x40\n        /* \"#utility.yul\":10408:10417   */\n      dup6\n        /* \"#utility.yul\":10404:10422   */\n      add\n        /* \"#utility.yul\":10391:10423   */\n      calldataload\n        /* \"#utility.yul\":10450:10468   */\n      0xffffffffffffffff\n        /* \"#utility.yul\":10442:10448   */\n      dup2\n        /* \"#utility.yul\":10439:10469   */\n      gt\n        /* \"#utility.yul\":10436:10553   */\n      iszero\n      tag_596\n      jumpi\n        /* \"#utility.yul\":10472:10551   */\n      tag_597\n      tag_421\n      jump\t// in\n    tag_597:\n        /* \"#utility.yul\":10436:10553   */\n    tag_596:\n        /* \"#utility.yul\":10577:10640   */\n      tag_598\n        /* \"#utility.yul\":10632:10639   */\n      dup8\n        /* \"#utility.yul\":10623:10629   */\n      dup3\n        /* \"#utility.yul\":10612:10621   */\n      dup9\n        /* \"#utility.yul\":10608:10630   */\n      add\n        /* \"#utility.yul\":10577:10640   */\n      tag_444\n      jump\t// in\n    tag_598:\n        /* \"#utility.yul\":10567:10640   */\n      swap3\n      pop\n        /* \"#utility.yul\":10362:10650   */\n      pop\n        /* \"#utility.yul\":10689:10691   */\n      0x60\n        /* \"#utility.yul\":10715:10768   */\n      tag_599\n        /* \"#utility.yul\":10760:10767   */\n      dup8\n        /* \"#utility.yul\":10751:10757   */\n      dup3\n        /* \"#utility.yul\":10740:10749   */\n      dup9\n        /* \"#utility.yul\":10736:10758   */\n      add\n        /* \"#utility.yul\":10715:10768   */\n      tag_424\n      jump\t// in\n    tag_599:\n        /* \"#utility.yul\":10705:10768   */\n      swap2\n      pop\n        /* \"#utility.yul\":10660:10778   */\n      pop\n        /* \"#utility.yul\":9840:10785   */\n      swap3\n      swap6\n      swap2\n      swap5\n      pop\n      swap3\n      pop\n      jump\t// out\n        /* \"#utility.yul\":10791:10890   */\n    tag_445:\n        /* \"#utility.yul\":10843:10849   */\n      0x00\n        /* \"#utility.yul\":10877:10882   */\n      dup2\n        /* \"#utility.yul\":10871:10883   */\n      mload\n        /* \"#utility.yul\":10861:10883   */\n      swap1\n      pop\n        /* \"#utility.yul\":10791:10890   */\n      swap2\n      swap1\n      pop\n      jump\t// out\n        /* \"#utility.yul\":10896:11065   */\n    tag_446:\n        /* \"#utility.yul\":10980:10991   */\n      0x00\n        /* \"#utility.yul\":11014:11020   */\n      dup3\n        /* \"#utility.yul\":11009:11012   */\n      dup3\n        /* \"#utility.yul\":11002:11021   */\n      mstore\n        /* \"#utility.yul\":11054:11058   */\n      0x20\n        /* \"#utility.yul\":11049:11052   */\n      dup3\n        /* \"#utility.yul\":11045:11059   */\n      add\n        /* \"#utility.yul\":11030:11059   */\n      swap1\n      pop\n        /* \"#utility.yul\":10896:11065   */\n      swap3\n      swap2\n      pop\n      pop\n      jump\t// out\n        /* \"#utility.yul\":11071:11210   */\n    tag_447:\n        /* \"#utility.yul\":11160:11166   */\n      dup3\n        /* \"#utility.yul\":11155:11158   */\n      dup2\n        /* \"#utility.yul\":11150:11153   */\n      dup4\n        /* \"#utility.yul\":11144:11167   */\n      mcopy\n        /* \"#utility.yul\":11201:11202   */\n      0x00\n        /* \"#utility.yul\":11192:11198   */\n      dup4\n        /* \"#utility.yul\":11187:11190   */\n      dup4\n        /* \"#utility.yul\":11183:11199   */\n      add\n        /* \"#utility.yul\":11176:11203   */\n      mstore\n        /* \"#utility.yul\":11071:11210   */\n      pop\n      pop\n      pop\n      jump\t// out\n        /* \"#utility.yul\":11216:11593   */\n    tag_448:\n        /* \"#utility.yul\":11304:11307   */\n      0x00\n        /* \"#utility.yul\":11332:11371   */\n      tag_604\n        /* \"#utility.yul\":11365:11370   */\n      dup3\n        /* \"#utility.yul\":11332:11371   */\n      tag_445\n      jump\t// in\n    tag_604:\n        /* \"#utility.yul\":11387:11458   */\n      tag_605\n        /* \"#utility.yul\":11451:11457   */\n      dup2\n        /* \"#utility.yul\":11446:11449   */\n      dup6\n        /* \"#utility.yul\":11387:11458   */\n      tag_446\n      jump\t// in\n    tag_605:\n        /* \"#utility.yul\":11380:11458   */\n      swap4\n      pop\n        /* \"#utility.yul\":11467:11532   */\n      tag_606\n        /* \"#utility.yul\":11525:11531   */\n      dup2\n        /* \"#utility.yul\":11520:11523   */\n      dup6\n        /* \"#utility.yul\":11513:11517   */\n      0x20\n        /* \"#utility.yul\":11506:11511   */\n      dup7\n        /* \"#utility.yul\":11502:11518   */\n      add\n        /* \"#utility.yul\":11467:11532   */\n      tag_447\n      jump\t// in\n    tag_606:\n        /* \"#utility.yul\":11557:11586   */\n      tag_607\n        /* \"#utility.yul\":11579:11585   */\n      dup2\n        /* \"#utility.yul\":11557:11586   */\n      tag_437\n      jump\t// in\n    tag_607:\n        /* \"#utility.yul\":11552:11555   */\n      dup5\n        /* \"#utility.yul\":11548:11587   */\n      add\n        /* \"#utility.yul\":11541:11587   */\n      swap2\n      pop\n        /* \"#utility.yul\":11308:11593   */\n      pop\n        /* \"#utility.yul\":11216:11593   */\n      swap3\n      swap2\n      pop\n      pop\n      jump\t// out\n        /* \"#utility.yul\":11599:12243   */\n    tag_122:\n        /* \"#utility.yul\":11796:11800   */\n      0x00\n        /* \"#utility.yul\":11834:11837   */\n      0x80\n        /* \"#utility.yul\":11823:11832   */\n      dup3\n        /* \"#utility.yul\":11819:11838   */\n      add\n        /* \"#utility.yul\":11811:11838   */\n      swap1\n      pop\n        /* \"#utility.yul\":11848:11919   */\n      tag_609\n        /* \"#utility.yul\":11916:11917   */\n      0x00\n        /* \"#utility.yul\":11905:11914   */\n      dup4\n        /* \"#utility.yul\":11901:11918   */\n      add\n        /* \"#utility.yul\":11892:11898   */\n      dup8\n        /* \"#utility.yul\":11848:11919   */\n      tag_425\n      jump\t// in\n    tag_609:\n        /* \"#utility.yul\":11929:12001   */\n      tag_610\n        /* \"#utility.yul\":11997:11999   */\n      0x20\n        /* \"#utility.yul\":11986:11995   */\n      dup4\n        /* \"#utility.yul\":11982:12000   */\n      add\n        /* \"#utility.yul\":11973:11979   */\n      dup7\n        /* \"#utility.yul\":11929:12001   */\n      tag_428\n      jump\t// in\n    tag_610:\n        /* \"#utility.yul\":12048:12057   */\n      dup2\n        /* \"#utility.yul\":12042:12046   */\n      dup2\n        /* \"#utility.yul\":12038:12058   */\n      sub\n        /* \"#utility.yul\":12033:12035   */\n      0x40\n        /* \"#utility.yul\":12022:12031   */\n      dup4\n        /* \"#utility.yul\":12018:12036   */\n      add\n        /* \"#utility.yul\":12011:12059   */\n      mstore\n        /* \"#utility.yul\":12076:12154   */\n      tag_611\n        /* \"#utility.yul\":12149:12153   */\n      dup2\n        /* \"#utility.yul\":12140:12146   */\n      dup6\n        /* \"#utility.yul\":12076:12154   */\n      tag_448\n      jump\t// in\n    tag_611:\n        /* \"#utility.yul\":12068:12154   */\n      swap1\n      pop\n        /* \"#utility.yul\":12164:12236   */\n      tag_612\n        /* \"#utility.yul\":12232:12234   */\n      0x60\n        /* \"#utility.yul\":12221:12230   */\n      dup4\n        /* \"#utility.yul\":12217:12235   */\n      add\n        /* \"#utility.yul\":12208:12214   */\n      dup5\n        /* \"#utility.yul\":12164:12236   */\n      tag_425\n      jump\t// in\n    tag_612:\n        /* \"#utility.yul\":11599:12243   */\n      swap6\n      swap5\n      pop\n      pop\n      pop\n      pop\n      pop\n      jump\t// out\n        /* \"#utility.yul\":12249:12357   */\n    tag_449:\n        /* \"#utility.yul\":12326:12350   */\n      tag_614\n        /* \"#utility.yul\":12344:12349   */\n      dup2\n        /* \"#utility.yul\":12326:12350   */\n      tag_422\n      jump\t// in\n    tag_614:\n        /* \"#utility.yul\":12321:12324   */\n      dup3\n        /* \"#utility.yul\":12314:12351   */\n      mstore\n        /* \"#utility.yul\":12249:12357   */\n      pop\n      pop\n      jump\t// out\n        /* \"#utility.yul\":12363:12471   */\n    tag_450:\n        /* \"#utility.yul\":12440:12464   */\n      tag_616\n        /* \"#utility.yul\":12458:12463   */\n      dup2\n        /* \"#utility.yul\":12440:12464   */\n      tag_427\n      jump\t// in\n    tag_616:\n        /* \"#utility.yul\":12435:12438   */\n      dup3\n        /* \"#utility.yul\":12428:12465   */\n      mstore\n        /* \"#utility.yul\":12363:12471   */\n      pop\n      pop\n      jump\t// out\n        /* \"#utility.yul\":12477:12636   */\n    tag_451:\n        /* \"#utility.yul\":12551:12562   */\n      0x00\n        /* \"#utility.yul\":12585:12591   */\n      dup3\n        /* \"#utility.yul\":12580:12583   */\n      dup3\n        /* \"#utility.yul\":12573:12592   */\n      mstore\n        /* \"#utility.yul\":12625:12629   */\n      0x20\n        /* \"#utility.yul\":12620:12623   */\n      dup3\n        /* \"#utility.yul\":12616:12630   */\n      add\n        /* \"#utility.yul\":12601:12630   */\n      swap1\n      pop\n        /* \"#utility.yul\":12477:12636   */\n      swap3\n      swap2\n      pop\n      pop\n      jump\t// out\n        /* \"#utility.yul\":12642:12999   */\n    tag_452:\n        /* \"#utility.yul\":12720:12723   */\n      0x00\n        /* \"#utility.yul\":12748:12787   */\n      tag_619\n        /* \"#utility.yul\":12781:12786   */\n      dup3\n        /* \"#utility.yul\":12748:12787   */\n      tag_445\n      jump\t// in\n    tag_619:\n        /* \"#utility.yul\":12803:12864   */\n      tag_620\n        /* \"#utility.yul\":12857:12863   */\n      dup2\n        /* \"#utility.yul\":12852:12855   */\n      dup6\n        /* \"#utility.yul\":12803:12864   */\n      tag_451\n      jump\t// in\n    tag_620:\n        /* \"#utility.yul\":12796:12864   */\n      swap4\n      pop\n        /* \"#utility.yul\":12873:12938   */\n      tag_621\n        /* \"#utility.yul\":12931:12937   */\n      dup2\n        /* \"#utility.yul\":12926:12929   */\n      dup6\n        /* \"#utility.yul\":12919:12923   */\n      0x20\n        /* \"#utility.yul\":12912:12917   */\n      dup7\n        /* \"#utility.yul\":12908:12924   */\n      add\n        /* \"#utility.yul\":12873:12938   */\n      tag_447\n      jump\t// in\n    tag_621:\n        /* \"#utility.yul\":12963:12992   */\n      tag_622\n        /* \"#utility.yul\":12985:12991   */\n      dup2\n        /* \"#utility.yul\":12963:12992   */\n      tag_437\n      jump\t// in\n    tag_622:\n        /* \"#utility.yul\":12958:12961   */\n      dup5\n        /* \"#utility.yul\":12954:12993   */\n      add\n        /* \"#utility.yul\":12947:12993   */\n      swap2\n      pop\n        /* \"#utility.yul\":12724:12999   */\n      pop\n        /* \"#utility.yul\":12642:12999   */\n      swap3\n      swap2\n      pop\n      pop\n      jump\t// out\n        /* \"#utility.yul\":13057:14198   */\n    tag_453:\n        /* \"#utility.yul\":13168:13171   */\n      0x00\n        /* \"#utility.yul\":13204:13208   */\n      0xa0\n        /* \"#utility.yul\":13199:13202   */\n      dup4\n        /* \"#utility.yul\":13195:13209   */\n      add\n        /* \"#utility.yul\":13296:13300   */\n      0x00\n        /* \"#utility.yul\":13289:13294   */\n      dup4\n        /* \"#utility.yul\":13285:13301   */\n      add\n        /* \"#utility.yul\":13279:13302   */\n      mload\n        /* \"#utility.yul\":13315:13378   */\n      tag_624\n        /* \"#utility.yul\":13372:13376   */\n      0x00\n        /* \"#utility.yul\":13367:13370   */\n      dup7\n        /* \"#utility.yul\":13363:13377   */\n      add\n        /* \"#utility.yul\":13349:13361   */\n      dup3\n        /* \"#utility.yul\":13315:13378   */\n      tag_449\n      jump\t// in\n    tag_624:\n        /* \"#utility.yul\":13219:13388   */\n      pop\n        /* \"#utility.yul\":13480:13484   */\n      0x20\n        /* \"#utility.yul\":13473:13478   */\n      dup4\n        /* \"#utility.yul\":13469:13485   */\n      add\n        /* \"#utility.yul\":13463:13486   */\n      mload\n        /* \"#utility.yul\":13499:13562   */\n      tag_625\n        /* \"#utility.yul\":13556:13560   */\n      0x20\n        /* \"#utility.yul\":13551:13554   */\n      dup7\n        /* \"#utility.yul\":13547:13561   */\n      add\n        /* \"#utility.yul\":13533:13545   */\n      dup3\n        /* \"#utility.yul\":13499:13562   */\n      tag_449\n      jump\t// in\n    tag_625:\n        /* \"#utility.yul\":13398:13572   */\n      pop\n        /* \"#utility.yul\":13655:13659   */\n      0x40\n        /* \"#utility.yul\":13648:13653   */\n      dup4\n        /* \"#utility.yul\":13644:13660   */\n      add\n        /* \"#utility.yul\":13638:13661   */\n      mload\n        /* \"#utility.yul\":13674:13737   */\n      tag_626\n        /* \"#utility.yul\":13731:13735   */\n      0x40\n        /* \"#utility.yul\":13726:13729   */\n      dup7\n        /* \"#utility.yul\":13722:13736   */\n      add\n        /* \"#utility.yul\":13708:13720   */\n      dup3\n        /* \"#utility.yul\":13674:13737   */\n      tag_450\n      jump\t// in\n    tag_626:\n        /* \"#utility.yul\":13582:13747   */\n      pop\n        /* \"#utility.yul\":13833:13837   */\n      0x60\n        /* \"#utility.yul\":13826:13831   */\n      dup4\n        /* \"#utility.yul\":13822:13838   */\n      add\n        /* \"#utility.yul\":13816:13839   */\n      mload\n        /* \"#utility.yul\":13886:13889   */\n      dup5\n        /* \"#utility.yul\":13880:13884   */\n      dup3\n        /* \"#utility.yul\":13876:13890   */\n      sub\n        /* \"#utility.yul\":13869:13873   */\n      0x60\n        /* \"#utility.yul\":13864:13867   */\n      dup7\n        /* \"#utility.yul\":13860:13874   */\n      add\n        /* \"#utility.yul\":13853:13891   */\n      mstore\n        /* \"#utility.yul\":13912:13985   */\n      tag_627\n        /* \"#utility.yul\":13980:13984   */\n      dup3\n        /* \"#utility.yul\":13966:13978   */\n      dup3\n        /* \"#utility.yul\":13912:13985   */\n      tag_452\n      jump\t// in\n    tag_627:\n        /* \"#utility.yul\":13904:13985   */\n      swap2\n      pop\n        /* \"#utility.yul\":13757:13996   */\n      pop\n        /* \"#utility.yul\":14079:14083   */\n      0x80\n        /* \"#utility.yul\":14072:14077   */\n      dup4\n        /* \"#utility.yul\":14068:14084   */\n      add\n        /* \"#utility.yul\":14062:14085   */\n      mload\n        /* \"#utility.yul\":14098:14161   */\n      tag_628\n        /* \"#utility.yul\":14155:14159   */\n      0x80\n        /* \"#utility.yul\":14150:14153   */\n      dup7\n        /* \"#utility.yul\":14146:14160   */\n      add\n        /* \"#utility.yul\":14132:14144   */\n      dup3\n        /* \"#utility.yul\":14098:14161   */\n      tag_449\n      jump\t// in\n    tag_628:\n        /* \"#utility.yul\":14006:14171   */\n      pop\n        /* \"#utility.yul\":14188:14192   */\n      dup1\n        /* \"#utility.yul\":14181:14192   */\n      swap2\n      pop\n        /* \"#utility.yul\":13173:14198   */\n      pop\n        /* \"#utility.yul\":13057:14198   */\n      swap3\n      swap2\n      pop\n      pop\n      jump\t// out\n        /* \"#utility.yul\":14204:14561   */\n    tag_131:\n        /* \"#utility.yul\":14339:14343   */\n      0x00\n        /* \"#utility.yul\":14377:14379   */\n      0x20\n        /* \"#utility.yul\":14366:14375   */\n      dup3\n        /* \"#utility.yul\":14362:14380   */\n      add\n        /* \"#utility.yul\":14354:14380   */\n      swap1\n      pop\n        /* \"#utility.yul\":14426:14435   */\n      dup2\n        /* \"#utility.yul\":14420:14424   */\n      dup2\n        /* \"#utility.yul\":14416:14436   */\n      sub\n        /* \"#utility.yul\":14412:14413   */\n      0x00\n        /* \"#utility.yul\":14401:14410   */\n      dup4\n        /* \"#utility.yul\":14397:14414   */\n      add\n        /* \"#utility.yul\":14390:14437   */\n      mstore\n        /* \"#utility.yul\":14454:14554   */\n      tag_630\n        /* \"#utility.yul\":14549:14553   */\n      dup2\n        /* \"#utility.yul\":14540:14546   */\n      dup5\n        /* \"#utility.yul\":14454:14554   */\n      tag_453\n      jump\t// in\n    tag_630:\n        /* \"#utility.yul\":14446:14554   */\n      swap1\n      pop\n        /* \"#utility.yul\":14204:14561   */\n      swap3\n      swap2\n      pop\n      pop\n      jump\t// out\n        /* \"#utility.yul\":14567:15322   */\n    tag_147:\n        /* \"#utility.yul\":14792:14796   */\n      0x00\n        /* \"#utility.yul\":14830:14833   */\n      0xa0\n        /* \"#utility.yul\":14819:14828   */\n      dup3\n        /* \"#utility.yul\":14815:14834   */\n      add\n        /* \"#utility.yul\":14807:14834   */\n      swap1\n      pop\n        /* \"#utility.yul\":14844:14915   */\n      tag_632\n        /* \"#utility.yul\":14912:14913   */\n      0x00\n        /* \"#utility.yul\":14901:14910   */\n      dup4\n        /* \"#utility.yul\":14897:14914   */\n      add\n        /* \"#utility.yul\":14888:14894   */\n      dup9\n        /* \"#utility.yul\":14844:14915   */\n      tag_425\n      jump\t// in\n    tag_632:\n        /* \"#utility.yul\":14925:14997   */\n      tag_633\n        /* \"#utility.yul\":14993:14995   */\n      0x20\n        /* \"#utility.yul\":14982:14991   */\n      dup4\n        /* \"#utility.yul\":14978:14996   */\n      add\n        /* \"#utility.yul\":14969:14975   */\n      dup8\n        /* \"#utility.yul\":14925:14997   */\n      tag_425\n      jump\t// in\n    tag_633:\n        /* \"#utility.yul\":15007:15079   */\n      tag_634\n        /* \"#utility.yul\":15075:15077   */\n      0x40\n        /* \"#utility.yul\":15064:15073   */\n      dup4\n        /* \"#utility.yul\":15060:15078   */\n      add\n        /* \"#utility.yul\":15051:15057   */\n      dup7\n        /* \"#utility.yul\":15007:15079   */\n      tag_425\n      jump\t// in\n    tag_634:\n        /* \"#utility.yul\":15089:15161   */\n      tag_635\n        /* \"#utility.yul\":15157:15159   */\n      0x60\n        /* \"#utility.yul\":15146:15155   */\n      dup4\n        /* \"#utility.yul\":15142:15160   */\n      add\n        /* \"#utility.yul\":15133:15139   */\n      dup6\n        /* \"#utility.yul\":15089:15161   */\n      tag_428\n      jump\t// in\n    tag_635:\n        /* \"#utility.yul\":15209:15218   */\n      dup2\n        /* \"#utility.yul\":15203:15207   */\n      dup2\n        /* \"#utility.yul\":15199:15219   */\n      sub\n        /* \"#utility.yul\":15193:15196   */\n      0x80\n        /* \"#utility.yul\":15182:15191   */\n      dup4\n        /* \"#utility.yul\":15178:15197   */\n      add\n        /* \"#utility.yul\":15171:15220   */\n      mstore\n        /* \"#utility.yul\":15237:15315   */\n      tag_636\n        /* \"#utility.yul\":15310:15314   */\n      dup2\n        /* \"#utility.yul\":15301:15307   */\n      dup5\n        /* \"#utility.yul\":15237:15315   */\n      tag_448\n      jump\t// in\n    tag_636:\n        /* \"#utility.yul\":15229:15315   */\n      swap1\n      pop\n        /* \"#utility.yul\":14567:15322   */\n      swap7\n      swap6\n      pop\n      pop\n      pop\n      pop\n      pop\n      pop\n      jump\t// out\n        /* \"#utility.yul\":15386:15896   */\n    tag_454:\n        /* \"#utility.yul\":15531:15535   */\n      0x40\n        /* \"#utility.yul\":15526:15529   */\n      dup3\n        /* \"#utility.yul\":15522:15536   */\n      add\n        /* \"#utility.yul\":15622:15626   */\n      0x00\n        /* \"#utility.yul\":15615:15620   */\n      dup3\n        /* \"#utility.yul\":15611:15627   */\n      add\n        /* \"#utility.yul\":15605:15628   */\n      mload\n        /* \"#utility.yul\":15641:15704   */\n      tag_638\n        /* \"#utility.yul\":15698:15702   */\n      0x00\n        /* \"#utility.yul\":15693:15696   */\n      dup6\n        /* \"#utility.yul\":15689:15703   */\n      add\n        /* \"#utility.yul\":15675:15687   */\n      dup3\n        /* \"#utility.yul\":15641:15704   */\n      tag_449\n      jump\t// in\n    tag_638:\n        /* \"#utility.yul\":15546:15714   */\n      pop\n        /* \"#utility.yul\":15797:15801   */\n      0x20\n        /* \"#utility.yul\":15790:15795   */\n      dup3\n        /* \"#utility.yul\":15786:15802   */\n      add\n        /* \"#utility.yul\":15780:15803   */\n      mload\n        /* \"#utility.yul\":15816:15879   */\n      tag_639\n        /* \"#utility.yul\":15873:15877   */\n      0x20\n        /* \"#utility.yul\":15868:15871   */\n      dup6\n        /* \"#utility.yul\":15864:15878   */\n      add\n        /* \"#utility.yul\":15850:15862   */\n      dup3\n        /* \"#utility.yul\":15816:15879   */\n      tag_450\n      jump\t// in\n    tag_639:\n        /* \"#utility.yul\":15724:15889   */\n      pop\n        /* \"#utility.yul\":15500:15896   */\n      pop\n        /* \"#utility.yul\":15386:15896   */\n      pop\n      pop\n      jump\t// out\n        /* \"#utility.yul\":15902:16220   */\n    tag_157:\n        /* \"#utility.yul\":16043:16047   */\n      0x00\n        /* \"#utility.yul\":16081:16083   */\n      0x40\n        /* \"#utility.yul\":16070:16079   */\n      dup3\n        /* \"#utility.yul\":16066:16084   */\n      add\n        /* \"#utility.yul\":16058:16084   */\n      swap1\n      pop\n        /* \"#utility.yul\":16094:16213   */\n      tag_641\n        /* \"#utility.yul\":16210:16211   */\n      0x00\n        /* \"#utility.yul\":16199:16208   */\n      dup4\n        /* \"#utility.yul\":16195:16212   */\n      add\n        /* \"#utility.yul\":16186:16192   */\n      dup5\n        /* \"#utility.yul\":16094:16213   */\n      tag_454\n      jump\t// in\n    tag_641:\n        /* \"#utility.yul\":15902:16220   */\n      swap3\n      swap2\n      pop\n      pop\n      jump\t// out\n        /* \"#utility.yul\":16226:16880   */\n    tag_161:\n        /* \"#utility.yul\":16304:16310   */\n      0x00\n        /* \"#utility.yul\":16312:16318   */\n      dup1\n        /* \"#utility.yul\":16361:16363   */\n      0x40\n        /* \"#utility.yul\":16349:16358   */\n      dup4\n        /* \"#utility.yul\":16340:16347   */\n      dup6\n        /* \"#utility.yul\":16336:16359   */\n      sub\n        /* \"#utility.yul\":16332:16364   */\n      slt\n        /* \"#utility.yul\":16329:16448   */\n      iszero\n      tag_643\n      jumpi\n        /* \"#utility.yul\":16367:16446   */\n      tag_644\n      tag_420\n      jump\t// in\n    tag_644:\n        /* \"#utility.yul\":16329:16448   */\n    tag_643:\n        /* \"#utility.yul\":16487:16488   */\n      0x00\n        /* \"#utility.yul\":16512:16565   */\n      tag_645\n        /* \"#utility.yul\":16557:16564   */\n      dup6\n        /* \"#utility.yul\":16548:16554   */\n      dup3\n        /* \"#utility.yul\":16537:16546   */\n      dup7\n        /* \"#utility.yul\":16533:16555   */\n      add\n        /* \"#utility.yul\":16512:16565   */\n      tag_424\n      jump\t// in\n    tag_645:\n        /* \"#utility.yul\":16502:16565   */\n      swap3\n      pop\n        /* \"#utility.yul\":16458:16575   */\n      pop\n        /* \"#utility.yul\":16642:16644   */\n      0x20\n        /* \"#utility.yul\":16631:16640   */\n      dup4\n        /* \"#utility.yul\":16627:16645   */\n      add\n        /* \"#utility.yul\":16614:16646   */\n      calldataload\n        /* \"#utility.yul\":16673:16691   */\n      0xffffffffffffffff\n        /* \"#utility.yul\":16665:16671   */\n      dup2\n        /* \"#utility.yul\":16662:16692   */\n      gt\n        /* \"#utility.yul\":16659:16776   */\n      iszero\n      tag_646\n      jumpi\n        /* \"#utility.yul\":16695:16774   */\n      tag_647\n      tag_421\n      jump\t// in\n    tag_647:\n        /* \"#utility.yul\":16659:16776   */\n    tag_646:\n        /* \"#utility.yul\":16800:16863   */\n      tag_648\n        /* \"#utility.yul\":16855:16862   */\n      dup6\n        /* \"#utility.yul\":16846:16852   */\n      dup3\n        /* \"#utility.yul\":16835:16844   */\n      dup7\n        /* \"#utility.yul\":16831:16853   */\n      add\n        /* \"#utility.yul\":16800:16863   */\n      tag_444\n      jump\t// in\n    tag_648:\n        /* \"#utility.yul\":16790:16863   */\n      swap2\n      pop\n        /* \"#utility.yul\":16585:16873   */\n      pop\n        /* \"#utility.yul\":16226:16880   */\n      swap3\n      pop\n      swap3\n      swap1\n      pop\n      jump\t// out\n        /* \"#utility.yul\":16886:16976   */\n    tag_455:\n        /* \"#utility.yul\":16920:16927   */\n      0x00\n        /* \"#utility.yul\":16963:16968   */\n      dup2\n        /* \"#utility.yul\":16956:16969   */\n      iszero\n        /* \"#utility.yul\":16949:16970   */\n      iszero\n        /* \"#utility.yul\":16938:16970   */\n      swap1\n      pop\n        /* \"#utility.yul\":16886:16976   */\n      swap2\n      swap1\n      pop\n      jump\t// out\n        /* \"#utility.yul\":16982:17091   */\n    tag_456:\n        /* \"#utility.yul\":17063:17084   */\n      tag_651\n        /* \"#utility.yul\":17078:17083   */\n      dup2\n        /* \"#utility.yul\":17063:17084   */\n      tag_455\n      jump\t// in\n    tag_651:\n        /* \"#utility.yul\":17058:17061   */\n      dup3\n        /* \"#utility.yul\":17051:17085   */\n      mstore\n        /* \"#utility.yul\":16982:17091   */\n      pop\n      pop\n      jump\t// out\n        /* \"#utility.yul\":17097:17307   */\n    tag_168:\n        /* \"#utility.yul\":17184:17188   */\n      0x00\n        /* \"#utility.yul\":17222:17224   */\n      0x20\n        /* \"#utility.yul\":17211:17220   */\n      dup3\n        /* \"#utility.yul\":17207:17225   */\n      add\n        /* \"#utility.yul\":17199:17225   */\n      swap1\n      pop\n        /* \"#utility.yul\":17235:17300   */\n      tag_653\n        /* \"#utility.yul\":17297:17298   */\n      0x00\n        /* \"#utility.yul\":17286:17295   */\n      dup4\n        /* \"#utility.yul\":17282:17299   */\n      add\n        /* \"#utility.yul\":17273:17279   */\n      dup5\n        /* \"#utility.yul\":17235:17300   */\n      tag_456\n      jump\t// in\n    tag_653:\n        /* \"#utility.yul\":17097:17307   */\n      swap3\n      swap2\n      pop\n      pop\n      jump\t// out\n        /* \"#utility.yul\":17383:18538   */\n    tag_457:\n        /* \"#utility.yul\":17512:17515   */\n      0x00\n        /* \"#utility.yul\":17548:17552   */\n      0xa0\n        /* \"#utility.yul\":17543:17546   */\n      dup4\n        /* \"#utility.yul\":17539:17553   */\n      add\n        /* \"#utility.yul\":17645:17649   */\n      0x00\n        /* \"#utility.yul\":17638:17643   */\n      dup4\n        /* \"#utility.yul\":17634:17650   */\n      add\n        /* \"#utility.yul\":17628:17651   */\n      mload\n        /* \"#utility.yul\":17664:17727   */\n      tag_655\n        /* \"#utility.yul\":17721:17725   */\n      0x00\n        /* \"#utility.yul\":17716:17719   */\n      dup7\n        /* \"#utility.yul\":17712:17726   */\n      add\n        /* \"#utility.yul\":17698:17710   */\n      dup3\n        /* \"#utility.yul\":17664:17727   */\n      tag_449\n      jump\t// in\n    tag_655:\n        /* \"#utility.yul\":17563:17737   */\n      pop\n        /* \"#utility.yul\":17823:17827   */\n      0x20\n        /* \"#utility.yul\":17816:17821   */\n      dup4\n        /* \"#utility.yul\":17812:17828   */\n      add\n        /* \"#utility.yul\":17806:17829   */\n      mload\n        /* \"#utility.yul\":17842:17905   */\n      tag_656\n        /* \"#utility.yul\":17899:17903   */\n      0x20\n        /* \"#utility.yul\":17894:17897   */\n      dup7\n        /* \"#utility.yul\":17890:17904   */\n      add\n        /* \"#utility.yul\":17876:17888   */\n      dup3\n        /* \"#utility.yul\":17842:17905   */\n      tag_449\n      jump\t// in\n    tag_656:\n        /* \"#utility.yul\":17747:17915   */\n      pop\n        /* \"#utility.yul\":18000:18004   */\n      0x40\n        /* \"#utility.yul\":17993:17998   */\n      dup4\n        /* \"#utility.yul\":17989:18005   */\n      add\n        /* \"#utility.yul\":17983:18006   */\n      mload\n        /* \"#utility.yul\":18019:18082   */\n      tag_657\n        /* \"#utility.yul\":18076:18080   */\n      0x40\n        /* \"#utility.yul\":18071:18074   */\n      dup7\n        /* \"#utility.yul\":18067:18081   */\n      add\n        /* \"#utility.yul\":18053:18065   */\n      dup3\n        /* \"#utility.yul\":18019:18082   */\n      tag_449\n      jump\t// in\n    tag_657:\n        /* \"#utility.yul\":17925:18092   */\n      pop\n        /* \"#utility.yul\":18175:18179   */\n      0x60\n        /* \"#utility.yul\":18168:18173   */\n      dup4\n        /* \"#utility.yul\":18164:18180   */\n      add\n        /* \"#utility.yul\":18158:18181   */\n      mload\n        /* \"#utility.yul\":18194:18257   */\n      tag_658\n        /* \"#utility.yul\":18251:18255   */\n      0x60\n        /* \"#utility.yul\":18246:18249   */\n      dup7\n        /* \"#utility.yul\":18242:18256   */\n      add\n        /* \"#utility.yul\":18228:18240   */\n      dup3\n        /* \"#utility.yul\":18194:18257   */\n      tag_450\n      jump\t// in\n    tag_658:\n        /* \"#utility.yul\":18102:18267   */\n      pop\n        /* \"#utility.yul\":18348:18352   */\n      0x80\n        /* \"#utility.yul\":18341:18346   */\n      dup4\n        /* \"#utility.yul\":18337:18353   */\n      add\n        /* \"#utility.yul\":18331:18354   */\n      mload\n        /* \"#utility.yul\":18401:18404   */\n      dup5\n        /* \"#utility.yul\":18395:18399   */\n      dup3\n        /* \"#utility.yul\":18391:18405   */\n      sub\n        /* \"#utility.yul\":18384:18388   */\n      0x80\n        /* \"#utility.yul\":18379:18382   */\n      dup7\n        /* \"#utility.yul\":18375:18389   */\n      add\n        /* \"#utility.yul\":18368:18406   */\n      mstore\n        /* \"#utility.yul\":18427:18500   */\n      tag_659\n        /* \"#utility.yul\":18495:18499   */\n      dup3\n        /* \"#utility.yul\":18481:18493   */\n      dup3\n        /* \"#utility.yul\":18427:18500   */\n      tag_452\n      jump\t// in\n    tag_659:\n        /* \"#utility.yul\":18419:18500   */\n      swap2\n      pop\n        /* \"#utility.yul\":18277:18511   */\n      pop\n        /* \"#utility.yul\":18528:18532   */\n      dup1\n        /* \"#utility.yul\":18521:18532   */\n      swap2\n      pop\n        /* \"#utility.yul\":17517:18538   */\n      pop\n        /* \"#utility.yul\":17383:18538   */\n      swap3\n      swap2\n      pop\n      pop\n      jump\t// out\n        /* \"#utility.yul\":18544:18937   */\n    tag_188:\n        /* \"#utility.yul\":18697:18701   */\n      0x00\n        /* \"#utility.yul\":18735:18737   */\n      0x20\n        /* \"#utility.yul\":18724:18733   */\n      dup3\n        /* \"#utility.yul\":18720:18738   */\n      add\n        /* \"#utility.yul\":18712:18738   */\n      swap1\n      pop\n        /* \"#utility.yul\":18784:18793   */\n      dup2\n        /* \"#utility.yul\":18778:18782   */\n      dup2\n        /* \"#utility.yul\":18774:18794   */\n      sub\n        /* \"#utility.yul\":18770:18771   */\n      0x00\n        /* \"#utility.yul\":18759:18768   */\n      dup4\n        /* \"#utility.yul\":18755:18772   */\n      add\n        /* \"#utility.yul\":18748:18795   */\n      mstore\n        /* \"#utility.yul\":18812:18930   */\n      tag_661\n        /* \"#utility.yul\":18925:18929   */\n      dup2\n        /* \"#utility.yul\":18916:18922   */\n      dup5\n        /* \"#utility.yul\":18812:18930   */\n      tag_457\n      jump\t// in\n    tag_661:\n        /* \"#utility.yul\":18804:18930   */\n      swap1\n      pop\n        /* \"#utility.yul\":18544:18937   */\n      swap3\n      swap2\n      pop\n      pop\n      jump\t// out\n        /* \"#utility.yul\":19003:19966   */\n    tag_458:\n        /* \"#utility.yul\":19122:19125   */\n      0x00\n        /* \"#utility.yul\":19158:19162   */\n      0x80\n        /* \"#utility.yul\":19153:19156   */\n      dup4\n        /* \"#utility.yul\":19149:19163   */\n      add\n        /* \"#utility.yul\":19248:19252   */\n      0x00\n        /* \"#utility.yul\":19241:19246   */\n      dup4\n        /* \"#utility.yul\":19237:19253   */\n      add\n        /* \"#utility.yul\":19231:19254   */\n      mload\n        /* \"#utility.yul\":19267:19330   */\n      tag_663\n        /* \"#utility.yul\":19324:19328   */\n      0x00\n        /* \"#utility.yul\":19319:19322   */\n      dup7\n        /* \"#utility.yul\":19315:19329   */\n      add\n        /* \"#utility.yul\":19301:19313   */\n      dup3\n        /* \"#utility.yul\":19267:19330   */\n      tag_449\n      jump\t// in\n    tag_663:\n        /* \"#utility.yul\":19173:19340   */\n      pop\n        /* \"#utility.yul\":19423:19427   */\n      0x20\n        /* \"#utility.yul\":19416:19421   */\n      dup4\n        /* \"#utility.yul\":19412:19428   */\n      add\n        /* \"#utility.yul\":19406:19429   */\n      mload\n        /* \"#utility.yul\":19442:19505   */\n      tag_664\n        /* \"#utility.yul\":19499:19503   */\n      0x20\n        /* \"#utility.yul\":19494:19497   */\n      dup7\n        /* \"#utility.yul\":19490:19504   */\n      add\n        /* \"#utility.yul\":19476:19488   */\n      dup3\n        /* \"#utility.yul\":19442:19505   */\n      tag_450\n      jump\t// in\n    tag_664:\n        /* \"#utility.yul\":19350:19515   */\n      pop\n        /* \"#utility.yul\":19601:19605   */\n      0x40\n        /* \"#utility.yul\":19594:19599   */\n      dup4\n        /* \"#utility.yul\":19590:19606   */\n      add\n        /* \"#utility.yul\":19584:19607   */\n      mload\n        /* \"#utility.yul\":19654:19657   */\n      dup5\n        /* \"#utility.yul\":19648:19652   */\n      dup3\n        /* \"#utility.yul\":19644:19658   */\n      sub\n        /* \"#utility.yul\":19637:19641   */\n      0x40\n        /* \"#utility.yul\":19632:19635   */\n      dup7\n        /* \"#utility.yul\":19628:19642   */\n      add\n        /* \"#utility.yul\":19621:19659   */\n      mstore\n        /* \"#utility.yul\":19680:19753   */\n      tag_665\n        /* \"#utility.yul\":19748:19752   */\n      dup3\n        /* \"#utility.yul\":19734:19746   */\n      dup3\n        /* \"#utility.yul\":19680:19753   */\n      tag_452\n      jump\t// in\n    tag_665:\n        /* \"#utility.yul\":19672:19753   */\n      swap2\n      pop\n        /* \"#utility.yul\":19525:19764   */\n      pop\n        /* \"#utility.yul\":19847:19851   */\n      0x60\n        /* \"#utility.yul\":19840:19845   */\n      dup4\n        /* \"#utility.yul\":19836:19852   */\n      add\n        /* \"#utility.yul\":19830:19853   */\n      mload\n        /* \"#utility.yul\":19866:19929   */\n      tag_666\n        /* \"#utility.yul\":19923:19927   */\n      0x60\n        /* \"#utility.yul\":19918:19921   */\n      dup7\n        /* \"#utility.yul\":19914:19928   */\n      add\n        /* \"#utility.yul\":19900:19912   */\n      dup3\n        /* \"#utility.yul\":19866:19929   */\n      tag_449\n      jump\t// in\n    tag_666:\n        /* \"#utility.yul\":19774:19939   */\n      pop\n        /* \"#utility.yul\":19956:19960   */\n      dup1\n        /* \"#utility.yul\":19949:19960   */\n      swap2\n      pop\n        /* \"#utility.yul\":19127:19966   */\n      pop\n        /* \"#utility.yul\":19003:19966   */\n      swap3\n      swap2\n      pop\n      pop\n      jump\t// out\n        /* \"#utility.yul\":19972:20345   */\n    tag_194:\n        /* \"#utility.yul\":20115:20119   */\n      0x00\n        /* \"#utility.yul\":20153:20155   */\n      0x20\n        /* \"#utility.yul\":20142:20151   */\n      dup3\n        /* \"#utility.yul\":20138:20156   */\n      add\n        /* \"#utility.yul\":20130:20156   */\n      swap1\n      pop\n        /* \"#utility.yul\":20202:20211   */\n      dup2\n        /* \"#utility.yul\":20196:20200   */\n      dup2\n        /* \"#utility.yul\":20192:20212   */\n      sub\n        /* \"#utility.yul\":20188:20189   */\n      0x00\n        /* \"#utility.yul\":20177:20186   */\n      dup4\n        /* \"#utility.yul\":20173:20190   */\n      add\n        /* \"#utility.yul\":20166:20213   */\n      mstore\n        /* \"#utility.yul\":20230:20338   */\n      tag_668\n        /* \"#utility.yul\":20333:20337   */\n      dup2\n        /* \"#utility.yul\":20324:20330   */\n      dup5\n        /* \"#utility.yul\":20230:20338   */\n      tag_458\n      jump\t// in\n    tag_668:\n        /* \"#utility.yul\":20222:20338   */\n      swap1\n      pop\n        /* \"#utility.yul\":19972:20345   */\n      swap3\n      swap2\n      pop\n      pop\n      jump\t// out\n        /* \"#utility.yul\":20351:21106   */\n    tag_200:\n        /* \"#utility.yul\":20576:20580   */\n      0x00\n        /* \"#utility.yul\":20614:20617   */\n      0xa0\n        /* \"#utility.yul\":20603:20612   */\n      dup3\n        /* \"#utility.yul\":20599:20618   */\n      add\n        /* \"#utility.yul\":20591:20618   */\n      swap1\n      pop\n        /* \"#utility.yul\":20628:20699   */\n      tag_670\n        /* \"#utility.yul\":20696:20697   */\n      0x00\n        /* \"#utility.yul\":20685:20694   */\n      dup4\n        /* \"#utility.yul\":20681:20698   */\n      add\n        /* \"#utility.yul\":20672:20678   */\n      dup9\n        /* \"#utility.yul\":20628:20699   */\n      tag_425\n      jump\t// in\n    tag_670:\n        /* \"#utility.yul\":20709:20781   */\n      tag_671\n        /* \"#utility.yul\":20777:20779   */\n      0x20\n        /* \"#utility.yul\":20766:20775   */\n      dup4\n        /* \"#utility.yul\":20762:20780   */\n      add\n        /* \"#utility.yul\":20753:20759   */\n      dup8\n        /* \"#utility.yul\":20709:20781   */\n      tag_425\n      jump\t// in\n    tag_671:\n        /* \"#utility.yul\":20791:20863   */\n      tag_672\n        /* \"#utility.yul\":20859:20861   */\n      0x40\n        /* \"#utility.yul\":20848:20857   */\n      dup4\n        /* \"#utility.yul\":20844:20862   */\n      add\n        /* \"#utility.yul\":20835:20841   */\n      dup7\n        /* \"#utility.yul\":20791:20863   */\n      tag_428\n      jump\t// in\n    tag_672:\n        /* \"#utility.yul\":20910:20919   */\n      dup2\n        /* \"#utility.yul\":20904:20908   */\n      dup2\n        /* \"#utility.yul\":20900:20920   */\n      sub\n        /* \"#utility.yul\":20895:20897   */\n      0x60\n        /* \"#utility.yul\":20884:20893   */\n      dup4\n        /* \"#utility.yul\":20880:20898   */\n      add\n        /* \"#utility.yul\":20873:20921   */\n      mstore\n        /* \"#utility.yul\":20938:21016   */\n      tag_673\n        /* \"#utility.yul\":21011:21015   */\n      dup2\n        /* \"#utility.yul\":21002:21008   */\n      dup6\n        /* \"#utility.yul\":20938:21016   */\n      tag_448\n      jump\t// in\n    tag_673:\n        /* \"#utility.yul\":20930:21016   */\n      swap1\n      pop\n        /* \"#utility.yul\":21026:21099   */\n      tag_674\n        /* \"#utility.yul\":21094:21097   */\n      0x80\n        /* \"#utility.yul\":21083:21092   */\n      dup4\n        /* \"#utility.yul\":21079:21098   */\n      add\n        /* \"#utility.yul\":21070:21076   */\n      dup5\n        /* \"#utility.yul\":21026:21099   */\n      tag_425\n      jump\t// in\n    tag_674:\n        /* \"#utility.yul\":20351:21106   */\n      swap7\n      swap6\n      pop\n      pop\n      pop\n      pop\n      pop\n      pop\n      jump\t// out\n        /* \"#utility.yul\":21112:21444   */\n    tag_214:\n        /* \"#utility.yul\":21233:21237   */\n      0x00\n        /* \"#utility.yul\":21271:21273   */\n      0x40\n        /* \"#utility.yul\":21260:21269   */\n      dup3\n        /* \"#utility.yul\":21256:21274   */\n      add\n        /* \"#utility.yul\":21248:21274   */\n      swap1\n      pop\n        /* \"#utility.yul\":21284:21355   */\n      tag_676\n        /* \"#utility.yul\":21352:21353   */\n      0x00\n        /* \"#utility.yul\":21341:21350   */\n      dup4\n        /* \"#utility.yul\":21337:21354   */\n      add\n        /* \"#utility.yul\":21328:21334   */\n      dup6\n        /* \"#utility.yul\":21284:21355   */\n      tag_428\n      jump\t// in\n    tag_676:\n        /* \"#utility.yul\":21365:21437   */\n      tag_677\n        /* \"#utility.yul\":21433:21435   */\n      0x20\n        /* \"#utility.yul\":21422:21431   */\n      dup4\n        /* \"#utility.yul\":21418:21436   */\n      add\n        /* \"#utility.yul\":21409:21415   */\n      dup5\n        /* \"#utility.yul\":21365:21437   */\n      tag_428\n      jump\t// in\n    tag_677:\n        /* \"#utility.yul\":21112:21444   */\n      swap4\n      swap3\n      pop\n      pop\n      pop\n      jump\t// out\n        /* \"#utility.yul\":21450:21782   */\n    tag_219:\n        /* \"#utility.yul\":21571:21575   */\n      0x00\n        /* \"#utility.yul\":21609:21611   */\n      0x40\n        /* \"#utility.yul\":21598:21607   */\n      dup3\n        /* \"#utility.yul\":21594:21612   */\n      add\n        /* \"#utility.yul\":21586:21612   */\n      swap1\n      pop\n        /* \"#utility.yul\":21622:21693   */\n      tag_679\n        /* \"#utility.yul\":21690:21691   */\n      0x00\n        /* \"#utility.yul\":21679:21688   */\n      dup4\n        /* \"#utility.yul\":21675:21692   */\n      add\n        /* \"#utility.yul\":21666:21672   */\n      dup6\n        /* \"#utility.yul\":21622:21693   */\n      tag_425\n      jump\t// in\n    tag_679:\n        /* \"#utility.yul\":21703:21775   */\n      tag_680\n        /* \"#utility.yul\":21771:21773   */\n      0x20\n        /* \"#utility.yul\":21760:21769   */\n      dup4\n        /* \"#utility.yul\":21756:21774   */\n      add\n        /* \"#utility.yul\":21747:21753   */\n      dup5\n        /* \"#utility.yul\":21703:21775   */\n      tag_425\n      jump\t// in\n    tag_680:\n        /* \"#utility.yul\":21450:21782   */\n      swap4\n      swap3\n      pop\n      pop\n      pop\n      jump\t// out\n        /* \"#utility.yul\":21788:21968   */\n    tag_229:\n        /* \"#utility.yul\":21836:21913   */\n      0x4e487b7100000000000000000000000000000000000000000000000000000000\n        /* \"#utility.yul\":21833:21834   */\n      0x00\n        /* \"#utility.yul\":21826:21914   */\n      mstore\n        /* \"#utility.yul\":21933:21937   */\n      0x32\n        /* \"#utility.yul\":21930:21931   */\n      0x04\n        /* \"#utility.yul\":21923:21938   */\n      mstore\n        /* \"#utility.yul\":21957:21961   */\n      0x24\n        /* \"#utility.yul\":21954:21955   */\n      0x00\n        /* \"#utility.yul\":21947:21962   */\n      revert\n        /* \"#utility.yul\":21974:22158   */\n    tag_459:\n        /* \"#utility.yul\":22073:22084   */\n      0x00\n        /* \"#utility.yul\":22107:22113   */\n      dup3\n        /* \"#utility.yul\":22102:22105   */\n      dup3\n        /* \"#utility.yul\":22095:22114   */\n      mstore\n        /* \"#utility.yul\":22147:22151   */\n      0x20\n        /* \"#utility.yul\":22142:22145   */\n      dup3\n        /* \"#utility.yul\":22138:22152   */\n      add\n        /* \"#utility.yul\":22123:22152   */\n      swap1\n      pop\n        /* \"#utility.yul\":21974:22158   */\n      swap3\n      swap2\n      pop\n      pop\n      jump\t// out\n        /* \"#utility.yul\":22164:22281   */\n    tag_460:\n        /* \"#utility.yul\":22273:22274   */\n      0x00\n        /* \"#utility.yul\":22270:22271   */\n      dup1\n        /* \"#utility.yul\":22263:22275   */\n      revert\n        /* \"#utility.yul\":22287:22386   */\n    tag_461:\n        /* \"#utility.yul\":22372:22378   */\n      dup3\n        /* \"#utility.yul\":22367:22370   */\n      dup2\n        /* \"#utility.yul\":22362:22365   */\n      dup4\n        /* \"#utility.yul\":22349:22379   */\n      calldatacopy\n        /* \"#utility.yul\":22287:22386   */\n      pop\n      pop\n      pop\n      jump\t// out\n        /* \"#utility.yul\":22422:22959   */\n    tag_462:\n        /* \"#utility.yul\":22550:22553   */\n      0x00\n        /* \"#utility.yul\":22571:22657   */\n      tag_686\n        /* \"#utility.yul\":22650:22656   */\n      dup4\n        /* \"#utility.yul\":22645:22648   */\n      dup6\n        /* \"#utility.yul\":22571:22657   */\n      tag_459\n      jump\t// in\n    tag_686:\n        /* \"#utility.yul\":22564:22657   */\n      swap4\n      pop\n        /* \"#utility.yul\":22681:22747   */\n      0x07ffffffffffffffffffffffffffffffffffffffffffffffffffffffffffffff\n        /* \"#utility.yul\":22673:22679   */\n      dup4\n        /* \"#utility.yul\":22670:22748   */\n      gt\n        /* \"#utility.yul\":22667:22832   */\n      iszero\n      tag_687\n      jumpi\n        /* \"#utility.yul\":22751:22830   */\n      tag_688\n      tag_460\n      jump\t// in\n    tag_688:\n        /* \"#utility.yul\":22667:22832   */\n    tag_687:\n        /* \"#utility.yul\":22863:22867   */\n      0x20\n        /* \"#utility.yul\":22855:22861   */\n      dup4\n        /* \"#utility.yul\":22851:22868   */\n      mul\n        /* \"#utility.yul\":22841:22868   */\n      swap3\n      pop\n        /* \"#utility.yul\":22878:22921   */\n      tag_689\n        /* \"#utility.yul\":22914:22920   */\n      dup4\n        /* \"#utility.yul\":22909:22912   */\n      dup6\n        /* \"#utility.yul\":22902:22907   */\n      dup5\n        /* \"#utility.yul\":22878:22921   */\n      tag_461\n      jump\t// in\n    tag_689:\n        /* \"#utility.yul\":22946:22952   */\n      dup3\n        /* \"#utility.yul\":22941:22944   */\n      dup5\n        /* \"#utility.yul\":22937:22953   */\n      add\n        /* \"#utility.yul\":22930:22953   */\n      swap1\n      pop\n        /* \"#utility.yul\":22422:22959   */\n      swap4\n      swap3\n      pop\n      pop\n      pop\n      jump\t// out\n        /* \"#utility.yul\":22965:23920   */\n    tag_234:\n        /* \"#utility.yul\":23294:23298   */\n      0x00\n        /* \"#utility.yul\":23332:23334   */\n      0x60\n        /* \"#utility.yul\":23321:23330   */\n      dup3\n        /* \"#utility.yul\":23317:23335   */\n      add\n        /* \"#utility.yul\":23309:23335   */\n      swap1\n      pop\n        /* \"#utility.yul\":23381:23390   */\n      dup2\n        /* \"#utility.yul\":23375:23379   */\n      dup2\n        /* \"#utility.yul\":23371:23391   */\n      sub\n        /* \"#utility.yul\":23367:23368   */\n      0x00\n        /* \"#utility.yul\":23356:23365   */\n      dup4\n        /* \"#utility.yul\":23352:23369   */\n      add\n        /* \"#utility.yul\":23345:23392   */\n      mstore\n        /* \"#utility.yul\":23409:23527   */\n      tag_691\n        /* \"#utility.yul\":23522:23526   */\n      dup2\n        /* \"#utility.yul\":23513:23519   */\n      dup9\n        /* \"#utility.yul\":23505:23511   */\n      dup11\n        /* \"#utility.yul\":23409:23527   */\n      tag_462\n      jump\t// in\n    tag_691:\n        /* \"#utility.yul\":23401:23527   */\n      swap1\n      pop\n        /* \"#utility.yul\":23574:23583   */\n      dup2\n        /* \"#utility.yul\":23568:23572   */\n      dup2\n        /* \"#utility.yul\":23564:23584   */\n      sub\n        /* \"#utility.yul\":23559:23561   */\n      0x20\n        /* \"#utility.yul\":23548:23557   */\n      dup4\n        /* \"#utility.yul\":23544:23562   */\n      add\n        /* \"#utility.yul\":23537:23585   */\n      mstore\n        /* \"#utility.yul\":23602:23720   */\n      tag_692\n        /* \"#utility.yul\":23715:23719   */\n      dup2\n        /* \"#utility.yul\":23706:23712   */\n      dup7\n        /* \"#utility.yul\":23698:23704   */\n      dup9\n        /* \"#utility.yul\":23602:23720   */\n      tag_462\n      jump\t// in\n    tag_692:\n        /* \"#utility.yul\":23594:23720   */\n      swap1\n      pop\n        /* \"#utility.yul\":23767:23776   */\n      dup2\n        /* \"#utility.yul\":23761:23765   */\n      dup2\n        /* \"#utility.yul\":23757:23777   */\n      sub\n        /* \"#utility.yul\":23752:23754   */\n      0x40\n        /* \"#utility.yul\":23741:23750   */\n      dup4\n        /* \"#utility.yul\":23737:23755   */\n      add\n        /* \"#utility.yul\":23730:23778   */\n      mstore\n        /* \"#utility.yul\":23795:23913   */\n      tag_693\n        /* \"#utility.yul\":23908:23912   */\n      dup2\n        /* \"#utility.yul\":23899:23905   */\n      dup5\n        /* \"#utility.yul\":23891:23897   */\n      dup7\n        /* \"#utility.yul\":23795:23913   */\n      tag_462\n      jump\t// in\n    tag_693:\n        /* \"#utility.yul\":23787:23913   */\n      swap1\n      pop\n        /* \"#utility.yul\":22965:23920   */\n      swap8\n      swap7\n      pop\n      pop\n      pop\n      pop\n      pop\n      pop\n      pop\n      jump\t// out\n        /* \"#utility.yul\":23926:24106   */\n    tag_463:\n        /* \"#utility.yul\":23974:24051   */\n      0x4e487b7100000000000000000000000000000000000000000000000000000000\n        /* \"#utility.yul\":23971:23972   */\n      0x00\n        /* \"#utility.yul\":23964:24052   */\n      mstore\n        /* \"#utility.yul\":24071:24075   */\n      0x11\n        /* \"#utility.yul\":24068:24069   */\n      0x04\n        /* \"#utility.yul\":24061:24076   */\n      mstore\n        /* \"#utility.yul\":24095:24099   */\n      0x24\n        /* \"#utility.yul\":24092:24093   */\n      0x00\n        /* \"#utility.yul\":24085:24100   */\n      revert\n        /* \"#utility.yul\":24112:24303   */\n    tag_240:\n        /* \"#utility.yul\":24152:24155   */\n      0x00\n        /* \"#utility.yul\":24171:24191   */\n      tag_696\n        /* \"#utility.yul\":24189:24190   */\n      dup3\n        /* \"#utility.yul\":24171:24191   */\n      tag_422\n      jump\t// in\n    tag_696:\n        /* \"#utility.yul\":24166:24191   */\n      swap2\n      pop\n        /* \"#utility.yul\":24205:24225   */\n      tag_697\n        /* \"#utility.yul\":24223:24224   */\n      dup4\n        /* \"#utility.yul\":24205:24225   */\n      tag_422\n      jump\t// in\n    tag_697:\n        /* \"#utility.yul\":24200:24225   */\n      swap3\n      pop\n        /* \"#utility.yul\":24248:24249   */\n      dup3\n        /* \"#utility.yul\":24245:24246   */\n      dup3\n        /* \"#utility.yul\":24241:24250   */\n      add\n        /* \"#utility.yul\":24234:24250   */\n      swap1\n      pop\n        /* \"#utility.yul\":24269:24272   */\n      dup1\n        /* \"#utility.yul\":24266:24267   */\n      dup3\n        /* \"#utility.yul\":24263:24273   */\n      gt\n        /* \"#utility.yul\":24260:24296   */\n      iszero\n      tag_698\n      jumpi\n        /* \"#utility.yul\":24276:24294   */\n      tag_699\n      tag_463\n      jump\t// in\n    tag_699:\n        /* \"#utility.yul\":24260:24296   */\n    tag_698:\n        /* \"#utility.yul\":24112:24303   */\n      swap3\n      swap2\n      pop\n      pop\n      jump\t// out\n        /* \"#utility.yul\":24309:24641   */\n    tag_242:\n        /* \"#utility.yul\":24430:24434   */\n      0x00\n        /* \"#utility.yul\":24468:24470   */\n      0x40\n        /* \"#utility.yul\":24457:24466   */\n      dup3\n        /* \"#utility.yul\":24453:24471   */\n      add\n        /* \"#utility.yul\":24445:24471   */\n      swap1\n      pop\n        /* \"#utility.yul\":24481:24552   */\n      tag_701\n        /* \"#utility.yul\":24549:24550   */\n      0x00\n        /* \"#utility.yul\":24538:24547   */\n      dup4\n        /* \"#utility.yul\":24534:24551   */\n      add\n        /* \"#utility.yul\":24525:24531   */\n      dup6\n        /* \"#utility.yul\":24481:24552   */\n      tag_428\n      jump\t// in\n    tag_701:\n        /* \"#utility.yul\":24562:24634   */\n      tag_702\n        /* \"#utility.yul\":24630:24632   */\n      0x20\n        /* \"#utility.yul\":24619:24628   */\n      dup4\n        /* \"#utility.yul\":24615:24633   */\n      add\n        /* \"#utility.yul\":24606:24612   */\n      dup5\n        /* \"#utility.yul\":24562:24634   */\n      tag_425\n      jump\t// in\n    tag_702:\n        /* \"#utility.yul\":24309:24641   */\n      swap4\n      swap3\n      pop\n      pop\n      pop\n      jump\t// out\n        /* \"#utility.yul\":24647:24827   */\n    tag_464:\n        /* \"#utility.yul\":24695:24772   */\n      0x4e487b7100000000000000000000000000000000000000000000000000000000\n        /* \"#utility.yul\":24692:24693   */\n      0x00\n        /* \"#utility.yul\":24685:24773   */\n      mstore\n        /* \"#utility.yul\":24792:24796   */\n      0x22\n        /* \"#utility.yul\":24789:24790   */\n      0x04\n        /* \"#utility.yul\":24782:24797   */\n      mstore\n        /* \"#utility.yul\":24816:24820   */\n      0x24\n        /* \"#utility.yul\":24813:24814   */\n      0x00\n        /* \"#utility.yul\":24806:24821   */\n      revert\n        /* \"#utility.yul\":24833:25153   */\n    tag_287:\n        /* \"#utility.yul\":24877:24883   */\n      0x00\n        /* \"#utility.yul\":24914:24915   */\n      0x02\n        /* \"#utility.yul\":24908:24912   */\n      dup3\n        /* \"#utility.yul\":24904:24916   */\n      div\n        /* \"#utility.yul\":24894:24916   */\n      swap1\n      pop\n        /* \"#utility.yul\":24961:24962   */\n      0x01\n        /* \"#utility.yul\":24955:24959   */\n      dup3\n        /* \"#utility.yul\":24951:24963   */\n      and\n        /* \"#utility.yul\":24982:25000   */\n      dup1\n        /* \"#utility.yul\":24972:25053   */\n      tag_705\n      jumpi\n        /* \"#utility.yul\":25038:25042   */\n      0x7f\n        /* \"#utility.yul\":25030:25036   */\n      dup3\n        /* \"#utility.yul\":25026:25043   */\n      and\n        /* \"#utility.yul\":25016:25043   */\n      swap2\n      pop\n        /* \"#utility.yul\":24972:25053   */\n    tag_705:\n        /* \"#utility.yul\":25100:25102   */\n      0x20\n        /* \"#utility.yul\":25092:25098   */\n      dup3\n        /* \"#utility.yul\":25089:25103   */\n      lt\n        /* \"#utility.yul\":25069:25087   */\n      dup2\n        /* \"#utility.yul\":25066:25104   */\n      sub\n        /* \"#utility.yul\":25063:25147   */\n      tag_706\n      jumpi\n        /* \"#utility.yul\":25119:25137   */\n      tag_707\n      tag_464\n      jump\t// in\n    tag_707:\n        /* \"#utility.yul\":25063:25147   */\n    tag_706:\n        /* \"#utility.yul\":24884:25153   */\n      pop\n        /* \"#utility.yul\":24833:25153   */\n      swap2\n      swap1\n      pop\n      jump\t// out\n        /* \"#utility.yul\":25159:25300   */\n    tag_465:\n        /* \"#utility.yul\":25208:25212   */\n      0x00\n        /* \"#utility.yul\":25231:25234   */\n      dup2\n        /* \"#utility.yul\":25223:25234   */\n      swap1\n      pop\n        /* \"#utility.yul\":25254:25257   */\n      dup2\n        /* \"#utility.yul\":25251:25252   */\n      0x00\n        /* \"#utility.yul\":25244:25258   */\n      mstore\n        /* \"#utility.yul\":25288:25292   */\n      0x20\n        /* \"#utility.yul\":25285:25286   */\n      0x00\n        /* \"#utility.yul\":25275:25293   */\n      keccak256\n        /* \"#utility.yul\":25267:25293   */\n      swap1\n      pop\n        /* \"#utility.yul\":25159:25300   */\n      swap2\n      swap1\n      pop\n      jump\t// out\n        /* \"#utility.yul\":25306:25399   */\n    tag_466:\n        /* \"#utility.yul\":25343:25349   */\n      0x00\n        /* \"#utility.yul\":25390:25392   */\n      0x20\n        /* \"#utility.yul\":25385:25387   */\n      0x1f\n        /* \"#utility.yul\":25378:25383   */\n      dup4\n        /* \"#utility.yul\":25374:25388   */\n      add\n        /* \"#utility.yul\":25370:25393   */\n      div\n        /* \"#utility.yul\":25360:25393   */\n      swap1\n      pop\n        /* \"#utility.yul\":25306:25399   */\n      swap2\n      swap1\n      pop\n      jump\t// out\n        /* \"#utility.yul\":25405:25512   */\n    tag_467:\n        /* \"#utility.yul\":25449:25457   */\n      0x00\n        /* \"#utility.yul\":25499:25504   */\n      dup3\n        /* \"#utility.yul\":25493:25497   */\n      dup3\n        /* \"#utility.yul\":25489:25505   */\n      shl\n        /* \"#utility.yul\":25468:25505   */\n      swap1\n      pop\n        /* \"#utility.yul\":25405:25512   */\n      swap3\n      swap2\n      pop\n      pop\n      jump\t// out\n        /* \"#utility.yul\":25518:25911   */\n    tag_468:\n        /* \"#utility.yul\":25587:25593   */\n      0x00\n        /* \"#utility.yul\":25637:25638   */\n      0x08\n        /* \"#utility.yul\":25625:25635   */\n      dup4\n        /* \"#utility.yul\":25621:25639   */\n      mul\n        /* \"#utility.yul\":25660:25757   */\n      tag_712\n        /* \"#utility.yul\":25690:25756   */\n      0xffffffffffffffffffffffffffffffffffffffffffffffffffffffffffffffff\n        /* \"#utility.yul\":25679:25688   */\n      dup3\n        /* \"#utility.yul\":25660:25757   */\n      tag_467\n      jump\t// in\n    tag_712:\n        /* \"#utility.yul\":25778:25817   */\n      tag_713\n        /* \"#utility.yul\":25808:25816   */\n      dup7\n        /* \"#utility.yul\":25797:25806   */\n      dup4\n        /* \"#utility.yul\":25778:25817   */\n      tag_467\n      jump\t// in\n    tag_713:\n        /* \"#utility.yul\":25766:25817   */\n      swap6\n      pop\n        /* \"#utility.yul\":25850:25854   */\n      dup1\n        /* \"#utility.yul\":25846:25855   */\n      not\n        /* \"#utility.yul\":25839:25844   */\n      dup5\n        /* \"#utility.yul\":25835:25856   */\n      and\n        /* \"#utility.yul\":25826:25856   */\n      swap4\n      pop\n        /* \"#utility.yul\":25899:25903   */\n      dup1\n        /* \"#utility.yul\":25889:25897   */\n      dup7\n        /* \"#utility.yul\":25885:25904   */\n      and\n        /* \"#utility.yul\":25878:25883   */\n      dup5\n        /* \"#utility.yul\":25875:25905   */\n      or\n        /* \"#utility.yul\":25865:25905   */\n      swap3\n      pop\n        /* \"#utility.yul\":25594:25911   */\n      pop\n      pop\n        /* \"#utility.yul\":25518:25911   */\n      swap4\n      swap3\n      pop\n      pop\n      pop\n      jump\t// out\n        /* \"#utility.yul\":25917:25977   */\n    tag_469:\n        /* \"#utility.yul\":25945:25948   */\n      0x00\n        /* \"#utility.yul\":25966:25971   */\n      dup2\n        /* \"#utility.yul\":25959:25971   */\n      swap1\n      pop\n        /* \"#utility.yul\":25917:25977   */\n      swap2\n      swap1\n      pop\n      jump\t// out\n        /* \"#utility.yul\":25983:26125   */\n    tag_470:\n        /* \"#utility.yul\":26033:26042   */\n      0x00\n        /* \"#utility.yul\":26066:26119   */\n      tag_716\n        /* \"#utility.yul\":26084:26118   */\n      tag_717\n        /* \"#utility.yul\":26093:26117   */\n      tag_718\n        /* \"#utility.yul\":26111:26116   */\n      dup5\n        /* \"#utility.yul\":26093:26117   */\n      tag_422\n      jump\t// in\n    tag_718:\n        /* \"#utility.yul\":26084:26118   */\n      tag_469\n      jump\t// in\n    tag_717:\n        /* \"#utility.yul\":26066:26119   */\n      tag_422\n      jump\t// in\n    tag_716:\n        /* \"#utility.yul\":26053:26119   */\n      swap1\n      pop\n        /* \"#utility.yul\":25983:26125   */\n      swap2\n      swap1\n      pop\n      jump\t// out\n        /* \"#utility.yul\":26131:26206   */\n    tag_471:\n        /* \"#utility.yul\":26174:26177   */\n      0x00\n        /* \"#utility.yul\":26195:26200   */\n      dup2\n        /* \"#utility.yul\":26188:26200   */\n      swap1\n      pop\n        /* \"#utility.yul\":26131:26206   */\n      swap2\n      swap1\n      pop\n      jump\t// out\n        /* \"#utility.yul\":26212:26481   */\n    tag_472:\n        /* \"#utility.yul\":26322:26361   */\n      tag_721\n        /* \"#utility.yul\":26353:26360   */\n      dup4\n        /* \"#utility.yul\":26322:26361   */\n      tag_470\n      jump\t// in\n    tag_721:\n        /* \"#utility.yul\":26383:26474   */\n      tag_722\n        /* \"#utility.yul\":26432:26473   */\n      tag_723\n        /* \"#utility.yul\":26456:26472   */\n      dup3\n        /* \"#utility.yul\":26432:26473   */\n      tag_471\n      jump\t// in\n    tag_723:\n        /* \"#utility.yul\":26424:26430   */\n      dup5\n        /* \"#utility.yul\":26417:26421   */\n      dup5\n        /* \"#utility.yul\":26411:26422   */\n      sload\n        /* \"#utility.yul\":26383:26474   */\n      tag_468\n      jump\t// in\n    tag_722:\n        /* \"#utility.yul\":26377:26381   */\n      dup3\n        /* \"#utility.yul\":26370:26475   */\n      sstore\n        /* \"#utility.yul\":26288:26481   */\n      pop\n        /* \"#utility.yul\":26212:26481   */\n      pop\n      pop\n      pop\n      jump\t// out\n        /* \"#utility.yul\":26487:26560   */\n    tag_473:\n        /* \"#utility.yul\":26532:26535   */\n      0x00\n        /* \"#utility.yul\":26487:26560   */\n      swap1\n      jump\t// out\n        /* \"#utility.yul\":26566:26755   */\n    tag_474:\n        /* \"#utility.yul\":26643:26675   */\n      tag_726\n      tag_473\n      jump\t// in\n    tag_726:\n        /* \"#utility.yul\":26684:26749   */\n      tag_727\n        /* \"#utility.yul\":26742:26748   */\n      dup2\n        /* \"#utility.yul\":26734:26740   */\n      dup5\n        /* \"#utility.yul\":26728:26732   */\n      dup5\n        /* \"#utility.yul\":26684:26749   */\n      tag_472\n      jump\t// in\n    tag_727:\n        /* \"#utility.yul\":26619:26755   */\n      pop\n        /* \"#utility.yul\":26566:26755   */\n      pop\n      pop\n      jump\t// out\n        /* \"#utility.yul\":26761:26947   */\n    tag_475:\n        /* \"#utility.yul\":26821:26941   */\n    tag_729:\n        /* \"#utility.yul\":26838:26841   */\n      dup2\n        /* \"#utility.yul\":26831:26836   */\n      dup2\n        /* \"#utility.yul\":26828:26842   */\n      lt\n        /* \"#utility.yul\":26821:26941   */\n      iszero\n      tag_731\n      jumpi\n        /* \"#utility.yul\":26892:26931   */\n      tag_732\n        /* \"#utility.yul\":26929:26930   */\n      0x00\n        /* \"#utility.yul\":26922:26927   */\n      dup3\n        /* \"#utility.yul\":26892:26931   */\n      tag_474\n      jump\t// in\n    tag_732:\n        /* \"#utility.yul\":26865:26866   */\n      0x01\n        /* \"#utility.yul\":26858:26863   */\n      dup2\n        /* \"#utility.yul\":26854:26867   */\n      add\n        /* \"#utility.yul\":26845:26867   */\n      swap1\n      pop\n        /* \"#utility.yul\":26821:26941   */\n      jump(tag_729)\n    tag_731:\n        /* \"#utility.yul\":26761:26947   */\n      pop\n      pop\n      jump\t// out\n        /* \"#utility.yul\":26953:27496   */\n    tag_476:\n        /* \"#utility.yul\":27054:27056   */\n      0x1f\n        /* \"#utility.yul\":27049:27052   */\n      dup3\n        /* \"#utility.yul\":27046:27057   */\n      gt\n        /* \"#utility.yul\":27043:27489   */\n      iszero\n      tag_734\n      jumpi\n        /* \"#utility.yul\":27088:27126   */\n      tag_735\n        /* \"#utility.yul\":27120:27125   */\n      dup2\n        /* \"#utility.yul\":27088:27126   */\n      tag_465\n      jump\t// in\n    tag_735:\n        /* \"#utility.yul\":27172:27201   */\n      tag_736\n        /* \"#utility.yul\":27190:27200   */\n      dup5\n        /* \"#utility.yul\":27172:27201   */\n      tag_466\n      jump\t// in\n    tag_736:\n        /* \"#utility.yul\":27162:27170   */\n      dup2\n        /* \"#utility.yul\":27158:27202   */\n      add\n        /* \"#utility.yul\":27355:27357   */\n      0x20\n        /* \"#utility.yul\":27343:27353   */\n      dup6\n        /* \"#utility.yul\":27340:27358   */\n      lt\n        /* \"#utility.yul\":27337:27386   */\n      iszero\n      tag_737\n      jumpi\n        /* \"#utility.yul\":27376:27384   */\n      dup2\n        /* \"#utility.yul\":27361:27384   */\n      swap1\n      pop\n        /* \"#utility.yul\":27337:27386   */\n    tag_737:\n        /* \"#utility.yul\":27399:27479   */\n      tag_738\n        /* \"#utility.yul\":27455:27477   */\n      tag_739\n        /* \"#utility.yul\":27473:27476   */\n      dup6\n        /* \"#utility.yul\":27455:27477   */\n      tag_466\n      jump\t// in\n    tag_739:\n        /* \"#utility.yul\":27445:27453   */\n      dup4\n        /* \"#utility.yul\":27441:27478   */\n      add\n        /* \"#utility.yul\":27428:27439   */\n      dup3\n        /* \"#utility.yul\":27399:27479   */\n      tag_475\n      jump\t// in\n    tag_738:\n        /* \"#utility.yul\":27058:27489   */\n      pop\n      pop\n        /* \"#utility.yul\":27043:27489   */\n    tag_734:\n        /* \"#utility.yul\":26953:27496   */\n      pop\n      pop\n      pop\n      jump\t// out\n        /* \"#utility.yul\":27502:27619   */\n    tag_477:\n        /* \"#utility.yul\":27556:27564   */\n      0x00\n        /* \"#utility.yul\":27606:27611   */\n      dup3\n        /* \"#utility.yul\":27600:27604   */\n      dup3\n        /* \"#utility.yul\":27596:27612   */\n      shr\n        /* \"#utility.yul\":27575:27612   */\n      swap1\n      pop\n        /* \"#utility.yul\":27502:27619   */\n      swap3\n      swap2\n      pop\n      pop\n      jump\t// out\n        /* \"#utility.yul\":27625:27794   */\n    tag_478:\n        /* \"#utility.yul\":27669:27675   */\n      0x00\n        /* \"#utility.yul\":27702:27753   */\n      tag_742\n        /* \"#utility.yul\":27750:27751   */\n      0x00\n        /* \"#utility.yul\":27746:27752   */\n      not\n        /* \"#utility.yul\":27738:27743   */\n      dup5\n        /* \"#utility.yul\":27735:27736   */\n      0x08\n        /* \"#utility.yul\":27731:27744   */\n      mul\n        /* \"#utility.yul\":27702:27753   */\n      tag_477\n      jump\t// in\n    tag_742:\n        /* \"#utility.yul\":27698:27754   */\n      not\n        /* \"#utility.yul\":27783:27787   */\n      dup1\n        /* \"#utility.yul\":27777:27781   */\n      dup4\n        /* \"#utility.yul\":27773:27788   */\n      and\n        /* \"#utility.yul\":27763:27788   */\n      swap2\n      pop\n        /* \"#utility.yul\":27676:27794   */\n      pop\n        /* \"#utility.yul\":27625:27794   */\n      swap3\n      swap2\n      pop\n      pop\n      jump\t// out\n        /* \"#utility.yul\":27799:28094   */\n    tag_479:\n        /* \"#utility.yul\":27875:27879   */\n      0x00\n        /* \"#utility.yul\":28021:28050   */\n      tag_744\n        /* \"#utility.yul\":28046:28049   */\n      dup4\n        /* \"#utility.yul\":28040:28044   */\n      dup4\n        /* \"#utility.yul\":28021:28050   */\n      tag_478\n      jump\t// in\n    tag_744:\n        /* \"#utility.yul\":28013:28050   */\n      swap2\n      pop\n        /* \"#utility.yul\":28083:28086   */\n      dup3\n        /* \"#utility.yul\":28080:28081   */\n      0x02\n        /* \"#utility.yul\":28076:28087   */\n      mul\n        /* \"#utility.yul\":28070:28074   */\n      dup3\n        /* \"#utility.yul\":28067:28088   */\n      or\n        /* \"#utility.yul\":28059:28088   */\n      swap1\n      pop\n        /* \"#utility.yul\":27799:28094   */\n      swap3\n      swap2\n      pop\n      pop\n      jump\t// out\n        /* \"#utility.yul\":28099:29494   */\n    tag_248:\n        /* \"#utility.yul\":28216:28253   */\n      tag_746\n        /* \"#utility.yul\":28249:28252   */\n      dup3\n        /* \"#utility.yul\":28216:28253   */\n      tag_445\n      jump\t// in\n    tag_746:\n        /* \"#utility.yul\":28318:28336   */\n      0xffffffffffffffff\n        /* \"#utility.yul\":28310:28316   */\n      dup2\n        /* \"#utility.yul\":28307:28337   */\n      gt\n        /* \"#utility.yul\":28304:28360   */\n      iszero\n      tag_747\n      jumpi\n        /* \"#utility.yul\":28340:28358   */\n      tag_748\n      tag_438\n      jump\t// in\n    tag_748:\n        /* \"#utility.yul\":28304:28360   */\n    tag_747:\n        /* \"#utility.yul\":28384:28422   */\n      tag_749\n        /* \"#utility.yul\":28416:28420   */\n      dup3\n        /* \"#utility.yul\":28410:28421   */\n      sload\n        /* \"#utility.yul\":28384:28422   */\n      tag_287\n      jump\t// in\n    tag_749:\n        /* \"#utility.yul\":28469:28536   */\n      tag_750\n        /* \"#utility.yul\":28529:28535   */\n      dup3\n        /* \"#utility.yul\":28521:28527   */\n      dup3\n        /* \"#utility.yul\":28515:28519   */\n      dup6\n        /* \"#utility.yul\":28469:28536   */\n      tag_476\n      jump\t// in\n    tag_750:\n        /* \"#utility.yul\":28563:28564   */\n      0x00\n        /* \"#utility.yul\":28587:28591   */\n      0x20\n        /* \"#utility.yul\":28574:28591   */\n      swap1\n      pop\n        /* \"#utility.yul\":28619:28621   */\n      0x1f\n        /* \"#utility.yul\":28611:28617   */\n      dup4\n        /* \"#utility.yul\":28608:28622   */\n      gt\n        /* \"#utility.yul\":28636:28637   */\n      0x01\n        /* \"#utility.yul\":28631:29249   */\n      dup2\n      eq\n      tag_752\n      jumpi\n        /* \"#utility.yul\":29293:29294   */\n      0x00\n        /* \"#utility.yul\":29310:29316   */\n      dup5\n        /* \"#utility.yul\":29307:29384   */\n      iszero\n      tag_753\n      jumpi\n        /* \"#utility.yul\":29359:29368   */\n      dup3\n        /* \"#utility.yul\":29354:29357   */\n      dup8\n        /* \"#utility.yul\":29350:29369   */\n      add\n        /* \"#utility.yul\":29344:29370   */\n      mload\n        /* \"#utility.yul\":29335:29370   */\n      swap1\n      pop\n        /* \"#utility.yul\":29307:29384   */\n    tag_753:\n        /* \"#utility.yul\":29410:29477   */\n      tag_754\n        /* \"#utility.yul\":29470:29476   */\n      dup6\n        /* \"#utility.yul\":29463:29468   */\n      dup3\n        /* \"#utility.yul\":29410:29477   */\n      tag_479\n      jump\t// in\n    tag_754:\n        /* \"#utility.yul\":29404:29408   */\n      dup7\n        /* \"#utility.yul\":29397:29478   */\n      sstore\n        /* \"#utility.yul\":29266:29488   */\n      pop\n        /* \"#utility.yul\":28601:29488   */\n      jump(tag_751)\n        /* \"#utility.yul\":28631:29249   */\n    tag_752:\n        /* \"#utility.yul\":28683:28687   */\n      0x1f\n        /* \"#utility.yul\":28679:28688   */\n      not\n        /* \"#utility.yul\":28671:28677   */\n      dup5\n        /* \"#utility.yul\":28667:28689   */\n      and\n        /* \"#utility.yul\":28717:28754   */\n      tag_755\n        /* \"#utility.yul\":28749:28753   */\n      dup7\n        /* \"#utility.yul\":28717:28754   */\n      tag_465\n      jump\t// in\n    tag_755:\n        /* \"#utility.yul\":28776:28777   */\n      0x00\n        /* \"#utility.yul\":28790:28998   */\n    tag_756:\n        /* \"#utility.yul\":28804:28811   */\n      dup3\n        /* \"#utility.yul\":28801:28802   */\n      dup2\n        /* \"#utility.yul\":28798:28812   */\n      lt\n        /* \"#utility.yul\":28790:28998   */\n      iszero\n      tag_758\n      jumpi\n        /* \"#utility.yul\":28883:28892   */\n      dup5\n        /* \"#utility.yul\":28878:28881   */\n      dup10\n        /* \"#utility.yul\":28874:28893   */\n      add\n        /* \"#utility.yul\":28868:28894   */\n      mload\n        /* \"#utility.yul\":28860:28866   */\n      dup3\n        /* \"#utility.yul\":28853:28895   */\n      sstore\n        /* \"#utility.yul\":28934:28935   */\n      0x01\n        /* \"#utility.yul\":28926:28932   */\n      dup3\n        /* \"#utility.yul\":28922:28936   */\n      add\n        /* \"#utility.yul\":28912:28936   */\n      swap2\n      pop\n        /* \"#utility.yul\":28981:28983   */\n      0x20\n        /* \"#utility.yul\":28970:28979   */\n      dup6\n        /* \"#utility.yul\":28966:28984   */\n      add\n        /* \"#utility.yul\":28953:28984   */\n      swap5\n      pop\n        /* \"#utility.yul\":28827:28831   */\n      0x20\n        /* \"#utility.yul\":28824:28825   */\n      dup2\n        /* \"#utility.yul\":28820:28832   */\n      add\n        /* \"#utility.yul\":28815:28832   */\n      swap1\n      pop\n        /* \"#utility.yul\":28790:28998   */\n      jump(tag_756)\n    tag_758:\n        /* \"#utility.yul\":29026:29032   */\n      dup7\n        /* \"#utility.yul\":29017:29024   */\n      dup4\n        /* \"#utility.yul\":29014:29033   */\n      lt\n        /* \"#utility.yul\":29011:29190   */\n      iszero\n      tag_759\n      jumpi\n        /* \"#utility.yul\":29084:29093   */\n      dup5\n        /* \"#utility.yul\":29079:29082   */\n      dup10\n        /* \"#utility.yul\":29075:29094   */\n      add\n        /* \"#utility.yul\":29069:29095   */\n      mload\n        /* \"#utility.yul\":29127:29175   */\n      tag_760\n        /* \"#utility.yul\":29169:29173   */\n      0x1f\n        /* \"#utility.yul\":29161:29167   */\n      dup10\n        /* \"#utility.yul\":29157:29174   */\n      and\n        /* \"#utility.yul\":29146:29155   */\n      dup3\n        /* \"#utility.yul\":29127:29175   */\n      tag_478\n      jump\t// in\n    tag_760:\n        /* \"#utility.yul\":29119:29125   */\n      dup4\n        /* \"#utility.yul\":29112:29176   */\n      sstore\n        /* \"#utility.yul\":29034:29190   */\n      pop\n        /* \"#utility.yul\":29011:29190   */\n    tag_759:\n        /* \"#utility.yul\":29236:29237   */\n      0x01\n        /* \"#utility.yul\":29232:29233   */\n      0x02\n        /* \"#utility.yul\":29224:29230   */\n      dup9\n        /* \"#utility.yul\":29220:29234   */\n      mul\n        /* \"#utility.yul\":29216:29238   */\n      add\n        /* \"#utility.yul\":29210:29214   */\n      dup9\n        /* \"#utility.yul\":29203:29239   */\n      sstore\n        /* \"#utility.yul\":28638:29249   */\n      pop\n      pop\n      pop\n        /* \"#utility.yul\":28601:29488   */\n    tag_751:\n      pop\n        /* \"#utility.yul\":28191:29494   */\n      pop\n      pop\n      pop\n        /* \"#utility.yul\":28099:29494   */\n      pop\n      pop\n      jump\t// out\n        /* \"#utility.yul\":29500:29733   */\n    tag_250:\n        /* \"#utility.yul\":29539:29542   */\n      0x00\n        /* \"#utility.yul\":29562:29586   */\n      tag_762\n        /* \"#utility.yul\":29580:29585   */\n      dup3\n        /* \"#utility.yul\":29562:29586   */\n      tag_422\n      jump\t// in\n    tag_762:\n        /* \"#utility.yul\":29553:29586   */\n      swap2\n      pop\n        /* \"#utility.yul\":29608:29674   */\n      0xffffffffffffffffffffffffffffffffffffffffffffffffffffffffffffffff\n        /* \"#utility.yul\":29601:29606   */\n      dup3\n        /* \"#utility.yul\":29598:29675   */\n      sub\n        /* \"#utility.yul\":29595:29698   */\n      tag_763\n      jumpi\n        /* \"#utility.yul\":29678:29696   */\n      tag_764\n      tag_463\n      jump\t// in\n    tag_764:\n        /* \"#utility.yul\":29595:29698   */\n    tag_763:\n        /* \"#utility.yul\":29725:29726   */\n      0x01\n        /* \"#utility.yul\":29718:29723   */\n      dup3\n        /* \"#utility.yul\":29714:29727   */\n      add\n        /* \"#utility.yul\":29707:29727   */\n      swap1\n      pop\n        /* \"#utility.yul\":29500:29733   */\n      swap2\n      swap1\n      pop\n      jump\t// out\n        /* \"#utility.yul\":29739:30181   */\n    tag_283:\n        /* \"#utility.yul\":29888:29892   */\n      0x00\n        /* \"#utility.yul\":29926:29928   */\n      0x60\n        /* \"#utility.yul\":29915:29924   */\n      dup3\n        /* \"#utility.yul\":29911:29929   */\n      add\n        /* \"#utility.yul\":29903:29929   */\n      swap1\n      pop\n        /* \"#utility.yul\":29939:30010   */\n      tag_766\n        /* \"#utility.yul\":30007:30008   */\n      0x00\n        /* \"#utility.yul\":29996:30005   */\n      dup4\n        /* \"#utility.yul\":29992:30009   */\n      add\n        /* \"#utility.yul\":29983:29989   */\n      dup7\n        /* \"#utility.yul\":29939:30010   */\n      tag_428\n      jump\t// in\n    tag_766:\n        /* \"#utility.yul\":30020:30092   */\n      tag_767\n        /* \"#utility.yul\":30088:30090   */\n      0x20\n        /* \"#utility.yul\":30077:30086   */\n      dup4\n        /* \"#utility.yul\":30073:30091   */\n      add\n        /* \"#utility.yul\":30064:30070   */\n      dup6\n        /* \"#utility.yul\":30020:30092   */\n      tag_425\n      jump\t// in\n    tag_767:\n        /* \"#utility.yul\":30102:30174   */\n      tag_768\n        /* \"#utility.yul\":30170:30172   */\n      0x40\n        /* \"#utility.yul\":30159:30168   */\n      dup4\n        /* \"#utility.yul\":30155:30173   */\n      add\n        /* \"#utility.yul\":30146:30152   */\n      dup5\n        /* \"#utility.yul\":30102:30174   */\n      tag_425\n      jump\t// in\n    tag_768:\n        /* \"#utility.yul\":29739:30181   */\n      swap5\n      swap4\n      pop\n      pop\n      pop\n      pop\n      jump\t// out\n        /* \"#utility.yul\":30187:30610   */\n    tag_327:\n        /* \"#utility.yul\":30328:30332   */\n      0x00\n        /* \"#utility.yul\":30366:30368   */\n      0x40\n        /* \"#utility.yul\":30355:30364   */\n      dup3\n        /* \"#utility.yul\":30351:30369   */\n      add\n        /* \"#utility.yul\":30343:30369   */\n      swap1\n      pop\n        /* \"#utility.yul\":30379:30450   */\n      tag_770\n        /* \"#utility.yul\":30447:30448   */\n      0x00\n        /* \"#utility.yul\":30436:30445   */\n      dup4\n        /* \"#utility.yul\":30432:30449   */\n      add\n        /* \"#utility.yul\":30423:30429   */\n      dup6\n        /* \"#utility.yul\":30379:30450   */\n      tag_425\n      jump\t// in\n    tag_770:\n        /* \"#utility.yul\":30497:30506   */\n      dup2\n        /* \"#utility.yul\":30491:30495   */\n      dup2\n        /* \"#utility.yul\":30487:30507   */\n      sub\n        /* \"#utility.yul\":30482:30484   */\n      0x20\n        /* \"#utility.yul\":30471:30480   */\n      dup4\n        /* \"#utility.yul\":30467:30485   */\n      add\n        /* \"#utility.yul\":30460:30508   */\n      mstore\n        /* \"#utility.yul\":30525:30603   */\n      tag_771\n        /* \"#utility.yul\":30598:30602   */\n      dup2\n        /* \"#utility.yul\":30589:30595   */\n      dup5\n        /* \"#utility.yul\":30525:30603   */\n      tag_448\n      jump\t// in\n    tag_771:\n        /* \"#utility.yul\":30517:30603   */\n      swap1\n      pop\n        /* \"#utility.yul\":30187:30610   */\n      swap4\n      swap3\n      pop\n      pop\n      pop\n      jump\t// out\n        /* \"#utility.yul\":30616:31058   */\n    tag_372:\n        /* \"#utility.yul\":30765:30769   */\n      0x00\n        /* \"#utility.yul\":30803:30805   */\n      0x60\n        /* \"#utility.yul\":30792:30801   */\n      dup3\n        /* \"#utility.yul\":30788:30806   */\n      add\n        /* \"#utility.yul\":30780:30806   */\n      swap1\n      pop\n        /* \"#utility.yul\":30816:30887   */\n      tag_773\n        /* \"#utility.yul\":30884:30885   */\n      0x00\n        /* \"#utility.yul\":30873:30882   */\n      dup4\n        /* \"#utility.yul\":30869:30886   */\n      add\n        /* \"#utility.yul\":30860:30866   */\n      dup7\n        /* \"#utility.yul\":30816:30887   */\n      tag_425\n      jump\t// in\n    tag_773:\n        /* \"#utility.yul\":30897:30969   */\n      tag_774\n        /* \"#utility.yul\":30965:30967   */\n      0x20\n        /* \"#utility.yul\":30954:30963   */\n      dup4\n        /* \"#utility.yul\":30950:30968   */\n      add\n        /* \"#utility.yul\":30941:30947   */\n      dup6\n        /* \"#utility.yul\":30897:30969   */\n      tag_425\n      jump\t// in\n    tag_774:\n        /* \"#utility.yul\":30979:31051   */\n      tag_775\n        /* \"#utility.yul\":31047:31049   */\n      0x40\n        /* \"#utility.yul\":31036:31045   */\n      dup4\n        /* \"#utility.yul\":31032:31050   */\n      add\n        /* \"#utility.yul\":31023:31029   */\n      dup5\n        /* \"#utility.yul\":30979:31051   */\n      tag_425\n      jump\t// in\n    tag_775:\n        /* \"#utility.yul\":30616:31058   */\n      swap5\n      swap4\n      pop\n      pop\n      pop\n      pop\n      jump\t// out\n        /* \"#utility.yul\":31064:31244   */\n    tag_416:\n        /* \"#utility.yul\":31112:31189   */\n      0x4e487b7100000000000000000000000000000000000000000000000000000000\n        /* \"#utility.yul\":31109:31110   */\n      0x00\n        /* \"#utility.yul\":31102:31190   */\n      mstore\n        /* \"#utility.yul\":31209:31213   */\n      0x12\n        /* \"#utility.yul\":31206:31207   */\n      0x04\n        /* \"#utility.yul\":31199:31214   */\n      mstore\n        /* \"#utility.yul\":31233:31237   */\n      0x24\n        /* \"#utility.yul\":31230:31231   */\n      0x00\n        /* \"#utility.yul\":31223:31238   */\n      revert\n\n    auxdata: 0xa2646970667358221220f4ad8eef768bcbb9e67c880f6d7b8f62c4b06e953a932d3697b77db06c379f4f64736f6c63430008190033\n}\n",
				"bytecode": {
					"linkReferences": {},
					"object": "608060405234801561000f575f80fd5b50335f73ffffffffffffffffffffffffffffffffffffffff168173ffffffffffffffffffffffffffffffffffffffff1603610081575f6040517f1e4fbdf7000000000000000000000000000000000000000000000000000000008152600401610078919061019d565b60405180910390fd5b6100908161009d60201b60201c565b50600180819055506101b6565b5f805f9054906101000a900473ffffffffffffffffffffffffffffffffffffffff169050815f806101000a81548173ffffffffffffffffffffffffffffffffffffffff021916908373ffffffffffffffffffffffffffffffffffffffff1602179055508173ffffffffffffffffffffffffffffffffffffffff168173ffffffffffffffffffffffffffffffffffffffff167f8be0079c531659141344cd1fd0a4f28419497f9722a3daafe3b4186f6b6457e060405160405180910390a35050565b5f73ffffffffffffffffffffffffffffffffffffffff82169050919050565b5f6101878261015e565b9050919050565b6101978161017d565b82525050565b5f6020820190506101b05f83018461018e565b92915050565b613485806101c35f395ff3fe6080604052600436106101ed575f3560e01c8063715018a61161010c578063d18c2e5f1161009f578063eec49b4d1161006e578063eec49b4d1461076b578063efb66ee8146107a7578063f221ddb9146107e3578063f2fde38b14610823578063f568d4e41461084b576101ed565b8063d18c2e5f1461068f578063d5cb03ab146106cb578063d941db2d14610707578063e60d34d71461072f576101ed565b8063846786d1116100db578063846786d1146105c15780638da5cb5b1461060157806391e359c41461062b578063a684fa5d14610667576101ed565b8063715018a6146104f757806376be4d841461050d578063805fa8731461054957806381a43b4214610585576101ed565b806349efec4f116101845780636353586b116101535780636353586b1461042c57806365a202271461046857806369c355d8146104905780636a030ca9146104b8576101ed565b806349efec4f146103765780634c6da25d1461038c57806358324335146103b45780635b1b4e8e146103f0576101ed565b80633aa4a4ad116101c05780633aa4a4ad146102b95780633d09f98b146102f5578063475726f71461031157806349bd293e1461034e576101ed565b80630d8735d4146101f15780632210d31e1461022d578063248b761e1461025557806330d5023f14610291575b5f80fd5b3480156101fc575f80fd5b5061021760048036038101906102129190612526565b610887565b6040516102249190612560565b60405180910390f35b348015610238575f80fd5b50610253600480360381019061024e9190612579565b6108a4565b005b348015610260575f80fd5b5061027b60048036038101906102769190612526565b6109af565b60405161028891906125f6565b60405180910390f35b34801561029c575f80fd5b506102b760048036038101906102b29190612670565b6109df565b005b3480156102c4575f80fd5b506102df60048036038101906102da9190612526565b610b4b565b6040516102ec9190612560565b60405180910390f35b61030f600480360381019061030a9190612526565b610b68565b005b34801561031c575f80fd5b5061033760048036038101906103329190612526565b610c00565b604051610345929190612720565b60405180910390f35b348015610359575f80fd5b50610374600480360381019061036f919061279c565b610c3f565b005b348015610381575f80fd5b5061038a610da9565b005b348015610397575f80fd5b506103b260048036038101906103ad9190612579565b610ea1565b005b3480156103bf575f80fd5b506103da60048036038101906103d59190612823565b610fa3565b6040516103e79190612560565b60405180910390f35b3480156103fb575f80fd5b5061041660048036038101906104119190612526565b610fb8565b6040516104239190612560565b60405180910390f35b348015610437575f80fd5b50610452600480360381019061044d9190612823565b610fde565b60405161045f9190612560565b60405180910390f35b348015610473575f80fd5b5061048e6004803603810190610489919061284e565b610ff3565b005b34801561049b575f80fd5b506104b660048036038101906104b191906129f7565b611180565b005b3480156104c3575f80fd5b506104de60048036038101906104d99190612526565b61133f565b6040516104ee9493929190612ad7565b60405180910390f35b348015610502575f80fd5b5061050b611410565b005b348015610518575f80fd5b50610533600480360381019061052e9190612526565b611423565b6040516105409190612bfa565b60405180910390f35b348015610554575f80fd5b5061056f600480360381019061056a9190612526565b611559565b60405161057c9190612560565b60405180910390f35b348015610590575f80fd5b506105ab60048036038101906105a69190612526565b61157f565b6040516105b891906125f6565b60405180910390f35b3480156105cc575f80fd5b506105e760048036038101906105e29190612526565b6115c4565b6040516105f8959493929190612c1a565b60405180910390f35b34801561060c575f80fd5b5061061561169b565b60405161062291906125f6565b60405180910390f35b348015610636575f80fd5b50610651600480360381019061064c9190612526565b6116c2565b60405161065e9190612c9f565b60405180910390f35b348015610672575f80fd5b5061068d60048036038101906106889190612cb8565b611754565b005b34801561069a575f80fd5b506106b560048036038101906106b09190612526565b611868565b6040516106c29190612d2c565b60405180910390f35b3480156106d6575f80fd5b506106f160048036038101906106ec9190612526565b611885565b6040516106fe9190612560565b60405180910390f35b348015610712575f80fd5b5061072d60048036038101906107289190612526565b6118ab565b005b34801561073a575f80fd5b5061075560048036038101906107509190612526565b6118f0565b60405161076291906125f6565b60405180910390f35b348015610776575f80fd5b50610791600480360381019061078c9190612526565b611935565b60405161079e9190612db8565b60405180910390f35b3480156107b2575f80fd5b506107cd60048036038101906107c89190612526565b611a6b565b6040516107da9190612e38565b60405180910390f35b3480156107ee575f80fd5b5061080960048036038101906108049190612526565b611b97565b60405161081a959493929190612e58565b60405180910390f35b34801561082e575f80fd5b5061084960048036038101906108449190612823565b611c6e565b005b348015610856575f80fd5b50610871600480360381019061086c9190612526565b611cf2565b60405161087e9190612d2c565b60405180910390f35b5f60075f8381526020019081526020015f20600101549050919050565b815f60055f8381526020019081526020015f206001015f9054906101000a900473ffffffffffffffffffffffffffffffffffffffff1690508073ffffffffffffffffffffffffffffffffffffffff163373ffffffffffffffffffffffffffffffffffffffff161461094e5733816040517fa0aab18d000000000000000000000000000000000000000000000000000000008152600401610945929190612eb0565b60405180910390fd5b61095784611d5a565b8260055f8681526020019081526020015f20600301819055507fb1d13ba20f0d741940864392d8dae01facd2a12a23df9b44e625d5753792909d84846040516109a1929190612ed7565b60405180910390a150505050565b600b602052805f5260405f205f915054906101000a900473ffffffffffffffffffffffffffffffffffffffff1681565b610aaa8686808060200260200160405190810160405280939291908181526020018383602002808284375f81840152601f19601f820116905080830192505050505050508585808060200260200160405190810160405280939291908181526020018383602002808284375f81840152601f19601f820116905080830192505050505050508484808060200260200160405190810160405280939291908181526020018383602002808284375f81840152601f19601f82011690508083019250505050505050611e00565b5f5b86869050811015610b0157610af481888884818110610ace57610acd612efe565b5b90506020020135858585818110610ae857610ae7612efe565b5b90506020020135611eaf565b8080600101915050610aac565b507face2124136318f2465aec8cf92a4bd9c871279c0f147ddd9f3b94698604a88cf868686868686604051610b3b96959493929190612fa3565b60405180910390a1505050505050565b5f60075f8381526020019081526020015f20600201549050919050565b610b718161205d565b34600a5f3373ffffffffffffffffffffffffffffffffffffffff1673ffffffffffffffffffffffffffffffffffffffff1681526020019081526020015f205f828254610bbd9190613020565b925050819055507f7cc96c264329c23ffdfe857e8b3c3d794c8f42757c85d96f9883988c1fc4615a3334604051610bf5929190613053565b60405180910390a150565b6006602052805f5260405f205f91509050805f015490806001015f9054906101000a900473ffffffffffffffffffffffffffffffffffffffff16905082565b610c476120bf565b5f604051806080016040528060025481526020013373ffffffffffffffffffffffffffffffffffffffff16815260200185858080601f0160208091040260200160405190810160405280939291908181526020018383808284375f81840152601f19601f8201169050808301925050505050505081526020018381525090508060055f835f015181526020019081526020015f205f820151815f01556020820151816001015f6101000a81548173ffffffffffffffffffffffffffffffffffffffff021916908373ffffffffffffffffffffffffffffffffffffffff1602179055506040820151816002019081610d3e9190613274565b506060820151816003015590505060025f815480929190610d5e90613343565b91905055507f74934a3b6deb545c78da2a085e7ef6730b428766680d71e0e5ee66780943ea02815f01518260200151604051610d9b929190612720565b60405180910390a150505050565b610db16120bf565b5f604051806040016040528060035481526020013373ffffffffffffffffffffffffffffffffffffffff1681525090508060065f835f015181526020019081526020015f205f820151815f01556020820151816001015f6101000a81548173ffffffffffffffffffffffffffffffffffffffff021916908373ffffffffffffffffffffffffffffffffffffffff16021790555090505060035f815480929190610e5990613343565b91905055507f5cc43d3a666f30d017291029b1d1a582d8a49b66d0117a5fdbcf11888b6708fd815f01518260200151604051610e96929190612720565b60405180910390a150565b815f60085f8381526020019081526020015f206002015f9054906101000a900473ffffffffffffffffffffffffffffffffffffffff1690508073ffffffffffffffffffffffffffffffffffffffff163373ffffffffffffffffffffffffffffffffffffffff1614610f4b5733816040517fe631c94b000000000000000000000000000000000000000000000000000000008152600401610f42929190612eb0565b60405180910390fd5b8260085f8681526020019081526020015f20600401819055507f5249b06233e4dc37c8dad4558dec5457c53ef98a4142e7bc3832ad19dd1cd1be8484604051610f95929190612ed7565b60405180910390a150505050565b600a602052805f5260405f205f915090505481565b5f610fc282611d5a565b60055f8381526020019081526020015f20600301549050919050565b600c602052805f5260405f205f915090505481565b610ffb6120bf565b61100484611d5a565b61100d83612146565b5f6040518060a0016040528060045481526020018581526020018681526020013373ffffffffffffffffffffffffffffffffffffffff16815260200184848080601f0160208091040260200160405190810160405280939291908181526020018383808284375f81840152601f19601f8201169050808301925050505050505081525090508060075f835f015181526020019081526020015f205f820151815f015560208201518160010155604082015181600201556060820151816003015f6101000a81548173ffffffffffffffffffffffffffffffffffffffff021916908373ffffffffffffffffffffffffffffffffffffffff160217905550608082015181600401908161111e9190613274565b5090505060045f81548092919061113490613343565b91905055507ff5ad85f81925731c7a6f2ae2dd45266294be407161786cfae037498ee92c45f7815f01518260600151604051611171929190612720565b60405180910390a15050505050565b6111886121ec565b60095f8581526020019081526020015f205f9054906101000a900460ff16156111e857836040517f245ee8650000000000000000000000000000000000000000000000000000000081526004016111df9190612560565b60405180910390fd5b6111f183612232565b5f6040518060a001604052808681526020018581526020013373ffffffffffffffffffffffffffffffffffffffff1681526020018481526020018381525090508060085f835f015181526020019081526020015f205f820151815f0155602082015181600101556040820151816002015f6101000a81548173ffffffffffffffffffffffffffffffffffffffff021916908373ffffffffffffffffffffffffffffffffffffffff16021790555060608201518160030190816112b39190613274565b5060808201518160040155905050600160095f8781526020019081526020015f205f6101000a81548160ff0219169083151502179055507ffb7efcbf80fedd7db194364fc758c3a3979922abeeb6bcaa16208527eabcbd288160400151825f015183602001516040516113289392919061338a565b60405180910390a1506113396122d8565b50505050565b6005602052805f5260405f205f91509050805f015490806001015f9054906101000a900473ffffffffffffffffffffffffffffffffffffffff1690806002018054611389906130a7565b80601f01602080910402602001604051908101604052809291908181526020018280546113b5906130a7565b80156114005780601f106113d757610100808354040283529160200191611400565b820191905f5260205f20905b8154815290600101906020018083116113e357829003601f168201915b5050505050908060030154905084565b6114186120bf565b6114215f6122e1565b565b61142b6123f7565b6114348261205d565b60085f8381526020019081526020015f206040518060a00160405290815f820154815260200160018201548152602001600282015f9054906101000a900473ffffffffffffffffffffffffffffffffffffffff1673ffffffffffffffffffffffffffffffffffffffff1673ffffffffffffffffffffffffffffffffffffffff1681526020016003820180546114c8906130a7565b80601f01602080910402602001604051908101604052809291908181526020018280546114f4906130a7565b801561153f5780601f106115165761010080835404028352916020019161153f565b820191905f5260205f20905b81548152906001019060200180831161152257829003601f168201915b505050505081526020016004820154815250509050919050565b5f6115638261205d565b60085f8381526020019081526020015f20600401549050919050565b5f6115898261205d565b60085f8381526020019081526020015f206002015f9054906101000a900473ffffffffffffffffffffffffffffffffffffffff169050919050565b6007602052805f5260405f205f91509050805f015490806001015490806002015490806003015f9054906101000a900473ffffffffffffffffffffffffffffffffffffffff169080600401805461161a906130a7565b80601f0160208091040260200160405190810160405280929190818152602001828054611646906130a7565b80156116915780601f1061166857610100808354040283529160200191611691565b820191905f5260205f20905b81548152906001019060200180831161167457829003601f168201915b5050505050905085565b5f805f9054906101000a900473ffffffffffffffffffffffffffffffffffffffff16905090565b6116ca612438565b6116d382612146565b60065f8381526020019081526020015f206040518060400160405290815f8201548152602001600182015f9054906101000a900473ffffffffffffffffffffffffffffffffffffffff1673ffffffffffffffffffffffffffffffffffffffff1673ffffffffffffffffffffffffffffffffffffffff16815250509050919050565b815f60075f8381526020019081526020015f206003015f9054906101000a900473ffffffffffffffffffffffffffffffffffffffff1690508073ffffffffffffffffffffffffffffffffffffffff163373ffffffffffffffffffffffffffffffffffffffff16146117fe5733816040517f300a9d360000000000000000000000000000000000000000000000000000000081526004016117f5929190612eb0565b60405180910390fd5b61180784612232565b8260075f8681526020019081526020015f2060040190816118289190613274565b507facc80894202bfac14a7689e988209f2418a9109ef9ae8176c74d9be0442b509b848460405161185a9291906133bf565b60405180910390a150505050565b6009602052805f5260405f205f915054906101000a900460ff1681565b5f61188f8261205d565b60085f8381526020019081526020015f20600101549050919050565b6118b48161205d565b7f0f842e7c80a277f2dd0a984a3aa292db9541a9e3d5b14a0f8bbe7aae82640dc581336040516118e5929190612720565b60405180910390a150565b5f6118fa82612146565b60065f8381526020019081526020015f206001015f9054906101000a900473ffffffffffffffffffffffffffffffffffffffff169050919050565b61193d612466565b61194682612232565b60075f8381526020019081526020015f206040518060a00160405290815f82015481526020016001820154815260200160028201548152602001600382015f9054906101000a900473ffffffffffffffffffffffffffffffffffffffff1673ffffffffffffffffffffffffffffffffffffffff1673ffffffffffffffffffffffffffffffffffffffff1681526020016004820180546119e4906130a7565b80601f0160208091040260200160405190810160405280929190818152602001828054611a10906130a7565b8015611a5b5780601f10611a3257610100808354040283529160200191611a5b565b820191905f5260205f20905b815481529060010190602001808311611a3e57829003601f168201915b5050505050815250509050919050565b611a736124a7565b611a7c82611d5a565b60055f8381526020019081526020015f206040518060800160405290815f8201548152602001600182015f9054906101000a900473ffffffffffffffffffffffffffffffffffffffff1673ffffffffffffffffffffffffffffffffffffffff1673ffffffffffffffffffffffffffffffffffffffff168152602001600282018054611b06906130a7565b80601f0160208091040260200160405190810160405280929190818152602001828054611b32906130a7565b8015611b7d5780601f10611b5457610100808354040283529160200191611b7d565b820191905f5260205f20905b815481529060010190602001808311611b6057829003601f168201915b505050505081526020016003820154815250509050919050565b6008602052805f5260405f205f91509050805f015490806001015490806002015f9054906101000a900473ffffffffffffffffffffffffffffffffffffffff1690806003018054611be7906130a7565b80601f0160208091040260200160405190810160405280929190818152602001828054611c13906130a7565b8015611c5e5780601f10611c3557610100808354040283529160200191611c5e565b820191905f5260205f20905b815481529060010190602001808311611c4157829003601f168201915b5050505050908060040154905085565b611c766120bf565b5f73ffffffffffffffffffffffffffffffffffffffff168173ffffffffffffffffffffffffffffffffffffffff1603611ce6575f6040517f1e4fbdf7000000000000000000000000000000000000000000000000000000008152600401611cdd91906125f6565b60405180910390fd5b611cef816122e1565b50565b5f8073ffffffffffffffffffffffffffffffffffffffff16600b5f8481526020019081526020015f205f9054906101000a900473ffffffffffffffffffffffffffffffffffffffff1673ffffffffffffffffffffffffffffffffffffffff1614159050919050565b5f73ffffffffffffffffffffffffffffffffffffffff1660055f8381526020019081526020015f206001015f9054906101000a900473ffffffffffffffffffffffffffffffffffffffff1673ffffffffffffffffffffffffffffffffffffffff1603611dfd57806040517fccce6ac7000000000000000000000000000000000000000000000000000000008152600401611df49190612560565b60405180910390fd5b50565b5f6064905082518451148015611e17575081518451145b15611e60578351835183516040517f6ef54bab000000000000000000000000000000000000000000000000000000008152600401611e57939291906133ed565b60405180910390fd5b8084511115611ea9578351816040517f1cb8e63d000000000000000000000000000000000000000000000000000000008152600401611ea0929190612ed7565b60405180910390fd5b50505050565b5f611eb983611559565b90505f611ec58461157f565b90505f611ed185611885565b90505f611edd82610887565b90505f611ee983610b4b565b90505f611ef5836118f0565b90505f611f0183610fb8565b90505f80611f0f8a846123a2565b9150915081611f55578b6040517fdbf0d2ad000000000000000000000000000000000000000000000000000000008152600401611f4c9190612560565b60405180910390fd5b5f80611f618c8c6123a2565b9150915081611fa7578d6040517fdbf0d2ad000000000000000000000000000000000000000000000000000000008152600401611f9e9190612560565b60405180910390fd5b82600c5f8873ffffffffffffffffffffffffffffffffffffffff1673ffffffffffffffffffffffffffffffffffffffff1681526020019081526020015f205f828254611ff39190613020565b9250508190555080600c5f8c73ffffffffffffffffffffffffffffffffffffffff1673ffffffffffffffffffffffffffffffffffffffff1681526020019081526020015f205f8282546120469190613020565b925050819055505050505050505050505050505050565b60095f8281526020019081526020015f205f9054906101000a900460ff166120bc57806040517f5cdd66a00000000000000000000000000000000000000000000000000000000081526004016120b39190612560565b60405180910390fd5b50565b6120c76123f0565b73ffffffffffffffffffffffffffffffffffffffff166120e561169b565b73ffffffffffffffffffffffffffffffffffffffff1614612144576121086123f0565b6040517f118cdaa700000000000000000000000000000000000000000000000000000000815260040161213b91906125f6565b60405180910390fd5b565b5f73ffffffffffffffffffffffffffffffffffffffff1660065f8381526020019081526020015f206001015f9054906101000a900473ffffffffffffffffffffffffffffffffffffffff1673ffffffffffffffffffffffffffffffffffffffff16036121e957806040517ff9599fbc0000000000000000000000000000000000000000000000000000000081526004016121e09190612560565b60405180910390fd5b50565b600260015403612228576040517f3ee5aeb500000000000000000000000000000000000000000000000000000000815260040160405180910390fd5b6002600181905550565b5f73ffffffffffffffffffffffffffffffffffffffff1660075f8381526020019081526020015f206003015f9054906101000a900473ffffffffffffffffffffffffffffffffffffffff1673ffffffffffffffffffffffffffffffffffffffff16036122d557806040517f13b33ea40000000000000000000000000000000000000000000000000000000081526004016122cc9190612560565b60405180910390fd5b50565b60018081905550565b5f805f9054906101000a900473ffffffffffffffffffffffffffffffffffffffff169050815f806101000a81548173ffffffffffffffffffffffffffffffffffffffff021916908373ffffffffffffffffffffffffffffffffffffffff1602179055508173ffffffffffffffffffffffffffffffffffffffff168173ffffffffffffffffffffffffffffffffffffffff167f8be0079c531659141344cd1fd0a4f28419497f9722a3daafe3b4186f6b6457e060405160405180910390a35050565b5f805f84036123b75760015f915091506123e9565b5f8385029050838582816123ce576123cd613422565b5b04146123e0575f8092509250506123e9565b60018192509250505b9250929050565b5f33905090565b6040518060a001604052805f81526020015f81526020015f73ffffffffffffffffffffffffffffffffffffffff168152602001606081526020015f81525090565b60405180604001604052805f81526020015f73ffffffffffffffffffffffffffffffffffffffff1681525090565b6040518060a001604052805f81526020015f81526020015f81526020015f73ffffffffffffffffffffffffffffffffffffffff168152602001606081525090565b60405180608001604052805f81526020015f73ffffffffffffffffffffffffffffffffffffffff168152602001606081526020015f81525090565b5f604051905090565b5f80fd5b5f80fd5b5f819050919050565b612505816124f3565b811461250f575f80fd5b50565b5f81359050612520816124fc565b92915050565b5f6020828403121561253b5761253a6124eb565b5b5f61254884828501612512565b91505092915050565b61255a816124f3565b82525050565b5f6020820190506125735f830184612551565b92915050565b5f806040838503121561258f5761258e6124eb565b5b5f61259c85828601612512565b92505060206125ad85828601612512565b9150509250929050565b5f73ffffffffffffffffffffffffffffffffffffffff82169050919050565b5f6125e0826125b7565b9050919050565b6125f0816125d6565b82525050565b5f6020820190506126095f8301846125e7565b92915050565b5f80fd5b5f80fd5b5f80fd5b5f8083601f8401126126305761262f61260f565b5b8235905067ffffffffffffffff81111561264d5761264c612613565b5b60208301915083602082028301111561266957612668612617565b5b9250929050565b5f805f805f806060878903121561268a576126896124eb565b5b5f87013567ffffffffffffffff8111156126a7576126a66124ef565b5b6126b389828a0161261b565b9650965050602087013567ffffffffffffffff8111156126d6576126d56124ef565b5b6126e289828a0161261b565b9450945050604087013567ffffffffffffffff811115612705576127046124ef565b5b61271189828a0161261b565b92509250509295509295509295565b5f6040820190506127335f830185612551565b61274060208301846125e7565b9392505050565b5f8083601f84011261275c5761275b61260f565b5b8235905067ffffffffffffffff81111561277957612778612613565b5b60208301915083600182028301111561279557612794612617565b5b9250929050565b5f805f604084860312156127b3576127b26124eb565b5b5f84013567ffffffffffffffff8111156127d0576127cf6124ef565b5b6127dc86828701612747565b935093505060206127ef86828701612512565b9150509250925092565b612802816125d6565b811461280c575f80fd5b50565b5f8135905061281d816127f9565b92915050565b5f60208284031215612838576128376124eb565b5b5f6128458482850161280f565b91505092915050565b5f805f8060608587031215612866576128656124eb565b5b5f61287387828801612512565b945050602061288487828801612512565b935050604085013567ffffffffffffffff8111156128a5576128a46124ef565b5b6128b187828801612747565b925092505092959194509250565b5f80fd5b5f601f19601f8301169050919050565b7f4e487b71000000000000000000000000000000000000000000000000000000005f52604160045260245ffd5b612909826128c3565b810181811067ffffffffffffffff82111715612928576129276128d3565b5b80604052505050565b5f61293a6124e2565b90506129468282612900565b919050565b5f67ffffffffffffffff821115612965576129646128d3565b5b61296e826128c3565b9050602081019050919050565b828183375f83830152505050565b5f61299b6129968461294b565b612931565b9050828152602081018484840111156129b7576129b66128bf565b5b6129c284828561297b565b509392505050565b5f82601f8301126129de576129dd61260f565b5b81356129ee848260208601612989565b91505092915050565b5f805f8060808587031215612a0f57612a0e6124eb565b5b5f612a1c87828801612512565b9450506020612a2d87828801612512565b935050604085013567ffffffffffffffff811115612a4e57612a4d6124ef565b5b612a5a878288016129ca565b9250506060612a6b87828801612512565b91505092959194509250565b5f81519050919050565b5f82825260208201905092915050565b8281835e5f83830152505050565b5f612aa982612a77565b612ab38185612a81565b9350612ac3818560208601612a91565b612acc816128c3565b840191505092915050565b5f608082019050612aea5f830187612551565b612af760208301866125e7565b8181036040830152612b098185612a9f565b9050612b186060830184612551565b95945050505050565b612b2a816124f3565b82525050565b612b39816125d6565b82525050565b5f82825260208201905092915050565b5f612b5982612a77565b612b638185612b3f565b9350612b73818560208601612a91565b612b7c816128c3565b840191505092915050565b5f60a083015f830151612b9c5f860182612b21565b506020830151612baf6020860182612b21565b506040830151612bc26040860182612b30565b5060608301518482036060860152612bda8282612b4f565b9150506080830151612bef6080860182612b21565b508091505092915050565b5f6020820190508181035f830152612c128184612b87565b905092915050565b5f60a082019050612c2d5f830188612551565b612c3a6020830187612551565b612c476040830186612551565b612c5460608301856125e7565b8181036080830152612c668184612a9f565b90509695505050505050565b604082015f820151612c865f850182612b21565b506020820151612c996020850182612b30565b50505050565b5f604082019050612cb25f830184612c72565b92915050565b5f8060408385031215612cce57612ccd6124eb565b5b5f612cdb85828601612512565b925050602083013567ffffffffffffffff811115612cfc57612cfb6124ef565b5b612d08858286016129ca565b9150509250929050565b5f8115159050919050565b612d2681612d12565b82525050565b5f602082019050612d3f5f830184612d1d565b92915050565b5f60a083015f830151612d5a5f860182612b21565b506020830151612d6d6020860182612b21565b506040830151612d806040860182612b21565b506060830151612d936060860182612b30565b5060808301518482036080860152612dab8282612b4f565b9150508091505092915050565b5f6020820190508181035f830152612dd08184612d45565b905092915050565b5f608083015f830151612ded5f860182612b21565b506020830151612e006020860182612b30565b5060408301518482036040860152612e188282612b4f565b9150506060830151612e2d6060860182612b21565b508091505092915050565b5f6020820190508181035f830152612e508184612dd8565b905092915050565b5f60a082019050612e6b5f830188612551565b612e786020830187612551565b612e8560408301866125e7565b8181036060830152612e978185612a9f565b9050612ea66080830184612551565b9695505050505050565b5f604082019050612ec35f8301856125e7565b612ed060208301846125e7565b9392505050565b5f604082019050612eea5f830185612551565b612ef76020830184612551565b9392505050565b7f4e487b71000000000000000000000000000000000000000000000000000000005f52603260045260245ffd5b5f82825260208201905092915050565b5f80fd5b82818337505050565b5f612f538385612f2b565b93507f07ffffffffffffffffffffffffffffffffffffffffffffffffffffffffffffff831115612f8657612f85612f3b565b5b602083029250612f97838584612f3f565b82840190509392505050565b5f6060820190508181035f830152612fbc81888a612f48565b90508181036020830152612fd1818688612f48565b90508181036040830152612fe6818486612f48565b9050979650505050505050565b7f4e487b71000000000000000000000000000000000000000000000000000000005f52601160045260245ffd5b5f61302a826124f3565b9150613035836124f3565b925082820190508082111561304d5761304c612ff3565b5b92915050565b5f6040820190506130665f8301856125e7565b6130736020830184612551565b9392505050565b7f4e487b71000000000000000000000000000000000000000000000000000000005f52602260045260245ffd5b5f60028204905060018216806130be57607f821691505b6020821081036130d1576130d061307a565b5b50919050565b5f819050815f5260205f209050919050565b5f6020601f8301049050919050565b5f82821b905092915050565b5f600883026131337fffffffffffffffffffffffffffffffffffffffffffffffffffffffffffffffff826130f8565b61313d86836130f8565b95508019841693508086168417925050509392505050565b5f819050919050565b5f61317861317361316e846124f3565b613155565b6124f3565b9050919050565b5f819050919050565b6131918361315e565b6131a561319d8261317f565b848454613104565b825550505050565b5f90565b6131b96131ad565b6131c4818484613188565b505050565b5b818110156131e7576131dc5f826131b1565b6001810190506131ca565b5050565b601f82111561322c576131fd816130d7565b613206846130e9565b81016020851015613215578190505b613229613221856130e9565b8301826131c9565b50505b505050565b5f82821c905092915050565b5f61324c5f1984600802613231565b1980831691505092915050565b5f613264838361323d565b9150826002028217905092915050565b61327d82612a77565b67ffffffffffffffff811115613296576132956128d3565b5b6132a082546130a7565b6132ab8282856131eb565b5f60209050601f8311600181146132dc575f84156132ca578287015190505b6132d48582613259565b86555061333b565b601f1984166132ea866130d7565b5f5b82811015613311578489015182556001820191506020850194506020810190506132ec565b8683101561332e578489015161332a601f89168261323d565b8355505b6001600288020188555050505b505050505050565b5f61334d826124f3565b91507fffffffffffffffffffffffffffffffffffffffffffffffffffffffffffffffff820361337f5761337e612ff3565b5b600182019050919050565b5f60608201905061339d5f8301866125e7565b6133aa6020830185612551565b6133b76040830184612551565b949350505050565b5f6040820190506133d25f830185612551565b81810360208301526133e48184612a9f565b90509392505050565b5f6060820190506134005f830186612551565b61340d6020830185612551565b61341a6040830184612551565b949350505050565b7f4e487b71000000000000000000000000000000000000000000000000000000005f52601260045260245ffdfea2646970667358221220f4ad8eef768bcbb9e67c880f6d7b8f62c4b06e953a932d3697b77db06c379f4f64736f6c63430008190033",
					"opcodes": "PUSH1 0x80 PUSH1 0x40 MSTORE CALLVALUE DUP1 ISZERO PUSH2 0xF JUMPI PUSH0 DUP1 REVERT JUMPDEST POP CALLER PUSH0 PUSH20 0xFFFFFFFFFFFFFFFFFFFFFFFFFFFFFFFFFFFFFFFF AND DUP2 PUSH20 0xFFFFFFFFFFFFFFFFFFFFFFFFFFFFFFFFFFFFFFFF AND SUB PUSH2 0x81 JUMPI PUSH0 PUSH1 0x40 MLOAD PUSH32 0x1E4FBDF700000000000000000000000000000000000000000000000000000000 DUP2 MSTORE PUSH1 0x4 ADD PUSH2 0x78 SWAP2 SWAP1 PUSH2 0x19D JUMP JUMPDEST PUSH1 0x40 MLOAD DUP1 SWAP2 SUB SWAP1 REVERT JUMPDEST PUSH2 0x90 DUP2 PUSH2 0x9D PUSH1 0x20 SHL PUSH1 0x20 SHR JUMP JUMPDEST POP PUSH1 0x1 DUP1 DUP2 SWAP1 SSTORE POP PUSH2 0x1B6 JUMP JUMPDEST PUSH0 DUP1 PUSH0 SWAP1 SLOAD SWAP1 PUSH2 0x100 EXP SWAP1 DIV PUSH20 0xFFFFFFFFFFFFFFFFFFFFFFFFFFFFFFFFFFFFFFFF AND SWAP1 POP DUP2 PUSH0 DUP1 PUSH2 0x100 EXP DUP2 SLOAD DUP2 PUSH20 0xFFFFFFFFFFFFFFFFFFFFFFFFFFFFFFFFFFFFFFFF MUL NOT AND SWAP1 DUP4 PUSH20 0xFFFFFFFFFFFFFFFFFFFFFFFFFFFFFFFFFFFFFFFF AND MUL OR SWAP1 SSTORE POP DUP2 PUSH20 0xFFFFFFFFFFFFFFFFFFFFFFFFFFFFFFFFFFFFFFFF AND DUP2 PUSH20 0xFFFFFFFFFFFFFFFFFFFFFFFFFFFFFFFFFFFFFFFF AND PUSH32 0x8BE0079C531659141344CD1FD0A4F28419497F9722A3DAAFE3B4186F6B6457E0 PUSH1 0x40 MLOAD PUSH1 0x40 MLOAD DUP1 SWAP2 SUB SWAP1 LOG3 POP POP JUMP JUMPDEST PUSH0 PUSH20 0xFFFFFFFFFFFFFFFFFFFFFFFFFFFFFFFFFFFFFFFF DUP3 AND SWAP1 POP SWAP2 SWAP1 POP JUMP JUMPDEST PUSH0 PUSH2 0x187 DUP3 PUSH2 0x15E JUMP JUMPDEST SWAP1 POP SWAP2 SWAP1 POP JUMP JUMPDEST PUSH2 0x197 DUP2 PUSH2 0x17D JUMP JUMPDEST DUP3 MSTORE POP POP JUMP JUMPDEST PUSH0 PUSH1 0x20 DUP3 ADD SWAP1 POP PUSH2 0x1B0 PUSH0 DUP4 ADD DUP5 PUSH2 0x18E JUMP JUMPDEST SWAP3 SWAP2 POP POP JUMP JUMPDEST PUSH2 0x3485 DUP1 PUSH2 0x1C3 PUSH0 CODECOPY PUSH0 RETURN INVALID PUSH1 0x80 PUSH1 0x40 MSTORE PUSH1 0x4 CALLDATASIZE LT PUSH2 0x1ED JUMPI PUSH0 CALLDATALOAD PUSH1 0xE0 SHR DUP1 PUSH4 0x715018A6 GT PUSH2 0x10C JUMPI DUP1 PUSH4 0xD18C2E5F GT PUSH2 0x9F JUMPI DUP1 PUSH4 0xEEC49B4D GT PUSH2 0x6E JUMPI DUP1 PUSH4 0xEEC49B4D EQ PUSH2 0x76B JUMPI DUP1 PUSH4 0xEFB66EE8 EQ PUSH2 0x7A7 JUMPI DUP1 PUSH4 0xF221DDB9 EQ PUSH2 0x7E3 JUMPI DUP1 PUSH4 0xF2FDE38B EQ PUSH2 0x823 JUMPI DUP1 PUSH4 0xF568D4E4 EQ PUSH2 0x84B JUMPI PUSH2 0x1ED JUMP JUMPDEST DUP1 PUSH4 0xD18C2E5F EQ PUSH2 0x68F JUMPI DUP1 PUSH4 0xD5CB03AB EQ PUSH2 0x6CB JUMPI DUP1 PUSH4 0xD941DB2D EQ PUSH2 0x707 JUMPI DUP1 PUSH4 0xE60D34D7 EQ PUSH2 0x72F JUMPI PUSH2 0x1ED JUMP JUMPDEST DUP1 PUSH4 0x846786D1 GT PUSH2 0xDB JUMPI DUP1 PUSH4 0x846786D1 EQ PUSH2 0x5C1 JUMPI DUP1 PUSH4 0x8DA5CB5B EQ PUSH2 0x601 JUMPI DUP1 PUSH4 0x91E359C4 EQ PUSH2 0x62B JUMPI DUP1 PUSH4 0xA684FA5D EQ PUSH2 0x667 JUMPI PUSH2 0x1ED JUMP JUMPDEST DUP1 PUSH4 0x715018A6 EQ PUSH2 0x4F7 JUMPI DUP1 PUSH4 0x76BE4D84 EQ PUSH2 0x50D JUMPI DUP1 PUSH4 0x805FA873 EQ PUSH2 0x549 JUMPI DUP1 PUSH4 0x81A43B42 EQ PUSH2 0x585 JUMPI PUSH2 0x1ED JUMP JUMPDEST DUP1 PUSH4 0x49EFEC4F GT PUSH2 0x184 JUMPI DUP1 PUSH4 0x6353586B GT PUSH2 0x153 JUMPI DUP1 PUSH4 0x6353586B EQ PUSH2 0x42C JUMPI DUP1 PUSH4 0x65A20227 EQ PUSH2 0x468 JUMPI DUP1 PUSH4 0x69C355D8 EQ PUSH2 0x490 JUMPI DUP1 PUSH4 0x6A030CA9 EQ PUSH2 0x4B8 JUMPI PUSH2 0x1ED JUMP JUMPDEST DUP1 PUSH4 0x49EFEC4F EQ PUSH2 0x376 JUMPI DUP1 PUSH4 0x4C6DA25D EQ PUSH2 0x38C JUMPI DUP1 PUSH4 0x58324335 EQ PUSH2 0x3B4 JUMPI DUP1 PUSH4 0x5B1B4E8E EQ PUSH2 0x3F0 JUMPI PUSH2 0x1ED JUMP JUMPDEST DUP1 PUSH4 0x3AA4A4AD GT PUSH2 0x1C0 JUMPI DUP1 PUSH4 0x3AA4A4AD EQ PUSH2 0x2B9 JUMPI DUP1 PUSH4 0x3D09F98B EQ PUSH2 0x2F5 JUMPI DUP1 PUSH4 0x475726F7 EQ PUSH2 0x311 JUMPI DUP1 PUSH4 0x49BD293E EQ PUSH2 0x34E JUMPI PUSH2 0x1ED JUMP JUMPDEST DUP1 PUSH4 0xD8735D4 EQ PUSH2 0x1F1 JUMPI DUP1 PUSH4 0x2210D31E EQ PUSH2 0x22D JUMPI DUP1 PUSH4 0x248B761E EQ PUSH2 0x255 JUMPI DUP1 PUSH4 0x30D5023F EQ PUSH2 0x291 JUMPI JUMPDEST PUSH0 DUP1 REVERT JUMPDEST CALLVALUE DUP1 ISZERO PUSH2 0x1FC JUMPI PUSH0 DUP1 REVERT JUMPDEST POP PUSH2 0x217 PUSH1 0x4 DUP1 CALLDATASIZE SUB DUP2 ADD SWAP1 PUSH2 0x212 SWAP2 SWAP1 PUSH2 0x2526 JUMP JUMPDEST PUSH2 0x887 JUMP JUMPDEST PUSH1 0x40 MLOAD PUSH2 0x224 SWAP2 SWAP1 PUSH2 0x2560 JUMP JUMPDEST PUSH1 0x40 MLOAD DUP1 SWAP2 SUB SWAP1 RETURN JUMPDEST CALLVALUE DUP1 ISZERO PUSH2 0x238 JUMPI PUSH0 DUP1 REVERT JUMPDEST POP PUSH2 0x253 PUSH1 0x4 DUP1 CALLDATASIZE SUB DUP2 ADD SWAP1 PUSH2 0x24E SWAP2 SWAP1 PUSH2 0x2579 JUMP JUMPDEST PUSH2 0x8A4 JUMP JUMPDEST STOP JUMPDEST CALLVALUE DUP1 ISZERO PUSH2 0x260 JUMPI PUSH0 DUP1 REVERT JUMPDEST POP PUSH2 0x27B PUSH1 0x4 DUP1 CALLDATASIZE SUB DUP2 ADD SWAP1 PUSH2 0x276 SWAP2 SWAP1 PUSH2 0x2526 JUMP JUMPDEST PUSH2 0x9AF JUMP JUMPDEST PUSH1 0x40 MLOAD PUSH2 0x288 SWAP2 SWAP1 PUSH2 0x25F6 JUMP JUMPDEST PUSH1 0x40 MLOAD DUP1 SWAP2 SUB SWAP1 RETURN JUMPDEST CALLVALUE DUP1 ISZERO PUSH2 0x29C JUMPI PUSH0 DUP1 REVERT JUMPDEST POP PUSH2 0x2B7 PUSH1 0x4 DUP1 CALLDATASIZE SUB DUP2 ADD SWAP1 PUSH2 0x2B2 SWAP2 SWAP1 PUSH2 0x2670 JUMP JUMPDEST PUSH2 0x9DF JUMP JUMPDEST STOP JUMPDEST CALLVALUE DUP1 ISZERO PUSH2 0x2C4 JUMPI PUSH0 DUP1 REVERT JUMPDEST POP PUSH2 0x2DF PUSH1 0x4 DUP1 CALLDATASIZE SUB DUP2 ADD SWAP1 PUSH2 0x2DA SWAP2 SWAP1 PUSH2 0x2526 JUMP JUMPDEST PUSH2 0xB4B JUMP JUMPDEST PUSH1 0x40 MLOAD PUSH2 0x2EC SWAP2 SWAP1 PUSH2 0x2560 JUMP JUMPDEST PUSH1 0x40 MLOAD DUP1 SWAP2 SUB SWAP1 RETURN JUMPDEST PUSH2 0x30F PUSH1 0x4 DUP1 CALLDATASIZE SUB DUP2 ADD SWAP1 PUSH2 0x30A SWAP2 SWAP1 PUSH2 0x2526 JUMP JUMPDEST PUSH2 0xB68 JUMP JUMPDEST STOP JUMPDEST CALLVALUE DUP1 ISZERO PUSH2 0x31C JUMPI PUSH0 DUP1 REVERT JUMPDEST POP PUSH2 0x337 PUSH1 0x4 DUP1 CALLDATASIZE SUB DUP2 ADD SWAP1 PUSH2 0x332 SWAP2 SWAP1 PUSH2 0x2526 JUMP JUMPDEST PUSH2 0xC00 JUMP JUMPDEST PUSH1 0x40 MLOAD PUSH2 0x345 SWAP3 SWAP2 SWAP1 PUSH2 0x2720 JUMP JUMPDEST PUSH1 0x40 MLOAD DUP1 SWAP2 SUB SWAP1 RETURN JUMPDEST CALLVALUE DUP1 ISZERO PUSH2 0x359 JUMPI PUSH0 DUP1 REVERT JUMPDEST POP PUSH2 0x374 PUSH1 0x4 DUP1 CALLDATASIZE SUB DUP2 ADD SWAP1 PUSH2 0x36F SWAP2 SWAP1 PUSH2 0x279C JUMP JUMPDEST PUSH2 0xC3F JUMP JUMPDEST STOP JUMPDEST CALLVALUE DUP1 ISZERO PUSH2 0x381 JUMPI PUSH0 DUP1 REVERT JUMPDEST POP PUSH2 0x38A PUSH2 0xDA9 JUMP JUMPDEST STOP JUMPDEST CALLVALUE DUP1 ISZERO PUSH2 0x397 JUMPI PUSH0 DUP1 REVERT JUMPDEST POP PUSH2 0x3B2 PUSH1 0x4 DUP1 CALLDATASIZE SUB DUP2 ADD SWAP1 PUSH2 0x3AD SWAP2 SWAP1 PUSH2 0x2579 JUMP JUMPDEST PUSH2 0xEA1 JUMP JUMPDEST STOP JUMPDEST CALLVALUE DUP1 ISZERO PUSH2 0x3BF JUMPI PUSH0 DUP1 REVERT JUMPDEST POP PUSH2 0x3DA PUSH1 0x4 DUP1 CALLDATASIZE SUB DUP2 ADD SWAP1 PUSH2 0x3D5 SWAP2 SWAP1 PUSH2 0x2823 JUMP JUMPDEST PUSH2 0xFA3 JUMP JUMPDEST PUSH1 0x40 MLOAD PUSH2 0x3E7 SWAP2 SWAP1 PUSH2 0x2560 JUMP JUMPDEST PUSH1 0x40 MLOAD DUP1 SWAP2 SUB SWAP1 RETURN JUMPDEST CALLVALUE DUP1 ISZERO PUSH2 0x3FB JUMPI PUSH0 DUP1 REVERT JUMPDEST POP PUSH2 0x416 PUSH1 0x4 DUP1 CALLDATASIZE SUB DUP2 ADD SWAP1 PUSH2 0x411 SWAP2 SWAP1 PUSH2 0x2526 JUMP JUMPDEST PUSH2 0xFB8 JUMP JUMPDEST PUSH1 0x40 MLOAD PUSH2 0x423 SWAP2 SWAP1 PUSH2 0x2560 JUMP JUMPDEST PUSH1 0x40 MLOAD DUP1 SWAP2 SUB SWAP1 RETURN JUMPDEST CALLVALUE DUP1 ISZERO PUSH2 0x437 JUMPI PUSH0 DUP1 REVERT JUMPDEST POP PUSH2 0x452 PUSH1 0x4 DUP1 CALLDATASIZE SUB DUP2 ADD SWAP1 PUSH2 0x44D SWAP2 SWAP1 PUSH2 0x2823 JUMP JUMPDEST PUSH2 0xFDE JUMP JUMPDEST PUSH1 0x40 MLOAD PUSH2 0x45F SWAP2 SWAP1 PUSH2 0x2560 JUMP JUMPDEST PUSH1 0x40 MLOAD DUP1 SWAP2 SUB SWAP1 RETURN JUMPDEST CALLVALUE DUP1 ISZERO PUSH2 0x473 JUMPI PUSH0 DUP1 REVERT JUMPDEST POP PUSH2 0x48E PUSH1 0x4 DUP1 CALLDATASIZE SUB DUP2 ADD SWAP1 PUSH2 0x489 SWAP2 SWAP1 PUSH2 0x284E JUMP JUMPDEST PUSH2 0xFF3 JUMP JUMPDEST STOP JUMPDEST CALLVALUE DUP1 ISZERO PUSH2 0x49B JUMPI PUSH0 DUP1 REVERT JUMPDEST POP PUSH2 0x4B6 PUSH1 0x4 DUP1 CALLDATASIZE SUB DUP2 ADD SWAP1 PUSH2 0x4B1 SWAP2 SWAP1 PUSH2 0x29F7 JUMP JUMPDEST PUSH2 0x1180 JUMP JUMPDEST STOP JUMPDEST CALLVALUE DUP1 ISZERO PUSH2 0x4C3 JUMPI PUSH0 DUP1 REVERT JUMPDEST POP PUSH2 0x4DE PUSH1 0x4 DUP1 CALLDATASIZE SUB DUP2 ADD SWAP1 PUSH2 0x4D9 SWAP2 SWAP1 PUSH2 0x2526 JUMP JUMPDEST PUSH2 0x133F JUMP JUMPDEST PUSH1 0x40 MLOAD PUSH2 0x4EE SWAP5 SWAP4 SWAP3 SWAP2 SWAP1 PUSH2 0x2AD7 JUMP JUMPDEST PUSH1 0x40 MLOAD DUP1 SWAP2 SUB SWAP1 RETURN JUMPDEST CALLVALUE DUP1 ISZERO PUSH2 0x502 JUMPI PUSH0 DUP1 REVERT JUMPDEST POP PUSH2 0x50B PUSH2 0x1410 JUMP JUMPDEST STOP JUMPDEST CALLVALUE DUP1 ISZERO PUSH2 0x518 JUMPI PUSH0 DUP1 REVERT JUMPDEST POP PUSH2 0x533 PUSH1 0x4 DUP1 CALLDATASIZE SUB DUP2 ADD SWAP1 PUSH2 0x52E SWAP2 SWAP1 PUSH2 0x2526 JUMP JUMPDEST PUSH2 0x1423 JUMP JUMPDEST PUSH1 0x40 MLOAD PUSH2 0x540 SWAP2 SWAP1 PUSH2 0x2BFA JUMP JUMPDEST PUSH1 0x40 MLOAD DUP1 SWAP2 SUB SWAP1 RETURN JUMPDEST CALLVALUE DUP1 ISZERO PUSH2 0x554 JUMPI PUSH0 DUP1 REVERT JUMPDEST POP PUSH2 0x56F PUSH1 0x4 DUP1 CALLDATASIZE SUB DUP2 ADD SWAP1 PUSH2 0x56A SWAP2 SWAP1 PUSH2 0x2526 JUMP JUMPDEST PUSH2 0x1559 JUMP JUMPDEST PUSH1 0x40 MLOAD PUSH2 0x57C SWAP2 SWAP1 PUSH2 0x2560 JUMP JUMPDEST PUSH1 0x40 MLOAD DUP1 SWAP2 SUB SWAP1 RETURN JUMPDEST CALLVALUE DUP1 ISZERO PUSH2 0x590 JUMPI PUSH0 DUP1 REVERT JUMPDEST POP PUSH2 0x5AB PUSH1 0x4 DUP1 CALLDATASIZE SUB DUP2 ADD SWAP1 PUSH2 0x5A6 SWAP2 SWAP1 PUSH2 0x2526 JUMP JUMPDEST PUSH2 0x157F JUMP JUMPDEST PUSH1 0x40 MLOAD PUSH2 0x5B8 SWAP2 SWAP1 PUSH2 0x25F6 JUMP JUMPDEST PUSH1 0x40 MLOAD DUP1 SWAP2 SUB SWAP1 RETURN JUMPDEST CALLVALUE DUP1 ISZERO PUSH2 0x5CC JUMPI PUSH0 DUP1 REVERT JUMPDEST POP PUSH2 0x5E7 PUSH1 0x4 DUP1 CALLDATASIZE SUB DUP2 ADD SWAP1 PUSH2 0x5E2 SWAP2 SWAP1 PUSH2 0x2526 JUMP JUMPDEST PUSH2 0x15C4 JUMP JUMPDEST PUSH1 0x40 MLOAD PUSH2 0x5F8 SWAP6 SWAP5 SWAP4 SWAP3 SWAP2 SWAP1 PUSH2 0x2C1A JUMP JUMPDEST PUSH1 0x40 MLOAD DUP1 SWAP2 SUB SWAP1 RETURN JUMPDEST CALLVALUE DUP1 ISZERO PUSH2 0x60C JUMPI PUSH0 DUP1 REVERT JUMPDEST POP PUSH2 0x615 PUSH2 0x169B JUMP JUMPDEST PUSH1 0x40 MLOAD PUSH2 0x622 SWAP2 SWAP1 PUSH2 0x25F6 JUMP JUMPDEST PUSH1 0x40 MLOAD DUP1 SWAP2 SUB SWAP1 RETURN JUMPDEST CALLVALUE DUP1 ISZERO PUSH2 0x636 JUMPI PUSH0 DUP1 REVERT JUMPDEST POP PUSH2 0x651 PUSH1 0x4 DUP1 CALLDATASIZE SUB DUP2 ADD SWAP1 PUSH2 0x64C SWAP2 SWAP1 PUSH2 0x2526 JUMP JUMPDEST PUSH2 0x16C2 JUMP JUMPDEST PUSH1 0x40 MLOAD PUSH2 0x65E SWAP2 SWAP1 PUSH2 0x2C9F JUMP JUMPDEST PUSH1 0x40 MLOAD DUP1 SWAP2 SUB SWAP1 RETURN JUMPDEST CALLVALUE DUP1 ISZERO PUSH2 0x672 JUMPI PUSH0 DUP1 REVERT JUMPDEST POP PUSH2 0x68D PUSH1 0x4 DUP1 CALLDATASIZE SUB DUP2 ADD SWAP1 PUSH2 0x688 SWAP2 SWAP1 PUSH2 0x2CB8 JUMP JUMPDEST PUSH2 0x1754 JUMP JUMPDEST STOP JUMPDEST CALLVALUE DUP1 ISZERO PUSH2 0x69A JUMPI PUSH0 DUP1 REVERT JUMPDEST POP PUSH2 0x6B5 PUSH1 0x4 DUP1 CALLDATASIZE SUB DUP2 ADD SWAP1 PUSH2 0x6B0 SWAP2 SWAP1 PUSH2 0x2526 JUMP JUMPDEST PUSH2 0x1868 JUMP JUMPDEST PUSH1 0x40 MLOAD PUSH2 0x6C2 SWAP2 SWAP1 PUSH2 0x2D2C JUMP JUMPDEST PUSH1 0x40 MLOAD DUP1 SWAP2 SUB SWAP1 RETURN JUMPDEST CALLVALUE DUP1 ISZERO PUSH2 0x6D6 JUMPI PUSH0 DUP1 REVERT JUMPDEST POP PUSH2 0x6F1 PUSH1 0x4 DUP1 CALLDATASIZE SUB DUP2 ADD SWAP1 PUSH2 0x6EC SWAP2 SWAP1 PUSH2 0x2526 JUMP JUMPDEST PUSH2 0x1885 JUMP JUMPDEST PUSH1 0x40 MLOAD PUSH2 0x6FE SWAP2 SWAP1 PUSH2 0x2560 JUMP JUMPDEST PUSH1 0x40 MLOAD DUP1 SWAP2 SUB SWAP1 RETURN JUMPDEST CALLVALUE DUP1 ISZERO PUSH2 0x712 JUMPI PUSH0 DUP1 REVERT JUMPDEST POP PUSH2 0x72D PUSH1 0x4 DUP1 CALLDATASIZE SUB DUP2 ADD SWAP1 PUSH2 0x728 SWAP2 SWAP1 PUSH2 0x2526 JUMP JUMPDEST PUSH2 0x18AB JUMP JUMPDEST STOP JUMPDEST CALLVALUE DUP1 ISZERO PUSH2 0x73A JUMPI PUSH0 DUP1 REVERT JUMPDEST POP PUSH2 0x755 PUSH1 0x4 DUP1 CALLDATASIZE SUB DUP2 ADD SWAP1 PUSH2 0x750 SWAP2 SWAP1 PUSH2 0x2526 JUMP JUMPDEST PUSH2 0x18F0 JUMP JUMPDEST PUSH1 0x40 MLOAD PUSH2 0x762 SWAP2 SWAP1 PUSH2 0x25F6 JUMP JUMPDEST PUSH1 0x40 MLOAD DUP1 SWAP2 SUB SWAP1 RETURN JUMPDEST CALLVALUE DUP1 ISZERO PUSH2 0x776 JUMPI PUSH0 DUP1 REVERT JUMPDEST POP PUSH2 0x791 PUSH1 0x4 DUP1 CALLDATASIZE SUB DUP2 ADD SWAP1 PUSH2 0x78C SWAP2 SWAP1 PUSH2 0x2526 JUMP JUMPDEST PUSH2 0x1935 JUMP JUMPDEST PUSH1 0x40 MLOAD PUSH2 0x79E SWAP2 SWAP1 PUSH2 0x2DB8 JUMP JUMPDEST PUSH1 0x40 MLOAD DUP1 SWAP2 SUB SWAP1 RETURN JUMPDEST CALLVALUE DUP1 ISZERO PUSH2 0x7B2 JUMPI PUSH0 DUP1 REVERT JUMPDEST POP PUSH2 0x7CD PUSH1 0x4 DUP1 CALLDATASIZE SUB DUP2 ADD SWAP1 PUSH2 0x7C8 SWAP2 SWAP1 PUSH2 0x2526 JUMP JUMPDEST PUSH2 0x1A6B JUMP JUMPDEST PUSH1 0x40 MLOAD PUSH2 0x7DA SWAP2 SWAP1 PUSH2 0x2E38 JUMP JUMPDEST PUSH1 0x40 MLOAD DUP1 SWAP2 SUB SWAP1 RETURN JUMPDEST CALLVALUE DUP1 ISZERO PUSH2 0x7EE JUMPI PUSH0 DUP1 REVERT JUMPDEST POP PUSH2 0x809 PUSH1 0x4 DUP1 CALLDATASIZE SUB DUP2 ADD SWAP1 PUSH2 0x804 SWAP2 SWAP1 PUSH2 0x2526 JUMP JUMPDEST PUSH2 0x1B97 JUMP JUMPDEST PUSH1 0x40 MLOAD PUSH2 0x81A SWAP6 SWAP5 SWAP4 SWAP3 SWAP2 SWAP1 PUSH2 0x2E58 JUMP JUMPDEST PUSH1 0x40 MLOAD DUP1 SWAP2 SUB SWAP1 RETURN JUMPDEST CALLVALUE DUP1 ISZERO PUSH2 0x82E JUMPI PUSH0 DUP1 REVERT JUMPDEST POP PUSH2 0x849 PUSH1 0x4 DUP1 CALLDATASIZE SUB DUP2 ADD SWAP1 PUSH2 0x844 SWAP2 SWAP1 PUSH2 0x2823 JUMP JUMPDEST PUSH2 0x1C6E JUMP JUMPDEST STOP JUMPDEST CALLVALUE DUP1 ISZERO PUSH2 0x856 JUMPI PUSH0 DUP1 REVERT JUMPDEST POP PUSH2 0x871 PUSH1 0x4 DUP1 CALLDATASIZE SUB DUP2 ADD SWAP1 PUSH2 0x86C SWAP2 SWAP1 PUSH2 0x2526 JUMP JUMPDEST PUSH2 0x1CF2 JUMP JUMPDEST PUSH1 0x40 MLOAD PUSH2 0x87E SWAP2 SWAP1 PUSH2 0x2D2C JUMP JUMPDEST PUSH1 0x40 MLOAD DUP1 SWAP2 SUB SWAP1 RETURN JUMPDEST PUSH0 PUSH1 0x7 PUSH0 DUP4 DUP2 MSTORE PUSH1 0x20 ADD SWAP1 DUP2 MSTORE PUSH1 0x20 ADD PUSH0 KECCAK256 PUSH1 0x1 ADD SLOAD SWAP1 POP SWAP2 SWAP1 POP JUMP JUMPDEST DUP2 PUSH0 PUSH1 0x5 PUSH0 DUP4 DUP2 MSTORE PUSH1 0x20 ADD SWAP1 DUP2 MSTORE PUSH1 0x20 ADD PUSH0 KECCAK256 PUSH1 0x1 ADD PUSH0 SWAP1 SLOAD SWAP1 PUSH2 0x100 EXP SWAP1 DIV PUSH20 0xFFFFFFFFFFFFFFFFFFFFFFFFFFFFFFFFFFFFFFFF AND SWAP1 POP DUP1 PUSH20 0xFFFFFFFFFFFFFFFFFFFFFFFFFFFFFFFFFFFFFFFF AND CALLER PUSH20 0xFFFFFFFFFFFFFFFFFFFFFFFFFFFFFFFFFFFFFFFF AND EQ PUSH2 0x94E JUMPI CALLER DUP2 PUSH1 0x40 MLOAD PUSH32 0xA0AAB18D00000000000000000000000000000000000000000000000000000000 DUP2 MSTORE PUSH1 0x4 ADD PUSH2 0x945 SWAP3 SWAP2 SWAP1 PUSH2 0x2EB0 JUMP JUMPDEST PUSH1 0x40 MLOAD DUP1 SWAP2 SUB SWAP1 REVERT JUMPDEST PUSH2 0x957 DUP5 PUSH2 0x1D5A JUMP JUMPDEST DUP3 PUSH1 0x5 PUSH0 DUP7 DUP2 MSTORE PUSH1 0x20 ADD SWAP1 DUP2 MSTORE PUSH1 0x20 ADD PUSH0 KECCAK256 PUSH1 0x3 ADD DUP2 SWAP1 SSTORE POP PUSH32 0xB1D13BA20F0D741940864392D8DAE01FACD2A12A23DF9B44E625D5753792909D DUP5 DUP5 PUSH1 0x40 MLOAD PUSH2 0x9A1 SWAP3 SWAP2 SWAP1 PUSH2 0x2ED7 JUMP JUMPDEST PUSH1 0x40 MLOAD DUP1 SWAP2 SUB SWAP1 LOG1 POP POP POP POP JUMP JUMPDEST PUSH1 0xB PUSH1 0x20 MSTORE DUP1 PUSH0 MSTORE PUSH1 0x40 PUSH0 KECCAK256 PUSH0 SWAP2 POP SLOAD SWAP1 PUSH2 0x100 EXP SWAP1 DIV PUSH20 0xFFFFFFFFFFFFFFFFFFFFFFFFFFFFFFFFFFFFFFFF AND DUP2 JUMP JUMPDEST PUSH2 0xAAA DUP7 DUP7 DUP1 DUP1 PUSH1 0x20 MUL PUSH1 0x20 ADD PUSH1 0x40 MLOAD SWAP1 DUP2 ADD PUSH1 0x40 MSTORE DUP1 SWAP4 SWAP3 SWAP2 SWAP1 DUP2 DUP2 MSTORE PUSH1 0x20 ADD DUP4 DUP4 PUSH1 0x20 MUL DUP1 DUP3 DUP5 CALLDATACOPY PUSH0 DUP2 DUP5 ADD MSTORE PUSH1 0x1F NOT PUSH1 0x1F DUP3 ADD AND SWAP1 POP DUP1 DUP4 ADD SWAP3 POP POP POP POP POP POP POP DUP6 DUP6 DUP1 DUP1 PUSH1 0x20 MUL PUSH1 0x20 ADD PUSH1 0x40 MLOAD SWAP1 DUP2 ADD PUSH1 0x40 MSTORE DUP1 SWAP4 SWAP3 SWAP2 SWAP1 DUP2 DUP2 MSTORE PUSH1 0x20 ADD DUP4 DUP4 PUSH1 0x20 MUL DUP1 DUP3 DUP5 CALLDATACOPY PUSH0 DUP2 DUP5 ADD MSTORE PUSH1 0x1F NOT PUSH1 0x1F DUP3 ADD AND SWAP1 POP DUP1 DUP4 ADD SWAP3 POP POP POP POP POP POP POP DUP5 DUP5 DUP1 DUP1 PUSH1 0x20 MUL PUSH1 0x20 ADD PUSH1 0x40 MLOAD SWAP1 DUP2 ADD PUSH1 0x40 MSTORE DUP1 SWAP4 SWAP3 SWAP2 SWAP1 DUP2 DUP2 MSTORE PUSH1 0x20 ADD DUP4 DUP4 PUSH1 0x20 MUL DUP1 DUP3 DUP5 CALLDATACOPY PUSH0 DUP2 DUP5 ADD MSTORE PUSH1 0x1F NOT PUSH1 0x1F DUP3 ADD AND SWAP1 POP DUP1 DUP4 ADD SWAP3 POP POP POP POP POP POP POP PUSH2 0x1E00 JUMP JUMPDEST PUSH0 JUMPDEST DUP7 DUP7 SWAP1 POP DUP2 LT ISZERO PUSH2 0xB01 JUMPI PUSH2 0xAF4 DUP2 DUP9 DUP9 DUP5 DUP2 DUP2 LT PUSH2 0xACE JUMPI PUSH2 0xACD PUSH2 0x2EFE JUMP JUMPDEST JUMPDEST SWAP1 POP PUSH1 0x20 MUL ADD CALLDATALOAD DUP6 DUP6 DUP6 DUP2 DUP2 LT PUSH2 0xAE8 JUMPI PUSH2 0xAE7 PUSH2 0x2EFE JUMP JUMPDEST JUMPDEST SWAP1 POP PUSH1 0x20 MUL ADD CALLDATALOAD PUSH2 0x1EAF JUMP JUMPDEST DUP1 DUP1 PUSH1 0x1 ADD SWAP2 POP POP PUSH2 0xAAC JUMP JUMPDEST POP PUSH32 0xACE2124136318F2465AEC8CF92A4BD9C871279C0F147DDD9F3B94698604A88CF DUP7 DUP7 DUP7 DUP7 DUP7 DUP7 PUSH1 0x40 MLOAD PUSH2 0xB3B SWAP7 SWAP6 SWAP5 SWAP4 SWAP3 SWAP2 SWAP1 PUSH2 0x2FA3 JUMP JUMPDEST PUSH1 0x40 MLOAD DUP1 SWAP2 SUB SWAP1 LOG1 POP POP POP POP POP POP JUMP JUMPDEST PUSH0 PUSH1 0x7 PUSH0 DUP4 DUP2 MSTORE PUSH1 0x20 ADD SWAP1 DUP2 MSTORE PUSH1 0x20 ADD PUSH0 KECCAK256 PUSH1 0x2 ADD SLOAD SWAP1 POP SWAP2 SWAP1 POP JUMP JUMPDEST PUSH2 0xB71 DUP2 PUSH2 0x205D JUMP JUMPDEST CALLVALUE PUSH1 0xA PUSH0 CALLER PUSH20 0xFFFFFFFFFFFFFFFFFFFFFFFFFFFFFFFFFFFFFFFF AND PUSH20 0xFFFFFFFFFFFFFFFFFFFFFFFFFFFFFFFFFFFFFFFF AND DUP2 MSTORE PUSH1 0x20 ADD SWAP1 DUP2 MSTORE PUSH1 0x20 ADD PUSH0 KECCAK256 PUSH0 DUP3 DUP3 SLOAD PUSH2 0xBBD SWAP2 SWAP1 PUSH2 0x3020 JUMP JUMPDEST SWAP3 POP POP DUP2 SWAP1 SSTORE POP PUSH32 0x7CC96C264329C23FFDFE857E8B3C3D794C8F42757C85D96F9883988C1FC4615A CALLER CALLVALUE PUSH1 0x40 MLOAD PUSH2 0xBF5 SWAP3 SWAP2 SWAP1 PUSH2 0x3053 JUMP JUMPDEST PUSH1 0x40 MLOAD DUP1 SWAP2 SUB SWAP1 LOG1 POP JUMP JUMPDEST PUSH1 0x6 PUSH1 0x20 MSTORE DUP1 PUSH0 MSTORE PUSH1 0x40 PUSH0 KECCAK256 PUSH0 SWAP2 POP SWAP1 POP DUP1 PUSH0 ADD SLOAD SWAP1 DUP1 PUSH1 0x1 ADD PUSH0 SWAP1 SLOAD SWAP1 PUSH2 0x100 EXP SWAP1 DIV PUSH20 0xFFFFFFFFFFFFFFFFFFFFFFFFFFFFFFFFFFFFFFFF AND SWAP1 POP DUP3 JUMP JUMPDEST PUSH2 0xC47 PUSH2 0x20BF JUMP JUMPDEST PUSH0 PUSH1 0x40 MLOAD DUP1 PUSH1 0x80 ADD PUSH1 0x40 MSTORE DUP1 PUSH1 0x2 SLOAD DUP2 MSTORE PUSH1 0x20 ADD CALLER PUSH20 0xFFFFFFFFFFFFFFFFFFFFFFFFFFFFFFFFFFFFFFFF AND DUP2 MSTORE PUSH1 0x20 ADD DUP6 DUP6 DUP1 DUP1 PUSH1 0x1F ADD PUSH1 0x20 DUP1 SWAP2 DIV MUL PUSH1 0x20 ADD PUSH1 0x40 MLOAD SWAP1 DUP2 ADD PUSH1 0x40 MSTORE DUP1 SWAP4 SWAP3 SWAP2 SWAP1 DUP2 DUP2 MSTORE PUSH1 0x20 ADD DUP4 DUP4 DUP1 DUP3 DUP5 CALLDATACOPY PUSH0 DUP2 DUP5 ADD MSTORE PUSH1 0x1F NOT PUSH1 0x1F DUP3 ADD AND SWAP1 POP DUP1 DUP4 ADD SWAP3 POP POP POP POP POP POP POP DUP2 MSTORE PUSH1 0x20 ADD DUP4 DUP2 MSTORE POP SWAP1 POP DUP1 PUSH1 0x5 PUSH0 DUP4 PUSH0 ADD MLOAD DUP2 MSTORE PUSH1 0x20 ADD SWAP1 DUP2 MSTORE PUSH1 0x20 ADD PUSH0 KECCAK256 PUSH0 DUP3 ADD MLOAD DUP2 PUSH0 ADD SSTORE PUSH1 0x20 DUP3 ADD MLOAD DUP2 PUSH1 0x1 ADD PUSH0 PUSH2 0x100 EXP DUP2 SLOAD DUP2 PUSH20 0xFFFFFFFFFFFFFFFFFFFFFFFFFFFFFFFFFFFFFFFF MUL NOT AND SWAP1 DUP4 PUSH20 0xFFFFFFFFFFFFFFFFFFFFFFFFFFFFFFFFFFFFFFFF AND MUL OR SWAP1 SSTORE POP PUSH1 0x40 DUP3 ADD MLOAD DUP2 PUSH1 0x2 ADD SWAP1 DUP2 PUSH2 0xD3E SWAP2 SWAP1 PUSH2 0x3274 JUMP JUMPDEST POP PUSH1 0x60 DUP3 ADD MLOAD DUP2 PUSH1 0x3 ADD SSTORE SWAP1 POP POP PUSH1 0x2 PUSH0 DUP2 SLOAD DUP1 SWAP3 SWAP2 SWAP1 PUSH2 0xD5E SWAP1 PUSH2 0x3343 JUMP JUMPDEST SWAP2 SWAP1 POP SSTORE POP PUSH32 0x74934A3B6DEB545C78DA2A085E7EF6730B428766680D71E0E5EE66780943EA02 DUP2 PUSH0 ADD MLOAD DUP3 PUSH1 0x20 ADD MLOAD PUSH1 0x40 MLOAD PUSH2 0xD9B SWAP3 SWAP2 SWAP1 PUSH2 0x2720 JUMP JUMPDEST PUSH1 0x40 MLOAD DUP1 SWAP2 SUB SWAP1 LOG1 POP POP POP POP JUMP JUMPDEST PUSH2 0xDB1 PUSH2 0x20BF JUMP JUMPDEST PUSH0 PUSH1 0x40 MLOAD DUP1 PUSH1 0x40 ADD PUSH1 0x40 MSTORE DUP1 PUSH1 0x3 SLOAD DUP2 MSTORE PUSH1 0x20 ADD CALLER PUSH20 0xFFFFFFFFFFFFFFFFFFFFFFFFFFFFFFFFFFFFFFFF AND DUP2 MSTORE POP SWAP1 POP DUP1 PUSH1 0x6 PUSH0 DUP4 PUSH0 ADD MLOAD DUP2 MSTORE PUSH1 0x20 ADD SWAP1 DUP2 MSTORE PUSH1 0x20 ADD PUSH0 KECCAK256 PUSH0 DUP3 ADD MLOAD DUP2 PUSH0 ADD SSTORE PUSH1 0x20 DUP3 ADD MLOAD DUP2 PUSH1 0x1 ADD PUSH0 PUSH2 0x100 EXP DUP2 SLOAD DUP2 PUSH20 0xFFFFFFFFFFFFFFFFFFFFFFFFFFFFFFFFFFFFFFFF MUL NOT AND SWAP1 DUP4 PUSH20 0xFFFFFFFFFFFFFFFFFFFFFFFFFFFFFFFFFFFFFFFF AND MUL OR SWAP1 SSTORE POP SWAP1 POP POP PUSH1 0x3 PUSH0 DUP2 SLOAD DUP1 SWAP3 SWAP2 SWAP1 PUSH2 0xE59 SWAP1 PUSH2 0x3343 JUMP JUMPDEST SWAP2 SWAP1 POP SSTORE POP PUSH32 0x5CC43D3A666F30D017291029B1D1A582D8A49B66D0117A5FDBCF11888B6708FD DUP2 PUSH0 ADD MLOAD DUP3 PUSH1 0x20 ADD MLOAD PUSH1 0x40 MLOAD PUSH2 0xE96 SWAP3 SWAP2 SWAP1 PUSH2 0x2720 JUMP JUMPDEST PUSH1 0x40 MLOAD DUP1 SWAP2 SUB SWAP1 LOG1 POP JUMP JUMPDEST DUP2 PUSH0 PUSH1 0x8 PUSH0 DUP4 DUP2 MSTORE PUSH1 0x20 ADD SWAP1 DUP2 MSTORE PUSH1 0x20 ADD PUSH0 KECCAK256 PUSH1 0x2 ADD PUSH0 SWAP1 SLOAD SWAP1 PUSH2 0x100 EXP SWAP1 DIV PUSH20 0xFFFFFFFFFFFFFFFFFFFFFFFFFFFFFFFFFFFFFFFF AND SWAP1 POP DUP1 PUSH20 0xFFFFFFFFFFFFFFFFFFFFFFFFFFFFFFFFFFFFFFFF AND CALLER PUSH20 0xFFFFFFFFFFFFFFFFFFFFFFFFFFFFFFFFFFFFFFFF AND EQ PUSH2 0xF4B JUMPI CALLER DUP2 PUSH1 0x40 MLOAD PUSH32 0xE631C94B00000000000000000000000000000000000000000000000000000000 DUP2 MSTORE PUSH1 0x4 ADD PUSH2 0xF42 SWAP3 SWAP2 SWAP1 PUSH2 0x2EB0 JUMP JUMPDEST PUSH1 0x40 MLOAD DUP1 SWAP2 SUB SWAP1 REVERT JUMPDEST DUP3 PUSH1 0x8 PUSH0 DUP7 DUP2 MSTORE PUSH1 0x20 ADD SWAP1 DUP2 MSTORE PUSH1 0x20 ADD PUSH0 KECCAK256 PUSH1 0x4 ADD DUP2 SWAP1 SSTORE POP PUSH32 0x5249B06233E4DC37C8DAD4558DEC5457C53EF98A4142E7BC3832AD19DD1CD1BE DUP5 DUP5 PUSH1 0x40 MLOAD PUSH2 0xF95 SWAP3 SWAP2 SWAP1 PUSH2 0x2ED7 JUMP JUMPDEST PUSH1 0x40 MLOAD DUP1 SWAP2 SUB SWAP1 LOG1 POP POP POP POP JUMP JUMPDEST PUSH1 0xA PUSH1 0x20 MSTORE DUP1 PUSH0 MSTORE PUSH1 0x40 PUSH0 KECCAK256 PUSH0 SWAP2 POP SWAP1 POP SLOAD DUP2 JUMP JUMPDEST PUSH0 PUSH2 0xFC2 DUP3 PUSH2 0x1D5A JUMP JUMPDEST PUSH1 0x5 PUSH0 DUP4 DUP2 MSTORE PUSH1 0x20 ADD SWAP1 DUP2 MSTORE PUSH1 0x20 ADD PUSH0 KECCAK256 PUSH1 0x3 ADD SLOAD SWAP1 POP SWAP2 SWAP1 POP JUMP JUMPDEST PUSH1 0xC PUSH1 0x20 MSTORE DUP1 PUSH0 MSTORE PUSH1 0x40 PUSH0 KECCAK256 PUSH0 SWAP2 POP SWAP1 POP SLOAD DUP2 JUMP JUMPDEST PUSH2 0xFFB PUSH2 0x20BF JUMP JUMPDEST PUSH2 0x1004 DUP5 PUSH2 0x1D5A JUMP JUMPDEST PUSH2 0x100D DUP4 PUSH2 0x2146 JUMP JUMPDEST PUSH0 PUSH1 0x40 MLOAD DUP1 PUSH1 0xA0 ADD PUSH1 0x40 MSTORE DUP1 PUSH1 0x4 SLOAD DUP2 MSTORE PUSH1 0x20 ADD DUP6 DUP2 MSTORE PUSH1 0x20 ADD DUP7 DUP2 MSTORE PUSH1 0x20 ADD CALLER PUSH20 0xFFFFFFFFFFFFFFFFFFFFFFFFFFFFFFFFFFFFFFFF AND DUP2 MSTORE PUSH1 0x20 ADD DUP5 DUP5 DUP1 DUP1 PUSH1 0x1F ADD PUSH1 0x20 DUP1 SWAP2 DIV MUL PUSH1 0x20 ADD PUSH1 0x40 MLOAD SWAP1 DUP2 ADD PUSH1 0x40 MSTORE DUP1 SWAP4 SWAP3 SWAP2 SWAP1 DUP2 DUP2 MSTORE PUSH1 0x20 ADD DUP4 DUP4 DUP1 DUP3 DUP5 CALLDATACOPY PUSH0 DUP2 DUP5 ADD MSTORE PUSH1 0x1F NOT PUSH1 0x1F DUP3 ADD AND SWAP1 POP DUP1 DUP4 ADD SWAP3 POP POP POP POP POP POP POP DUP2 MSTORE POP SWAP1 POP DUP1 PUSH1 0x7 PUSH0 DUP4 PUSH0 ADD MLOAD DUP2 MSTORE PUSH1 0x20 ADD SWAP1 DUP2 MSTORE PUSH1 0x20 ADD PUSH0 KECCAK256 PUSH0 DUP3 ADD MLOAD DUP2 PUSH0 ADD SSTORE PUSH1 0x20 DUP3 ADD MLOAD DUP2 PUSH1 0x1 ADD SSTORE PUSH1 0x40 DUP3 ADD MLOAD DUP2 PUSH1 0x2 ADD SSTORE PUSH1 0x60 DUP3 ADD MLOAD DUP2 PUSH1 0x3 ADD PUSH0 PUSH2 0x100 EXP DUP2 SLOAD DUP2 PUSH20 0xFFFFFFFFFFFFFFFFFFFFFFFFFFFFFFFFFFFFFFFF MUL NOT AND SWAP1 DUP4 PUSH20 0xFFFFFFFFFFFFFFFFFFFFFFFFFFFFFFFFFFFFFFFF AND MUL OR SWAP1 SSTORE POP PUSH1 0x80 DUP3 ADD MLOAD DUP2 PUSH1 0x4 ADD SWAP1 DUP2 PUSH2 0x111E SWAP2 SWAP1 PUSH2 0x3274 JUMP JUMPDEST POP SWAP1 POP POP PUSH1 0x4 PUSH0 DUP2 SLOAD DUP1 SWAP3 SWAP2 SWAP1 PUSH2 0x1134 SWAP1 PUSH2 0x3343 JUMP JUMPDEST SWAP2 SWAP1 POP SSTORE POP PUSH32 0xF5AD85F81925731C7A6F2AE2DD45266294BE407161786CFAE037498EE92C45F7 DUP2 PUSH0 ADD MLOAD DUP3 PUSH1 0x60 ADD MLOAD PUSH1 0x40 MLOAD PUSH2 0x1171 SWAP3 SWAP2 SWAP1 PUSH2 0x2720 JUMP JUMPDEST PUSH1 0x40 MLOAD DUP1 SWAP2 SUB SWAP1 LOG1 POP POP POP POP POP JUMP JUMPDEST PUSH2 0x1188 PUSH2 0x21EC JUMP JUMPDEST PUSH1 0x9 PUSH0 DUP6 DUP2 MSTORE PUSH1 0x20 ADD SWAP1 DUP2 MSTORE PUSH1 0x20 ADD PUSH0 KECCAK256 PUSH0 SWAP1 SLOAD SWAP1 PUSH2 0x100 EXP SWAP1 DIV PUSH1 0xFF AND ISZERO PUSH2 0x11E8 JUMPI DUP4 PUSH1 0x40 MLOAD PUSH32 0x245EE86500000000000000000000000000000000000000000000000000000000 DUP2 MSTORE PUSH1 0x4 ADD PUSH2 0x11DF SWAP2 SWAP1 PUSH2 0x2560 JUMP JUMPDEST PUSH1 0x40 MLOAD DUP1 SWAP2 SUB SWAP1 REVERT JUMPDEST PUSH2 0x11F1 DUP4 PUSH2 0x2232 JUMP JUMPDEST PUSH0 PUSH1 0x40 MLOAD DUP1 PUSH1 0xA0 ADD PUSH1 0x40 MSTORE DUP1 DUP7 DUP2 MSTORE PUSH1 0x20 ADD DUP6 DUP2 MSTORE PUSH1 0x20 ADD CALLER PUSH20 0xFFFFFFFFFFFFFFFFFFFFFFFFFFFFFFFFFFFFFFFF AND DUP2 MSTORE PUSH1 0x20 ADD DUP5 DUP2 MSTORE PUSH1 0x20 ADD DUP4 DUP2 MSTORE POP SWAP1 POP DUP1 PUSH1 0x8 PUSH0 DUP4 PUSH0 ADD MLOAD DUP2 MSTORE PUSH1 0x20 ADD SWAP1 DUP2 MSTORE PUSH1 0x20 ADD PUSH0 KECCAK256 PUSH0 DUP3 ADD MLOAD DUP2 PUSH0 ADD SSTORE PUSH1 0x20 DUP3 ADD MLOAD DUP2 PUSH1 0x1 ADD SSTORE PUSH1 0x40 DUP3 ADD MLOAD DUP2 PUSH1 0x2 ADD PUSH0 PUSH2 0x100 EXP DUP2 SLOAD DUP2 PUSH20 0xFFFFFFFFFFFFFFFFFFFFFFFFFFFFFFFFFFFFFFFF MUL NOT AND SWAP1 DUP4 PUSH20 0xFFFFFFFFFFFFFFFFFFFFFFFFFFFFFFFFFFFFFFFF AND MUL OR SWAP1 SSTORE POP PUSH1 0x60 DUP3 ADD MLOAD DUP2 PUSH1 0x3 ADD SWAP1 DUP2 PUSH2 0x12B3 SWAP2 SWAP1 PUSH2 0x3274 JUMP JUMPDEST POP PUSH1 0x80 DUP3 ADD MLOAD DUP2 PUSH1 0x4 ADD SSTORE SWAP1 POP POP PUSH1 0x1 PUSH1 0x9 PUSH0 DUP8 DUP2 MSTORE PUSH1 0x20 ADD SWAP1 DUP2 MSTORE PUSH1 0x20 ADD PUSH0 KECCAK256 PUSH0 PUSH2 0x100 EXP DUP2 SLOAD DUP2 PUSH1 0xFF MUL NOT AND SWAP1 DUP4 ISZERO ISZERO MUL OR SWAP1 SSTORE POP PUSH32 0xFB7EFCBF80FEDD7DB194364FC758C3A3979922ABEEB6BCAA16208527EABCBD28 DUP2 PUSH1 0x40 ADD MLOAD DUP3 PUSH0 ADD MLOAD DUP4 PUSH1 0x20 ADD MLOAD PUSH1 0x40 MLOAD PUSH2 0x1328 SWAP4 SWAP3 SWAP2 SWAP1 PUSH2 0x338A JUMP JUMPDEST PUSH1 0x40 MLOAD DUP1 SWAP2 SUB SWAP1 LOG1 POP PUSH2 0x1339 PUSH2 0x22D8 JUMP JUMPDEST POP POP POP POP JUMP JUMPDEST PUSH1 0x5 PUSH1 0x20 MSTORE DUP1 PUSH0 MSTORE PUSH1 0x40 PUSH0 KECCAK256 PUSH0 SWAP2 POP SWAP1 POP DUP1 PUSH0 ADD SLOAD SWAP1 DUP1 PUSH1 0x1 ADD PUSH0 SWAP1 SLOAD SWAP1 PUSH2 0x100 EXP SWAP1 DIV PUSH20 0xFFFFFFFFFFFFFFFFFFFFFFFFFFFFFFFFFFFFFFFF AND SWAP1 DUP1 PUSH1 0x2 ADD DUP1 SLOAD PUSH2 0x1389 SWAP1 PUSH2 0x30A7 JUMP JUMPDEST DUP1 PUSH1 0x1F ADD PUSH1 0x20 DUP1 SWAP2 DIV MUL PUSH1 0x20 ADD PUSH1 0x40 MLOAD SWAP1 DUP2 ADD PUSH1 0x40 MSTORE DUP1 SWAP3 SWAP2 SWAP1 DUP2 DUP2 MSTORE PUSH1 0x20 ADD DUP3 DUP1 SLOAD PUSH2 0x13B5 SWAP1 PUSH2 0x30A7 JUMP JUMPDEST DUP1 ISZERO PUSH2 0x1400 JUMPI DUP1 PUSH1 0x1F LT PUSH2 0x13D7 JUMPI PUSH2 0x100 DUP1 DUP4 SLOAD DIV MUL DUP4 MSTORE SWAP2 PUSH1 0x20 ADD SWAP2 PUSH2 0x1400 JUMP JUMPDEST DUP3 ADD SWAP2 SWAP1 PUSH0 MSTORE PUSH1 0x20 PUSH0 KECCAK256 SWAP1 JUMPDEST DUP2 SLOAD DUP2 MSTORE SWAP1 PUSH1 0x1 ADD SWAP1 PUSH1 0x20 ADD DUP1 DUP4 GT PUSH2 0x13E3 JUMPI DUP3 SWAP1 SUB PUSH1 0x1F AND DUP3 ADD SWAP2 JUMPDEST POP POP POP POP POP SWAP1 DUP1 PUSH1 0x3 ADD SLOAD SWAP1 POP DUP5 JUMP JUMPDEST PUSH2 0x1418 PUSH2 0x20BF JUMP JUMPDEST PUSH2 0x1421 PUSH0 PUSH2 0x22E1 JUMP JUMPDEST JUMP JUMPDEST PUSH2 0x142B PUSH2 0x23F7 JUMP JUMPDEST PUSH2 0x1434 DUP3 PUSH2 0x205D JUMP JUMPDEST PUSH1 0x8 PUSH0 DUP4 DUP2 MSTORE PUSH1 0x20 ADD SWAP1 DUP2 MSTORE PUSH1 0x20 ADD PUSH0 KECCAK256 PUSH1 0x40 MLOAD DUP1 PUSH1 0xA0 ADD PUSH1 0x40 MSTORE SWAP1 DUP2 PUSH0 DUP3 ADD SLOAD DUP2 MSTORE PUSH1 0x20 ADD PUSH1 0x1 DUP3 ADD SLOAD DUP2 MSTORE PUSH1 0x20 ADD PUSH1 0x2 DUP3 ADD PUSH0 SWAP1 SLOAD SWAP1 PUSH2 0x100 EXP SWAP1 DIV PUSH20 0xFFFFFFFFFFFFFFFFFFFFFFFFFFFFFFFFFFFFFFFF AND PUSH20 0xFFFFFFFFFFFFFFFFFFFFFFFFFFFFFFFFFFFFFFFF AND PUSH20 0xFFFFFFFFFFFFFFFFFFFFFFFFFFFFFFFFFFFFFFFF AND DUP2 MSTORE PUSH1 0x20 ADD PUSH1 0x3 DUP3 ADD DUP1 SLOAD PUSH2 0x14C8 SWAP1 PUSH2 0x30A7 JUMP JUMPDEST DUP1 PUSH1 0x1F ADD PUSH1 0x20 DUP1 SWAP2 DIV MUL PUSH1 0x20 ADD PUSH1 0x40 MLOAD SWAP1 DUP2 ADD PUSH1 0x40 MSTORE DUP1 SWAP3 SWAP2 SWAP1 DUP2 DUP2 MSTORE PUSH1 0x20 ADD DUP3 DUP1 SLOAD PUSH2 0x14F4 SWAP1 PUSH2 0x30A7 JUMP JUMPDEST DUP1 ISZERO PUSH2 0x153F JUMPI DUP1 PUSH1 0x1F LT PUSH2 0x1516 JUMPI PUSH2 0x100 DUP1 DUP4 SLOAD DIV MUL DUP4 MSTORE SWAP2 PUSH1 0x20 ADD SWAP2 PUSH2 0x153F JUMP JUMPDEST DUP3 ADD SWAP2 SWAP1 PUSH0 MSTORE PUSH1 0x20 PUSH0 KECCAK256 SWAP1 JUMPDEST DUP2 SLOAD DUP2 MSTORE SWAP1 PUSH1 0x1 ADD SWAP1 PUSH1 0x20 ADD DUP1 DUP4 GT PUSH2 0x1522 JUMPI DUP3 SWAP1 SUB PUSH1 0x1F AND DUP3 ADD SWAP2 JUMPDEST POP POP POP POP POP DUP2 MSTORE PUSH1 0x20 ADD PUSH1 0x4 DUP3 ADD SLOAD DUP2 MSTORE POP POP SWAP1 POP SWAP2 SWAP1 POP JUMP JUMPDEST PUSH0 PUSH2 0x1563 DUP3 PUSH2 0x205D JUMP JUMPDEST PUSH1 0x8 PUSH0 DUP4 DUP2 MSTORE PUSH1 0x20 ADD SWAP1 DUP2 MSTORE PUSH1 0x20 ADD PUSH0 KECCAK256 PUSH1 0x4 ADD SLOAD SWAP1 POP SWAP2 SWAP1 POP JUMP JUMPDEST PUSH0 PUSH2 0x1589 DUP3 PUSH2 0x205D JUMP JUMPDEST PUSH1 0x8 PUSH0 DUP4 DUP2 MSTORE PUSH1 0x20 ADD SWAP1 DUP2 MSTORE PUSH1 0x20 ADD PUSH0 KECCAK256 PUSH1 0x2 ADD PUSH0 SWAP1 SLOAD SWAP1 PUSH2 0x100 EXP SWAP1 DIV PUSH20 0xFFFFFFFFFFFFFFFFFFFFFFFFFFFFFFFFFFFFFFFF AND SWAP1 POP SWAP2 SWAP1 POP JUMP JUMPDEST PUSH1 0x7 PUSH1 0x20 MSTORE DUP1 PUSH0 MSTORE PUSH1 0x40 PUSH0 KECCAK256 PUSH0 SWAP2 POP SWAP1 POP DUP1 PUSH0 ADD SLOAD SWAP1 DUP1 PUSH1 0x1 ADD SLOAD SWAP1 DUP1 PUSH1 0x2 ADD SLOAD SWAP1 DUP1 PUSH1 0x3 ADD PUSH0 SWAP1 SLOAD SWAP1 PUSH2 0x100 EXP SWAP1 DIV PUSH20 0xFFFFFFFFFFFFFFFFFFFFFFFFFFFFFFFFFFFFFFFF AND SWAP1 DUP1 PUSH1 0x4 ADD DUP1 SLOAD PUSH2 0x161A SWAP1 PUSH2 0x30A7 JUMP JUMPDEST DUP1 PUSH1 0x1F ADD PUSH1 0x20 DUP1 SWAP2 DIV MUL PUSH1 0x20 ADD PUSH1 0x40 MLOAD SWAP1 DUP2 ADD PUSH1 0x40 MSTORE DUP1 SWAP3 SWAP2 SWAP1 DUP2 DUP2 MSTORE PUSH1 0x20 ADD DUP3 DUP1 SLOAD PUSH2 0x1646 SWAP1 PUSH2 0x30A7 JUMP JUMPDEST DUP1 ISZERO PUSH2 0x1691 JUMPI DUP1 PUSH1 0x1F LT PUSH2 0x1668 JUMPI PUSH2 0x100 DUP1 DUP4 SLOAD DIV MUL DUP4 MSTORE SWAP2 PUSH1 0x20 ADD SWAP2 PUSH2 0x1691 JUMP JUMPDEST DUP3 ADD SWAP2 SWAP1 PUSH0 MSTORE PUSH1 0x20 PUSH0 KECCAK256 SWAP1 JUMPDEST DUP2 SLOAD DUP2 MSTORE SWAP1 PUSH1 0x1 ADD SWAP1 PUSH1 0x20 ADD DUP1 DUP4 GT PUSH2 0x1674 JUMPI DUP3 SWAP1 SUB PUSH1 0x1F AND DUP3 ADD SWAP2 JUMPDEST POP POP POP POP POP SWAP1 POP DUP6 JUMP JUMPDEST PUSH0 DUP1 PUSH0 SWAP1 SLOAD SWAP1 PUSH2 0x100 EXP SWAP1 DIV PUSH20 0xFFFFFFFFFFFFFFFFFFFFFFFFFFFFFFFFFFFFFFFF AND SWAP1 POP SWAP1 JUMP JUMPDEST PUSH2 0x16CA PUSH2 0x2438 JUMP JUMPDEST PUSH2 0x16D3 DUP3 PUSH2 0x2146 JUMP JUMPDEST PUSH1 0x6 PUSH0 DUP4 DUP2 MSTORE PUSH1 0x20 ADD SWAP1 DUP2 MSTORE PUSH1 0x20 ADD PUSH0 KECCAK256 PUSH1 0x40 MLOAD DUP1 PUSH1 0x40 ADD PUSH1 0x40 MSTORE SWAP1 DUP2 PUSH0 DUP3 ADD SLOAD DUP2 MSTORE PUSH1 0x20 ADD PUSH1 0x1 DUP3 ADD PUSH0 SWAP1 SLOAD SWAP1 PUSH2 0x100 EXP SWAP1 DIV PUSH20 0xFFFFFFFFFFFFFFFFFFFFFFFFFFFFFFFFFFFFFFFF AND PUSH20 0xFFFFFFFFFFFFFFFFFFFFFFFFFFFFFFFFFFFFFFFF AND PUSH20 0xFFFFFFFFFFFFFFFFFFFFFFFFFFFFFFFFFFFFFFFF AND DUP2 MSTORE POP POP SWAP1 POP SWAP2 SWAP1 POP JUMP JUMPDEST DUP2 PUSH0 PUSH1 0x7 PUSH0 DUP4 DUP2 MSTORE PUSH1 0x20 ADD SWAP1 DUP2 MSTORE PUSH1 0x20 ADD PUSH0 KECCAK256 PUSH1 0x3 ADD PUSH0 SWAP1 SLOAD SWAP1 PUSH2 0x100 EXP SWAP1 DIV PUSH20 0xFFFFFFFFFFFFFFFFFFFFFFFFFFFFFFFFFFFFFFFF AND SWAP1 POP DUP1 PUSH20 0xFFFFFFFFFFFFFFFFFFFFFFFFFFFFFFFFFFFFFFFF AND CALLER PUSH20 0xFFFFFFFFFFFFFFFFFFFFFFFFFFFFFFFFFFFFFFFF AND EQ PUSH2 0x17FE JUMPI CALLER DUP2 PUSH1 0x40 MLOAD PUSH32 0x300A9D3600000000000000000000000000000000000000000000000000000000 DUP2 MSTORE PUSH1 0x4 ADD PUSH2 0x17F5 SWAP3 SWAP2 SWAP1 PUSH2 0x2EB0 JUMP JUMPDEST PUSH1 0x40 MLOAD DUP1 SWAP2 SUB SWAP1 REVERT JUMPDEST PUSH2 0x1807 DUP5 PUSH2 0x2232 JUMP JUMPDEST DUP3 PUSH1 0x7 PUSH0 DUP7 DUP2 MSTORE PUSH1 0x20 ADD SWAP1 DUP2 MSTORE PUSH1 0x20 ADD PUSH0 KECCAK256 PUSH1 0x4 ADD SWAP1 DUP2 PUSH2 0x1828 SWAP2 SWAP1 PUSH2 0x3274 JUMP JUMPDEST POP PUSH32 0xACC80894202BFAC14A7689E988209F2418A9109EF9AE8176C74D9BE0442B509B DUP5 DUP5 PUSH1 0x40 MLOAD PUSH2 0x185A SWAP3 SWAP2 SWAP1 PUSH2 0x33BF JUMP JUMPDEST PUSH1 0x40 MLOAD DUP1 SWAP2 SUB SWAP1 LOG1 POP POP POP POP JUMP JUMPDEST PUSH1 0x9 PUSH1 0x20 MSTORE DUP1 PUSH0 MSTORE PUSH1 0x40 PUSH0 KECCAK256 PUSH0 SWAP2 POP SLOAD SWAP1 PUSH2 0x100 EXP SWAP1 DIV PUSH1 0xFF AND DUP2 JUMP JUMPDEST PUSH0 PUSH2 0x188F DUP3 PUSH2 0x205D JUMP JUMPDEST PUSH1 0x8 PUSH0 DUP4 DUP2 MSTORE PUSH1 0x20 ADD SWAP1 DUP2 MSTORE PUSH1 0x20 ADD PUSH0 KECCAK256 PUSH1 0x1 ADD SLOAD SWAP1 POP SWAP2 SWAP1 POP JUMP JUMPDEST PUSH2 0x18B4 DUP2 PUSH2 0x205D JUMP JUMPDEST PUSH32 0xF842E7C80A277F2DD0A984A3AA292DB9541A9E3D5B14A0F8BBE7AAE82640DC5 DUP2 CALLER PUSH1 0x40 MLOAD PUSH2 0x18E5 SWAP3 SWAP2 SWAP1 PUSH2 0x2720 JUMP JUMPDEST PUSH1 0x40 MLOAD DUP1 SWAP2 SUB SWAP1 LOG1 POP JUMP JUMPDEST PUSH0 PUSH2 0x18FA DUP3 PUSH2 0x2146 JUMP JUMPDEST PUSH1 0x6 PUSH0 DUP4 DUP2 MSTORE PUSH1 0x20 ADD SWAP1 DUP2 MSTORE PUSH1 0x20 ADD PUSH0 KECCAK256 PUSH1 0x1 ADD PUSH0 SWAP1 SLOAD SWAP1 PUSH2 0x100 EXP SWAP1 DIV PUSH20 0xFFFFFFFFFFFFFFFFFFFFFFFFFFFFFFFFFFFFFFFF AND SWAP1 POP SWAP2 SWAP1 POP JUMP JUMPDEST PUSH2 0x193D PUSH2 0x2466 JUMP JUMPDEST PUSH2 0x1946 DUP3 PUSH2 0x2232 JUMP JUMPDEST PUSH1 0x7 PUSH0 DUP4 DUP2 MSTORE PUSH1 0x20 ADD SWAP1 DUP2 MSTORE PUSH1 0x20 ADD PUSH0 KECCAK256 PUSH1 0x40 MLOAD DUP1 PUSH1 0xA0 ADD PUSH1 0x40 MSTORE SWAP1 DUP2 PUSH0 DUP3 ADD SLOAD DUP2 MSTORE PUSH1 0x20 ADD PUSH1 0x1 DUP3 ADD SLOAD DUP2 MSTORE PUSH1 0x20 ADD PUSH1 0x2 DUP3 ADD SLOAD DUP2 MSTORE PUSH1 0x20 ADD PUSH1 0x3 DUP3 ADD PUSH0 SWAP1 SLOAD SWAP1 PUSH2 0x100 EXP SWAP1 DIV PUSH20 0xFFFFFFFFFFFFFFFFFFFFFFFFFFFFFFFFFFFFFFFF AND PUSH20 0xFFFFFFFFFFFFFFFFFFFFFFFFFFFFFFFFFFFFFFFF AND PUSH20 0xFFFFFFFFFFFFFFFFFFFFFFFFFFFFFFFFFFFFFFFF AND DUP2 MSTORE PUSH1 0x20 ADD PUSH1 0x4 DUP3 ADD DUP1 SLOAD PUSH2 0x19E4 SWAP1 PUSH2 0x30A7 JUMP JUMPDEST DUP1 PUSH1 0x1F ADD PUSH1 0x20 DUP1 SWAP2 DIV MUL PUSH1 0x20 ADD PUSH1 0x40 MLOAD SWAP1 DUP2 ADD PUSH1 0x40 MSTORE DUP1 SWAP3 SWAP2 SWAP1 DUP2 DUP2 MSTORE PUSH1 0x20 ADD DUP3 DUP1 SLOAD PUSH2 0x1A10 SWAP1 PUSH2 0x30A7 JUMP JUMPDEST DUP1 ISZERO PUSH2 0x1A5B JUMPI DUP1 PUSH1 0x1F LT PUSH2 0x1A32 JUMPI PUSH2 0x100 DUP1 DUP4 SLOAD DIV MUL DUP4 MSTORE SWAP2 PUSH1 0x20 ADD SWAP2 PUSH2 0x1A5B JUMP JUMPDEST DUP3 ADD SWAP2 SWAP1 PUSH0 MSTORE PUSH1 0x20 PUSH0 KECCAK256 SWAP1 JUMPDEST DUP2 SLOAD DUP2 MSTORE SWAP1 PUSH1 0x1 ADD SWAP1 PUSH1 0x20 ADD DUP1 DUP4 GT PUSH2 0x1A3E JUMPI DUP3 SWAP1 SUB PUSH1 0x1F AND DUP3 ADD SWAP2 JUMPDEST POP POP POP POP POP DUP2 MSTORE POP POP SWAP1 POP SWAP2 SWAP1 POP JUMP JUMPDEST PUSH2 0x1A73 PUSH2 0x24A7 JUMP JUMPDEST PUSH2 0x1A7C DUP3 PUSH2 0x1D5A JUMP JUMPDEST PUSH1 0x5 PUSH0 DUP4 DUP2 MSTORE PUSH1 0x20 ADD SWAP1 DUP2 MSTORE PUSH1 0x20 ADD PUSH0 KECCAK256 PUSH1 0x40 MLOAD DUP1 PUSH1 0x80 ADD PUSH1 0x40 MSTORE SWAP1 DUP2 PUSH0 DUP3 ADD SLOAD DUP2 MSTORE PUSH1 0x20 ADD PUSH1 0x1 DUP3 ADD PUSH0 SWAP1 SLOAD SWAP1 PUSH2 0x100 EXP SWAP1 DIV PUSH20 0xFFFFFFFFFFFFFFFFFFFFFFFFFFFFFFFFFFFFFFFF AND PUSH20 0xFFFFFFFFFFFFFFFFFFFFFFFFFFFFFFFFFFFFFFFF AND PUSH20 0xFFFFFFFFFFFFFFFFFFFFFFFFFFFFFFFFFFFFFFFF AND DUP2 MSTORE PUSH1 0x20 ADD PUSH1 0x2 DUP3 ADD DUP1 SLOAD PUSH2 0x1B06 SWAP1 PUSH2 0x30A7 JUMP JUMPDEST DUP1 PUSH1 0x1F ADD PUSH1 0x20 DUP1 SWAP2 DIV MUL PUSH1 0x20 ADD PUSH1 0x40 MLOAD SWAP1 DUP2 ADD PUSH1 0x40 MSTORE DUP1 SWAP3 SWAP2 SWAP1 DUP2 DUP2 MSTORE PUSH1 0x20 ADD DUP3 DUP1 SLOAD PUSH2 0x1B32 SWAP1 PUSH2 0x30A7 JUMP JUMPDEST DUP1 ISZERO PUSH2 0x1B7D JUMPI DUP1 PUSH1 0x1F LT PUSH2 0x1B54 JUMPI PUSH2 0x100 DUP1 DUP4 SLOAD DIV MUL DUP4 MSTORE SWAP2 PUSH1 0x20 ADD SWAP2 PUSH2 0x1B7D JUMP JUMPDEST DUP3 ADD SWAP2 SWAP1 PUSH0 MSTORE PUSH1 0x20 PUSH0 KECCAK256 SWAP1 JUMPDEST DUP2 SLOAD DUP2 MSTORE SWAP1 PUSH1 0x1 ADD SWAP1 PUSH1 0x20 ADD DUP1 DUP4 GT PUSH2 0x1B60 JUMPI DUP3 SWAP1 SUB PUSH1 0x1F AND DUP3 ADD SWAP2 JUMPDEST POP POP POP POP POP DUP2 MSTORE PUSH1 0x20 ADD PUSH1 0x3 DUP3 ADD SLOAD DUP2 MSTORE POP POP SWAP1 POP SWAP2 SWAP1 POP JUMP JUMPDEST PUSH1 0x8 PUSH1 0x20 MSTORE DUP1 PUSH0 MSTORE PUSH1 0x40 PUSH0 KECCAK256 PUSH0 SWAP2 POP SWAP1 POP DUP1 PUSH0 ADD SLOAD SWAP1 DUP1 PUSH1 0x1 ADD SLOAD SWAP1 DUP1 PUSH1 0x2 ADD PUSH0 SWAP1 SLOAD SWAP1 PUSH2 0x100 EXP SWAP1 DIV PUSH20 0xFFFFFFFFFFFFFFFFFFFFFFFFFFFFFFFFFFFFFFFF AND SWAP1 DUP1 PUSH1 0x3 ADD DUP1 SLOAD PUSH2 0x1BE7 SWAP1 PUSH2 0x30A7 JUMP JUMPDEST DUP1 PUSH1 0x1F ADD PUSH1 0x20 DUP1 SWAP2 DIV MUL PUSH1 0x20 ADD PUSH1 0x40 MLOAD SWAP1 DUP2 ADD PUSH1 0x40 MSTORE DUP1 SWAP3 SWAP2 SWAP1 DUP2 DUP2 MSTORE PUSH1 0x20 ADD DUP3 DUP1 SLOAD PUSH2 0x1C13 SWAP1 PUSH2 0x30A7 JUMP JUMPDEST DUP1 ISZERO PUSH2 0x1C5E JUMPI DUP1 PUSH1 0x1F LT PUSH2 0x1C35 JUMPI PUSH2 0x100 DUP1 DUP4 SLOAD DIV MUL DUP4 MSTORE SWAP2 PUSH1 0x20 ADD SWAP2 PUSH2 0x1C5E JUMP JUMPDEST DUP3 ADD SWAP2 SWAP1 PUSH0 MSTORE PUSH1 0x20 PUSH0 KECCAK256 SWAP1 JUMPDEST DUP2 SLOAD DUP2 MSTORE SWAP1 PUSH1 0x1 ADD SWAP1 PUSH1 0x20 ADD DUP1 DUP4 GT PUSH2 0x1C41 JUMPI DUP3 SWAP1 SUB PUSH1 0x1F AND DUP3 ADD SWAP2 JUMPDEST POP POP POP POP POP SWAP1 DUP1 PUSH1 0x4 ADD SLOAD SWAP1 POP DUP6 JUMP JUMPDEST PUSH2 0x1C76 PUSH2 0x20BF JUMP JUMPDEST PUSH0 PUSH20 0xFFFFFFFFFFFFFFFFFFFFFFFFFFFFFFFFFFFFFFFF AND DUP2 PUSH20 0xFFFFFFFFFFFFFFFFFFFFFFFFFFFFFFFFFFFFFFFF AND SUB PUSH2 0x1CE6 JUMPI PUSH0 PUSH1 0x40 MLOAD PUSH32 0x1E4FBDF700000000000000000000000000000000000000000000000000000000 DUP2 MSTORE PUSH1 0x4 ADD PUSH2 0x1CDD SWAP2 SWAP1 PUSH2 0x25F6 JUMP JUMPDEST PUSH1 0x40 MLOAD DUP1 SWAP2 SUB SWAP1 REVERT JUMPDEST PUSH2 0x1CEF DUP2 PUSH2 0x22E1 JUMP JUMPDEST POP JUMP JUMPDEST PUSH0 DUP1 PUSH20 0xFFFFFFFFFFFFFFFFFFFFFFFFFFFFFFFFFFFFFFFF AND PUSH1 0xB PUSH0 DUP5 DUP2 MSTORE PUSH1 0x20 ADD SWAP1 DUP2 MSTORE PUSH1 0x20 ADD PUSH0 KECCAK256 PUSH0 SWAP1 SLOAD SWAP1 PUSH2 0x100 EXP SWAP1 DIV PUSH20 0xFFFFFFFFFFFFFFFFFFFFFFFFFFFFFFFFFFFFFFFF AND PUSH20 0xFFFFFFFFFFFFFFFFFFFFFFFFFFFFFFFFFFFFFFFF AND EQ ISZERO SWAP1 POP SWAP2 SWAP1 POP JUMP JUMPDEST PUSH0 PUSH20 0xFFFFFFFFFFFFFFFFFFFFFFFFFFFFFFFFFFFFFFFF AND PUSH1 0x5 PUSH0 DUP4 DUP2 MSTORE PUSH1 0x20 ADD SWAP1 DUP2 MSTORE PUSH1 0x20 ADD PUSH0 KECCAK256 PUSH1 0x1 ADD PUSH0 SWAP1 SLOAD SWAP1 PUSH2 0x100 EXP SWAP1 DIV PUSH20 0xFFFFFFFFFFFFFFFFFFFFFFFFFFFFFFFFFFFFFFFF AND PUSH20 0xFFFFFFFFFFFFFFFFFFFFFFFFFFFFFFFFFFFFFFFF AND SUB PUSH2 0x1DFD JUMPI DUP1 PUSH1 0x40 MLOAD PUSH32 0xCCCE6AC700000000000000000000000000000000000000000000000000000000 DUP2 MSTORE PUSH1 0x4 ADD PUSH2 0x1DF4 SWAP2 SWAP1 PUSH2 0x2560 JUMP JUMPDEST PUSH1 0x40 MLOAD DUP1 SWAP2 SUB SWAP1 REVERT JUMPDEST POP JUMP JUMPDEST PUSH0 PUSH1 0x64 SWAP1 POP DUP3 MLOAD DUP5 MLOAD EQ DUP1 ISZERO PUSH2 0x1E17 JUMPI POP DUP2 MLOAD DUP5 MLOAD EQ JUMPDEST ISZERO PUSH2 0x1E60 JUMPI DUP4 MLOAD DUP4 MLOAD DUP4 MLOAD PUSH1 0x40 MLOAD PUSH32 0x6EF54BAB00000000000000000000000000000000000000000000000000000000 DUP2 MSTORE PUSH1 0x4 ADD PUSH2 0x1E57 SWAP4 SWAP3 SWAP2 SWAP1 PUSH2 0x33ED JUMP JUMPDEST PUSH1 0x40 MLOAD DUP1 SWAP2 SUB SWAP1 REVERT JUMPDEST DUP1 DUP5 MLOAD GT ISZERO PUSH2 0x1EA9 JUMPI DUP4 MLOAD DUP2 PUSH1 0x40 MLOAD PUSH32 0x1CB8E63D00000000000000000000000000000000000000000000000000000000 DUP2 MSTORE PUSH1 0x4 ADD PUSH2 0x1EA0 SWAP3 SWAP2 SWAP1 PUSH2 0x2ED7 JUMP JUMPDEST PUSH1 0x40 MLOAD DUP1 SWAP2 SUB SWAP1 REVERT JUMPDEST POP POP POP POP JUMP JUMPDEST PUSH0 PUSH2 0x1EB9 DUP4 PUSH2 0x1559 JUMP JUMPDEST SWAP1 POP PUSH0 PUSH2 0x1EC5 DUP5 PUSH2 0x157F JUMP JUMPDEST SWAP1 POP PUSH0 PUSH2 0x1ED1 DUP6 PUSH2 0x1885 JUMP JUMPDEST SWAP1 POP PUSH0 PUSH2 0x1EDD DUP3 PUSH2 0x887 JUMP JUMPDEST SWAP1 POP PUSH0 PUSH2 0x1EE9 DUP4 PUSH2 0xB4B JUMP JUMPDEST SWAP1 POP PUSH0 PUSH2 0x1EF5 DUP4 PUSH2 0x18F0 JUMP JUMPDEST SWAP1 POP PUSH0 PUSH2 0x1F01 DUP4 PUSH2 0xFB8 JUMP JUMPDEST SWAP1 POP PUSH0 DUP1 PUSH2 0x1F0F DUP11 DUP5 PUSH2 0x23A2 JUMP JUMPDEST SWAP2 POP SWAP2 POP DUP2 PUSH2 0x1F55 JUMPI DUP12 PUSH1 0x40 MLOAD PUSH32 0xDBF0D2AD00000000000000000000000000000000000000000000000000000000 DUP2 MSTORE PUSH1 0x4 ADD PUSH2 0x1F4C SWAP2 SWAP1 PUSH2 0x2560 JUMP JUMPDEST PUSH1 0x40 MLOAD DUP1 SWAP2 SUB SWAP1 REVERT JUMPDEST PUSH0 DUP1 PUSH2 0x1F61 DUP13 DUP13 PUSH2 0x23A2 JUMP JUMPDEST SWAP2 POP SWAP2 POP DUP2 PUSH2 0x1FA7 JUMPI DUP14 PUSH1 0x40 MLOAD PUSH32 0xDBF0D2AD00000000000000000000000000000000000000000000000000000000 DUP2 MSTORE PUSH1 0x4 ADD PUSH2 0x1F9E SWAP2 SWAP1 PUSH2 0x2560 JUMP JUMPDEST PUSH1 0x40 MLOAD DUP1 SWAP2 SUB SWAP1 REVERT JUMPDEST DUP3 PUSH1 0xC PUSH0 DUP9 PUSH20 0xFFFFFFFFFFFFFFFFFFFFFFFFFFFFFFFFFFFFFFFF AND PUSH20 0xFFFFFFFFFFFFFFFFFFFFFFFFFFFFFFFFFFFFFFFF AND DUP2 MSTORE PUSH1 0x20 ADD SWAP1 DUP2 MSTORE PUSH1 0x20 ADD PUSH0 KECCAK256 PUSH0 DUP3 DUP3 SLOAD PUSH2 0x1FF3 SWAP2 SWAP1 PUSH2 0x3020 JUMP JUMPDEST SWAP3 POP POP DUP2 SWAP1 SSTORE POP DUP1 PUSH1 0xC PUSH0 DUP13 PUSH20 0xFFFFFFFFFFFFFFFFFFFFFFFFFFFFFFFFFFFFFFFF AND PUSH20 0xFFFFFFFFFFFFFFFFFFFFFFFFFFFFFFFFFFFFFFFF AND DUP2 MSTORE PUSH1 0x20 ADD SWAP1 DUP2 MSTORE PUSH1 0x20 ADD PUSH0 KECCAK256 PUSH0 DUP3 DUP3 SLOAD PUSH2 0x2046 SWAP2 SWAP1 PUSH2 0x3020 JUMP JUMPDEST SWAP3 POP POP DUP2 SWAP1 SSTORE POP POP POP POP POP POP POP POP POP POP POP POP POP POP POP JUMP JUMPDEST PUSH1 0x9 PUSH0 DUP3 DUP2 MSTORE PUSH1 0x20 ADD SWAP1 DUP2 MSTORE PUSH1 0x20 ADD PUSH0 KECCAK256 PUSH0 SWAP1 SLOAD SWAP1 PUSH2 0x100 EXP SWAP1 DIV PUSH1 0xFF AND PUSH2 0x20BC JUMPI DUP1 PUSH1 0x40 MLOAD PUSH32 0x5CDD66A000000000000000000000000000000000000000000000000000000000 DUP2 MSTORE PUSH1 0x4 ADD PUSH2 0x20B3 SWAP2 SWAP1 PUSH2 0x2560 JUMP JUMPDEST PUSH1 0x40 MLOAD DUP1 SWAP2 SUB SWAP1 REVERT JUMPDEST POP JUMP JUMPDEST PUSH2 0x20C7 PUSH2 0x23F0 JUMP JUMPDEST PUSH20 0xFFFFFFFFFFFFFFFFFFFFFFFFFFFFFFFFFFFFFFFF AND PUSH2 0x20E5 PUSH2 0x169B JUMP JUMPDEST PUSH20 0xFFFFFFFFFFFFFFFFFFFFFFFFFFFFFFFFFFFFFFFF AND EQ PUSH2 0x2144 JUMPI PUSH2 0x2108 PUSH2 0x23F0 JUMP JUMPDEST PUSH1 0x40 MLOAD PUSH32 0x118CDAA700000000000000000000000000000000000000000000000000000000 DUP2 MSTORE PUSH1 0x4 ADD PUSH2 0x213B SWAP2 SWAP1 PUSH2 0x25F6 JUMP JUMPDEST PUSH1 0x40 MLOAD DUP1 SWAP2 SUB SWAP1 REVERT JUMPDEST JUMP JUMPDEST PUSH0 PUSH20 0xFFFFFFFFFFFFFFFFFFFFFFFFFFFFFFFFFFFFFFFF AND PUSH1 0x6 PUSH0 DUP4 DUP2 MSTORE PUSH1 0x20 ADD SWAP1 DUP2 MSTORE PUSH1 0x20 ADD PUSH0 KECCAK256 PUSH1 0x1 ADD PUSH0 SWAP1 SLOAD SWAP1 PUSH2 0x100 EXP SWAP1 DIV PUSH20 0xFFFFFFFFFFFFFFFFFFFFFFFFFFFFFFFFFFFFFFFF AND PUSH20 0xFFFFFFFFFFFFFFFFFFFFFFFFFFFFFFFFFFFFFFFF AND SUB PUSH2 0x21E9 JUMPI DUP1 PUSH1 0x40 MLOAD PUSH32 0xF9599FBC00000000000000000000000000000000000000000000000000000000 DUP2 MSTORE PUSH1 0x4 ADD PUSH2 0x21E0 SWAP2 SWAP1 PUSH2 0x2560 JUMP JUMPDEST PUSH1 0x40 MLOAD DUP1 SWAP2 SUB SWAP1 REVERT JUMPDEST POP JUMP JUMPDEST PUSH1 0x2 PUSH1 0x1 SLOAD SUB PUSH2 0x2228 JUMPI PUSH1 0x40 MLOAD PUSH32 0x3EE5AEB500000000000000000000000000000000000000000000000000000000 DUP2 MSTORE PUSH1 0x4 ADD PUSH1 0x40 MLOAD DUP1 SWAP2 SUB SWAP1 REVERT JUMPDEST PUSH1 0x2 PUSH1 0x1 DUP2 SWAP1 SSTORE POP JUMP JUMPDEST PUSH0 PUSH20 0xFFFFFFFFFFFFFFFFFFFFFFFFFFFFFFFFFFFFFFFF AND PUSH1 0x7 PUSH0 DUP4 DUP2 MSTORE PUSH1 0x20 ADD SWAP1 DUP2 MSTORE PUSH1 0x20 ADD PUSH0 KECCAK256 PUSH1 0x3 ADD PUSH0 SWAP1 SLOAD SWAP1 PUSH2 0x100 EXP SWAP1 DIV PUSH20 0xFFFFFFFFFFFFFFFFFFFFFFFFFFFFFFFFFFFFFFFF AND PUSH20 0xFFFFFFFFFFFFFFFFFFFFFFFFFFFFFFFFFFFFFFFF AND SUB PUSH2 0x22D5 JUMPI DUP1 PUSH1 0x40 MLOAD PUSH32 0x13B33EA400000000000000000000000000000000000000000000000000000000 DUP2 MSTORE PUSH1 0x4 ADD PUSH2 0x22CC SWAP2 SWAP1 PUSH2 0x2560 JUMP JUMPDEST PUSH1 0x40 MLOAD DUP1 SWAP2 SUB SWAP1 REVERT JUMPDEST POP JUMP JUMPDEST PUSH1 0x1 DUP1 DUP2 SWAP1 SSTORE POP JUMP JUMPDEST PUSH0 DUP1 PUSH0 SWAP1 SLOAD SWAP1 PUSH2 0x100 EXP SWAP1 DIV PUSH20 0xFFFFFFFFFFFFFFFFFFFFFFFFFFFFFFFFFFFFFFFF AND SWAP1 POP DUP2 PUSH0 DUP1 PUSH2 0x100 EXP DUP2 SLOAD DUP2 PUSH20 0xFFFFFFFFFFFFFFFFFFFFFFFFFFFFFFFFFFFFFFFF MUL NOT AND SWAP1 DUP4 PUSH20 0xFFFFFFFFFFFFFFFFFFFFFFFFFFFFFFFFFFFFFFFF AND MUL OR SWAP1 SSTORE POP DUP2 PUSH20 0xFFFFFFFFFFFFFFFFFFFFFFFFFFFFFFFFFFFFFFFF AND DUP2 PUSH20 0xFFFFFFFFFFFFFFFFFFFFFFFFFFFFFFFFFFFFFFFF AND PUSH32 0x8BE0079C531659141344CD1FD0A4F28419497F9722A3DAAFE3B4186F6B6457E0 PUSH1 0x40 MLOAD PUSH1 0x40 MLOAD DUP1 SWAP2 SUB SWAP1 LOG3 POP POP JUMP JUMPDEST PUSH0 DUP1 PUSH0 DUP5 SUB PUSH2 0x23B7 JUMPI PUSH1 0x1 PUSH0 SWAP2 POP SWAP2 POP PUSH2 0x23E9 JUMP JUMPDEST PUSH0 DUP4 DUP6 MUL SWAP1 POP DUP4 DUP6 DUP3 DUP2 PUSH2 0x23CE JUMPI PUSH2 0x23CD PUSH2 0x3422 JUMP JUMPDEST JUMPDEST DIV EQ PUSH2 0x23E0 JUMPI PUSH0 DUP1 SWAP3 POP SWAP3 POP POP PUSH2 0x23E9 JUMP JUMPDEST PUSH1 0x1 DUP2 SWAP3 POP SWAP3 POP POP JUMPDEST SWAP3 POP SWAP3 SWAP1 POP JUMP JUMPDEST PUSH0 CALLER SWAP1 POP SWAP1 JUMP JUMPDEST PUSH1 0x40 MLOAD DUP1 PUSH1 0xA0 ADD PUSH1 0x40 MSTORE DUP1 PUSH0 DUP2 MSTORE PUSH1 0x20 ADD PUSH0 DUP2 MSTORE PUSH1 0x20 ADD PUSH0 PUSH20 0xFFFFFFFFFFFFFFFFFFFFFFFFFFFFFFFFFFFFFFFF AND DUP2 MSTORE PUSH1 0x20 ADD PUSH1 0x60 DUP2 MSTORE PUSH1 0x20 ADD PUSH0 DUP2 MSTORE POP SWAP1 JUMP JUMPDEST PUSH1 0x40 MLOAD DUP1 PUSH1 0x40 ADD PUSH1 0x40 MSTORE DUP1 PUSH0 DUP2 MSTORE PUSH1 0x20 ADD PUSH0 PUSH20 0xFFFFFFFFFFFFFFFFFFFFFFFFFFFFFFFFFFFFFFFF AND DUP2 MSTORE POP SWAP1 JUMP JUMPDEST PUSH1 0x40 MLOAD DUP1 PUSH1 0xA0 ADD PUSH1 0x40 MSTORE DUP1 PUSH0 DUP2 MSTORE PUSH1 0x20 ADD PUSH0 DUP2 MSTORE PUSH1 0x20 ADD PUSH0 DUP2 MSTORE PUSH1 0x20 ADD PUSH0 PUSH20 0xFFFFFFFFFFFFFFFFFFFFFFFFFFFFFFFFFFFFFFFF AND DUP2 MSTORE PUSH1 0x20 ADD PUSH1 0x60 DUP2 MSTORE POP SWAP1 JUMP JUMPDEST PUSH1 0x40 MLOAD DUP1 PUSH1 0x80 ADD PUSH1 0x40 MSTORE DUP1 PUSH0 DUP2 MSTORE PUSH1 0x20 ADD PUSH0 PUSH20 0xFFFFFFFFFFFFFFFFFFFFFFFFFFFFFFFFFFFFFFFF AND DUP2 MSTORE PUSH1 0x20 ADD PUSH1 0x60 DUP2 MSTORE PUSH1 0x20 ADD PUSH0 DUP2 MSTORE POP SWAP1 JUMP JUMPDEST PUSH0 PUSH1 0x40 MLOAD SWAP1 POP SWAP1 JUMP JUMPDEST PUSH0 DUP1 REVERT JUMPDEST PUSH0 DUP1 REVERT JUMPDEST PUSH0 DUP2 SWAP1 POP SWAP2 SWAP1 POP JUMP JUMPDEST PUSH2 0x2505 DUP2 PUSH2 0x24F3 JUMP JUMPDEST DUP2 EQ PUSH2 0x250F JUMPI PUSH0 DUP1 REVERT JUMPDEST POP JUMP JUMPDEST PUSH0 DUP2 CALLDATALOAD SWAP1 POP PUSH2 0x2520 DUP2 PUSH2 0x24FC JUMP JUMPDEST SWAP3 SWAP2 POP POP JUMP JUMPDEST PUSH0 PUSH1 0x20 DUP3 DUP5 SUB SLT ISZERO PUSH2 0x253B JUMPI PUSH2 0x253A PUSH2 0x24EB JUMP JUMPDEST JUMPDEST PUSH0 PUSH2 0x2548 DUP5 DUP3 DUP6 ADD PUSH2 0x2512 JUMP JUMPDEST SWAP2 POP POP SWAP3 SWAP2 POP POP JUMP JUMPDEST PUSH2 0x255A DUP2 PUSH2 0x24F3 JUMP JUMPDEST DUP3 MSTORE POP POP JUMP JUMPDEST PUSH0 PUSH1 0x20 DUP3 ADD SWAP1 POP PUSH2 0x2573 PUSH0 DUP4 ADD DUP5 PUSH2 0x2551 JUMP JUMPDEST SWAP3 SWAP2 POP POP JUMP JUMPDEST PUSH0 DUP1 PUSH1 0x40 DUP4 DUP6 SUB SLT ISZERO PUSH2 0x258F JUMPI PUSH2 0x258E PUSH2 0x24EB JUMP JUMPDEST JUMPDEST PUSH0 PUSH2 0x259C DUP6 DUP3 DUP7 ADD PUSH2 0x2512 JUMP JUMPDEST SWAP3 POP POP PUSH1 0x20 PUSH2 0x25AD DUP6 DUP3 DUP7 ADD PUSH2 0x2512 JUMP JUMPDEST SWAP2 POP POP SWAP3 POP SWAP3 SWAP1 POP JUMP JUMPDEST PUSH0 PUSH20 0xFFFFFFFFFFFFFFFFFFFFFFFFFFFFFFFFFFFFFFFF DUP3 AND SWAP1 POP SWAP2 SWAP1 POP JUMP JUMPDEST PUSH0 PUSH2 0x25E0 DUP3 PUSH2 0x25B7 JUMP JUMPDEST SWAP1 POP SWAP2 SWAP1 POP JUMP JUMPDEST PUSH2 0x25F0 DUP2 PUSH2 0x25D6 JUMP JUMPDEST DUP3 MSTORE POP POP JUMP JUMPDEST PUSH0 PUSH1 0x20 DUP3 ADD SWAP1 POP PUSH2 0x2609 PUSH0 DUP4 ADD DUP5 PUSH2 0x25E7 JUMP JUMPDEST SWAP3 SWAP2 POP POP JUMP JUMPDEST PUSH0 DUP1 REVERT JUMPDEST PUSH0 DUP1 REVERT JUMPDEST PUSH0 DUP1 REVERT JUMPDEST PUSH0 DUP1 DUP4 PUSH1 0x1F DUP5 ADD SLT PUSH2 0x2630 JUMPI PUSH2 0x262F PUSH2 0x260F JUMP JUMPDEST JUMPDEST DUP3 CALLDATALOAD SWAP1 POP PUSH8 0xFFFFFFFFFFFFFFFF DUP2 GT ISZERO PUSH2 0x264D JUMPI PUSH2 0x264C PUSH2 0x2613 JUMP JUMPDEST JUMPDEST PUSH1 0x20 DUP4 ADD SWAP2 POP DUP4 PUSH1 0x20 DUP3 MUL DUP4 ADD GT ISZERO PUSH2 0x2669 JUMPI PUSH2 0x2668 PUSH2 0x2617 JUMP JUMPDEST JUMPDEST SWAP3 POP SWAP3 SWAP1 POP JUMP JUMPDEST PUSH0 DUP1 PUSH0 DUP1 PUSH0 DUP1 PUSH1 0x60 DUP8 DUP10 SUB SLT ISZERO PUSH2 0x268A JUMPI PUSH2 0x2689 PUSH2 0x24EB JUMP JUMPDEST JUMPDEST PUSH0 DUP8 ADD CALLDATALOAD PUSH8 0xFFFFFFFFFFFFFFFF DUP2 GT ISZERO PUSH2 0x26A7 JUMPI PUSH2 0x26A6 PUSH2 0x24EF JUMP JUMPDEST JUMPDEST PUSH2 0x26B3 DUP10 DUP3 DUP11 ADD PUSH2 0x261B JUMP JUMPDEST SWAP7 POP SWAP7 POP POP PUSH1 0x20 DUP8 ADD CALLDATALOAD PUSH8 0xFFFFFFFFFFFFFFFF DUP2 GT ISZERO PUSH2 0x26D6 JUMPI PUSH2 0x26D5 PUSH2 0x24EF JUMP JUMPDEST JUMPDEST PUSH2 0x26E2 DUP10 DUP3 DUP11 ADD PUSH2 0x261B JUMP JUMPDEST SWAP5 POP SWAP5 POP POP PUSH1 0x40 DUP8 ADD CALLDATALOAD PUSH8 0xFFFFFFFFFFFFFFFF DUP2 GT ISZERO PUSH2 0x2705 JUMPI PUSH2 0x2704 PUSH2 0x24EF JUMP JUMPDEST JUMPDEST PUSH2 0x2711 DUP10 DUP3 DUP11 ADD PUSH2 0x261B JUMP JUMPDEST SWAP3 POP SWAP3 POP POP SWAP3 SWAP6 POP SWAP3 SWAP6 POP SWAP3 SWAP6 JUMP JUMPDEST PUSH0 PUSH1 0x40 DUP3 ADD SWAP1 POP PUSH2 0x2733 PUSH0 DUP4 ADD DUP6 PUSH2 0x2551 JUMP JUMPDEST PUSH2 0x2740 PUSH1 0x20 DUP4 ADD DUP5 PUSH2 0x25E7 JUMP JUMPDEST SWAP4 SWAP3 POP POP POP JUMP JUMPDEST PUSH0 DUP1 DUP4 PUSH1 0x1F DUP5 ADD SLT PUSH2 0x275C JUMPI PUSH2 0x275B PUSH2 0x260F JUMP JUMPDEST JUMPDEST DUP3 CALLDATALOAD SWAP1 POP PUSH8 0xFFFFFFFFFFFFFFFF DUP2 GT ISZERO PUSH2 0x2779 JUMPI PUSH2 0x2778 PUSH2 0x2613 JUMP JUMPDEST JUMPDEST PUSH1 0x20 DUP4 ADD SWAP2 POP DUP4 PUSH1 0x1 DUP3 MUL DUP4 ADD GT ISZERO PUSH2 0x2795 JUMPI PUSH2 0x2794 PUSH2 0x2617 JUMP JUMPDEST JUMPDEST SWAP3 POP SWAP3 SWAP1 POP JUMP JUMPDEST PUSH0 DUP1 PUSH0 PUSH1 0x40 DUP5 DUP7 SUB SLT ISZERO PUSH2 0x27B3 JUMPI PUSH2 0x27B2 PUSH2 0x24EB JUMP JUMPDEST JUMPDEST PUSH0 DUP5 ADD CALLDATALOAD PUSH8 0xFFFFFFFFFFFFFFFF DUP2 GT ISZERO PUSH2 0x27D0 JUMPI PUSH2 0x27CF PUSH2 0x24EF JUMP JUMPDEST JUMPDEST PUSH2 0x27DC DUP7 DUP3 DUP8 ADD PUSH2 0x2747 JUMP JUMPDEST SWAP4 POP SWAP4 POP POP PUSH1 0x20 PUSH2 0x27EF DUP7 DUP3 DUP8 ADD PUSH2 0x2512 JUMP JUMPDEST SWAP2 POP POP SWAP3 POP SWAP3 POP SWAP3 JUMP JUMPDEST PUSH2 0x2802 DUP2 PUSH2 0x25D6 JUMP JUMPDEST DUP2 EQ PUSH2 0x280C JUMPI PUSH0 DUP1 REVERT JUMPDEST POP JUMP JUMPDEST PUSH0 DUP2 CALLDATALOAD SWAP1 POP PUSH2 0x281D DUP2 PUSH2 0x27F9 JUMP JUMPDEST SWAP3 SWAP2 POP POP JUMP JUMPDEST PUSH0 PUSH1 0x20 DUP3 DUP5 SUB SLT ISZERO PUSH2 0x2838 JUMPI PUSH2 0x2837 PUSH2 0x24EB JUMP JUMPDEST JUMPDEST PUSH0 PUSH2 0x2845 DUP5 DUP3 DUP6 ADD PUSH2 0x280F JUMP JUMPDEST SWAP2 POP POP SWAP3 SWAP2 POP POP JUMP JUMPDEST PUSH0 DUP1 PUSH0 DUP1 PUSH1 0x60 DUP6 DUP8 SUB SLT ISZERO PUSH2 0x2866 JUMPI PUSH2 0x2865 PUSH2 0x24EB JUMP JUMPDEST JUMPDEST PUSH0 PUSH2 0x2873 DUP8 DUP3 DUP9 ADD PUSH2 0x2512 JUMP JUMPDEST SWAP5 POP POP PUSH1 0x20 PUSH2 0x2884 DUP8 DUP3 DUP9 ADD PUSH2 0x2512 JUMP JUMPDEST SWAP4 POP POP PUSH1 0x40 DUP6 ADD CALLDATALOAD PUSH8 0xFFFFFFFFFFFFFFFF DUP2 GT ISZERO PUSH2 0x28A5 JUMPI PUSH2 0x28A4 PUSH2 0x24EF JUMP JUMPDEST JUMPDEST PUSH2 0x28B1 DUP8 DUP3 DUP9 ADD PUSH2 0x2747 JUMP JUMPDEST SWAP3 POP SWAP3 POP POP SWAP3 SWAP6 SWAP2 SWAP5 POP SWAP3 POP JUMP JUMPDEST PUSH0 DUP1 REVERT JUMPDEST PUSH0 PUSH1 0x1F NOT PUSH1 0x1F DUP4 ADD AND SWAP1 POP SWAP2 SWAP1 POP JUMP JUMPDEST PUSH32 0x4E487B7100000000000000000000000000000000000000000000000000000000 PUSH0 MSTORE PUSH1 0x41 PUSH1 0x4 MSTORE PUSH1 0x24 PUSH0 REVERT JUMPDEST PUSH2 0x2909 DUP3 PUSH2 0x28C3 JUMP JUMPDEST DUP2 ADD DUP2 DUP2 LT PUSH8 0xFFFFFFFFFFFFFFFF DUP3 GT OR ISZERO PUSH2 0x2928 JUMPI PUSH2 0x2927 PUSH2 0x28D3 JUMP JUMPDEST JUMPDEST DUP1 PUSH1 0x40 MSTORE POP POP POP JUMP JUMPDEST PUSH0 PUSH2 0x293A PUSH2 0x24E2 JUMP JUMPDEST SWAP1 POP PUSH2 0x2946 DUP3 DUP3 PUSH2 0x2900 JUMP JUMPDEST SWAP2 SWAP1 POP JUMP JUMPDEST PUSH0 PUSH8 0xFFFFFFFFFFFFFFFF DUP3 GT ISZERO PUSH2 0x2965 JUMPI PUSH2 0x2964 PUSH2 0x28D3 JUMP JUMPDEST JUMPDEST PUSH2 0x296E DUP3 PUSH2 0x28C3 JUMP JUMPDEST SWAP1 POP PUSH1 0x20 DUP2 ADD SWAP1 POP SWAP2 SWAP1 POP JUMP JUMPDEST DUP3 DUP2 DUP4 CALLDATACOPY PUSH0 DUP4 DUP4 ADD MSTORE POP POP POP JUMP JUMPDEST PUSH0 PUSH2 0x299B PUSH2 0x2996 DUP5 PUSH2 0x294B JUMP JUMPDEST PUSH2 0x2931 JUMP JUMPDEST SWAP1 POP DUP3 DUP2 MSTORE PUSH1 0x20 DUP2 ADD DUP5 DUP5 DUP5 ADD GT ISZERO PUSH2 0x29B7 JUMPI PUSH2 0x29B6 PUSH2 0x28BF JUMP JUMPDEST JUMPDEST PUSH2 0x29C2 DUP5 DUP3 DUP6 PUSH2 0x297B JUMP JUMPDEST POP SWAP4 SWAP3 POP POP POP JUMP JUMPDEST PUSH0 DUP3 PUSH1 0x1F DUP4 ADD SLT PUSH2 0x29DE JUMPI PUSH2 0x29DD PUSH2 0x260F JUMP JUMPDEST JUMPDEST DUP2 CALLDATALOAD PUSH2 0x29EE DUP5 DUP3 PUSH1 0x20 DUP7 ADD PUSH2 0x2989 JUMP JUMPDEST SWAP2 POP POP SWAP3 SWAP2 POP POP JUMP JUMPDEST PUSH0 DUP1 PUSH0 DUP1 PUSH1 0x80 DUP6 DUP8 SUB SLT ISZERO PUSH2 0x2A0F JUMPI PUSH2 0x2A0E PUSH2 0x24EB JUMP JUMPDEST JUMPDEST PUSH0 PUSH2 0x2A1C DUP8 DUP3 DUP9 ADD PUSH2 0x2512 JUMP JUMPDEST SWAP5 POP POP PUSH1 0x20 PUSH2 0x2A2D DUP8 DUP3 DUP9 ADD PUSH2 0x2512 JUMP JUMPDEST SWAP4 POP POP PUSH1 0x40 DUP6 ADD CALLDATALOAD PUSH8 0xFFFFFFFFFFFFFFFF DUP2 GT ISZERO PUSH2 0x2A4E JUMPI PUSH2 0x2A4D PUSH2 0x24EF JUMP JUMPDEST JUMPDEST PUSH2 0x2A5A DUP8 DUP3 DUP9 ADD PUSH2 0x29CA JUMP JUMPDEST SWAP3 POP POP PUSH1 0x60 PUSH2 0x2A6B DUP8 DUP3 DUP9 ADD PUSH2 0x2512 JUMP JUMPDEST SWAP2 POP POP SWAP3 SWAP6 SWAP2 SWAP5 POP SWAP3 POP JUMP JUMPDEST PUSH0 DUP2 MLOAD SWAP1 POP SWAP2 SWAP1 POP JUMP JUMPDEST PUSH0 DUP3 DUP3 MSTORE PUSH1 0x20 DUP3 ADD SWAP1 POP SWAP3 SWAP2 POP POP JUMP JUMPDEST DUP3 DUP2 DUP4 MCOPY PUSH0 DUP4 DUP4 ADD MSTORE POP POP POP JUMP JUMPDEST PUSH0 PUSH2 0x2AA9 DUP3 PUSH2 0x2A77 JUMP JUMPDEST PUSH2 0x2AB3 DUP2 DUP6 PUSH2 0x2A81 JUMP JUMPDEST SWAP4 POP PUSH2 0x2AC3 DUP2 DUP6 PUSH1 0x20 DUP7 ADD PUSH2 0x2A91 JUMP JUMPDEST PUSH2 0x2ACC DUP2 PUSH2 0x28C3 JUMP JUMPDEST DUP5 ADD SWAP2 POP POP SWAP3 SWAP2 POP POP JUMP JUMPDEST PUSH0 PUSH1 0x80 DUP3 ADD SWAP1 POP PUSH2 0x2AEA PUSH0 DUP4 ADD DUP8 PUSH2 0x2551 JUMP JUMPDEST PUSH2 0x2AF7 PUSH1 0x20 DUP4 ADD DUP7 PUSH2 0x25E7 JUMP JUMPDEST DUP2 DUP2 SUB PUSH1 0x40 DUP4 ADD MSTORE PUSH2 0x2B09 DUP2 DUP6 PUSH2 0x2A9F JUMP JUMPDEST SWAP1 POP PUSH2 0x2B18 PUSH1 0x60 DUP4 ADD DUP5 PUSH2 0x2551 JUMP JUMPDEST SWAP6 SWAP5 POP POP POP POP POP JUMP JUMPDEST PUSH2 0x2B2A DUP2 PUSH2 0x24F3 JUMP JUMPDEST DUP3 MSTORE POP POP JUMP JUMPDEST PUSH2 0x2B39 DUP2 PUSH2 0x25D6 JUMP JUMPDEST DUP3 MSTORE POP POP JUMP JUMPDEST PUSH0 DUP3 DUP3 MSTORE PUSH1 0x20 DUP3 ADD SWAP1 POP SWAP3 SWAP2 POP POP JUMP JUMPDEST PUSH0 PUSH2 0x2B59 DUP3 PUSH2 0x2A77 JUMP JUMPDEST PUSH2 0x2B63 DUP2 DUP6 PUSH2 0x2B3F JUMP JUMPDEST SWAP4 POP PUSH2 0x2B73 DUP2 DUP6 PUSH1 0x20 DUP7 ADD PUSH2 0x2A91 JUMP JUMPDEST PUSH2 0x2B7C DUP2 PUSH2 0x28C3 JUMP JUMPDEST DUP5 ADD SWAP2 POP POP SWAP3 SWAP2 POP POP JUMP JUMPDEST PUSH0 PUSH1 0xA0 DUP4 ADD PUSH0 DUP4 ADD MLOAD PUSH2 0x2B9C PUSH0 DUP7 ADD DUP3 PUSH2 0x2B21 JUMP JUMPDEST POP PUSH1 0x20 DUP4 ADD MLOAD PUSH2 0x2BAF PUSH1 0x20 DUP7 ADD DUP3 PUSH2 0x2B21 JUMP JUMPDEST POP PUSH1 0x40 DUP4 ADD MLOAD PUSH2 0x2BC2 PUSH1 0x40 DUP7 ADD DUP3 PUSH2 0x2B30 JUMP JUMPDEST POP PUSH1 0x60 DUP4 ADD MLOAD DUP5 DUP3 SUB PUSH1 0x60 DUP7 ADD MSTORE PUSH2 0x2BDA DUP3 DUP3 PUSH2 0x2B4F JUMP JUMPDEST SWAP2 POP POP PUSH1 0x80 DUP4 ADD MLOAD PUSH2 0x2BEF PUSH1 0x80 DUP7 ADD DUP3 PUSH2 0x2B21 JUMP JUMPDEST POP DUP1 SWAP2 POP POP SWAP3 SWAP2 POP POP JUMP JUMPDEST PUSH0 PUSH1 0x20 DUP3 ADD SWAP1 POP DUP2 DUP2 SUB PUSH0 DUP4 ADD MSTORE PUSH2 0x2C12 DUP2 DUP5 PUSH2 0x2B87 JUMP JUMPDEST SWAP1 POP SWAP3 SWAP2 POP POP JUMP JUMPDEST PUSH0 PUSH1 0xA0 DUP3 ADD SWAP1 POP PUSH2 0x2C2D PUSH0 DUP4 ADD DUP9 PUSH2 0x2551 JUMP JUMPDEST PUSH2 0x2C3A PUSH1 0x20 DUP4 ADD DUP8 PUSH2 0x2551 JUMP JUMPDEST PUSH2 0x2C47 PUSH1 0x40 DUP4 ADD DUP7 PUSH2 0x2551 JUMP JUMPDEST PUSH2 0x2C54 PUSH1 0x60 DUP4 ADD DUP6 PUSH2 0x25E7 JUMP JUMPDEST DUP2 DUP2 SUB PUSH1 0x80 DUP4 ADD MSTORE PUSH2 0x2C66 DUP2 DUP5 PUSH2 0x2A9F JUMP JUMPDEST SWAP1 POP SWAP7 SWAP6 POP POP POP POP POP POP JUMP JUMPDEST PUSH1 0x40 DUP3 ADD PUSH0 DUP3 ADD MLOAD PUSH2 0x2C86 PUSH0 DUP6 ADD DUP3 PUSH2 0x2B21 JUMP JUMPDEST POP PUSH1 0x20 DUP3 ADD MLOAD PUSH2 0x2C99 PUSH1 0x20 DUP6 ADD DUP3 PUSH2 0x2B30 JUMP JUMPDEST POP POP POP POP JUMP JUMPDEST PUSH0 PUSH1 0x40 DUP3 ADD SWAP1 POP PUSH2 0x2CB2 PUSH0 DUP4 ADD DUP5 PUSH2 0x2C72 JUMP JUMPDEST SWAP3 SWAP2 POP POP JUMP JUMPDEST PUSH0 DUP1 PUSH1 0x40 DUP4 DUP6 SUB SLT ISZERO PUSH2 0x2CCE JUMPI PUSH2 0x2CCD PUSH2 0x24EB JUMP JUMPDEST JUMPDEST PUSH0 PUSH2 0x2CDB DUP6 DUP3 DUP7 ADD PUSH2 0x2512 JUMP JUMPDEST SWAP3 POP POP PUSH1 0x20 DUP4 ADD CALLDATALOAD PUSH8 0xFFFFFFFFFFFFFFFF DUP2 GT ISZERO PUSH2 0x2CFC JUMPI PUSH2 0x2CFB PUSH2 0x24EF JUMP JUMPDEST JUMPDEST PUSH2 0x2D08 DUP6 DUP3 DUP7 ADD PUSH2 0x29CA JUMP JUMPDEST SWAP2 POP POP SWAP3 POP SWAP3 SWAP1 POP JUMP JUMPDEST PUSH0 DUP2 ISZERO ISZERO SWAP1 POP SWAP2 SWAP1 POP JUMP JUMPDEST PUSH2 0x2D26 DUP2 PUSH2 0x2D12 JUMP JUMPDEST DUP3 MSTORE POP POP JUMP JUMPDEST PUSH0 PUSH1 0x20 DUP3 ADD SWAP1 POP PUSH2 0x2D3F PUSH0 DUP4 ADD DUP5 PUSH2 0x2D1D JUMP JUMPDEST SWAP3 SWAP2 POP POP JUMP JUMPDEST PUSH0 PUSH1 0xA0 DUP4 ADD PUSH0 DUP4 ADD MLOAD PUSH2 0x2D5A PUSH0 DUP7 ADD DUP3 PUSH2 0x2B21 JUMP JUMPDEST POP PUSH1 0x20 DUP4 ADD MLOAD PUSH2 0x2D6D PUSH1 0x20 DUP7 ADD DUP3 PUSH2 0x2B21 JUMP JUMPDEST POP PUSH1 0x40 DUP4 ADD MLOAD PUSH2 0x2D80 PUSH1 0x40 DUP7 ADD DUP3 PUSH2 0x2B21 JUMP JUMPDEST POP PUSH1 0x60 DUP4 ADD MLOAD PUSH2 0x2D93 PUSH1 0x60 DUP7 ADD DUP3 PUSH2 0x2B30 JUMP JUMPDEST POP PUSH1 0x80 DUP4 ADD MLOAD DUP5 DUP3 SUB PUSH1 0x80 DUP7 ADD MSTORE PUSH2 0x2DAB DUP3 DUP3 PUSH2 0x2B4F JUMP JUMPDEST SWAP2 POP POP DUP1 SWAP2 POP POP SWAP3 SWAP2 POP POP JUMP JUMPDEST PUSH0 PUSH1 0x20 DUP3 ADD SWAP1 POP DUP2 DUP2 SUB PUSH0 DUP4 ADD MSTORE PUSH2 0x2DD0 DUP2 DUP5 PUSH2 0x2D45 JUMP JUMPDEST SWAP1 POP SWAP3 SWAP2 POP POP JUMP JUMPDEST PUSH0 PUSH1 0x80 DUP4 ADD PUSH0 DUP4 ADD MLOAD PUSH2 0x2DED PUSH0 DUP7 ADD DUP3 PUSH2 0x2B21 JUMP JUMPDEST POP PUSH1 0x20 DUP4 ADD MLOAD PUSH2 0x2E00 PUSH1 0x20 DUP7 ADD DUP3 PUSH2 0x2B30 JUMP JUMPDEST POP PUSH1 0x40 DUP4 ADD MLOAD DUP5 DUP3 SUB PUSH1 0x40 DUP7 ADD MSTORE PUSH2 0x2E18 DUP3 DUP3 PUSH2 0x2B4F JUMP JUMPDEST SWAP2 POP POP PUSH1 0x60 DUP4 ADD MLOAD PUSH2 0x2E2D PUSH1 0x60 DUP7 ADD DUP3 PUSH2 0x2B21 JUMP JUMPDEST POP DUP1 SWAP2 POP POP SWAP3 SWAP2 POP POP JUMP JUMPDEST PUSH0 PUSH1 0x20 DUP3 ADD SWAP1 POP DUP2 DUP2 SUB PUSH0 DUP4 ADD MSTORE PUSH2 0x2E50 DUP2 DUP5 PUSH2 0x2DD8 JUMP JUMPDEST SWAP1 POP SWAP3 SWAP2 POP POP JUMP JUMPDEST PUSH0 PUSH1 0xA0 DUP3 ADD SWAP1 POP PUSH2 0x2E6B PUSH0 DUP4 ADD DUP9 PUSH2 0x2551 JUMP JUMPDEST PUSH2 0x2E78 PUSH1 0x20 DUP4 ADD DUP8 PUSH2 0x2551 JUMP JUMPDEST PUSH2 0x2E85 PUSH1 0x40 DUP4 ADD DUP7 PUSH2 0x25E7 JUMP JUMPDEST DUP2 DUP2 SUB PUSH1 0x60 DUP4 ADD MSTORE PUSH2 0x2E97 DUP2 DUP6 PUSH2 0x2A9F JUMP JUMPDEST SWAP1 POP PUSH2 0x2EA6 PUSH1 0x80 DUP4 ADD DUP5 PUSH2 0x2551 JUMP JUMPDEST SWAP7 SWAP6 POP POP POP POP POP POP JUMP JUMPDEST PUSH0 PUSH1 0x40 DUP3 ADD SWAP1 POP PUSH2 0x2EC3 PUSH0 DUP4 ADD DUP6 PUSH2 0x25E7 JUMP JUMPDEST PUSH2 0x2ED0 PUSH1 0x20 DUP4 ADD DUP5 PUSH2 0x25E7 JUMP JUMPDEST SWAP4 SWAP3 POP POP POP JUMP JUMPDEST PUSH0 PUSH1 0x40 DUP3 ADD SWAP1 POP PUSH2 0x2EEA PUSH0 DUP4 ADD DUP6 PUSH2 0x2551 JUMP JUMPDEST PUSH2 0x2EF7 PUSH1 0x20 DUP4 ADD DUP5 PUSH2 0x2551 JUMP JUMPDEST SWAP4 SWAP3 POP POP POP JUMP JUMPDEST PUSH32 0x4E487B7100000000000000000000000000000000000000000000000000000000 PUSH0 MSTORE PUSH1 0x32 PUSH1 0x4 MSTORE PUSH1 0x24 PUSH0 REVERT JUMPDEST PUSH0 DUP3 DUP3 MSTORE PUSH1 0x20 DUP3 ADD SWAP1 POP SWAP3 SWAP2 POP POP JUMP JUMPDEST PUSH0 DUP1 REVERT JUMPDEST DUP3 DUP2 DUP4 CALLDATACOPY POP POP POP JUMP JUMPDEST PUSH0 PUSH2 0x2F53 DUP4 DUP6 PUSH2 0x2F2B JUMP JUMPDEST SWAP4 POP PUSH32 0x7FFFFFFFFFFFFFFFFFFFFFFFFFFFFFFFFFFFFFFFFFFFFFFFFFFFFFFFFFFFFFF DUP4 GT ISZERO PUSH2 0x2F86 JUMPI PUSH2 0x2F85 PUSH2 0x2F3B JUMP JUMPDEST JUMPDEST PUSH1 0x20 DUP4 MUL SWAP3 POP PUSH2 0x2F97 DUP4 DUP6 DUP5 PUSH2 0x2F3F JUMP JUMPDEST DUP3 DUP5 ADD SWAP1 POP SWAP4 SWAP3 POP POP POP JUMP JUMPDEST PUSH0 PUSH1 0x60 DUP3 ADD SWAP1 POP DUP2 DUP2 SUB PUSH0 DUP4 ADD MSTORE PUSH2 0x2FBC DUP2 DUP9 DUP11 PUSH2 0x2F48 JUMP JUMPDEST SWAP1 POP DUP2 DUP2 SUB PUSH1 0x20 DUP4 ADD MSTORE PUSH2 0x2FD1 DUP2 DUP7 DUP9 PUSH2 0x2F48 JUMP JUMPDEST SWAP1 POP DUP2 DUP2 SUB PUSH1 0x40 DUP4 ADD MSTORE PUSH2 0x2FE6 DUP2 DUP5 DUP7 PUSH2 0x2F48 JUMP JUMPDEST SWAP1 POP SWAP8 SWAP7 POP POP POP POP POP POP POP JUMP JUMPDEST PUSH32 0x4E487B7100000000000000000000000000000000000000000000000000000000 PUSH0 MSTORE PUSH1 0x11 PUSH1 0x4 MSTORE PUSH1 0x24 PUSH0 REVERT JUMPDEST PUSH0 PUSH2 0x302A DUP3 PUSH2 0x24F3 JUMP JUMPDEST SWAP2 POP PUSH2 0x3035 DUP4 PUSH2 0x24F3 JUMP JUMPDEST SWAP3 POP DUP3 DUP3 ADD SWAP1 POP DUP1 DUP3 GT ISZERO PUSH2 0x304D JUMPI PUSH2 0x304C PUSH2 0x2FF3 JUMP JUMPDEST JUMPDEST SWAP3 SWAP2 POP POP JUMP JUMPDEST PUSH0 PUSH1 0x40 DUP3 ADD SWAP1 POP PUSH2 0x3066 PUSH0 DUP4 ADD DUP6 PUSH2 0x25E7 JUMP JUMPDEST PUSH2 0x3073 PUSH1 0x20 DUP4 ADD DUP5 PUSH2 0x2551 JUMP JUMPDEST SWAP4 SWAP3 POP POP POP JUMP JUMPDEST PUSH32 0x4E487B7100000000000000000000000000000000000000000000000000000000 PUSH0 MSTORE PUSH1 0x22 PUSH1 0x4 MSTORE PUSH1 0x24 PUSH0 REVERT JUMPDEST PUSH0 PUSH1 0x2 DUP3 DIV SWAP1 POP PUSH1 0x1 DUP3 AND DUP1 PUSH2 0x30BE JUMPI PUSH1 0x7F DUP3 AND SWAP2 POP JUMPDEST PUSH1 0x20 DUP3 LT DUP2 SUB PUSH2 0x30D1 JUMPI PUSH2 0x30D0 PUSH2 0x307A JUMP JUMPDEST JUMPDEST POP SWAP2 SWAP1 POP JUMP JUMPDEST PUSH0 DUP2 SWAP1 POP DUP2 PUSH0 MSTORE PUSH1 0x20 PUSH0 KECCAK256 SWAP1 POP SWAP2 SWAP1 POP JUMP JUMPDEST PUSH0 PUSH1 0x20 PUSH1 0x1F DUP4 ADD DIV SWAP1 POP SWAP2 SWAP1 POP JUMP JUMPDEST PUSH0 DUP3 DUP3 SHL SWAP1 POP SWAP3 SWAP2 POP POP JUMP JUMPDEST PUSH0 PUSH1 0x8 DUP4 MUL PUSH2 0x3133 PUSH32 0xFFFFFFFFFFFFFFFFFFFFFFFFFFFFFFFFFFFFFFFFFFFFFFFFFFFFFFFFFFFFFFFF DUP3 PUSH2 0x30F8 JUMP JUMPDEST PUSH2 0x313D DUP7 DUP4 PUSH2 0x30F8 JUMP JUMPDEST SWAP6 POP DUP1 NOT DUP5 AND SWAP4 POP DUP1 DUP7 AND DUP5 OR SWAP3 POP POP POP SWAP4 SWAP3 POP POP POP JUMP JUMPDEST PUSH0 DUP2 SWAP1 POP SWAP2 SWAP1 POP JUMP JUMPDEST PUSH0 PUSH2 0x3178 PUSH2 0x3173 PUSH2 0x316E DUP5 PUSH2 0x24F3 JUMP JUMPDEST PUSH2 0x3155 JUMP JUMPDEST PUSH2 0x24F3 JUMP JUMPDEST SWAP1 POP SWAP2 SWAP1 POP JUMP JUMPDEST PUSH0 DUP2 SWAP1 POP SWAP2 SWAP1 POP JUMP JUMPDEST PUSH2 0x3191 DUP4 PUSH2 0x315E JUMP JUMPDEST PUSH2 0x31A5 PUSH2 0x319D DUP3 PUSH2 0x317F JUMP JUMPDEST DUP5 DUP5 SLOAD PUSH2 0x3104 JUMP JUMPDEST DUP3 SSTORE POP POP POP POP JUMP JUMPDEST PUSH0 SWAP1 JUMP JUMPDEST PUSH2 0x31B9 PUSH2 0x31AD JUMP JUMPDEST PUSH2 0x31C4 DUP2 DUP5 DUP5 PUSH2 0x3188 JUMP JUMPDEST POP POP POP JUMP JUMPDEST JUMPDEST DUP2 DUP2 LT ISZERO PUSH2 0x31E7 JUMPI PUSH2 0x31DC PUSH0 DUP3 PUSH2 0x31B1 JUMP JUMPDEST PUSH1 0x1 DUP2 ADD SWAP1 POP PUSH2 0x31CA JUMP JUMPDEST POP POP JUMP JUMPDEST PUSH1 0x1F DUP3 GT ISZERO PUSH2 0x322C JUMPI PUSH2 0x31FD DUP2 PUSH2 0x30D7 JUMP JUMPDEST PUSH2 0x3206 DUP5 PUSH2 0x30E9 JUMP JUMPDEST DUP2 ADD PUSH1 0x20 DUP6 LT ISZERO PUSH2 0x3215 JUMPI DUP2 SWAP1 POP JUMPDEST PUSH2 0x3229 PUSH2 0x3221 DUP6 PUSH2 0x30E9 JUMP JUMPDEST DUP4 ADD DUP3 PUSH2 0x31C9 JUMP JUMPDEST POP POP JUMPDEST POP POP POP JUMP JUMPDEST PUSH0 DUP3 DUP3 SHR SWAP1 POP SWAP3 SWAP2 POP POP JUMP JUMPDEST PUSH0 PUSH2 0x324C PUSH0 NOT DUP5 PUSH1 0x8 MUL PUSH2 0x3231 JUMP JUMPDEST NOT DUP1 DUP4 AND SWAP2 POP POP SWAP3 SWAP2 POP POP JUMP JUMPDEST PUSH0 PUSH2 0x3264 DUP4 DUP4 PUSH2 0x323D JUMP JUMPDEST SWAP2 POP DUP3 PUSH1 0x2 MUL DUP3 OR SWAP1 POP SWAP3 SWAP2 POP POP JUMP JUMPDEST PUSH2 0x327D DUP3 PUSH2 0x2A77 JUMP JUMPDEST PUSH8 0xFFFFFFFFFFFFFFFF DUP2 GT ISZERO PUSH2 0x3296 JUMPI PUSH2 0x3295 PUSH2 0x28D3 JUMP JUMPDEST JUMPDEST PUSH2 0x32A0 DUP3 SLOAD PUSH2 0x30A7 JUMP JUMPDEST PUSH2 0x32AB DUP3 DUP3 DUP6 PUSH2 0x31EB JUMP JUMPDEST PUSH0 PUSH1 0x20 SWAP1 POP PUSH1 0x1F DUP4 GT PUSH1 0x1 DUP2 EQ PUSH2 0x32DC JUMPI PUSH0 DUP5 ISZERO PUSH2 0x32CA JUMPI DUP3 DUP8 ADD MLOAD SWAP1 POP JUMPDEST PUSH2 0x32D4 DUP6 DUP3 PUSH2 0x3259 JUMP JUMPDEST DUP7 SSTORE POP PUSH2 0x333B JUMP JUMPDEST PUSH1 0x1F NOT DUP5 AND PUSH2 0x32EA DUP7 PUSH2 0x30D7 JUMP JUMPDEST PUSH0 JUMPDEST DUP3 DUP2 LT ISZERO PUSH2 0x3311 JUMPI DUP5 DUP10 ADD MLOAD DUP3 SSTORE PUSH1 0x1 DUP3 ADD SWAP2 POP PUSH1 0x20 DUP6 ADD SWAP5 POP PUSH1 0x20 DUP2 ADD SWAP1 POP PUSH2 0x32EC JUMP JUMPDEST DUP7 DUP4 LT ISZERO PUSH2 0x332E JUMPI DUP5 DUP10 ADD MLOAD PUSH2 0x332A PUSH1 0x1F DUP10 AND DUP3 PUSH2 0x323D JUMP JUMPDEST DUP4 SSTORE POP JUMPDEST PUSH1 0x1 PUSH1 0x2 DUP9 MUL ADD DUP9 SSTORE POP POP POP JUMPDEST POP POP POP POP POP POP JUMP JUMPDEST PUSH0 PUSH2 0x334D DUP3 PUSH2 0x24F3 JUMP JUMPDEST SWAP2 POP PUSH32 0xFFFFFFFFFFFFFFFFFFFFFFFFFFFFFFFFFFFFFFFFFFFFFFFFFFFFFFFFFFFFFFFF DUP3 SUB PUSH2 0x337F JUMPI PUSH2 0x337E PUSH2 0x2FF3 JUMP JUMPDEST JUMPDEST PUSH1 0x1 DUP3 ADD SWAP1 POP SWAP2 SWAP1 POP JUMP JUMPDEST PUSH0 PUSH1 0x60 DUP3 ADD SWAP1 POP PUSH2 0x339D PUSH0 DUP4 ADD DUP7 PUSH2 0x25E7 JUMP JUMPDEST PUSH2 0x33AA PUSH1 0x20 DUP4 ADD DUP6 PUSH2 0x2551 JUMP JUMPDEST PUSH2 0x33B7 PUSH1 0x40 DUP4 ADD DUP5 PUSH2 0x2551 JUMP JUMPDEST SWAP5 SWAP4 POP POP POP POP JUMP JUMPDEST PUSH0 PUSH1 0x40 DUP3 ADD SWAP1 POP PUSH2 0x33D2 PUSH0 DUP4 ADD DUP6 PUSH2 0x2551 JUMP JUMPDEST DUP2 DUP2 SUB PUSH1 0x20 DUP4 ADD MSTORE PUSH2 0x33E4 DUP2 DUP5 PUSH2 0x2A9F JUMP JUMPDEST SWAP1 POP SWAP4 SWAP3 POP POP POP JUMP JUMPDEST PUSH0 PUSH1 0x60 DUP3 ADD SWAP1 POP PUSH2 0x3400 PUSH0 DUP4 ADD DUP7 PUSH2 0x2551 JUMP JUMPDEST PUSH2 0x340D PUSH1 0x20 DUP4 ADD DUP6 PUSH2 0x2551 JUMP JUMPDEST PUSH2 0x341A PUSH1 0x40 DUP4 ADD DUP5 PUSH2 0x2551 JUMP JUMPDEST SWAP5 SWAP4 POP POP POP POP JUMP JUMPDEST PUSH32 0x4E487B7100000000000000000000000000000000000000000000000000000000 PUSH0 MSTORE PUSH1 0x12 PUSH1 0x4 MSTORE PUSH1 0x24 PUSH0 REVERT INVALID LOG2 PUSH5 0x6970667358 0x22 SLT KECCAK256 DELEGATECALL 0xAD DUP15 0xEF PUSH23 0x8BCBB9E67C880F6D7B8F62C4B06E953A932D3697B77DB0 PUSH13 0x379F4F64736F6C634300081900 CALLER "
				},
				"gasEstimates": {
					"creation": {
						"codeDepositCost": "2689000",
						"executionCost": "infinite",
						"totalCost": "infinite"
					},
					"external": {
						"botHandleRegistry(uint256)": "2830",
						"bots(uint256)": "infinite",
						"checkIfBotTokenIssued(uint256)": "2963",
						"createBot(uint256,uint256,string,uint256)": "infinite",
						"followBot(uint256)": "infinite",
						"getBotInfo(uint256)": "infinite",
						"getBotModelManagerId(uint256)": "infinite",
						"getBotOwner(uint256)": "infinite",
						"getBotPrice(uint256)": "infinite",
						"getModelInfo(uint256)": "infinite",
						"getModelManagerInfo(uint256)": "infinite",
						"getModelManagerModelId(uint256)": "infinite",
						"getModelManagerSubnetId(uint256)": "infinite",
						"getModelPrice(uint256)": "infinite",
						"getSubnetInfo(uint256)": "infinite",
						"getSubnetOwner(uint256)": "infinite",
						"issuance(uint256)": "2918",
						"modelManagers(uint256)": "infinite",
						"models(uint256)": "infinite",
						"owner()": "2582",
						"payForBot(uint256)": "infinite",
						"registerModel(string,uint256)": "infinite",
						"registerModelManager(uint256,uint256,string)": "infinite",
						"registerSubnet()": "infinite",
						"renounceOwnership()": "infinite",
						"reward(address)": "2847",
						"setBotPrice(uint256,uint256)": "infinite",
						"setModelManagerUrl(uint256,string)": "infinite",
						"setModelPrice(uint256,uint256)": "infinite",
						"submitServiceProof(uint256[],uint256[],uint256[])": "infinite",
						"subnets(uint256)": "infinite",
						"transferOwnership(address)": "infinite",
						"usersBalance(address)": "2892"
					},
					"internal": {
						"_checkBotHandle(uint256)": "infinite",
						"_checkModelId(uint256)": "infinite",
						"_checkModelManagerId(uint256)": "infinite",
						"_checkServiceProof(uint256[] memory,uint256[] memory,uint256[] memory)": "infinite",
						"_checkSubnetId(uint256)": "infinite",
						"_rewardCalculation(uint256,uint256,uint256)": "infinite"
					}
				},
				"methodIdentifiers": {
					"botHandleRegistry(uint256)": "d18c2e5f",
					"bots(uint256)": "f221ddb9",
					"checkIfBotTokenIssued(uint256)": "f568d4e4",
					"createBot(uint256,uint256,string,uint256)": "69c355d8",
					"followBot(uint256)": "d941db2d",
					"getBotInfo(uint256)": "76be4d84",
					"getBotModelManagerId(uint256)": "d5cb03ab",
					"getBotOwner(uint256)": "81a43b42",
					"getBotPrice(uint256)": "805fa873",
					"getModelInfo(uint256)": "efb66ee8",
					"getModelManagerInfo(uint256)": "eec49b4d",
					"getModelManagerModelId(uint256)": "3aa4a4ad",
					"getModelManagerSubnetId(uint256)": "0d8735d4",
					"getModelPrice(uint256)": "5b1b4e8e",
					"getSubnetInfo(uint256)": "91e359c4",
					"getSubnetOwner(uint256)": "e60d34d7",
					"issuance(uint256)": "248b761e",
					"modelManagers(uint256)": "846786d1",
					"models(uint256)": "6a030ca9",
					"owner()": "8da5cb5b",
					"payForBot(uint256)": "3d09f98b",
					"registerModel(string,uint256)": "49bd293e",
					"registerModelManager(uint256,uint256,string)": "65a20227",
					"registerSubnet()": "49efec4f",
					"renounceOwnership()": "715018a6",
					"reward(address)": "6353586b",
					"setBotPrice(uint256,uint256)": "4c6da25d",
					"setModelManagerUrl(uint256,string)": "a684fa5d",
					"setModelPrice(uint256,uint256)": "2210d31e",
					"submitServiceProof(uint256[],uint256[],uint256[])": "30d5023f",
					"subnets(uint256)": "475726f7",
					"transferOwnership(address)": "f2fde38b",
					"usersBalance(address)": "58324335"
				}
			},
			"storageLayout": {
				"storage": [
					{
						"astId": 8,
						"contract": "Documents/MagnetAI/OrderSystem/src/MagnetAI.sol:MagnetAI",
						"label": "_owner",
						"offset": 0,
						"slot": "0",
						"type": "t_address"
					},
					{
						"astId": 188,
						"contract": "Documents/MagnetAI/OrderSystem/src/MagnetAI.sol:MagnetAI",
						"label": "_status",
						"offset": 0,
						"slot": "1",
						"type": "t_uint256"
					},
					{
						"astId": 1314,
						"contract": "Documents/MagnetAI/OrderSystem/src/MagnetAI.sol:MagnetAI",
						"label": "_modelIdNonce",
						"offset": 0,
						"slot": "2",
						"type": "t_uint256"
					},
					{
						"astId": 1316,
						"contract": "Documents/MagnetAI/OrderSystem/src/MagnetAI.sol:MagnetAI",
						"label": "_subnetIdNounce",
						"offset": 0,
						"slot": "3",
						"type": "t_uint256"
					},
					{
						"astId": 1318,
						"contract": "Documents/MagnetAI/OrderSystem/src/MagnetAI.sol:MagnetAI",
						"label": "_modelManagerIdNounce",
						"offset": 0,
						"slot": "4",
						"type": "t_uint256"
					},
					{
						"astId": 1323,
						"contract": "Documents/MagnetAI/OrderSystem/src/MagnetAI.sol:MagnetAI",
						"label": "models",
						"offset": 0,
						"slot": "5",
						"type": "t_mapping(t_uint256,t_struct(AIModel)2248_storage)"
					},
					{
						"astId": 1328,
						"contract": "Documents/MagnetAI/OrderSystem/src/MagnetAI.sol:MagnetAI",
						"label": "subnets",
						"offset": 0,
						"slot": "6",
						"type": "t_mapping(t_uint256,t_struct(Subnet)2253_storage)"
					},
					{
						"astId": 1333,
						"contract": "Documents/MagnetAI/OrderSystem/src/MagnetAI.sol:MagnetAI",
						"label": "modelManagers",
						"offset": 0,
						"slot": "7",
						"type": "t_mapping(t_uint256,t_struct(ModelManager)2264_storage)"
					},
					{
						"astId": 1338,
						"contract": "Documents/MagnetAI/OrderSystem/src/MagnetAI.sol:MagnetAI",
						"label": "bots",
						"offset": 0,
						"slot": "8",
						"type": "t_mapping(t_uint256,t_struct(Bot)2275_storage)"
					},
					{
						"astId": 1342,
						"contract": "Documents/MagnetAI/OrderSystem/src/MagnetAI.sol:MagnetAI",
						"label": "botHandleRegistry",
						"offset": 0,
						"slot": "9",
						"type": "t_mapping(t_uint256,t_bool)"
					},
					{
						"astId": 1346,
						"contract": "Documents/MagnetAI/OrderSystem/src/MagnetAI.sol:MagnetAI",
						"label": "usersBalance",
						"offset": 0,
						"slot": "10",
						"type": "t_mapping(t_address,t_uint256)"
					},
					{
						"astId": 1350,
						"contract": "Documents/MagnetAI/OrderSystem/src/MagnetAI.sol:MagnetAI",
						"label": "issuance",
						"offset": 0,
						"slot": "11",
						"type": "t_mapping(t_uint256,t_address)"
					},
					{
						"astId": 1354,
						"contract": "Documents/MagnetAI/OrderSystem/src/MagnetAI.sol:MagnetAI",
						"label": "reward",
						"offset": 0,
						"slot": "12",
						"type": "t_mapping(t_address,t_uint256)"
					}
				],
				"types": {
					"t_address": {
						"encoding": "inplace",
						"label": "address",
						"numberOfBytes": "20"
					},
					"t_bool": {
						"encoding": "inplace",
						"label": "bool",
						"numberOfBytes": "1"
					},
					"t_mapping(t_address,t_uint256)": {
						"encoding": "mapping",
						"key": "t_address",
						"label": "mapping(address => uint256)",
						"numberOfBytes": "32",
						"value": "t_uint256"
					},
					"t_mapping(t_uint256,t_address)": {
						"encoding": "mapping",
						"key": "t_uint256",
						"label": "mapping(uint256 => address)",
						"numberOfBytes": "32",
						"value": "t_address"
					},
					"t_mapping(t_uint256,t_bool)": {
						"encoding": "mapping",
						"key": "t_uint256",
						"label": "mapping(uint256 => bool)",
						"numberOfBytes": "32",
						"value": "t_bool"
					},
					"t_mapping(t_uint256,t_struct(AIModel)2248_storage)": {
						"encoding": "mapping",
						"key": "t_uint256",
						"label": "mapping(uint256 => struct IMagnetAI.AIModel)",
						"numberOfBytes": "32",
						"value": "t_struct(AIModel)2248_storage"
					},
					"t_mapping(t_uint256,t_struct(Bot)2275_storage)": {
						"encoding": "mapping",
						"key": "t_uint256",
						"label": "mapping(uint256 => struct IMagnetAI.Bot)",
						"numberOfBytes": "32",
						"value": "t_struct(Bot)2275_storage"
					},
					"t_mapping(t_uint256,t_struct(ModelManager)2264_storage)": {
						"encoding": "mapping",
						"key": "t_uint256",
						"label": "mapping(uint256 => struct IMagnetAI.ModelManager)",
						"numberOfBytes": "32",
						"value": "t_struct(ModelManager)2264_storage"
					},
					"t_mapping(t_uint256,t_struct(Subnet)2253_storage)": {
						"encoding": "mapping",
						"key": "t_uint256",
						"label": "mapping(uint256 => struct IMagnetAI.Subnet)",
						"numberOfBytes": "32",
						"value": "t_struct(Subnet)2253_storage"
					},
					"t_string_storage": {
						"encoding": "bytes",
						"label": "string",
						"numberOfBytes": "32"
					},
					"t_struct(AIModel)2248_storage": {
						"encoding": "inplace",
						"label": "struct IMagnetAI.AIModel",
						"members": [
							{
								"astId": 2241,
								"contract": "Documents/MagnetAI/OrderSystem/src/MagnetAI.sol:MagnetAI",
								"label": "modelId",
								"offset": 0,
								"slot": "0",
								"type": "t_uint256"
							},
							{
								"astId": 2243,
								"contract": "Documents/MagnetAI/OrderSystem/src/MagnetAI.sol:MagnetAI",
								"label": "owner",
								"offset": 0,
								"slot": "1",
								"type": "t_address"
							},
							{
								"astId": 2245,
								"contract": "Documents/MagnetAI/OrderSystem/src/MagnetAI.sol:MagnetAI",
								"label": "metadata",
								"offset": 0,
								"slot": "2",
								"type": "t_string_storage"
							},
							{
								"astId": 2247,
								"contract": "Documents/MagnetAI/OrderSystem/src/MagnetAI.sol:MagnetAI",
								"label": "price",
								"offset": 0,
								"slot": "3",
								"type": "t_uint256"
							}
						],
						"numberOfBytes": "128"
					},
					"t_struct(Bot)2275_storage": {
						"encoding": "inplace",
						"label": "struct IMagnetAI.Bot",
						"members": [
							{
								"astId": 2266,
								"contract": "Documents/MagnetAI/OrderSystem/src/MagnetAI.sol:MagnetAI",
								"label": "botHandle",
								"offset": 0,
								"slot": "0",
								"type": "t_uint256"
							},
							{
								"astId": 2268,
								"contract": "Documents/MagnetAI/OrderSystem/src/MagnetAI.sol:MagnetAI",
								"label": "modelManagerId",
								"offset": 0,
								"slot": "1",
								"type": "t_uint256"
							},
							{
								"astId": 2270,
								"contract": "Documents/MagnetAI/OrderSystem/src/MagnetAI.sol:MagnetAI",
								"label": "owner",
								"offset": 0,
								"slot": "2",
								"type": "t_address"
							},
							{
								"astId": 2272,
								"contract": "Documents/MagnetAI/OrderSystem/src/MagnetAI.sol:MagnetAI",
								"label": "metadata",
								"offset": 0,
								"slot": "3",
								"type": "t_string_storage"
							},
							{
								"astId": 2274,
								"contract": "Documents/MagnetAI/OrderSystem/src/MagnetAI.sol:MagnetAI",
								"label": "price",
								"offset": 0,
								"slot": "4",
								"type": "t_uint256"
							}
						],
						"numberOfBytes": "160"
					},
					"t_struct(ModelManager)2264_storage": {
						"encoding": "inplace",
						"label": "struct IMagnetAI.ModelManager",
						"members": [
							{
								"astId": 2255,
								"contract": "Documents/MagnetAI/OrderSystem/src/MagnetAI.sol:MagnetAI",
								"label": "modelManagerId",
								"offset": 0,
								"slot": "0",
								"type": "t_uint256"
							},
							{
								"astId": 2257,
								"contract": "Documents/MagnetAI/OrderSystem/src/MagnetAI.sol:MagnetAI",
								"label": "subnetId",
								"offset": 0,
								"slot": "1",
								"type": "t_uint256"
							},
							{
								"astId": 2259,
								"contract": "Documents/MagnetAI/OrderSystem/src/MagnetAI.sol:MagnetAI",
								"label": "modelId",
								"offset": 0,
								"slot": "2",
								"type": "t_uint256"
							},
							{
								"astId": 2261,
								"contract": "Documents/MagnetAI/OrderSystem/src/MagnetAI.sol:MagnetAI",
								"label": "owner",
								"offset": 0,
								"slot": "3",
								"type": "t_address"
							},
							{
								"astId": 2263,
								"contract": "Documents/MagnetAI/OrderSystem/src/MagnetAI.sol:MagnetAI",
								"label": "url",
								"offset": 0,
								"slot": "4",
								"type": "t_string_storage"
							}
						],
						"numberOfBytes": "160"
					},
					"t_struct(Subnet)2253_storage": {
						"encoding": "inplace",
						"label": "struct IMagnetAI.Subnet",
						"members": [
							{
								"astId": 2250,
								"contract": "Documents/MagnetAI/OrderSystem/src/MagnetAI.sol:MagnetAI",
								"label": "subnetId",
								"offset": 0,
								"slot": "0",
								"type": "t_uint256"
							},
							{
								"astId": 2252,
								"contract": "Documents/MagnetAI/OrderSystem/src/MagnetAI.sol:MagnetAI",
								"label": "owner",
								"offset": 0,
								"slot": "1",
								"type": "t_address"
							}
						],
						"numberOfBytes": "64"
					},
					"t_uint256": {
						"encoding": "inplace",
						"label": "uint256",
						"numberOfBytes": "32"
					}
				}
			},
			"userdoc": {
				"kind": "user",
				"methods": {},
				"version": 1
			}
		}
	}
}